{
  "_format": "hh-sol-artifact-1",
  "contractName": "ERC20VotesMock",
  "sourceName": "contracts/openzeppelin-contracts/mocks/ERC20VotesMock.sol",
  "abi": [
    {
      "inputs": [
        {
          "internalType": "string",
          "name": "name",
          "type": "string"
        },
        {
          "internalType": "string",
          "name": "symbol",
          "type": "string"
        }
      ],
      "stateMutability": "nonpayable",
      "type": "constructor"
    },
    {
      "anonymous": false,
      "inputs": [
        {
          "indexed": true,
          "internalType": "address",
          "name": "owner",
          "type": "address"
        },
        {
          "indexed": true,
          "internalType": "address",
          "name": "spender",
          "type": "address"
        },
        {
          "indexed": false,
          "internalType": "uint256",
          "name": "value",
          "type": "uint256"
        }
      ],
      "name": "Approval",
      "type": "event"
    },
    {
      "anonymous": false,
      "inputs": [
        {
          "indexed": true,
          "internalType": "address",
          "name": "delegator",
          "type": "address"
        },
        {
          "indexed": true,
          "internalType": "address",
          "name": "fromDelegate",
          "type": "address"
        },
        {
          "indexed": true,
          "internalType": "address",
          "name": "toDelegate",
          "type": "address"
        }
      ],
      "name": "DelegateChanged",
      "type": "event"
    },
    {
      "anonymous": false,
      "inputs": [
        {
          "indexed": true,
          "internalType": "address",
          "name": "delegate",
          "type": "address"
        },
        {
          "indexed": false,
          "internalType": "uint256",
          "name": "previousBalance",
          "type": "uint256"
        },
        {
          "indexed": false,
          "internalType": "uint256",
          "name": "newBalance",
          "type": "uint256"
        }
      ],
      "name": "DelegateVotesChanged",
      "type": "event"
    },
    {
      "anonymous": false,
      "inputs": [
        {
          "indexed": true,
          "internalType": "address",
          "name": "from",
          "type": "address"
        },
        {
          "indexed": true,
          "internalType": "address",
          "name": "to",
          "type": "address"
        },
        {
          "indexed": false,
          "internalType": "uint256",
          "name": "value",
          "type": "uint256"
        }
      ],
      "name": "Transfer",
      "type": "event"
    },
    {
      "inputs": [],
      "name": "DOMAIN_SEPARATOR",
      "outputs": [
        {
          "internalType": "bytes32",
          "name": "",
          "type": "bytes32"
        }
      ],
      "stateMutability": "view",
      "type": "function"
    },
    {
      "inputs": [
        {
          "internalType": "address",
          "name": "owner",
          "type": "address"
        },
        {
          "internalType": "address",
          "name": "spender",
          "type": "address"
        }
      ],
      "name": "allowance",
      "outputs": [
        {
          "internalType": "uint256",
          "name": "",
          "type": "uint256"
        }
      ],
      "stateMutability": "view",
      "type": "function"
    },
    {
      "inputs": [
        {
          "internalType": "address",
          "name": "spender",
          "type": "address"
        },
        {
          "internalType": "uint256",
          "name": "amount",
          "type": "uint256"
        }
      ],
      "name": "approve",
      "outputs": [
        {
          "internalType": "bool",
          "name": "",
          "type": "bool"
        }
      ],
      "stateMutability": "nonpayable",
      "type": "function"
    },
    {
      "inputs": [
        {
          "internalType": "address",
          "name": "account",
          "type": "address"
        }
      ],
      "name": "balanceOf",
      "outputs": [
        {
          "internalType": "uint256",
          "name": "",
          "type": "uint256"
        }
      ],
      "stateMutability": "view",
      "type": "function"
    },
    {
      "inputs": [
        {
          "internalType": "address",
          "name": "account",
          "type": "address"
        },
        {
          "internalType": "uint256",
          "name": "amount",
          "type": "uint256"
        }
      ],
      "name": "burn",
      "outputs": [],
      "stateMutability": "nonpayable",
      "type": "function"
    },
    {
      "inputs": [
        {
          "internalType": "address",
          "name": "account",
          "type": "address"
        },
        {
          "internalType": "uint32",
          "name": "pos",
          "type": "uint32"
        }
      ],
      "name": "checkpoints",
      "outputs": [
        {
          "components": [
            {
              "internalType": "uint32",
              "name": "fromBlock",
              "type": "uint32"
            },
            {
              "internalType": "uint224",
              "name": "votes",
              "type": "uint224"
            }
          ],
          "internalType": "struct ERC20Votes.Checkpoint",
          "name": "",
          "type": "tuple"
        }
      ],
      "stateMutability": "view",
      "type": "function"
    },
    {
      "inputs": [],
      "name": "decimals",
      "outputs": [
        {
          "internalType": "uint8",
          "name": "",
          "type": "uint8"
        }
      ],
      "stateMutability": "view",
      "type": "function"
    },
    {
      "inputs": [
        {
          "internalType": "address",
          "name": "spender",
          "type": "address"
        },
        {
          "internalType": "uint256",
          "name": "subtractedValue",
          "type": "uint256"
        }
      ],
      "name": "decreaseAllowance",
      "outputs": [
        {
          "internalType": "bool",
          "name": "",
          "type": "bool"
        }
      ],
      "stateMutability": "nonpayable",
      "type": "function"
    },
    {
      "inputs": [
        {
          "internalType": "address",
          "name": "delegatee",
          "type": "address"
        }
      ],
      "name": "delegate",
      "outputs": [],
      "stateMutability": "nonpayable",
      "type": "function"
    },
    {
      "inputs": [
        {
          "internalType": "address",
          "name": "delegatee",
          "type": "address"
        },
        {
          "internalType": "uint256",
          "name": "nonce",
          "type": "uint256"
        },
        {
          "internalType": "uint256",
          "name": "expiry",
          "type": "uint256"
        },
        {
          "internalType": "uint8",
          "name": "v",
          "type": "uint8"
        },
        {
          "internalType": "bytes32",
          "name": "r",
          "type": "bytes32"
        },
        {
          "internalType": "bytes32",
          "name": "s",
          "type": "bytes32"
        }
      ],
      "name": "delegateBySig",
      "outputs": [],
      "stateMutability": "nonpayable",
      "type": "function"
    },
    {
      "inputs": [
        {
          "internalType": "address",
          "name": "account",
          "type": "address"
        }
      ],
      "name": "delegates",
      "outputs": [
        {
          "internalType": "address",
          "name": "",
          "type": "address"
        }
      ],
      "stateMutability": "view",
      "type": "function"
    },
    {
      "inputs": [],
      "name": "getChainId",
      "outputs": [
        {
          "internalType": "uint256",
          "name": "",
          "type": "uint256"
        }
      ],
      "stateMutability": "view",
      "type": "function"
    },
    {
      "inputs": [
        {
          "internalType": "uint256",
          "name": "blockNumber",
          "type": "uint256"
        }
      ],
      "name": "getPastTotalSupply",
      "outputs": [
        {
          "internalType": "uint256",
          "name": "",
          "type": "uint256"
        }
      ],
      "stateMutability": "view",
      "type": "function"
    },
    {
      "inputs": [
        {
          "internalType": "address",
          "name": "account",
          "type": "address"
        },
        {
          "internalType": "uint256",
          "name": "blockNumber",
          "type": "uint256"
        }
      ],
      "name": "getPastVotes",
      "outputs": [
        {
          "internalType": "uint256",
          "name": "",
          "type": "uint256"
        }
      ],
      "stateMutability": "view",
      "type": "function"
    },
    {
      "inputs": [
        {
          "internalType": "address",
          "name": "account",
          "type": "address"
        }
      ],
      "name": "getVotes",
      "outputs": [
        {
          "internalType": "uint256",
          "name": "",
          "type": "uint256"
        }
      ],
      "stateMutability": "view",
      "type": "function"
    },
    {
      "inputs": [
        {
          "internalType": "address",
          "name": "spender",
          "type": "address"
        },
        {
          "internalType": "uint256",
          "name": "addedValue",
          "type": "uint256"
        }
      ],
      "name": "increaseAllowance",
      "outputs": [
        {
          "internalType": "bool",
          "name": "",
          "type": "bool"
        }
      ],
      "stateMutability": "nonpayable",
      "type": "function"
    },
    {
      "inputs": [
        {
          "internalType": "address",
          "name": "account",
          "type": "address"
        },
        {
          "internalType": "uint256",
          "name": "amount",
          "type": "uint256"
        }
      ],
      "name": "mint",
      "outputs": [],
      "stateMutability": "nonpayable",
      "type": "function"
    },
    {
      "inputs": [],
      "name": "name",
      "outputs": [
        {
          "internalType": "string",
          "name": "",
          "type": "string"
        }
      ],
      "stateMutability": "view",
      "type": "function"
    },
    {
      "inputs": [
        {
          "internalType": "address",
          "name": "owner",
          "type": "address"
        }
      ],
      "name": "nonces",
      "outputs": [
        {
          "internalType": "uint256",
          "name": "",
          "type": "uint256"
        }
      ],
      "stateMutability": "view",
      "type": "function"
    },
    {
      "inputs": [
        {
          "internalType": "address",
          "name": "account",
          "type": "address"
        }
      ],
      "name": "numCheckpoints",
      "outputs": [
        {
          "internalType": "uint32",
          "name": "",
          "type": "uint32"
        }
      ],
      "stateMutability": "view",
      "type": "function"
    },
    {
      "inputs": [
        {
          "internalType": "address",
          "name": "owner",
          "type": "address"
        },
        {
          "internalType": "address",
          "name": "spender",
          "type": "address"
        },
        {
          "internalType": "uint256",
          "name": "value",
          "type": "uint256"
        },
        {
          "internalType": "uint256",
          "name": "deadline",
          "type": "uint256"
        },
        {
          "internalType": "uint8",
          "name": "v",
          "type": "uint8"
        },
        {
          "internalType": "bytes32",
          "name": "r",
          "type": "bytes32"
        },
        {
          "internalType": "bytes32",
          "name": "s",
          "type": "bytes32"
        }
      ],
      "name": "permit",
      "outputs": [],
      "stateMutability": "nonpayable",
      "type": "function"
    },
    {
      "inputs": [],
      "name": "symbol",
      "outputs": [
        {
          "internalType": "string",
          "name": "",
          "type": "string"
        }
      ],
      "stateMutability": "view",
      "type": "function"
    },
    {
      "inputs": [],
      "name": "totalSupply",
      "outputs": [
        {
          "internalType": "uint256",
          "name": "",
          "type": "uint256"
        }
      ],
      "stateMutability": "view",
      "type": "function"
    },
    {
      "inputs": [
        {
          "internalType": "address",
          "name": "to",
          "type": "address"
        },
        {
          "internalType": "uint256",
          "name": "amount",
          "type": "uint256"
        }
      ],
      "name": "transfer",
      "outputs": [
        {
          "internalType": "bool",
          "name": "",
          "type": "bool"
        }
      ],
      "stateMutability": "nonpayable",
      "type": "function"
    },
    {
      "inputs": [
        {
          "internalType": "address",
          "name": "from",
          "type": "address"
        },
        {
          "internalType": "address",
          "name": "to",
          "type": "address"
        },
        {
          "internalType": "uint256",
          "name": "amount",
          "type": "uint256"
        }
      ],
      "name": "transferFrom",
      "outputs": [
        {
          "internalType": "bool",
          "name": "",
          "type": "bool"
        }
      ],
      "stateMutability": "nonpayable",
      "type": "function"
    }
  ],
  "bytecode": "0x6101406040523480156200001257600080fd5b50604051620040c4380380620040c48339818101604052810190620000389190620003ea565b81806040518060400160405280600181526020017f3100000000000000000000000000000000000000000000000000000000000000815250848481600390805190602001906200008a9291906200019d565b508060049080519060200190620000a39291906200019d565b50505060008280519060200120905060008280519060200120905060007f8b73c3c69bb8fe3d512ecc4cf759cc79239f7b179b0ffacaa9a75d522b39400f90508260e081815250508161010081815250504660a081815250506200010f8184846200016160201b60201c565b608081815250503073ffffffffffffffffffffffffffffffffffffffff1660c08173ffffffffffffffffffffffffffffffffffffffff16815250508061012081815250505050505050505050620005ac565b600083838346306040516020016200017e959493929190620004ea565b6040516020818303038152906040528051906020012090509392505050565b828054620001ab9062000576565b90600052602060002090601f016020900481019282620001cf57600085556200021b565b82601f10620001ea57805160ff19168380011785556200021b565b828001600101855582156200021b579182015b828111156200021a578251825591602001919060010190620001fd565b5b5090506200022a91906200022e565b5090565b5b80821115620002495760008160009055506001016200022f565b5090565b6000604051905090565b600080fd5b600080fd5b600080fd5b600080fd5b6000601f19601f8301169050919050565b7f4e487b7100000000000000000000000000000000000000000000000000000000600052604160045260246000fd5b620002b6826200026b565b810181811067ffffffffffffffff82111715620002d857620002d76200027c565b5b80604052505050565b6000620002ed6200024d565b9050620002fb8282620002ab565b919050565b600067ffffffffffffffff8211156200031e576200031d6200027c565b5b62000329826200026b565b9050602081019050919050565b60005b838110156200035657808201518184015260208101905062000339565b8381111562000366576000848401525b50505050565b6000620003836200037d8462000300565b620002e1565b905082815260208101848484011115620003a257620003a162000266565b5b620003af84828562000336565b509392505050565b600082601f830112620003cf57620003ce62000261565b5b8151620003e18482602086016200036c565b91505092915050565b6000806040838503121562000404576200040362000257565b5b600083015167ffffffffffffffff8111156200042557620004246200025c565b5b6200043385828601620003b7565b925050602083015167ffffffffffffffff8111156200045757620004566200025c565b5b6200046585828601620003b7565b9150509250929050565b6000819050919050565b62000484816200046f565b82525050565b6000819050919050565b6200049f816200048a565b82525050565b600073ffffffffffffffffffffffffffffffffffffffff82169050919050565b6000620004d282620004a5565b9050919050565b620004e481620004c5565b82525050565b600060a08201905062000501600083018862000479565b62000510602083018762000479565b6200051f604083018662000479565b6200052e606083018562000494565b6200053d6080830184620004d9565b9695505050505050565b7f4e487b7100000000000000000000000000000000000000000000000000000000600052602260045260246000fd5b600060028204905060018216806200058f57607f821691505b60208210811415620005a657620005a562000547565b5b50919050565b60805160a05160c05160e0516101005161012051613ac8620005fc60003960006114ab015260006114ed015260006114cc0152600061140101526000611457015260006114800152613ac86000f3fe608060405234801561001057600080fd5b50600436106101735760003560e01c80636fcfff45116100de5780639dc29fac11610097578063c3cda52011610071578063c3cda520146104c0578063d505accf146104dc578063dd62ed3e146104f8578063f1127ed81461052857610173565b80639dc29fac14610444578063a457c2d714610460578063a9059cbb1461049057610173565b80636fcfff451461033657806370a08231146103665780637ecebe00146103965780638e539e8c146103c657806395d89b41146103f65780639ab24eb01461041457610173565b80633644e515116101305780633644e51514610250578063395093511461026e5780633a46b1a81461029e57806340c10f19146102ce578063587cde1e146102ea5780635c19a95c1461031a57610173565b806306fdde0314610178578063095ea7b31461019657806318160ddd146101c657806323b872dd146101e4578063313ce567146102145780633408e47014610232575b600080fd5b610180610558565b60405161018d91906125d4565b60405180910390f35b6101b060048036038101906101ab919061268f565b6105ea565b6040516101bd91906126ea565b60405180910390f35b6101ce61060d565b6040516101db9190612714565b60405180910390f35b6101fe60048036038101906101f9919061272f565b610617565b60405161020b91906126ea565b60405180910390f35b61021c610646565b604051610229919061279e565b60405180910390f35b61023a61064f565b6040516102479190612714565b60405180910390f35b610258610657565b60405161026591906127d2565b60405180910390f35b6102886004803603810190610283919061268f565b610666565b60405161029591906126ea565b60405180910390f35b6102b860048036038101906102b3919061268f565b61069d565b6040516102c59190612714565b60405180910390f35b6102e860048036038101906102e3919061268f565b610731565b005b61030460048036038101906102ff91906127ed565b61073f565b6040516103119190612829565b60405180910390f35b610334600480360381019061032f91906127ed565b6107a8565b005b610350600480360381019061034b91906127ed565b6107bc565b60405161035d9190612863565b60405180910390f35b610380600480360381019061037b91906127ed565b610810565b60405161038d9190612714565b60405180910390f35b6103b060048036038101906103ab91906127ed565b610858565b6040516103bd9190612714565b60405180910390f35b6103e060048036038101906103db919061287e565b6108a8565b6040516103ed9190612714565b60405180910390f35b6103fe6108fe565b60405161040b91906125d4565b60405180910390f35b61042e600480360381019061042991906127ed565b610990565b60405161043b9190612714565b60405180910390f35b61045e6004803603810190610459919061268f565b610aa1565b005b61047a6004803603810190610475919061268f565b610aaf565b60405161048791906126ea565b60405180910390f35b6104aa60048036038101906104a5919061268f565b610b26565b6040516104b791906126ea565b60405180910390f35b6104da60048036038101906104d59190612903565b610b49565b005b6104f660048036038101906104f19190612990565b610c4d565b005b610512600480360381019061050d9190612a32565b610d8f565b60405161051f9190612714565b60405180910390f35b610542600480360381019061053d9190612a9e565b610e16565b60405161054f9190612b53565b60405180910390f35b60606003805461056790612b9d565b80601f016020809104026020016040519081016040528092919081815260200182805461059390612b9d565b80156105e05780601f106105b5576101008083540402835291602001916105e0565b820191906000526020600020905b8154815290600101906020018083116105c357829003601f168201915b5050505050905090565b6000806105f5610f26565b9050610602818585610f2e565b600191505092915050565b6000600254905090565b600080610622610f26565b905061062f8582856110f9565b61063a858585611185565b60019150509392505050565b60006012905090565b600046905090565b60006106616113fd565b905090565b600080610671610f26565b90506106928185856106838589610d8f565b61068d9190612bfe565b610f2e565b600191505092915050565b60004382106106e1576040517f08c379a00000000000000000000000000000000000000000000000000000000081526004016106d890612ca0565b60405180910390fd5b610729600860008573ffffffffffffffffffffffffffffffffffffffff1673ffffffffffffffffffffffffffffffffffffffff16815260200190815260200160002083611517565b905092915050565b61073b8282611623565b5050565b6000600760008373ffffffffffffffffffffffffffffffffffffffff1673ffffffffffffffffffffffffffffffffffffffff16815260200190815260200160002060009054906101000a900473ffffffffffffffffffffffffffffffffffffffff169050919050565b6107b96107b3610f26565b826116b0565b50565b6000610809600860008473ffffffffffffffffffffffffffffffffffffffff1673ffffffffffffffffffffffffffffffffffffffff168152602001908152602001600020805490506117ca565b9050919050565b60008060008373ffffffffffffffffffffffffffffffffffffffff1673ffffffffffffffffffffffffffffffffffffffff168152602001908152602001600020549050919050565b60006108a1600560008473ffffffffffffffffffffffffffffffffffffffff1673ffffffffffffffffffffffffffffffffffffffff16815260200190815260200160002061181d565b9050919050565b60004382106108ec576040517f08c379a00000000000000000000000000000000000000000000000000000000081526004016108e390612ca0565b60405180910390fd5b6108f7600983611517565b9050919050565b60606004805461090d90612b9d565b80601f016020809104026020016040519081016040528092919081815260200182805461093990612b9d565b80156109865780601f1061095b57610100808354040283529160200191610986565b820191906000526020600020905b81548152906001019060200180831161096957829003601f168201915b5050505050905090565b600080600860008473ffffffffffffffffffffffffffffffffffffffff1673ffffffffffffffffffffffffffffffffffffffff16815260200190815260200160002080549050905060008114610a7857600860008473ffffffffffffffffffffffffffffffffffffffff1673ffffffffffffffffffffffffffffffffffffffff168152602001908152602001600020600182610a2c9190612cc0565b81548110610a3d57610a3c612cf4565b5b9060005260206000200160000160049054906101000a90047bffffffffffffffffffffffffffffffffffffffffffffffffffffffff16610a7b565b60005b7bffffffffffffffffffffffffffffffffffffffffffffffffffffffff16915050919050565b610aab828261182b565b5050565b600080610aba610f26565b90506000610ac88286610d8f565b905083811015610b0d576040517f08c379a0000000000000000000000000000000000000000000000000000000008152600401610b0490612d95565b60405180910390fd5b610b1a8286868403610f2e565b60019250505092915050565b600080610b31610f26565b9050610b3e818585611185565b600191505092915050565b83421115610b8c576040517f08c379a0000000000000000000000000000000000000000000000000000000008152600401610b8390612e01565b60405180910390fd5b6000610bee610be67fe48329057bfd03d55e49b547132e39cffd9c1820ad7b9d4c5307691425d15adf898989604051602001610bcb9493929190612e21565b60405160208183030381529060405280519060200120611849565b858585611863565b9050610bf98161188e565b8614610c3a576040517f08c379a0000000000000000000000000000000000000000000000000000000008152600401610c3190612eb2565b60405180910390fd5b610c4481886116b0565b50505050505050565b83421115610c90576040517f08c379a0000000000000000000000000000000000000000000000000000000008152600401610c8790612f1e565b60405180910390fd5b60007f6e71edae12b1b97f4d1f60370fef10105fa2faae0126114a169c64845d6126c9888888610cbf8c61188e565b89604051602001610cd596959493929190612f3e565b6040516020818303038152906040528051906020012090506000610cf882611849565b90506000610d0882878787611863565b90508973ffffffffffffffffffffffffffffffffffffffff168173ffffffffffffffffffffffffffffffffffffffff1614610d78576040517f08c379a0000000000000000000000000000000000000000000000000000000008152600401610d6f90612feb565b60405180910390fd5b610d838a8a8a610f2e565b50505050505050505050565b6000600160008473ffffffffffffffffffffffffffffffffffffffff1673ffffffffffffffffffffffffffffffffffffffff16815260200190815260200160002060008373ffffffffffffffffffffffffffffffffffffffff1673ffffffffffffffffffffffffffffffffffffffff16815260200190815260200160002054905092915050565b610e1e6124fd565b600860008473ffffffffffffffffffffffffffffffffffffffff1673ffffffffffffffffffffffffffffffffffffffff1681526020019081526020016000208263ffffffff1681548110610e7557610e74612cf4565b5b906000526020600020016040518060400160405290816000820160009054906101000a900463ffffffff1663ffffffff1663ffffffff1681526020016000820160049054906101000a90047bffffffffffffffffffffffffffffffffffffffffffffffffffffffff167bffffffffffffffffffffffffffffffffffffffffffffffffffffffff167bffffffffffffffffffffffffffffffffffffffffffffffffffffffff1681525050905092915050565b600033905090565b600073ffffffffffffffffffffffffffffffffffffffff168373ffffffffffffffffffffffffffffffffffffffff161415610f9e576040517f08c379a0000000000000000000000000000000000000000000000000000000008152600401610f959061307d565b60405180910390fd5b600073ffffffffffffffffffffffffffffffffffffffff168273ffffffffffffffffffffffffffffffffffffffff16141561100e576040517f08c379a00000000000000000000000000000000000000000000000000000000081526004016110059061310f565b60405180910390fd5b80600160008573ffffffffffffffffffffffffffffffffffffffff1673ffffffffffffffffffffffffffffffffffffffff16815260200190815260200160002060008473ffffffffffffffffffffffffffffffffffffffff1673ffffffffffffffffffffffffffffffffffffffff168152602001908152602001600020819055508173ffffffffffffffffffffffffffffffffffffffff168373ffffffffffffffffffffffffffffffffffffffff167f8c5be1e5ebec7d5bd14f71427d1e84f3dd0314c0f7b2291e5b200ac8c7c3b925836040516110ec9190612714565b60405180910390a3505050565b60006111058484610d8f565b90507fffffffffffffffffffffffffffffffffffffffffffffffffffffffffffffffff811461117f5781811015611171576040517f08c379a00000000000000000000000000000000000000000000000000000000081526004016111689061317b565b60405180910390fd5b61117e8484848403610f2e565b5b50505050565b600073ffffffffffffffffffffffffffffffffffffffff168373ffffffffffffffffffffffffffffffffffffffff1614156111f5576040517f08c379a00000000000000000000000000000000000000000000000000000000081526004016111ec9061320d565b60405180910390fd5b600073ffffffffffffffffffffffffffffffffffffffff168273ffffffffffffffffffffffffffffffffffffffff161415611265576040517f08c379a000000000000000000000000000000000000000000000000000000000815260040161125c9061329f565b60405180910390fd5b6112708383836118ec565b60008060008573ffffffffffffffffffffffffffffffffffffffff1673ffffffffffffffffffffffffffffffffffffffff168152602001908152602001600020549050818110156112f6576040517f08c379a00000000000000000000000000000000000000000000000000000000081526004016112ed90613331565b60405180910390fd5b8181036000808673ffffffffffffffffffffffffffffffffffffffff1673ffffffffffffffffffffffffffffffffffffffff16815260200190815260200160002081905550816000808573ffffffffffffffffffffffffffffffffffffffff1673ffffffffffffffffffffffffffffffffffffffff168152602001908152602001600020600082825401925050819055508273ffffffffffffffffffffffffffffffffffffffff168473ffffffffffffffffffffffffffffffffffffffff167fddf252ad1be2c89b69c2b068fc378daa952ba7f163c4a11628f55a4df523b3ef846040516113e49190612714565b60405180910390a36113f78484846118f1565b50505050565b60007f000000000000000000000000000000000000000000000000000000000000000073ffffffffffffffffffffffffffffffffffffffff163073ffffffffffffffffffffffffffffffffffffffff1614801561147957507f000000000000000000000000000000000000000000000000000000000000000046145b156114a6577f00000000000000000000000000000000000000000000000000000000000000009050611514565b6115117f00000000000000000000000000000000000000000000000000000000000000007f00000000000000000000000000000000000000000000000000000000000000007f000000000000000000000000000000000000000000000000000000000000000061191c565b90505b90565b6000808380549050905060005b818110156115965760006115388284611956565b90508486828154811061154e5761154d612cf4565b5b9060005260206000200160000160009054906101000a900463ffffffff1663ffffffff16111561158057809250611590565b60018161158d9190612bfe565b91505b50611524565b600082146115f857846001836115ac9190612cc0565b815481106115bd576115bc612cf4565b5b9060005260206000200160000160049054906101000a90047bffffffffffffffffffffffffffffffffffffffffffffffffffffffff166115fb565b60005b7bffffffffffffffffffffffffffffffffffffffffffffffffffffffff169250505092915050565b61162d828261197c565b611635611ad3565b7bffffffffffffffffffffffffffffffffffffffffffffffffffffffff1661165b61060d565b111561169c576040517f08c379a0000000000000000000000000000000000000000000000000000000008152600401611693906133c3565b60405180910390fd5b6116aa6009611af783611b0d565b50505050565b60006116bb8361073f565b905060006116c884610810565b905082600760008673ffffffffffffffffffffffffffffffffffffffff1673ffffffffffffffffffffffffffffffffffffffff16815260200190815260200160002060006101000a81548173ffffffffffffffffffffffffffffffffffffffff021916908373ffffffffffffffffffffffffffffffffffffffff1602179055508273ffffffffffffffffffffffffffffffffffffffff168273ffffffffffffffffffffffffffffffffffffffff168573ffffffffffffffffffffffffffffffffffffffff167f3134e8a2e6d97e929a7e54011ea5485d7d196dd5f0ba4d4ef95803e8e3fc257f60405160405180910390a46117c4828483611d85565b50505050565b600063ffffffff8016821115611815576040517f08c379a000000000000000000000000000000000000000000000000000000000815260040161180c90613455565b60405180910390fd5b819050919050565b600081600001549050919050565b6118358282611f7e565b611843600961214c83611b0d565b50505050565b600061185c6118566113fd565b83612162565b9050919050565b600080600061187487878787612195565b91509150611881816122a2565b8192505050949350505050565b600080600560008473ffffffffffffffffffffffffffffffffffffffff1673ffffffffffffffffffffffffffffffffffffffff16815260200190815260200160002090506118db8161181d565b91506118e681612477565b50919050565b505050565b6118fc83838361248d565b6119176119088461073f565b6119118461073f565b83611d85565b505050565b60008383834630604051602001611937959493929190613475565b6040516020818303038152906040528051906020012090509392505050565b6000600282841861196791906134f7565b8284166119749190612bfe565b905092915050565b600073ffffffffffffffffffffffffffffffffffffffff168273ffffffffffffffffffffffffffffffffffffffff1614156119ec576040517f08c379a00000000000000000000000000000000000000000000000000000000081526004016119e390613574565b60405180910390fd5b6119f8600083836118ec565b8060026000828254611a0a9190612bfe565b92505081905550806000808473ffffffffffffffffffffffffffffffffffffffff1673ffffffffffffffffffffffffffffffffffffffff168152602001908152602001600020600082825401925050819055508173ffffffffffffffffffffffffffffffffffffffff16600073ffffffffffffffffffffffffffffffffffffffff167fddf252ad1be2c89b69c2b068fc378daa952ba7f163c4a11628f55a4df523b3ef83604051611abb9190612714565b60405180910390a3611acf600083836118f1565b5050565b60007bffffffffffffffffffffffffffffffffffffffffffffffffffffffff905090565b60008183611b059190612bfe565b905092915050565b60008060008580549050905060008114611b7b5785600182611b2f9190612cc0565b81548110611b4057611b3f612cf4565b5b9060005260206000200160000160049054906101000a90047bffffffffffffffffffffffffffffffffffffffffffffffffffffffff16611b7e565b60005b7bffffffffffffffffffffffffffffffffffffffffffffffffffffffff169250611bac83858763ffffffff16565b9150600081118015611bff57504386600183611bc89190612cc0565b81548110611bd957611bd8612cf4565b5b9060005260206000200160000160009054906101000a900463ffffffff1663ffffffff16145b15611c8c57611c0d82612492565b86600183611c1b9190612cc0565b81548110611c2c57611c2b612cf4565b5b9060005260206000200160000160046101000a8154817bffffffffffffffffffffffffffffffffffffffffffffffffffffffff02191690837bffffffffffffffffffffffffffffffffffffffffffffffffffffffff160217905550611d7c565b856040518060400160405280611ca1436117ca565b63ffffffff168152602001611cb585612492565b7bffffffffffffffffffffffffffffffffffffffffffffffffffffffff168152509080600181540180825580915050600190039060005260206000200160009091909190915060008201518160000160006101000a81548163ffffffff021916908363ffffffff16021790555060208201518160000160046101000a8154817bffffffffffffffffffffffffffffffffffffffffffffffffffffffff02191690837bffffffffffffffffffffffffffffffffffffffffffffffffffffffff16021790555050505b50935093915050565b8173ffffffffffffffffffffffffffffffffffffffff168373ffffffffffffffffffffffffffffffffffffffff1614158015611dc15750600081115b15611f7957600073ffffffffffffffffffffffffffffffffffffffff168373ffffffffffffffffffffffffffffffffffffffff1614611e9f57600080611e48600860008773ffffffffffffffffffffffffffffffffffffffff1673ffffffffffffffffffffffffffffffffffffffff16815260200190815260200160002061214c85611b0d565b915091508473ffffffffffffffffffffffffffffffffffffffff167fdec2bacdd2f05b59de34da9b523dff8be42e5e38e818c82fdb0bae774387a7248383604051611e94929190613594565b60405180910390a250505b600073ffffffffffffffffffffffffffffffffffffffff168273ffffffffffffffffffffffffffffffffffffffff1614611f7857600080611f21600860008673ffffffffffffffffffffffffffffffffffffffff1673ffffffffffffffffffffffffffffffffffffffff168152602001908152602001600020611af785611b0d565b915091508373ffffffffffffffffffffffffffffffffffffffff167fdec2bacdd2f05b59de34da9b523dff8be42e5e38e818c82fdb0bae774387a7248383604051611f6d929190613594565b60405180910390a250505b5b505050565b600073ffffffffffffffffffffffffffffffffffffffff168273ffffffffffffffffffffffffffffffffffffffff161415611fee576040517f08c379a0000000000000000000000000000000000000000000000000000000008152600401611fe59061362f565b60405180910390fd5b611ffa826000836118ec565b60008060008473ffffffffffffffffffffffffffffffffffffffff1673ffffffffffffffffffffffffffffffffffffffff16815260200190815260200160002054905081811015612080576040517f08c379a0000000000000000000000000000000000000000000000000000000008152600401612077906136c1565b60405180910390fd5b8181036000808573ffffffffffffffffffffffffffffffffffffffff1673ffffffffffffffffffffffffffffffffffffffff1681526020019081526020016000208190555081600260008282540392505081905550600073ffffffffffffffffffffffffffffffffffffffff168373ffffffffffffffffffffffffffffffffffffffff167fddf252ad1be2c89b69c2b068fc378daa952ba7f163c4a11628f55a4df523b3ef846040516121339190612714565b60405180910390a3612147836000846118f1565b505050565b6000818361215a9190612cc0565b905092915050565b60008282604051602001612177929190613759565b60405160208183030381529060405280519060200120905092915050565b6000807f7fffffffffffffffffffffffffffffff5d576e7357a4501ddfe92f46681b20a08360001c11156121d0576000600391509150612299565b601b8560ff16141580156121e85750601c8560ff1614155b156121fa576000600491509150612299565b60006001878787876040516000815260200160405260405161221f9493929190613790565b6020604051602081039080840390855afa158015612241573d6000803e3d6000fd5b505050602060405103519050600073ffffffffffffffffffffffffffffffffffffffff168173ffffffffffffffffffffffffffffffffffffffff16141561229057600060019250925050612299565b80600092509250505b94509492505050565b600060048111156122b6576122b56137d5565b5b8160048111156122c9576122c86137d5565b5b14156122d457612474565b600160048111156122e8576122e76137d5565b5b8160048111156122fb576122fa6137d5565b5b141561233c576040517f08c379a000000000000000000000000000000000000000000000000000000000815260040161233390613850565b60405180910390fd5b600260048111156123505761234f6137d5565b5b816004811115612363576123626137d5565b5b14156123a4576040517f08c379a000000000000000000000000000000000000000000000000000000000815260040161239b906138bc565b60405180910390fd5b600360048111156123b8576123b76137d5565b5b8160048111156123cb576123ca6137d5565b5b141561240c576040517f08c379a00000000000000000000000000000000000000000000000000000000081526004016124039061394e565b60405180910390fd5b60048081111561241f5761241e6137d5565b5b816004811115612432576124316137d5565b5b1415612473576040517f08c379a000000000000000000000000000000000000000000000000000000000815260040161246a906139e0565b60405180910390fd5b5b50565b6001816000016000828254019250508190555050565b505050565b60007bffffffffffffffffffffffffffffffffffffffffffffffffffffffff80168211156124f5576040517f08c379a00000000000000000000000000000000000000000000000000000000081526004016124ec90613a72565b60405180910390fd5b819050919050565b6040518060400160405280600063ffffffff16815260200160007bffffffffffffffffffffffffffffffffffffffffffffffffffffffff1681525090565b600081519050919050565b600082825260208201905092915050565b60005b8381101561257557808201518184015260208101905061255a565b83811115612584576000848401525b50505050565b6000601f19601f8301169050919050565b60006125a68261253b565b6125b08185612546565b93506125c0818560208601612557565b6125c98161258a565b840191505092915050565b600060208201905081810360008301526125ee818461259b565b905092915050565b600080fd5b600073ffffffffffffffffffffffffffffffffffffffff82169050919050565b6000612626826125fb565b9050919050565b6126368161261b565b811461264157600080fd5b50565b6000813590506126538161262d565b92915050565b6000819050919050565b61266c81612659565b811461267757600080fd5b50565b60008135905061268981612663565b92915050565b600080604083850312156126a6576126a56125f6565b5b60006126b485828601612644565b92505060206126c58582860161267a565b9150509250929050565b60008115159050919050565b6126e4816126cf565b82525050565b60006020820190506126ff60008301846126db565b92915050565b61270e81612659565b82525050565b60006020820190506127296000830184612705565b92915050565b600080600060608486031215612748576127476125f6565b5b600061275686828701612644565b935050602061276786828701612644565b92505060406127788682870161267a565b9150509250925092565b600060ff82169050919050565b61279881612782565b82525050565b60006020820190506127b3600083018461278f565b92915050565b6000819050919050565b6127cc816127b9565b82525050565b60006020820190506127e760008301846127c3565b92915050565b600060208284031215612803576128026125f6565b5b600061281184828501612644565b91505092915050565b6128238161261b565b82525050565b600060208201905061283e600083018461281a565b92915050565b600063ffffffff82169050919050565b61285d81612844565b82525050565b60006020820190506128786000830184612854565b92915050565b600060208284031215612894576128936125f6565b5b60006128a28482850161267a565b91505092915050565b6128b481612782565b81146128bf57600080fd5b50565b6000813590506128d1816128ab565b92915050565b6128e0816127b9565b81146128eb57600080fd5b50565b6000813590506128fd816128d7565b92915050565b60008060008060008060c087890312156129205761291f6125f6565b5b600061292e89828a01612644565b965050602061293f89828a0161267a565b955050604061295089828a0161267a565b945050606061296189828a016128c2565b935050608061297289828a016128ee565b92505060a061298389828a016128ee565b9150509295509295509295565b600080600080600080600060e0888a0312156129af576129ae6125f6565b5b60006129bd8a828b01612644565b97505060206129ce8a828b01612644565b96505060406129df8a828b0161267a565b95505060606129f08a828b0161267a565b9450506080612a018a828b016128c2565b93505060a0612a128a828b016128ee565b92505060c0612a238a828b016128ee565b91505092959891949750929550565b60008060408385031215612a4957612a486125f6565b5b6000612a5785828601612644565b9250506020612a6885828601612644565b9150509250929050565b612a7b81612844565b8114612a8657600080fd5b50565b600081359050612a9881612a72565b92915050565b60008060408385031215612ab557612ab46125f6565b5b6000612ac385828601612644565b9250506020612ad485828601612a89565b9150509250929050565b612ae781612844565b82525050565b60007bffffffffffffffffffffffffffffffffffffffffffffffffffffffff82169050919050565b612b1e81612aed565b82525050565b604082016000820151612b3a6000850182612ade565b506020820151612b4d6020850182612b15565b50505050565b6000604082019050612b686000830184612b24565b92915050565b7f4e487b7100000000000000000000000000000000000000000000000000000000600052602260045260246000fd5b60006002820490506001821680612bb557607f821691505b60208210811415612bc957612bc8612b6e565b5b50919050565b7f4e487b7100000000000000000000000000000000000000000000000000000000600052601160045260246000fd5b6000612c0982612659565b9150612c1483612659565b9250827fffffffffffffffffffffffffffffffffffffffffffffffffffffffffffffffff03821115612c4957612c48612bcf565b5b828201905092915050565b7f4552433230566f7465733a20626c6f636b206e6f7420796574206d696e656400600082015250565b6000612c8a601f83612546565b9150612c9582612c54565b602082019050919050565b60006020820190508181036000830152612cb981612c7d565b9050919050565b6000612ccb82612659565b9150612cd683612659565b925082821015612ce957612ce8612bcf565b5b828203905092915050565b7f4e487b7100000000000000000000000000000000000000000000000000000000600052603260045260246000fd5b7f45524332303a2064656372656173656420616c6c6f77616e63652062656c6f7760008201527f207a65726f000000000000000000000000000000000000000000000000000000602082015250565b6000612d7f602583612546565b9150612d8a82612d23565b604082019050919050565b60006020820190508181036000830152612dae81612d72565b9050919050565b7f4552433230566f7465733a207369676e61747572652065787069726564000000600082015250565b6000612deb601d83612546565b9150612df682612db5565b602082019050919050565b60006020820190508181036000830152612e1a81612dde565b9050919050565b6000608082019050612e3660008301876127c3565b612e43602083018661281a565b612e506040830185612705565b612e5d6060830184612705565b95945050505050565b7f4552433230566f7465733a20696e76616c6964206e6f6e636500000000000000600082015250565b6000612e9c601983612546565b9150612ea782612e66565b602082019050919050565b60006020820190508181036000830152612ecb81612e8f565b9050919050565b7f45524332305065726d69743a206578706972656420646561646c696e65000000600082015250565b6000612f08601d83612546565b9150612f1382612ed2565b602082019050919050565b60006020820190508181036000830152612f3781612efb565b9050919050565b600060c082019050612f5360008301896127c3565b612f60602083018861281a565b612f6d604083018761281a565b612f7a6060830186612705565b612f876080830185612705565b612f9460a0830184612705565b979650505050505050565b7f45524332305065726d69743a20696e76616c6964207369676e61747572650000600082015250565b6000612fd5601e83612546565b9150612fe082612f9f565b602082019050919050565b6000602082019050818103600083015261300481612fc8565b9050919050565b7f45524332303a20617070726f76652066726f6d20746865207a65726f2061646460008201527f7265737300000000000000000000000000000000000000000000000000000000602082015250565b6000613067602483612546565b91506130728261300b565b604082019050919050565b600060208201905081810360008301526130968161305a565b9050919050565b7f45524332303a20617070726f766520746f20746865207a65726f20616464726560008201527f7373000000000000000000000000000000000000000000000000000000000000602082015250565b60006130f9602283612546565b91506131048261309d565b604082019050919050565b60006020820190508181036000830152613128816130ec565b9050919050565b7f45524332303a20696e73756666696369656e7420616c6c6f77616e6365000000600082015250565b6000613165601d83612546565b91506131708261312f565b602082019050919050565b6000602082019050818103600083015261319481613158565b9050919050565b7f45524332303a207472616e736665722066726f6d20746865207a65726f20616460008201527f6472657373000000000000000000000000000000000000000000000000000000602082015250565b60006131f7602583612546565b91506132028261319b565b604082019050919050565b60006020820190508181036000830152613226816131ea565b9050919050565b7f45524332303a207472616e7366657220746f20746865207a65726f206164647260008201527f6573730000000000000000000000000000000000000000000000000000000000602082015250565b6000613289602383612546565b91506132948261322d565b604082019050919050565b600060208201905081810360008301526132b88161327c565b9050919050565b7f45524332303a207472616e7366657220616d6f756e742065786365656473206260008201527f616c616e63650000000000000000000000000000000000000000000000000000602082015250565b600061331b602683612546565b9150613326826132bf565b604082019050919050565b6000602082019050818103600083015261334a8161330e565b9050919050565b7f4552433230566f7465733a20746f74616c20737570706c79207269736b73206f60008201527f766572666c6f77696e6720766f74657300000000000000000000000000000000602082015250565b60006133ad603083612546565b91506133b882613351565b604082019050919050565b600060208201905081810360008301526133dc816133a0565b9050919050565b7f53616665436173743a2076616c756520646f65736e27742066697420696e203360008201527f3220626974730000000000000000000000000000000000000000000000000000602082015250565b600061343f602683612546565b915061344a826133e3565b604082019050919050565b6000602082019050818103600083015261346e81613432565b9050919050565b600060a08201905061348a60008301886127c3565b61349760208301876127c3565b6134a460408301866127c3565b6134b16060830185612705565b6134be608083018461281a565b9695505050505050565b7f4e487b7100000000000000000000000000000000000000000000000000000000600052601260045260246000fd5b600061350282612659565b915061350d83612659565b92508261351d5761351c6134c8565b5b828204905092915050565b7f45524332303a206d696e7420746f20746865207a65726f206164647265737300600082015250565b600061355e601f83612546565b915061356982613528565b602082019050919050565b6000602082019050818103600083015261358d81613551565b9050919050565b60006040820190506135a96000830185612705565b6135b66020830184612705565b9392505050565b7f45524332303a206275726e2066726f6d20746865207a65726f2061646472657360008201527f7300000000000000000000000000000000000000000000000000000000000000602082015250565b6000613619602183612546565b9150613624826135bd565b604082019050919050565b600060208201905081810360008301526136488161360c565b9050919050565b7f45524332303a206275726e20616d6f756e7420657863656564732062616c616e60008201527f6365000000000000000000000000000000000000000000000000000000000000602082015250565b60006136ab602283612546565b91506136b68261364f565b604082019050919050565b600060208201905081810360008301526136da8161369e565b9050919050565b600081905092915050565b7f1901000000000000000000000000000000000000000000000000000000000000600082015250565b60006137226002836136e1565b915061372d826136ec565b600282019050919050565b6000819050919050565b61375361374e826127b9565b613738565b82525050565b600061376482613715565b91506137708285613742565b6020820191506137808284613742565b6020820191508190509392505050565b60006080820190506137a560008301876127c3565b6137b2602083018661278f565b6137bf60408301856127c3565b6137cc60608301846127c3565b95945050505050565b7f4e487b7100000000000000000000000000000000000000000000000000000000600052602160045260246000fd5b7f45434453413a20696e76616c6964207369676e61747572650000000000000000600082015250565b600061383a601883612546565b915061384582613804565b602082019050919050565b600060208201905081810360008301526138698161382d565b9050919050565b7f45434453413a20696e76616c6964207369676e6174757265206c656e67746800600082015250565b60006138a6601f83612546565b91506138b182613870565b602082019050919050565b600060208201905081810360008301526138d581613899565b9050919050565b7f45434453413a20696e76616c6964207369676e6174757265202773272076616c60008201527f7565000000000000000000000000000000000000000000000000000000000000602082015250565b6000613938602283612546565b9150613943826138dc565b604082019050919050565b600060208201905081810360008301526139678161392b565b9050919050565b7f45434453413a20696e76616c6964207369676e6174757265202776272076616c60008201527f7565000000000000000000000000000000000000000000000000000000000000602082015250565b60006139ca602283612546565b91506139d58261396e565b604082019050919050565b600060208201905081810360008301526139f9816139bd565b9050919050565b7f53616665436173743a2076616c756520646f65736e27742066697420696e203260008201527f3234206269747300000000000000000000000000000000000000000000000000602082015250565b6000613a5c602783612546565b9150613a6782613a00565b604082019050919050565b60006020820190508181036000830152613a8b81613a4f565b905091905056fea2646970667358221220c9ad07d9966bf23ea4823b1f5b90b12089c57b6dc362257cc533d6a7dfd7f2df64736f6c63430008090033",
  "linkReferences": {},
  "deployedLinkReferences": {}
}