{
  "_format": "hh-sol-artifact-1",
  "contractName": "DrGroot",
  "sourceName": "contracts/DrGroot.sol",
  "abi": [
    {
      "inputs": [],
      "stateMutability": "nonpayable",
      "type": "constructor"
    },
    {
      "anonymous": false,
      "inputs": [
        {
          "indexed": true,
          "internalType": "address",
          "name": "owner",
          "type": "address"
        },
        {
          "indexed": true,
          "internalType": "address",
          "name": "approved",
          "type": "address"
        },
        {
          "indexed": true,
          "internalType": "uint256",
          "name": "tokenId",
          "type": "uint256"
        }
      ],
      "name": "Approval",
      "type": "event"
    },
    {
      "anonymous": false,
      "inputs": [
        {
          "indexed": true,
          "internalType": "address",
          "name": "owner",
          "type": "address"
        },
        {
          "indexed": true,
          "internalType": "address",
          "name": "operator",
          "type": "address"
        },
        {
          "indexed": false,
          "internalType": "bool",
          "name": "approved",
          "type": "bool"
        }
      ],
      "name": "ApprovalForAll",
      "type": "event"
    },
    {
      "anonymous": false,
      "inputs": [
        {
          "indexed": true,
          "internalType": "address",
          "name": "previousOwner",
          "type": "address"
        },
        {
          "indexed": true,
          "internalType": "address",
          "name": "newOwner",
          "type": "address"
        }
      ],
      "name": "OwnershipTransferred",
      "type": "event"
    },
    {
      "anonymous": false,
      "inputs": [
        {
          "indexed": false,
          "internalType": "address",
          "name": "account",
          "type": "address"
        }
      ],
      "name": "Paused",
      "type": "event"
    },
    {
      "anonymous": false,
      "inputs": [
        {
          "indexed": true,
          "internalType": "bytes32",
          "name": "role",
          "type": "bytes32"
        },
        {
          "indexed": true,
          "internalType": "bytes32",
          "name": "previousAdminRole",
          "type": "bytes32"
        },
        {
          "indexed": true,
          "internalType": "bytes32",
          "name": "newAdminRole",
          "type": "bytes32"
        }
      ],
      "name": "RoleAdminChanged",
      "type": "event"
    },
    {
      "anonymous": false,
      "inputs": [
        {
          "indexed": true,
          "internalType": "bytes32",
          "name": "role",
          "type": "bytes32"
        },
        {
          "indexed": true,
          "internalType": "address",
          "name": "account",
          "type": "address"
        },
        {
          "indexed": true,
          "internalType": "address",
          "name": "sender",
          "type": "address"
        }
      ],
      "name": "RoleGranted",
      "type": "event"
    },
    {
      "anonymous": false,
      "inputs": [
        {
          "indexed": true,
          "internalType": "bytes32",
          "name": "role",
          "type": "bytes32"
        },
        {
          "indexed": true,
          "internalType": "address",
          "name": "account",
          "type": "address"
        },
        {
          "indexed": true,
          "internalType": "address",
          "name": "sender",
          "type": "address"
        }
      ],
      "name": "RoleRevoked",
      "type": "event"
    },
    {
      "anonymous": false,
      "inputs": [
        {
          "indexed": false,
          "internalType": "string",
          "name": "newUri",
          "type": "string"
        }
      ],
      "name": "SetBaseURI",
      "type": "event"
    },
    {
      "anonymous": false,
      "inputs": [
        {
          "indexed": false,
          "internalType": "address",
          "name": "account",
          "type": "address"
        },
        {
          "indexed": false,
          "internalType": "bool",
          "name": "status",
          "type": "bool"
        }
      ],
      "name": "SetBlacklist",
      "type": "event"
    },
    {
      "anonymous": false,
      "inputs": [
        {
          "indexed": false,
          "internalType": "uint256",
          "name": "number",
          "type": "uint256"
        }
      ],
      "name": "SetMaxNumber",
      "type": "event"
    },
    {
      "anonymous": false,
      "inputs": [
        {
          "indexed": false,
          "internalType": "string",
          "name": "name",
          "type": "string"
        }
      ],
      "name": "SetName",
      "type": "event"
    },
    {
      "anonymous": false,
      "inputs": [
        {
          "indexed": false,
          "internalType": "string",
          "name": "symbol",
          "type": "string"
        }
      ],
      "name": "SetSymbol",
      "type": "event"
    },
    {
      "anonymous": false,
      "inputs": [
        {
          "indexed": true,
          "internalType": "address",
          "name": "from",
          "type": "address"
        },
        {
          "indexed": true,
          "internalType": "address",
          "name": "to",
          "type": "address"
        },
        {
          "indexed": true,
          "internalType": "uint256",
          "name": "tokenId",
          "type": "uint256"
        }
      ],
      "name": "Transfer",
      "type": "event"
    },
    {
      "anonymous": false,
      "inputs": [
        {
          "indexed": false,
          "internalType": "address",
          "name": "account",
          "type": "address"
        }
      ],
      "name": "Unpaused",
      "type": "event"
    },
    {
      "inputs": [],
      "name": "DEFAULT_ADMIN_ROLE",
      "outputs": [
        {
          "internalType": "bytes32",
          "name": "",
          "type": "bytes32"
        }
      ],
      "stateMutability": "view",
      "type": "function"
    },
    {
      "inputs": [],
      "name": "MINTER",
      "outputs": [
        {
          "internalType": "bytes32",
          "name": "",
          "type": "bytes32"
        }
      ],
      "stateMutability": "view",
      "type": "function"
    },
    {
      "inputs": [
        {
          "internalType": "address",
          "name": "",
          "type": "address"
        }
      ],
      "name": "_blacklist",
      "outputs": [
        {
          "internalType": "bool",
          "name": "",
          "type": "bool"
        }
      ],
      "stateMutability": "view",
      "type": "function"
    },
    {
      "inputs": [
        {
          "internalType": "address",
          "name": "to",
          "type": "address"
        },
        {
          "internalType": "uint256",
          "name": "tokenId",
          "type": "uint256"
        }
      ],
      "name": "approve",
      "outputs": [],
      "stateMutability": "nonpayable",
      "type": "function"
    },
    {
      "inputs": [
        {
          "internalType": "address",
          "name": "owner",
          "type": "address"
        }
      ],
      "name": "balanceOf",
      "outputs": [
        {
          "internalType": "uint256",
          "name": "",
          "type": "uint256"
        }
      ],
      "stateMutability": "view",
      "type": "function"
    },
    {
      "inputs": [
        {
          "internalType": "uint256",
          "name": "tokenId",
          "type": "uint256"
        }
      ],
      "name": "burn",
      "outputs": [],
      "stateMutability": "nonpayable",
      "type": "function"
    },
    {
      "inputs": [
        {
          "internalType": "uint256",
          "name": "",
          "type": "uint256"
        }
      ],
      "name": "firstPurchaser",
      "outputs": [
        {
          "internalType": "address",
          "name": "",
          "type": "address"
        }
      ],
      "stateMutability": "view",
      "type": "function"
    },
    {
      "inputs": [
        {
          "internalType": "uint256",
          "name": "tokenId",
          "type": "uint256"
        }
      ],
      "name": "getApproved",
      "outputs": [
        {
          "internalType": "address",
          "name": "",
          "type": "address"
        }
      ],
      "stateMutability": "view",
      "type": "function"
    },
    {
      "inputs": [
        {
          "internalType": "uint256",
          "name": "_tokenId",
          "type": "uint256"
        }
      ],
      "name": "getFirstPurchaserByTokenId",
      "outputs": [
        {
          "internalType": "address",
          "name": "",
          "type": "address"
        }
      ],
      "stateMutability": "view",
      "type": "function"
    },
    {
      "inputs": [
        {
          "internalType": "bytes32",
          "name": "role",
          "type": "bytes32"
        }
      ],
      "name": "getRoleAdmin",
      "outputs": [
        {
          "internalType": "bytes32",
          "name": "",
          "type": "bytes32"
        }
      ],
      "stateMutability": "view",
      "type": "function"
    },
    {
      "inputs": [
        {
          "internalType": "address",
          "name": "account",
          "type": "address"
        }
      ],
      "name": "grantMinter",
      "outputs": [],
      "stateMutability": "nonpayable",
      "type": "function"
    },
    {
      "inputs": [
        {
          "internalType": "bytes32",
          "name": "role",
          "type": "bytes32"
        },
        {
          "internalType": "address",
          "name": "account",
          "type": "address"
        }
      ],
      "name": "grantRole",
      "outputs": [],
      "stateMutability": "nonpayable",
      "type": "function"
    },
    {
      "inputs": [
        {
          "internalType": "bytes32",
          "name": "role",
          "type": "bytes32"
        },
        {
          "internalType": "address",
          "name": "account",
          "type": "address"
        }
      ],
      "name": "hasRole",
      "outputs": [
        {
          "internalType": "bool",
          "name": "",
          "type": "bool"
        }
      ],
      "stateMutability": "view",
      "type": "function"
    },
    {
      "inputs": [
        {
          "internalType": "address",
          "name": "owner",
          "type": "address"
        },
        {
          "internalType": "address",
          "name": "operator",
          "type": "address"
        }
      ],
      "name": "isApprovedForAll",
      "outputs": [
        {
          "internalType": "bool",
          "name": "",
          "type": "bool"
        }
      ],
      "stateMutability": "view",
      "type": "function"
    },
    {
      "inputs": [
        {
          "internalType": "address",
          "name": "account",
          "type": "address"
        }
      ],
      "name": "isBlacklist",
      "outputs": [
        {
          "internalType": "bool",
          "name": "",
          "type": "bool"
        }
      ],
      "stateMutability": "view",
      "type": "function"
    },
    {
      "inputs": [
        {
          "internalType": "address",
          "name": "account",
          "type": "address"
        }
      ],
      "name": "isMinter",
      "outputs": [
        {
          "internalType": "bool",
          "name": "",
          "type": "bool"
        }
      ],
      "stateMutability": "view",
      "type": "function"
    },
    {
      "inputs": [],
      "name": "maxNumber",
      "outputs": [
        {
          "internalType": "uint256",
          "name": "",
          "type": "uint256"
        }
      ],
      "stateMutability": "view",
      "type": "function"
    },
    {
      "inputs": [
        {
          "internalType": "address",
          "name": "to",
          "type": "address"
        },
        {
          "internalType": "uint256",
          "name": "quantity",
          "type": "uint256"
        }
      ],
      "name": "mint",
      "outputs": [],
      "stateMutability": "nonpayable",
      "type": "function"
    },
    {
      "inputs": [
        {
          "internalType": "address[]",
          "name": "toList",
          "type": "address[]"
        },
        {
          "internalType": "uint256[]",
          "name": "amountList",
          "type": "uint256[]"
        }
      ],
      "name": "mintBatch",
      "outputs": [],
      "stateMutability": "nonpayable",
      "type": "function"
    },
    {
      "inputs": [],
      "name": "name",
      "outputs": [
        {
          "internalType": "string",
          "name": "",
          "type": "string"
        }
      ],
      "stateMutability": "view",
      "type": "function"
    },
    {
      "inputs": [],
      "name": "owner",
      "outputs": [
        {
          "internalType": "address",
          "name": "",
          "type": "address"
        }
      ],
      "stateMutability": "view",
      "type": "function"
    },
    {
      "inputs": [
        {
          "internalType": "uint256",
          "name": "tokenId",
          "type": "uint256"
        }
      ],
      "name": "ownerOf",
      "outputs": [
        {
          "internalType": "address",
          "name": "",
          "type": "address"
        }
      ],
      "stateMutability": "view",
      "type": "function"
    },
    {
      "inputs": [],
      "name": "pause",
      "outputs": [],
      "stateMutability": "nonpayable",
      "type": "function"
    },
    {
      "inputs": [],
      "name": "paused",
      "outputs": [
        {
          "internalType": "bool",
          "name": "",
          "type": "bool"
        }
      ],
      "stateMutability": "view",
      "type": "function"
    },
    {
      "inputs": [],
      "name": "renounceOwnership",
      "outputs": [],
      "stateMutability": "nonpayable",
      "type": "function"
    },
    {
      "inputs": [
        {
          "internalType": "bytes32",
          "name": "role",
          "type": "bytes32"
        },
        {
          "internalType": "address",
          "name": "account",
          "type": "address"
        }
      ],
      "name": "renounceRole",
      "outputs": [],
      "stateMutability": "nonpayable",
      "type": "function"
    },
    {
      "inputs": [
        {
          "internalType": "address",
          "name": "account",
          "type": "address"
        }
      ],
      "name": "revokeMinter",
      "outputs": [],
      "stateMutability": "nonpayable",
      "type": "function"
    },
    {
      "inputs": [
        {
          "internalType": "bytes32",
          "name": "role",
          "type": "bytes32"
        },
        {
          "internalType": "address",
          "name": "account",
          "type": "address"
        }
      ],
      "name": "revokeRole",
      "outputs": [],
      "stateMutability": "nonpayable",
      "type": "function"
    },
    {
      "inputs": [
        {
          "internalType": "address",
          "name": "from",
          "type": "address"
        },
        {
          "internalType": "address",
          "name": "to",
          "type": "address"
        },
        {
          "internalType": "uint256",
          "name": "tokenId",
          "type": "uint256"
        }
      ],
      "name": "safeTransferFrom",
      "outputs": [],
      "stateMutability": "nonpayable",
      "type": "function"
    },
    {
      "inputs": [
        {
          "internalType": "address",
          "name": "from",
          "type": "address"
        },
        {
          "internalType": "address",
          "name": "to",
          "type": "address"
        },
        {
          "internalType": "uint256",
          "name": "tokenId",
          "type": "uint256"
        },
        {
          "internalType": "bytes",
          "name": "data",
          "type": "bytes"
        }
      ],
      "name": "safeTransferFrom",
      "outputs": [],
      "stateMutability": "nonpayable",
      "type": "function"
    },
    {
      "inputs": [
        {
          "internalType": "address",
          "name": "operator",
          "type": "address"
        },
        {
          "internalType": "bool",
          "name": "approved",
          "type": "bool"
        }
      ],
      "name": "setApprovalForAll",
      "outputs": [],
      "stateMutability": "nonpayable",
      "type": "function"
    },
    {
      "inputs": [
        {
          "internalType": "string",
          "name": "uri",
          "type": "string"
        }
      ],
      "name": "setBaseURI",
      "outputs": [],
      "stateMutability": "nonpayable",
      "type": "function"
    },
    {
      "inputs": [
        {
          "internalType": "address",
          "name": "account",
          "type": "address"
        },
        {
          "internalType": "bool",
          "name": "status",
          "type": "bool"
        }
      ],
      "name": "setBlacklist",
      "outputs": [],
      "stateMutability": "nonpayable",
      "type": "function"
    },
    {
      "inputs": [
        {
          "internalType": "uint256",
          "name": "number",
          "type": "uint256"
        }
      ],
      "name": "setMaxNumber",
      "outputs": [],
      "stateMutability": "nonpayable",
      "type": "function"
    },
    {
      "inputs": [
        {
          "internalType": "string",
          "name": "_name",
          "type": "string"
        }
      ],
      "name": "setName",
      "outputs": [],
      "stateMutability": "nonpayable",
      "type": "function"
    },
    {
      "inputs": [
        {
          "internalType": "string",
          "name": "_symbol",
          "type": "string"
        }
      ],
      "name": "setSymbol",
      "outputs": [],
      "stateMutability": "nonpayable",
      "type": "function"
    },
    {
      "inputs": [
        {
          "internalType": "bytes4",
          "name": "interfaceId",
          "type": "bytes4"
        }
      ],
      "name": "supportsInterface",
      "outputs": [
        {
          "internalType": "bool",
          "name": "",
          "type": "bool"
        }
      ],
      "stateMutability": "view",
      "type": "function"
    },
    {
      "inputs": [],
      "name": "symbol",
      "outputs": [
        {
          "internalType": "string",
          "name": "",
          "type": "string"
        }
      ],
      "stateMutability": "view",
      "type": "function"
    },
    {
      "inputs": [
        {
          "internalType": "uint256",
          "name": "index",
          "type": "uint256"
        }
      ],
      "name": "tokenByIndex",
      "outputs": [
        {
          "internalType": "uint256",
          "name": "",
          "type": "uint256"
        }
      ],
      "stateMutability": "view",
      "type": "function"
    },
    {
      "inputs": [
        {
          "internalType": "address",
          "name": "owner",
          "type": "address"
        },
        {
          "internalType": "uint256",
          "name": "index",
          "type": "uint256"
        }
      ],
      "name": "tokenOfOwnerByIndex",
      "outputs": [
        {
          "internalType": "uint256",
          "name": "",
          "type": "uint256"
        }
      ],
      "stateMutability": "view",
      "type": "function"
    },
    {
      "inputs": [
        {
          "internalType": "uint256",
          "name": "tokenId",
          "type": "uint256"
        }
      ],
      "name": "tokenURI",
      "outputs": [
        {
          "internalType": "string",
          "name": "",
          "type": "string"
        }
      ],
      "stateMutability": "view",
      "type": "function"
    },
    {
      "inputs": [],
      "name": "totalSupply",
      "outputs": [
        {
          "internalType": "uint256",
          "name": "",
          "type": "uint256"
        }
      ],
      "stateMutability": "view",
      "type": "function"
    },
    {
      "inputs": [
        {
          "internalType": "address[]",
          "name": "toList",
          "type": "address[]"
        },
        {
          "internalType": "uint256[]",
          "name": "tokenIdList",
          "type": "uint256[]"
        }
      ],
      "name": "transferBatch",
      "outputs": [],
      "stateMutability": "nonpayable",
      "type": "function"
    },
    {
      "inputs": [
        {
          "internalType": "address",
          "name": "from",
          "type": "address"
        },
        {
          "internalType": "address",
          "name": "to",
          "type": "address"
        },
        {
          "internalType": "uint256",
          "name": "tokenId",
          "type": "uint256"
        }
      ],
      "name": "transferFrom",
      "outputs": [],
      "stateMutability": "nonpayable",
      "type": "function"
    },
    {
      "inputs": [
        {
          "internalType": "address",
          "name": "newOwner",
          "type": "address"
        }
      ],
      "name": "transferOwnership",
      "outputs": [],
      "stateMutability": "nonpayable",
      "type": "function"
    },
    {
      "inputs": [],
      "name": "unpause",
      "outputs": [],
      "stateMutability": "nonpayable",
      "type": "function"
    }
  ],
  "bytecode": "0x60806040526040518060600160405280602c815260200162005ad6602c9139600d908051906020019062000035929190620004f0565b506040518060400160405280600781526020017f447247726f6f7400000000000000000000000000000000000000000000000000815250600e908051906020019062000083929190620004f0565b506040518060400160405280600581526020017f47524f4f54000000000000000000000000000000000000000000000000000000815250600f9080519060200190620000d1929190620004f0565b50610bb8601055348015620000e557600080fd5b506040518060400160405280600781526020017f447247726f6f74000000000000000000000000000000000000000000000000008152506040518060400160405280600581526020017f47524f4f5400000000000000000000000000000000000000000000000000000081525081600090805190602001906200016a929190620004f0565b50806001908051906020019062000183929190620004f0565b505050620001a66200019a6200022b60201b60201c565b6200023360201b60201c565b620001d87ff0887ba65ee2024ea881d91b74c2450ef19e1557f03bed3ea9f16b037cbe2dc980620002f960201b60201c565b6200020a7ff0887ba65ee2024ea881d91b74c2450ef19e1557f03bed3ea9f16b037cbe2dc9336200035d60201b60201c565b6000600860006101000a81548160ff02191690831515021790555062000605565b600033905090565b6000600660009054906101000a900473ffffffffffffffffffffffffffffffffffffffff16905081600660006101000a81548173ffffffffffffffffffffffffffffffffffffffff021916908373ffffffffffffffffffffffffffffffffffffffff1602179055508173ffffffffffffffffffffffffffffffffffffffff168173ffffffffffffffffffffffffffffffffffffffff167f8be0079c531659141344cd1fd0a4f28419497f9722a3daafe3b4186f6b6457e060405160405180910390a35050565b60006200030c836200037360201b60201c565b90508160076000858152602001908152602001600020600101819055508181847fbd79b86ffe0ab8e8776151514217cd7cacd52c909f66475c3af44e129f0b00ff60405160405180910390a4505050565b6200036f82826200039360201b60201c565b5050565b600060076000838152602001908152602001600020600101549050919050565b620003a582826200048560201b60201c565b620004815760016007600084815260200190815260200160002060000160008373ffffffffffffffffffffffffffffffffffffffff1673ffffffffffffffffffffffffffffffffffffffff16815260200190815260200160002060006101000a81548160ff021916908315150217905550620004266200022b60201b60201c565b73ffffffffffffffffffffffffffffffffffffffff168173ffffffffffffffffffffffffffffffffffffffff16837f2f8788117e7eff1d82e926ec794901d17c78024a50270940304540a733656f0d60405160405180910390a45b5050565b60006007600084815260200190815260200160002060000160008373ffffffffffffffffffffffffffffffffffffffff1673ffffffffffffffffffffffffffffffffffffffff16815260200190815260200160002060009054906101000a900460ff16905092915050565b828054620004fe90620005cf565b90600052602060002090601f0160209004810192826200052257600085556200056e565b82601f106200053d57805160ff19168380011785556200056e565b828001600101855582156200056e579182015b828111156200056d57825182559160200191906001019062000550565b5b5090506200057d919062000581565b5090565b5b808211156200059c57600081600090555060010162000582565b5090565b7f4e487b7100000000000000000000000000000000000000000000000000000000600052602260045260246000fd5b60006002820490506001821680620005e857607f821691505b60208210811415620005ff57620005fe620005a0565b5b50919050565b6154c180620006156000396000f3fe608060405234801561001057600080fd5b506004361061028a5760003560e01c80636352211e1161015c578063aa271e1a116100ce578063cfbd488511610087578063cfbd4885146107cb578063d547741f146107e7578063e79d6acd14610803578063e985e9c514610833578063f2fde38b14610863578063fe6d81241461087f5761028a565b8063aa271e1a146106e7578063b84c824614610717578063b88d4fde14610733578063c0d0d0381461074f578063c47f00271461077f578063c87b56dd1461079b5761028a565b80638da5cb5b116101205780638da5cb5b1461061157806391d148541461062f57806395d89b411461065f578063a20623ce1461067d578063a217fddf146106ad578063a22cb465146106cb5761028a565b80636352211e1461058157806370a08231146105b1578063715018a6146105e15780637c88e3d9146105eb5780638456cb59146106075761028a565b80632f745c591161020057806340c10f19116101b957806340c10f19146104c357806342842e0e146104df57806342966c68146104fb5780634f6ccce71461051757806355f804b3146105475780635c975abb146105635761028a565b80632f745c5914610403578063333e99db1461043357806336568abe146104635780633a4f69991461047f5780633b3e672f1461049d5780633f4ba83a146104b95761028a565b806318160ddd1161025257806318160ddd146103455780631b32ca5d1461036357806323b872dd1461037f578063248a9ca31461039b578063261707fa146103cb5780632f2ff15d146103e75761028a565b806301ffc9a71461028f57806306fdde03146102bf578063081812fc146102dd578063095ea7b31461030d578063153b0d1e14610329575b600080fd5b6102a960048036038101906102a49190613916565b61089d565b6040516102b6919061395e565b60405180910390f35b6102c76108af565b6040516102d49190613a12565b60405180910390f35b6102f760048036038101906102f29190613a6a565b610941565b6040516103049190613ad8565b60405180910390f35b61032760048036038101906103229190613b1f565b610987565b005b610343600480360381019061033e9190613b8b565b610a9f565b005b61034d610b5e565b60405161035a9190613bda565b60405180910390f35b61037d60048036038101906103789190613a6a565b610b6b565b005b61039960048036038101906103949190613bf5565b610c20565b005b6103b560048036038101906103b09190613c7e565b610d56565b6040516103c29190613cba565b60405180910390f35b6103e560048036038101906103e09190613cd5565b610d76565b005b61040160048036038101906103fc9190613d02565b610da3565b005b61041d60048036038101906104189190613b1f565b610dc4565b60405161042a9190613bda565b60405180910390f35b61044d60048036038101906104489190613cd5565b610e69565b60405161045a919061395e565b60405180910390f35b61047d60048036038101906104789190613d02565b610ebf565b005b610487610f42565b6040516104949190613bda565b60405180910390f35b6104b760048036038101906104b29190613dfd565b610f4c565b005b6104c1611007565b005b6104dd60048036038101906104d89190613b1f565b61103c565b005b6104f960048036038101906104f49190613bf5565b61119a565b005b61051560048036038101906105109190613a6a565b6111ba565b005b610531600480360381019061052c9190613a6a565b611216565b60405161053e9190613bda565b60405180910390f35b610561600480360381019061055c9190613ed4565b611287565b005b61056b611301565b604051610578919061395e565b60405180910390f35b61059b60048036038101906105969190613a6a565b611318565b6040516105a89190613ad8565b60405180910390f35b6105cb60048036038101906105c69190613cd5565b6113ca565b6040516105d89190613bda565b60405180910390f35b6105e9611482565b005b61060560048036038101906106009190613dfd565b611496565b005b61060f611550565b005b610619611585565b6040516106269190613ad8565b60405180910390f35b61064960048036038101906106449190613d02565b6115af565b604051610656919061395e565b60405180910390f35b61066761161a565b6040516106749190613a12565b60405180910390f35b61069760048036038101906106929190613cd5565b6116ac565b6040516106a4919061395e565b60405180910390f35b6106b56116cc565b6040516106c29190613cba565b60405180910390f35b6106e560048036038101906106e09190613b8b565b6116d3565b005b61070160048036038101906106fc9190613cd5565b6116e9565b60405161070e919061395e565b60405180910390f35b610731600480360381019061072c9190613ed4565b61171c565b005b61074d60048036038101906107489190614051565b611796565b005b61076960048036038101906107649190613a6a565b6117f8565b6040516107769190613ad8565b60405180910390f35b61079960048036038101906107949190613ed4565b61182b565b005b6107b560048036038101906107b09190613a6a565b6118a5565b6040516107c29190613a12565b60405180910390f35b6107e560048036038101906107e09190613cd5565b611933565b005b61080160048036038101906107fc9190613d02565b611960565b005b61081d60048036038101906108189190613a6a565b611981565b60405161082a9190613ad8565b60405180910390f35b61084d600480360381019061084891906140d4565b6119c7565b60405161085a919061395e565b60405180910390f35b61087d60048036038101906108789190613cd5565b611a5b565b005b610887611adf565b6040516108949190613cba565b60405180910390f35b60006108a882611b03565b9050919050565b6060600e80546108be90614143565b80601f01602080910402602001604051908101604052809291908181526020018280546108ea90614143565b80156109375780601f1061090c57610100808354040283529160200191610937565b820191906000526020600020905b81548152906001019060200180831161091a57829003601f168201915b5050505050905090565b600061094c82611b7d565b6004600083815260200190815260200160002060009054906101000a900473ffffffffffffffffffffffffffffffffffffffff169050919050565b600061099282611318565b90508073ffffffffffffffffffffffffffffffffffffffff168373ffffffffffffffffffffffffffffffffffffffff161415610a03576040517f08c379a00000000000000000000000000000000000000000000000000000000081526004016109fa906141e7565b60405180910390fd5b8073ffffffffffffffffffffffffffffffffffffffff16610a22611bc8565b73ffffffffffffffffffffffffffffffffffffffff161480610a515750610a5081610a4b611bc8565b6119c7565b5b610a90576040517f08c379a0000000000000000000000000000000000000000000000000000000008152600401610a8790614279565b60405180910390fd5b610a9a8383611bd0565b505050565b7ff0887ba65ee2024ea881d91b74c2450ef19e1557f03bed3ea9f16b037cbe2dc9610ac981611c89565b81601260008573ffffffffffffffffffffffffffffffffffffffff1673ffffffffffffffffffffffffffffffffffffffff16815260200190815260200160002060006101000a81548160ff0219169083151502179055507ffed07c88bd5d31bfd0ce77ed7ffdc74a163a61cfc5edcec801e3a7954e33d6e78383604051610b51929190614299565b60405180910390a1505050565b6000600b80549050905090565b7ff0887ba65ee2024ea881d91b74c2450ef19e1557f03bed3ea9f16b037cbe2dc9610b9581611c89565b610b9d610b5e565b8211610bde576040517f08c379a0000000000000000000000000000000000000000000000000000000008152600401610bd59061435a565b60405180910390fd5b816010819055507f7794eef0e1d4d7a6df62757ae390d8dfd858b2f61407f9912bec4f409cba994682604051610c149190613bda565b60405180910390a15050565b82601260008273ffffffffffffffffffffffffffffffffffffffff1673ffffffffffffffffffffffffffffffffffffffff16815260200190815260200160002060009054906101000a900460ff1615610cae576040517f08c379a0000000000000000000000000000000000000000000000000000000008152600401610ca5906143c6565b60405180910390fd5b82601260008273ffffffffffffffffffffffffffffffffffffffff1673ffffffffffffffffffffffffffffffffffffffff16815260200190815260200160002060009054906101000a900460ff1615610d3c576040517f08c379a0000000000000000000000000000000000000000000000000000000008152600401610d33906143c6565b60405180910390fd5b610d44611c9d565b610d4f858585611ce7565b5050505050565b600060076000838152602001908152602001600020600101549050919050565b610da07ff0887ba65ee2024ea881d91b74c2450ef19e1557f03bed3ea9f16b037cbe2dc982610da3565b50565b610dac82610d56565b610db581611c89565b610dbf8383611d47565b505050565b6000610dcf836113ca565b8210610e10576040517f08c379a0000000000000000000000000000000000000000000000000000000008152600401610e0790614458565b60405180910390fd5b600960008473ffffffffffffffffffffffffffffffffffffffff1673ffffffffffffffffffffffffffffffffffffffff168152602001908152602001600020600083815260200190815260200160002054905092915050565b6000601260008373ffffffffffffffffffffffffffffffffffffffff1673ffffffffffffffffffffffffffffffffffffffff16815260200190815260200160002060009054906101000a900460ff169050919050565b610ec7611bc8565b73ffffffffffffffffffffffffffffffffffffffff168173ffffffffffffffffffffffffffffffffffffffff1614610f34576040517f08c379a0000000000000000000000000000000000000000000000000000000008152600401610f2b906144ea565b60405180910390fd5b610f3e8282611e28565b5050565b6000601054905090565b818190508484905014610f94576040517f08c379a0000000000000000000000000000000000000000000000000000000008152600401610f8b9061457c565b60405180910390fd5b60005b8484905081101561100057610fed33868684818110610fb957610fb861459c565b5b9050602002016020810190610fce9190613cd5565b858585818110610fe157610fe061459c565b5b90506020020135610c20565b8080610ff8906145fa565b915050610f97565b5050505050565b7ff0887ba65ee2024ea881d91b74c2450ef19e1557f03bed3ea9f16b037cbe2dc961103181611c89565b611039611f0a565b50565b7ff0887ba65ee2024ea881d91b74c2450ef19e1557f03bed3ea9f16b037cbe2dc961106681611c89565b82601260008273ffffffffffffffffffffffffffffffffffffffff1673ffffffffffffffffffffffffffffffffffffffff16815260200190815260200160002060009054906101000a900460ff16156110f4576040517f08c379a00000000000000000000000000000000000000000000000000000000081526004016110eb906143c6565b60405180910390fd5b6110fc611c9d565b60105483611108610b5e565b6111129190614643565b1115611153576040517f08c379a000000000000000000000000000000000000000000000000000000000815260040161114a9061470b565b60405180910390fd5b60005b838110156111935761116f8561116a610b5e565b611f6d565b6111808561117b610b5e565b612033565b808061118b906145fa565b915050611156565b5050505050565b6111b583838360405180602001604052806000815250611796565b505050565b6111cb6111c5611bc8565b82612051565b61120a576040517f08c379a00000000000000000000000000000000000000000000000000000000081526004016112019061479d565b60405180910390fd5b611213816120e6565b50565b6000611220610b5e565b8210611261576040517f08c379a00000000000000000000000000000000000000000000000000000000081526004016112589061482f565b60405180910390fd5b600b82815481106112755761127461459c565b5b90600052602060002001549050919050565b7ff0887ba65ee2024ea881d91b74c2450ef19e1557f03bed3ea9f16b037cbe2dc96112b181611c89565b8282600d91906112c2929190613807565b507f23c8c9488efebfd474e85a7956de6f39b17c7ab88502d42a623db2d8e382bbaa83836040516112f492919061487c565b60405180910390a1505050565b6000600860009054906101000a900460ff16905090565b6000806002600084815260200190815260200160002060009054906101000a900473ffffffffffffffffffffffffffffffffffffffff169050600073ffffffffffffffffffffffffffffffffffffffff168173ffffffffffffffffffffffffffffffffffffffff1614156113c1576040517f08c379a00000000000000000000000000000000000000000000000000000000081526004016113b8906148ec565b60405180910390fd5b80915050919050565b60008073ffffffffffffffffffffffffffffffffffffffff168273ffffffffffffffffffffffffffffffffffffffff16141561143b576040517f08c379a00000000000000000000000000000000000000000000000000000000081526004016114329061497e565b60405180910390fd5b600360008373ffffffffffffffffffffffffffffffffffffffff1673ffffffffffffffffffffffffffffffffffffffff168152602001908152602001600020549050919050565b61148a61222e565b61149460006122ac565b565b8181905084849050146114de576040517f08c379a00000000000000000000000000000000000000000000000000000000081526004016114d590614a10565b60405180910390fd5b60005b84849050811015611549576115368585838181106115025761150161459c565b5b90506020020160208101906115179190613cd5565b84848481811061152a5761152961459c565b5b9050602002013561103c565b8080611541906145fa565b9150506114e1565b5050505050565b7ff0887ba65ee2024ea881d91b74c2450ef19e1557f03bed3ea9f16b037cbe2dc961157a81611c89565b611582612372565b50565b6000600660009054906101000a900473ffffffffffffffffffffffffffffffffffffffff16905090565b60006007600084815260200190815260200160002060000160008373ffffffffffffffffffffffffffffffffffffffff1673ffffffffffffffffffffffffffffffffffffffff16815260200190815260200160002060009054906101000a900460ff16905092915050565b6060600f805461162990614143565b80601f016020809104026020016040519081016040528092919081815260200182805461165590614143565b80156116a25780601f10611677576101008083540402835291602001916116a2565b820191906000526020600020905b81548152906001019060200180831161168557829003601f168201915b5050505050905090565b60126020528060005260406000206000915054906101000a900460ff1681565b6000801b81565b6116e56116de611bc8565b83836123d5565b5050565b60006117157ff0887ba65ee2024ea881d91b74c2450ef19e1557f03bed3ea9f16b037cbe2dc9836115af565b9050919050565b7ff0887ba65ee2024ea881d91b74c2450ef19e1557f03bed3ea9f16b037cbe2dc961174681611c89565b8282600f9190611757929190613807565b507fadf3ae8bd543b3007d464f15cb8ea1db3f44e84d41d203164f40b95e27558ac6838360405161178992919061487c565b60405180910390a1505050565b6117a76117a1611bc8565b83612051565b6117e6576040517f08c379a00000000000000000000000000000000000000000000000000000000081526004016117dd9061479d565b60405180910390fd5b6117f284848484612542565b50505050565b60116020528060005260406000206000915054906101000a900473ffffffffffffffffffffffffffffffffffffffff1681565b7ff0887ba65ee2024ea881d91b74c2450ef19e1557f03bed3ea9f16b037cbe2dc961185581611c89565b8282600e9190611866929190613807565b507f4df9dcd34ae35f40f2c756fd8ac83210ed0b76d065543ee73d868aec7c7fcf02838360405161189892919061487c565b60405180910390a1505050565b60606118b082611b7d565b60006118ba61259e565b905060008151111561191a57806118d084612630565b6040516020016118e1929190614a6c565b6040516020818303038152906040529050806040516020016119039190614adc565b60405160208183030381529060405291505061192e565b604051806020016040528060008152509150505b919050565b61195d7ff0887ba65ee2024ea881d91b74c2450ef19e1557f03bed3ea9f16b037cbe2dc982611960565b50565b61196982610d56565b61197281611c89565b61197c8383611e28565b505050565b600061198c82611b7d565b6011600083815260200190815260200160002060009054906101000a900473ffffffffffffffffffffffffffffffffffffffff169050919050565b6000600560008473ffffffffffffffffffffffffffffffffffffffff1673ffffffffffffffffffffffffffffffffffffffff16815260200190815260200160002060008373ffffffffffffffffffffffffffffffffffffffff1673ffffffffffffffffffffffffffffffffffffffff16815260200190815260200160002060009054906101000a900460ff16905092915050565b611a6361222e565b600073ffffffffffffffffffffffffffffffffffffffff168173ffffffffffffffffffffffffffffffffffffffff161415611ad3576040517f08c379a0000000000000000000000000000000000000000000000000000000008152600401611aca90614b70565b60405180910390fd5b611adc816122ac565b50565b7ff0887ba65ee2024ea881d91b74c2450ef19e1557f03bed3ea9f16b037cbe2dc981565b60007f780e9d63000000000000000000000000000000000000000000000000000000007bffffffffffffffffffffffffffffffffffffffffffffffffffffffff1916827bffffffffffffffffffffffffffffffffffffffffffffffffffffffff19161480611b765750611b7582612791565b5b9050919050565b611b868161280b565b611bc5576040517f08c379a0000000000000000000000000000000000000000000000000000000008152600401611bbc906148ec565b60405180910390fd5b50565b600033905090565b816004600083815260200190815260200160002060006101000a81548173ffffffffffffffffffffffffffffffffffffffff021916908373ffffffffffffffffffffffffffffffffffffffff160217905550808273ffffffffffffffffffffffffffffffffffffffff16611c4383611318565b73ffffffffffffffffffffffffffffffffffffffff167f8c5be1e5ebec7d5bd14f71427d1e84f3dd0314c0f7b2291e5b200ac8c7c3b92560405160405180910390a45050565b611c9a81611c95611bc8565b612877565b50565b611ca5611301565b15611ce5576040517f08c379a0000000000000000000000000000000000000000000000000000000008152600401611cdc90614bdc565b60405180910390fd5b565b611cf8611cf2611bc8565b82612051565b611d37576040517f08c379a0000000000000000000000000000000000000000000000000000000008152600401611d2e9061479d565b60405180910390fd5b611d428383836128fc565b505050565b611d5182826115af565b611e245760016007600084815260200190815260200160002060000160008373ffffffffffffffffffffffffffffffffffffffff1673ffffffffffffffffffffffffffffffffffffffff16815260200190815260200160002060006101000a81548160ff021916908315150217905550611dc9611bc8565b73ffffffffffffffffffffffffffffffffffffffff168173ffffffffffffffffffffffffffffffffffffffff16837f2f8788117e7eff1d82e926ec794901d17c78024a50270940304540a733656f0d60405160405180910390a45b5050565b611e3282826115af565b15611f065760006007600084815260200190815260200160002060000160008373ffffffffffffffffffffffffffffffffffffffff1673ffffffffffffffffffffffffffffffffffffffff16815260200190815260200160002060006101000a81548160ff021916908315150217905550611eab611bc8565b73ffffffffffffffffffffffffffffffffffffffff168173ffffffffffffffffffffffffffffffffffffffff16837ff6391f5c32d9c69d2a47ea670b442974b53935d1edc7fd64eb21e047a839171b60405160405180910390a45b5050565b611f12612b8e565b6000600860006101000a81548160ff0219169083151502179055507f5db9ee0a495bf2e6ff9c91a7834c1ba4fdd244a5e8aa4e537bd38aeae4b073aa611f56611bc8565b604051611f639190613ad8565b60405180910390a1565b600073ffffffffffffffffffffffffffffffffffffffff168273ffffffffffffffffffffffffffffffffffffffff161415611fdd576040517f08c379a0000000000000000000000000000000000000000000000000000000008152600401611fd490614c6e565b60405180910390fd5b816011600083815260200190815260200160002060006101000a81548173ffffffffffffffffffffffffffffffffffffffff021916908373ffffffffffffffffffffffffffffffffffffffff1602179055505050565b61204d828260405180602001604052806000815250612bd7565b5050565b60008061205d83611318565b90508073ffffffffffffffffffffffffffffffffffffffff168473ffffffffffffffffffffffffffffffffffffffff16148061209f575061209e81856119c7565b5b806120dd57508373ffffffffffffffffffffffffffffffffffffffff166120c584610941565b73ffffffffffffffffffffffffffffffffffffffff16145b91505092915050565b60006120f182611318565b90506120ff81600084612c32565b6004600083815260200190815260200160002060006101000a81549073ffffffffffffffffffffffffffffffffffffffff02191690556001600360008373ffffffffffffffffffffffffffffffffffffffff1673ffffffffffffffffffffffffffffffffffffffff16815260200190815260200160002060008282546121859190614c8e565b925050819055506002600083815260200190815260200160002060006101000a81549073ffffffffffffffffffffffffffffffffffffffff021916905581600073ffffffffffffffffffffffffffffffffffffffff168273ffffffffffffffffffffffffffffffffffffffff167fddf252ad1be2c89b69c2b068fc378daa952ba7f163c4a11628f55a4df523b3ef60405160405180910390a461222a81600084612c42565b5050565b612236611bc8565b73ffffffffffffffffffffffffffffffffffffffff16612254611585565b73ffffffffffffffffffffffffffffffffffffffff16146122aa576040517f08c379a00000000000000000000000000000000000000000000000000000000081526004016122a190614d0e565b60405180910390fd5b565b6000600660009054906101000a900473ffffffffffffffffffffffffffffffffffffffff16905081600660006101000a81548173ffffffffffffffffffffffffffffffffffffffff021916908373ffffffffffffffffffffffffffffffffffffffff1602179055508173ffffffffffffffffffffffffffffffffffffffff168173ffffffffffffffffffffffffffffffffffffffff167f8be0079c531659141344cd1fd0a4f28419497f9722a3daafe3b4186f6b6457e060405160405180910390a35050565b61237a611c9d565b6001600860006101000a81548160ff0219169083151502179055507f62e78cea01bee320cd4e420270b5ea74000d11b0c9f74754ebdbfc544b05a2586123be611bc8565b6040516123cb9190613ad8565b60405180910390a1565b8173ffffffffffffffffffffffffffffffffffffffff168373ffffffffffffffffffffffffffffffffffffffff161415612444576040517f08c379a000000000000000000000000000000000000000000000000000000000815260040161243b90614d7a565b60405180910390fd5b80600560008573ffffffffffffffffffffffffffffffffffffffff1673ffffffffffffffffffffffffffffffffffffffff16815260200190815260200160002060008473ffffffffffffffffffffffffffffffffffffffff1673ffffffffffffffffffffffffffffffffffffffff16815260200190815260200160002060006101000a81548160ff0219169083151502179055508173ffffffffffffffffffffffffffffffffffffffff168373ffffffffffffffffffffffffffffffffffffffff167f17307eab39ab6107e8899845ad3d59bd9653f200f220920489ca2b5937696c3183604051612535919061395e565b60405180910390a3505050565b61254d8484846128fc565b61255984848484612c47565b612598576040517f08c379a000000000000000000000000000000000000000000000000000000000815260040161258f90614e0c565b60405180910390fd5b50505050565b6060600d80546125ad90614143565b80601f01602080910402602001604051908101604052809291908181526020018280546125d990614143565b80156126265780601f106125fb57610100808354040283529160200191612626565b820191906000526020600020905b81548152906001019060200180831161260957829003601f168201915b5050505050905090565b60606000821415612678576040518060400160405280600181526020017f3000000000000000000000000000000000000000000000000000000000000000815250905061278c565b600082905060005b600082146126aa578080612693906145fa565b915050600a826126a39190614e5b565b9150612680565b60008167ffffffffffffffff8111156126c6576126c5613f26565b5b6040519080825280601f01601f1916602001820160405280156126f85781602001600182028036833780820191505090505b5090505b60008514612785576001826127119190614c8e565b9150600a856127209190614e8c565b603061272c9190614643565b60f81b8183815181106127425761274161459c565b5b60200101907effffffffffffffffffffffffffffffffffffffffffffffffffffffffffffff1916908160001a905350600a8561277e9190614e5b565b94506126fc565b8093505050505b919050565b60007f7965db0b000000000000000000000000000000000000000000000000000000007bffffffffffffffffffffffffffffffffffffffffffffffffffffffff1916827bffffffffffffffffffffffffffffffffffffffffffffffffffffffff19161480612804575061280382612dde565b5b9050919050565b60008073ffffffffffffffffffffffffffffffffffffffff166002600084815260200190815260200160002060009054906101000a900473ffffffffffffffffffffffffffffffffffffffff1673ffffffffffffffffffffffffffffffffffffffff1614159050919050565b61288182826115af565b6128f85761288e81612ec0565b61289c8360001c6020612eed565b6040516020016128ad929190614f55565b6040516020818303038152906040526040517f08c379a00000000000000000000000000000000000000000000000000000000081526004016128ef9190613a12565b60405180910390fd5b5050565b8273ffffffffffffffffffffffffffffffffffffffff1661291c82611318565b73ffffffffffffffffffffffffffffffffffffffff1614612972576040517f08c379a000000000000000000000000000000000000000000000000000000000815260040161296990615001565b60405180910390fd5b600073ffffffffffffffffffffffffffffffffffffffff168273ffffffffffffffffffffffffffffffffffffffff1614156129e2576040517f08c379a00000000000000000000000000000000000000000000000000000000081526004016129d990615093565b60405180910390fd5b6129ed838383612c32565b6004600082815260200190815260200160002060006101000a81549073ffffffffffffffffffffffffffffffffffffffff02191690556001600360008573ffffffffffffffffffffffffffffffffffffffff1673ffffffffffffffffffffffffffffffffffffffff1681526020019081526020016000206000828254612a739190614c8e565b925050819055506001600360008473ffffffffffffffffffffffffffffffffffffffff1673ffffffffffffffffffffffffffffffffffffffff1681526020019081526020016000206000828254612aca9190614643565b92505081905550816002600083815260200190815260200160002060006101000a81548173ffffffffffffffffffffffffffffffffffffffff021916908373ffffffffffffffffffffffffffffffffffffffff160217905550808273ffffffffffffffffffffffffffffffffffffffff168473ffffffffffffffffffffffffffffffffffffffff167fddf252ad1be2c89b69c2b068fc378daa952ba7f163c4a11628f55a4df523b3ef60405160405180910390a4612b89838383612c42565b505050565b612b96611301565b612bd5576040517f08c379a0000000000000000000000000000000000000000000000000000000008152600401612bcc906150ff565b60405180910390fd5b565b612be18383613129565b612bee6000848484612c47565b612c2d576040517f08c379a0000000000000000000000000000000000000000000000000000000008152600401612c2490614e0c565b60405180910390fd5b505050565b612c3d838383613303565b505050565b505050565b6000612c688473ffffffffffffffffffffffffffffffffffffffff16613417565b15612dd1578373ffffffffffffffffffffffffffffffffffffffff1663150b7a02612c91611bc8565b8786866040518563ffffffff1660e01b8152600401612cb39493929190615174565b602060405180830381600087803b158015612ccd57600080fd5b505af1925050508015612cfe57506040513d601f19601f82011682018060405250810190612cfb91906151d5565b60015b612d81573d8060008114612d2e576040519150601f19603f3d011682016040523d82523d6000602084013e612d33565b606091505b50600081511415612d79576040517f08c379a0000000000000000000000000000000000000000000000000000000008152600401612d7090614e0c565b60405180910390fd5b805181602001fd5b63150b7a0260e01b7bffffffffffffffffffffffffffffffffffffffffffffffffffffffff1916817bffffffffffffffffffffffffffffffffffffffffffffffffffffffff191614915050612dd6565b600190505b949350505050565b60007f80ac58cd000000000000000000000000000000000000000000000000000000007bffffffffffffffffffffffffffffffffffffffffffffffffffffffff1916827bffffffffffffffffffffffffffffffffffffffffffffffffffffffff19161480612ea957507f5b5e139f000000000000000000000000000000000000000000000000000000007bffffffffffffffffffffffffffffffffffffffffffffffffffffffff1916827bffffffffffffffffffffffffffffffffffffffffffffffffffffffff1916145b80612eb95750612eb88261343a565b5b9050919050565b6060612ee68273ffffffffffffffffffffffffffffffffffffffff16601460ff16612eed565b9050919050565b606060006002836002612f009190615202565b612f0a9190614643565b67ffffffffffffffff811115612f2357612f22613f26565b5b6040519080825280601f01601f191660200182016040528015612f555781602001600182028036833780820191505090505b5090507f300000000000000000000000000000000000000000000000000000000000000081600081518110612f8d57612f8c61459c565b5b60200101907effffffffffffffffffffffffffffffffffffffffffffffffffffffffffffff1916908160001a9053507f780000000000000000000000000000000000000000000000000000000000000081600181518110612ff157612ff061459c565b5b60200101907effffffffffffffffffffffffffffffffffffffffffffffffffffffffffffff1916908160001a905350600060018460026130319190615202565b61303b9190614643565b90505b60018111156130db577f3031323334353637383961626364656600000000000000000000000000000000600f86166010811061307d5761307c61459c565b5b1a60f81b8282815181106130945761309361459c565b5b60200101907effffffffffffffffffffffffffffffffffffffffffffffffffffffffffffff1916908160001a905350600485901c9450806130d49061525c565b905061303e565b506000841461311f576040517f08c379a0000000000000000000000000000000000000000000000000000000008152600401613116906152d2565b60405180910390fd5b8091505092915050565b600073ffffffffffffffffffffffffffffffffffffffff168273ffffffffffffffffffffffffffffffffffffffff161415613199576040517f08c379a00000000000000000000000000000000000000000000000000000000081526004016131909061533e565b60405180910390fd5b6131a28161280b565b156131e2576040517f08c379a00000000000000000000000000000000000000000000000000000000081526004016131d9906153aa565b60405180910390fd5b6131ee60008383612c32565b6001600360008473ffffffffffffffffffffffffffffffffffffffff1673ffffffffffffffffffffffffffffffffffffffff168152602001908152602001600020600082825461323e9190614643565b92505081905550816002600083815260200190815260200160002060006101000a81548173ffffffffffffffffffffffffffffffffffffffff021916908373ffffffffffffffffffffffffffffffffffffffff160217905550808273ffffffffffffffffffffffffffffffffffffffff16600073ffffffffffffffffffffffffffffffffffffffff167fddf252ad1be2c89b69c2b068fc378daa952ba7f163c4a11628f55a4df523b3ef60405160405180910390a46132ff60008383612c42565b5050565b61330e8383836134a4565b600073ffffffffffffffffffffffffffffffffffffffff168373ffffffffffffffffffffffffffffffffffffffff1614156133515761334c816134fc565b613390565b8173ffffffffffffffffffffffffffffffffffffffff168373ffffffffffffffffffffffffffffffffffffffff161461338f5761338e8382613545565b5b5b600073ffffffffffffffffffffffffffffffffffffffff168273ffffffffffffffffffffffffffffffffffffffff1614156133d3576133ce816136b2565b613412565b8273ffffffffffffffffffffffffffffffffffffffff168273ffffffffffffffffffffffffffffffffffffffff1614613411576134108282613783565b5b5b505050565b6000808273ffffffffffffffffffffffffffffffffffffffff163b119050919050565b60007f01ffc9a7000000000000000000000000000000000000000000000000000000007bffffffffffffffffffffffffffffffffffffffffffffffffffffffff1916827bffffffffffffffffffffffffffffffffffffffffffffffffffffffff1916149050919050565b6134af838383613802565b6134b7611301565b156134f7576040517f08c379a00000000000000000000000000000000000000000000000000000000081526004016134ee9061543c565b60405180910390fd5b505050565b600b80549050600c600083815260200190815260200160002081905550600b81908060018154018082558091505060019003906000526020600020016000909190919091505550565b60006001613552846113ca565b61355c9190614c8e565b90506000600a6000848152602001908152602001600020549050818114613641576000600960008673ffffffffffffffffffffffffffffffffffffffff1673ffffffffffffffffffffffffffffffffffffffff168152602001908152602001600020600084815260200190815260200160002054905080600960008773ffffffffffffffffffffffffffffffffffffffff1673ffffffffffffffffffffffffffffffffffffffff16815260200190815260200160002060008481526020019081526020016000208190555081600a600083815260200190815260200160002081905550505b600a600084815260200190815260200160002060009055600960008573ffffffffffffffffffffffffffffffffffffffff1673ffffffffffffffffffffffffffffffffffffffff16815260200190815260200160002060008381526020019081526020016000206000905550505050565b60006001600b805490506136c69190614c8e565b90506000600c60008481526020019081526020016000205490506000600b83815481106136f6576136f561459c565b5b9060005260206000200154905080600b83815481106137185761371761459c565b5b906000526020600020018190555081600c600083815260200190815260200160002081905550600c600085815260200190815260200160002060009055600b8054806137675761376661545c565b5b6001900381819060005260206000200160009055905550505050565b600061378e836113ca565b905081600960008573ffffffffffffffffffffffffffffffffffffffff1673ffffffffffffffffffffffffffffffffffffffff16815260200190815260200160002060008381526020019081526020016000208190555080600a600084815260200190815260200160002081905550505050565b505050565b82805461381390614143565b90600052602060002090601f016020900481019282613835576000855561387c565b82601f1061384e57803560ff191683800117855561387c565b8280016001018555821561387c579182015b8281111561387b578235825591602001919060010190613860565b5b509050613889919061388d565b5090565b5b808211156138a657600081600090555060010161388e565b5090565b6000604051905090565b600080fd5b600080fd5b60007fffffffff0000000000000000000000000000000000000000000000000000000082169050919050565b6138f3816138be565b81146138fe57600080fd5b50565b600081359050613910816138ea565b92915050565b60006020828403121561392c5761392b6138b4565b5b600061393a84828501613901565b91505092915050565b60008115159050919050565b61395881613943565b82525050565b6000602082019050613973600083018461394f565b92915050565b600081519050919050565b600082825260208201905092915050565b60005b838110156139b3578082015181840152602081019050613998565b838111156139c2576000848401525b50505050565b6000601f19601f8301169050919050565b60006139e482613979565b6139ee8185613984565b93506139fe818560208601613995565b613a07816139c8565b840191505092915050565b60006020820190508181036000830152613a2c81846139d9565b905092915050565b6000819050919050565b613a4781613a34565b8114613a5257600080fd5b50565b600081359050613a6481613a3e565b92915050565b600060208284031215613a8057613a7f6138b4565b5b6000613a8e84828501613a55565b91505092915050565b600073ffffffffffffffffffffffffffffffffffffffff82169050919050565b6000613ac282613a97565b9050919050565b613ad281613ab7565b82525050565b6000602082019050613aed6000830184613ac9565b92915050565b613afc81613ab7565b8114613b0757600080fd5b50565b600081359050613b1981613af3565b92915050565b60008060408385031215613b3657613b356138b4565b5b6000613b4485828601613b0a565b9250506020613b5585828601613a55565b9150509250929050565b613b6881613943565b8114613b7357600080fd5b50565b600081359050613b8581613b5f565b92915050565b60008060408385031215613ba257613ba16138b4565b5b6000613bb085828601613b0a565b9250506020613bc185828601613b76565b9150509250929050565b613bd481613a34565b82525050565b6000602082019050613bef6000830184613bcb565b92915050565b600080600060608486031215613c0e57613c0d6138b4565b5b6000613c1c86828701613b0a565b9350506020613c2d86828701613b0a565b9250506040613c3e86828701613a55565b9150509250925092565b6000819050919050565b613c5b81613c48565b8114613c6657600080fd5b50565b600081359050613c7881613c52565b92915050565b600060208284031215613c9457613c936138b4565b5b6000613ca284828501613c69565b91505092915050565b613cb481613c48565b82525050565b6000602082019050613ccf6000830184613cab565b92915050565b600060208284031215613ceb57613cea6138b4565b5b6000613cf984828501613b0a565b91505092915050565b60008060408385031215613d1957613d186138b4565b5b6000613d2785828601613c69565b9250506020613d3885828601613b0a565b9150509250929050565b600080fd5b600080fd5b600080fd5b60008083601f840112613d6757613d66613d42565b5b8235905067ffffffffffffffff811115613d8457613d83613d47565b5b602083019150836020820283011115613da057613d9f613d4c565b5b9250929050565b60008083601f840112613dbd57613dbc613d42565b5b8235905067ffffffffffffffff811115613dda57613dd9613d47565b5b602083019150836020820283011115613df657613df5613d4c565b5b9250929050565b60008060008060408587031215613e1757613e166138b4565b5b600085013567ffffffffffffffff811115613e3557613e346138b9565b5b613e4187828801613d51565b9450945050602085013567ffffffffffffffff811115613e6457613e636138b9565b5b613e7087828801613da7565b925092505092959194509250565b60008083601f840112613e9457613e93613d42565b5b8235905067ffffffffffffffff811115613eb157613eb0613d47565b5b602083019150836001820283011115613ecd57613ecc613d4c565b5b9250929050565b60008060208385031215613eeb57613eea6138b4565b5b600083013567ffffffffffffffff811115613f0957613f086138b9565b5b613f1585828601613e7e565b92509250509250929050565b600080fd5b7f4e487b7100000000000000000000000000000000000000000000000000000000600052604160045260246000fd5b613f5e826139c8565b810181811067ffffffffffffffff82111715613f7d57613f7c613f26565b5b80604052505050565b6000613f906138aa565b9050613f9c8282613f55565b919050565b600067ffffffffffffffff821115613fbc57613fbb613f26565b5b613fc5826139c8565b9050602081019050919050565b82818337600083830152505050565b6000613ff4613fef84613fa1565b613f86565b9050828152602081018484840111156140105761400f613f21565b5b61401b848285613fd2565b509392505050565b600082601f83011261403857614037613d42565b5b8135614048848260208601613fe1565b91505092915050565b6000806000806080858703121561406b5761406a6138b4565b5b600061407987828801613b0a565b945050602061408a87828801613b0a565b935050604061409b87828801613a55565b925050606085013567ffffffffffffffff8111156140bc576140bb6138b9565b5b6140c887828801614023565b91505092959194509250565b600080604083850312156140eb576140ea6138b4565b5b60006140f985828601613b0a565b925050602061410a85828601613b0a565b9150509250929050565b7f4e487b7100000000000000000000000000000000000000000000000000000000600052602260045260246000fd5b6000600282049050600182168061415b57607f821691505b6020821081141561416f5761416e614114565b5b50919050565b7f4552433732313a20617070726f76616c20746f2063757272656e74206f776e6560008201527f7200000000000000000000000000000000000000000000000000000000000000602082015250565b60006141d1602183613984565b91506141dc82614175565b604082019050919050565b60006020820190508181036000830152614200816141c4565b9050919050565b7f4552433732313a20617070726f76652063616c6c6572206973206e6f7420746f60008201527f6b656e206f776e6572206e6f7220617070726f76656420666f7220616c6c0000602082015250565b6000614263603e83613984565b915061426e82614207565b604082019050919050565b6000602082019050818103600083015261429281614256565b9050919050565b60006040820190506142ae6000830185613ac9565b6142bb602083018461394f565b9392505050565b7f726571756972653a2043616e27742061737369676e206d6178206e756d62657260008201527f20736d616c6c6572206f7220657175616c20746f20746f74616c20737570706c60208201527f792e000000000000000000000000000000000000000000000000000000000000604082015250565b6000614344604283613984565b915061434f826142c2565b606082019050919050565b6000602082019050818103600083015261437381614337565b9050919050565b7f726571756972653a206164647265737320697320626c61636b6c6973742e0000600082015250565b60006143b0601e83613984565b91506143bb8261437a565b602082019050919050565b600060208201905081810360008301526143df816143a3565b9050919050565b7f455243373231456e756d657261626c653a206f776e657220696e646578206f7560008201527f74206f6620626f756e6473000000000000000000000000000000000000000000602082015250565b6000614442602b83613984565b915061444d826143e6565b604082019050919050565b6000602082019050818103600083015261447181614435565b9050919050565b7f416363657373436f6e74726f6c3a2063616e206f6e6c792072656e6f756e636560008201527f20726f6c657320666f722073656c660000000000000000000000000000000000602082015250565b60006144d4602f83613984565b91506144df82614478565b604082019050919050565b60006020820190508181036000830152614503816144c7565b9050919050565b7f726571756972653a204c697374206c656e67746820697320646966666572656e60008201527f7400000000000000000000000000000000000000000000000000000000000000602082015250565b6000614566602183613984565b91506145718261450a565b604082019050919050565b6000602082019050818103600083015261459581614559565b9050919050565b7f4e487b7100000000000000000000000000000000000000000000000000000000600052603260045260246000fd5b7f4e487b7100000000000000000000000000000000000000000000000000000000600052601160045260246000fd5b600061460582613a34565b91507fffffffffffffffffffffffffffffffffffffffffffffffffffffffffffffffff821415614638576146376145cb565b5b600182019050919050565b600061464e82613a34565b915061465983613a34565b9250827fffffffffffffffffffffffffffffffffffffffffffffffffffffffffffffffff0382111561468e5761468d6145cb565b5b828201905092915050565b7f726571756972653a2043616e277420657863656564206d6178206e756d62657260008201527f2e00000000000000000000000000000000000000000000000000000000000000602082015250565b60006146f5602183613984565b915061470082614699565b604082019050919050565b60006020820190508181036000830152614724816146e8565b9050919050565b7f4552433732313a2063616c6c6572206973206e6f7420746f6b656e206f776e6560008201527f72206e6f7220617070726f766564000000000000000000000000000000000000602082015250565b6000614787602e83613984565b91506147928261472b565b604082019050919050565b600060208201905081810360008301526147b68161477a565b9050919050565b7f455243373231456e756d657261626c653a20676c6f62616c20696e646578206f60008201527f7574206f6620626f756e64730000000000000000000000000000000000000000602082015250565b6000614819602c83613984565b9150614824826147bd565b604082019050919050565b600060208201905081810360008301526148488161480c565b9050919050565b600061485b8385613984565b9350614868838584613fd2565b614871836139c8565b840190509392505050565b6000602082019050818103600083015261489781848661484f565b90509392505050565b7f4552433732313a20696e76616c696420746f6b656e2049440000000000000000600082015250565b60006148d6601883613984565b91506148e1826148a0565b602082019050919050565b60006020820190508181036000830152614905816148c9565b9050919050565b7f4552433732313a2061646472657373207a65726f206973206e6f74206120766160008201527f6c6964206f776e65720000000000000000000000000000000000000000000000602082015250565b6000614968602983613984565b91506149738261490c565b604082019050919050565b600060208201905081810360008301526149978161495b565b9050919050565b7f726571756972653a204c697374206c656e67746820697320646966666572656e60008201527f742e000000000000000000000000000000000000000000000000000000000000602082015250565b60006149fa602283613984565b9150614a058261499e565b604082019050919050565b60006020820190508181036000830152614a29816149ed565b9050919050565b600081905092915050565b6000614a4682613979565b614a508185614a30565b9350614a60818560208601613995565b80840191505092915050565b6000614a788285614a3b565b9150614a848284614a3b565b91508190509392505050565b7f2e6a736f6e000000000000000000000000000000000000000000000000000000600082015250565b6000614ac6600583614a30565b9150614ad182614a90565b600582019050919050565b6000614ae88284614a3b565b9150614af382614ab9565b915081905092915050565b7f4f776e61626c653a206e6577206f776e657220697320746865207a65726f206160008201527f6464726573730000000000000000000000000000000000000000000000000000602082015250565b6000614b5a602683613984565b9150614b6582614afe565b604082019050919050565b60006020820190508181036000830152614b8981614b4d565b9050919050565b7f5061757361626c653a2070617573656400000000000000000000000000000000600082015250565b6000614bc6601083613984565b9150614bd182614b90565b602082019050919050565b60006020820190508181036000830152614bf581614bb9565b9050919050565b7f726571756972653a205a65726f20616464726573732063616e2774206265207460008201527f6f6b656e206f776e65722e000000000000000000000000000000000000000000602082015250565b6000614c58602b83613984565b9150614c6382614bfc565b604082019050919050565b60006020820190508181036000830152614c8781614c4b565b9050919050565b6000614c9982613a34565b9150614ca483613a34565b925082821015614cb757614cb66145cb565b5b828203905092915050565b7f4f776e61626c653a2063616c6c6572206973206e6f7420746865206f776e6572600082015250565b6000614cf8602083613984565b9150614d0382614cc2565b602082019050919050565b60006020820190508181036000830152614d2781614ceb565b9050919050565b7f4552433732313a20617070726f766520746f2063616c6c657200000000000000600082015250565b6000614d64601983613984565b9150614d6f82614d2e565b602082019050919050565b60006020820190508181036000830152614d9381614d57565b9050919050565b7f4552433732313a207472616e7366657220746f206e6f6e20455243373231526560008201527f63656976657220696d706c656d656e7465720000000000000000000000000000602082015250565b6000614df6603283613984565b9150614e0182614d9a565b604082019050919050565b60006020820190508181036000830152614e2581614de9565b9050919050565b7f4e487b7100000000000000000000000000000000000000000000000000000000600052601260045260246000fd5b6000614e6682613a34565b9150614e7183613a34565b925082614e8157614e80614e2c565b5b828204905092915050565b6000614e9782613a34565b9150614ea283613a34565b925082614eb257614eb1614e2c565b5b828206905092915050565b7f416363657373436f6e74726f6c3a206163636f756e7420000000000000000000600082015250565b6000614ef3601783614a30565b9150614efe82614ebd565b601782019050919050565b7f206973206d697373696e6720726f6c6520000000000000000000000000000000600082015250565b6000614f3f601183614a30565b9150614f4a82614f09565b601182019050919050565b6000614f6082614ee6565b9150614f6c8285614a3b565b9150614f7782614f32565b9150614f838284614a3b565b91508190509392505050565b7f4552433732313a207472616e736665722066726f6d20696e636f72726563742060008201527f6f776e6572000000000000000000000000000000000000000000000000000000602082015250565b6000614feb602583613984565b9150614ff682614f8f565b604082019050919050565b6000602082019050818103600083015261501a81614fde565b9050919050565b7f4552433732313a207472616e7366657220746f20746865207a65726f2061646460008201527f7265737300000000000000000000000000000000000000000000000000000000602082015250565b600061507d602483613984565b915061508882615021565b604082019050919050565b600060208201905081810360008301526150ac81615070565b9050919050565b7f5061757361626c653a206e6f7420706175736564000000000000000000000000600082015250565b60006150e9601483613984565b91506150f4826150b3565b602082019050919050565b60006020820190508181036000830152615118816150dc565b9050919050565b600081519050919050565b600082825260208201905092915050565b60006151468261511f565b615150818561512a565b9350615160818560208601613995565b615169816139c8565b840191505092915050565b60006080820190506151896000830187613ac9565b6151966020830186613ac9565b6151a36040830185613bcb565b81810360608301526151b5818461513b565b905095945050505050565b6000815190506151cf816138ea565b92915050565b6000602082840312156151eb576151ea6138b4565b5b60006151f9848285016151c0565b91505092915050565b600061520d82613a34565b915061521883613a34565b9250817fffffffffffffffffffffffffffffffffffffffffffffffffffffffffffffffff0483118215151615615251576152506145cb565b5b828202905092915050565b600061526782613a34565b9150600082141561527b5761527a6145cb565b5b600182039050919050565b7f537472696e67733a20686578206c656e67746820696e73756666696369656e74600082015250565b60006152bc602083613984565b91506152c782615286565b602082019050919050565b600060208201905081810360008301526152eb816152af565b9050919050565b7f4552433732313a206d696e7420746f20746865207a65726f2061646472657373600082015250565b6000615328602083613984565b9150615333826152f2565b602082019050919050565b600060208201905081810360008301526153578161531b565b9050919050565b7f4552433732313a20746f6b656e20616c7265616479206d696e74656400000000600082015250565b6000615394601c83613984565b915061539f8261535e565b602082019050919050565b600060208201905081810360008301526153c381615387565b9050919050565b7f4552433732315061757361626c653a20746f6b656e207472616e73666572207760008201527f68696c6520706175736564000000000000000000000000000000000000000000602082015250565b6000615426602b83613984565b9150615431826153ca565b604082019050919050565b6000602082019050818103600083015261545581615419565b9050919050565b7f4e487b7100000000000000000000000000000000000000000000000000000000600052603160045260246000fdfea26469706673582212209eaddef9edcaa5622f90307457d7c5152264c4fb8206b0ed94597c4bf0d4f81464736f6c6343000809003368747470733a2f2f73746f726167652e676f6f676c65617069732e636f6d2f647267726f6f742f6a736f6e2f",
  "linkReferences": {},
  "deployedLinkReferences": {}
}