{
  "_format": "hh-sol-artifact-1",
  "contractName": "ERC721URIStorageMock",
  "sourceName": "contracts/openzeppelin-contracts/mocks/ERC721URIStorageMock.sol",
  "abi": [
    {
      "inputs": [
        {
          "internalType": "string",
          "name": "name",
          "type": "string"
        },
        {
          "internalType": "string",
          "name": "symbol",
          "type": "string"
        }
      ],
      "stateMutability": "nonpayable",
      "type": "constructor"
    },
    {
      "anonymous": false,
      "inputs": [
        {
          "indexed": true,
          "internalType": "address",
          "name": "owner",
          "type": "address"
        },
        {
          "indexed": true,
          "internalType": "address",
          "name": "approved",
          "type": "address"
        },
        {
          "indexed": true,
          "internalType": "uint256",
          "name": "tokenId",
          "type": "uint256"
        }
      ],
      "name": "Approval",
      "type": "event"
    },
    {
      "anonymous": false,
      "inputs": [
        {
          "indexed": true,
          "internalType": "address",
          "name": "owner",
          "type": "address"
        },
        {
          "indexed": true,
          "internalType": "address",
          "name": "operator",
          "type": "address"
        },
        {
          "indexed": false,
          "internalType": "bool",
          "name": "approved",
          "type": "bool"
        }
      ],
      "name": "ApprovalForAll",
      "type": "event"
    },
    {
      "anonymous": false,
      "inputs": [
        {
          "indexed": true,
          "internalType": "address",
          "name": "from",
          "type": "address"
        },
        {
          "indexed": true,
          "internalType": "address",
          "name": "to",
          "type": "address"
        },
        {
          "indexed": true,
          "internalType": "uint256",
          "name": "tokenId",
          "type": "uint256"
        }
      ],
      "name": "Transfer",
      "type": "event"
    },
    {
      "inputs": [
        {
          "internalType": "address",
          "name": "to",
          "type": "address"
        },
        {
          "internalType": "uint256",
          "name": "tokenId",
          "type": "uint256"
        }
      ],
      "name": "approve",
      "outputs": [],
      "stateMutability": "nonpayable",
      "type": "function"
    },
    {
      "inputs": [
        {
          "internalType": "address",
          "name": "owner",
          "type": "address"
        }
      ],
      "name": "balanceOf",
      "outputs": [
        {
          "internalType": "uint256",
          "name": "",
          "type": "uint256"
        }
      ],
      "stateMutability": "view",
      "type": "function"
    },
    {
      "inputs": [],
      "name": "baseURI",
      "outputs": [
        {
          "internalType": "string",
          "name": "",
          "type": "string"
        }
      ],
      "stateMutability": "view",
      "type": "function"
    },
    {
      "inputs": [
        {
          "internalType": "uint256",
          "name": "tokenId",
          "type": "uint256"
        }
      ],
      "name": "burn",
      "outputs": [],
      "stateMutability": "nonpayable",
      "type": "function"
    },
    {
      "inputs": [
        {
          "internalType": "uint256",
          "name": "tokenId",
          "type": "uint256"
        }
      ],
      "name": "exists",
      "outputs": [
        {
          "internalType": "bool",
          "name": "",
          "type": "bool"
        }
      ],
      "stateMutability": "view",
      "type": "function"
    },
    {
      "inputs": [
        {
          "internalType": "uint256",
          "name": "tokenId",
          "type": "uint256"
        }
      ],
      "name": "getApproved",
      "outputs": [
        {
          "internalType": "address",
          "name": "",
          "type": "address"
        }
      ],
      "stateMutability": "view",
      "type": "function"
    },
    {
      "inputs": [
        {
          "internalType": "address",
          "name": "owner",
          "type": "address"
        },
        {
          "internalType": "address",
          "name": "operator",
          "type": "address"
        }
      ],
      "name": "isApprovedForAll",
      "outputs": [
        {
          "internalType": "bool",
          "name": "",
          "type": "bool"
        }
      ],
      "stateMutability": "view",
      "type": "function"
    },
    {
      "inputs": [
        {
          "internalType": "address",
          "name": "to",
          "type": "address"
        },
        {
          "internalType": "uint256",
          "name": "tokenId",
          "type": "uint256"
        }
      ],
      "name": "mint",
      "outputs": [],
      "stateMutability": "nonpayable",
      "type": "function"
    },
    {
      "inputs": [],
      "name": "name",
      "outputs": [
        {
          "internalType": "string",
          "name": "",
          "type": "string"
        }
      ],
      "stateMutability": "view",
      "type": "function"
    },
    {
      "inputs": [
        {
          "internalType": "uint256",
          "name": "tokenId",
          "type": "uint256"
        }
      ],
      "name": "ownerOf",
      "outputs": [
        {
          "internalType": "address",
          "name": "",
          "type": "address"
        }
      ],
      "stateMutability": "view",
      "type": "function"
    },
    {
      "inputs": [
        {
          "internalType": "address",
          "name": "to",
          "type": "address"
        },
        {
          "internalType": "uint256",
          "name": "tokenId",
          "type": "uint256"
        },
        {
          "internalType": "bytes",
          "name": "_data",
          "type": "bytes"
        }
      ],
      "name": "safeMint",
      "outputs": [],
      "stateMutability": "nonpayable",
      "type": "function"
    },
    {
      "inputs": [
        {
          "internalType": "address",
          "name": "to",
          "type": "address"
        },
        {
          "internalType": "uint256",
          "name": "tokenId",
          "type": "uint256"
        }
      ],
      "name": "safeMint",
      "outputs": [],
      "stateMutability": "nonpayable",
      "type": "function"
    },
    {
      "inputs": [
        {
          "internalType": "address",
          "name": "from",
          "type": "address"
        },
        {
          "internalType": "address",
          "name": "to",
          "type": "address"
        },
        {
          "internalType": "uint256",
          "name": "tokenId",
          "type": "uint256"
        }
      ],
      "name": "safeTransferFrom",
      "outputs": [],
      "stateMutability": "nonpayable",
      "type": "function"
    },
    {
      "inputs": [
        {
          "internalType": "address",
          "name": "from",
          "type": "address"
        },
        {
          "internalType": "address",
          "name": "to",
          "type": "address"
        },
        {
          "internalType": "uint256",
          "name": "tokenId",
          "type": "uint256"
        },
        {
          "internalType": "bytes",
          "name": "data",
          "type": "bytes"
        }
      ],
      "name": "safeTransferFrom",
      "outputs": [],
      "stateMutability": "nonpayable",
      "type": "function"
    },
    {
      "inputs": [
        {
          "internalType": "address",
          "name": "operator",
          "type": "address"
        },
        {
          "internalType": "bool",
          "name": "approved",
          "type": "bool"
        }
      ],
      "name": "setApprovalForAll",
      "outputs": [],
      "stateMutability": "nonpayable",
      "type": "function"
    },
    {
      "inputs": [
        {
          "internalType": "string",
          "name": "newBaseTokenURI",
          "type": "string"
        }
      ],
      "name": "setBaseURI",
      "outputs": [],
      "stateMutability": "nonpayable",
      "type": "function"
    },
    {
      "inputs": [
        {
          "internalType": "uint256",
          "name": "tokenId",
          "type": "uint256"
        },
        {
          "internalType": "string",
          "name": "_tokenURI",
          "type": "string"
        }
      ],
      "name": "setTokenURI",
      "outputs": [],
      "stateMutability": "nonpayable",
      "type": "function"
    },
    {
      "inputs": [
        {
          "internalType": "bytes4",
          "name": "interfaceId",
          "type": "bytes4"
        }
      ],
      "name": "supportsInterface",
      "outputs": [
        {
          "internalType": "bool",
          "name": "",
          "type": "bool"
        }
      ],
      "stateMutability": "view",
      "type": "function"
    },
    {
      "inputs": [],
      "name": "symbol",
      "outputs": [
        {
          "internalType": "string",
          "name": "",
          "type": "string"
        }
      ],
      "stateMutability": "view",
      "type": "function"
    },
    {
      "inputs": [
        {
          "internalType": "uint256",
          "name": "tokenId",
          "type": "uint256"
        }
      ],
      "name": "tokenURI",
      "outputs": [
        {
          "internalType": "string",
          "name": "",
          "type": "string"
        }
      ],
      "stateMutability": "view",
      "type": "function"
    },
    {
      "inputs": [
        {
          "internalType": "address",
          "name": "from",
          "type": "address"
        },
        {
          "internalType": "address",
          "name": "to",
          "type": "address"
        },
        {
          "internalType": "uint256",
          "name": "tokenId",
          "type": "uint256"
        }
      ],
      "name": "transferFrom",
      "outputs": [],
      "stateMutability": "nonpayable",
      "type": "function"
    }
  ],
  "bytecode": "0x60806040523480156200001157600080fd5b5060405162003234380380620032348339818101604052810190620000379190620002c2565b818181600090805190602001906200005192919062000075565b5080600190805190602001906200006a92919062000075565b5050505050620003ac565b828054620000839062000376565b90600052602060002090601f016020900481019282620000a75760008555620000f3565b82601f10620000c257805160ff1916838001178555620000f3565b82800160010185558215620000f3579182015b82811115620000f2578251825591602001919060010190620000d5565b5b50905062000102919062000106565b5090565b5b808211156200012157600081600090555060010162000107565b5090565b6000604051905090565b600080fd5b600080fd5b600080fd5b600080fd5b6000601f19601f8301169050919050565b7f4e487b7100000000000000000000000000000000000000000000000000000000600052604160045260246000fd5b6200018e8262000143565b810181811067ffffffffffffffff82111715620001b057620001af62000154565b5b80604052505050565b6000620001c562000125565b9050620001d3828262000183565b919050565b600067ffffffffffffffff821115620001f657620001f562000154565b5b620002018262000143565b9050602081019050919050565b60005b838110156200022e57808201518184015260208101905062000211565b838111156200023e576000848401525b50505050565b60006200025b6200025584620001d8565b620001b9565b9050828152602081018484840111156200027a57620002796200013e565b5b620002878482856200020e565b509392505050565b600082601f830112620002a757620002a662000139565b5b8151620002b984826020860162000244565b91505092915050565b60008060408385031215620002dc57620002db6200012f565b5b600083015167ffffffffffffffff811115620002fd57620002fc62000134565b5b6200030b858286016200028f565b925050602083015167ffffffffffffffff8111156200032f576200032e62000134565b5b6200033d858286016200028f565b9150509250929050565b7f4e487b7100000000000000000000000000000000000000000000000000000000600052602260045260246000fd5b600060028204905060018216806200038f57607f821691505b60208210811415620003a657620003a562000347565b5b50919050565b612e7880620003bc6000396000f3fe608060405234801561001057600080fd5b50600436106101375760003560e01c806355f804b3116100b857806395d89b411161007c57806395d89b4114610348578063a144819414610366578063a22cb46514610382578063b88d4fde1461039e578063c87b56dd146103ba578063e985e9c5146103ea57610137565b806355f804b3146102925780636352211e146102ae5780636c0360eb146102de57806370a08231146102fc5780638832e6e31461032c57610137565b806323b872dd116100ff57806323b872dd146101f257806340c10f191461020e57806342842e0e1461022a57806342966c68146102465780634f558e791461026257610137565b806301ffc9a71461013c57806306fdde031461016c578063081812fc1461018a578063095ea7b3146101ba578063162094c4146101d6575b600080fd5b61015660048036038101906101519190611d2c565b61041a565b6040516101639190611d74565b60405180910390f35b6101746104fc565b6040516101819190611e28565b60405180910390f35b6101a4600480360381019061019f9190611e80565b61058e565b6040516101b19190611eee565b60405180910390f35b6101d460048036038101906101cf9190611f35565b6105d4565b005b6101f060048036038101906101eb91906120aa565b6106ec565b005b61020c60048036038101906102079190612106565b6106fa565b005b61022860048036038101906102239190611f35565b61075a565b005b610244600480360381019061023f9190612106565b610768565b005b610260600480360381019061025b9190611e80565b610788565b005b61027c60048036038101906102779190611e80565b610794565b6040516102899190611d74565b60405180910390f35b6102ac60048036038101906102a791906121b9565b6107a6565b005b6102c860048036038101906102c39190611e80565b6107bc565b6040516102d59190611eee565b60405180910390f35b6102e661086e565b6040516102f39190611e28565b60405180910390f35b61031660048036038101906103119190612206565b61087d565b6040516103239190612242565b60405180910390f35b610346600480360381019061034191906122fe565b610935565b005b610350610945565b60405161035d9190611e28565b60405180910390f35b610380600480360381019061037b9190611f35565b6109d7565b005b61039c60048036038101906103979190612399565b6109e5565b005b6103b860048036038101906103b391906123d9565b6109fb565b005b6103d460048036038101906103cf9190611e80565b610a5d565b6040516103e19190611e28565b60405180910390f35b61040460048036038101906103ff919061245c565b610b70565b6040516104119190611d74565b60405180910390f35b60007f80ac58cd000000000000000000000000000000000000000000000000000000007bffffffffffffffffffffffffffffffffffffffffffffffffffffffff1916827bffffffffffffffffffffffffffffffffffffffffffffffffffffffff191614806104e557507f5b5e139f000000000000000000000000000000000000000000000000000000007bffffffffffffffffffffffffffffffffffffffffffffffffffffffff1916827bffffffffffffffffffffffffffffffffffffffffffffffffffffffff1916145b806104f557506104f482610c04565b5b9050919050565b60606000805461050b906124cb565b80601f0160208091040260200160405190810160405280929190818152602001828054610537906124cb565b80156105845780601f1061055957610100808354040283529160200191610584565b820191906000526020600020905b81548152906001019060200180831161056757829003601f168201915b5050505050905090565b600061059982610c6e565b6004600083815260200190815260200160002060009054906101000a900473ffffffffffffffffffffffffffffffffffffffff169050919050565b60006105df826107bc565b90508073ffffffffffffffffffffffffffffffffffffffff168373ffffffffffffffffffffffffffffffffffffffff161415610650576040517f08c379a00000000000000000000000000000000000000000000000000000000081526004016106479061256f565b60405180910390fd5b8073ffffffffffffffffffffffffffffffffffffffff1661066f610cb9565b73ffffffffffffffffffffffffffffffffffffffff16148061069e575061069d81610698610cb9565b610b70565b5b6106dd576040517f08c379a00000000000000000000000000000000000000000000000000000000081526004016106d490612601565b60405180910390fd5b6106e78383610cc1565b505050565b6106f68282610d7a565b5050565b61070b610705610cb9565b82610dee565b61074a576040517f08c379a000000000000000000000000000000000000000000000000000000000815260040161074190612693565b60405180910390fd5b610755838383610e83565b505050565b6107648282611115565b5050565b610783838383604051806020016040528060008152506109fb565b505050565b610791816112ef565b50565b600061079f82611342565b9050919050565b8181600791906107b7929190611b57565b505050565b6000806002600084815260200190815260200160002060009054906101000a900473ffffffffffffffffffffffffffffffffffffffff169050600073ffffffffffffffffffffffffffffffffffffffff168173ffffffffffffffffffffffffffffffffffffffff161415610865576040517f08c379a000000000000000000000000000000000000000000000000000000000815260040161085c906126ff565b60405180910390fd5b80915050919050565b60606108786113ae565b905090565b60008073ffffffffffffffffffffffffffffffffffffffff168273ffffffffffffffffffffffffffffffffffffffff1614156108ee576040517f08c379a00000000000000000000000000000000000000000000000000000000081526004016108e590612791565b60405180910390fd5b600360008373ffffffffffffffffffffffffffffffffffffffff1673ffffffffffffffffffffffffffffffffffffffff168152602001908152602001600020549050919050565b610940838383611440565b505050565b606060018054610954906124cb565b80601f0160208091040260200160405190810160405280929190818152602001828054610980906124cb565b80156109cd5780601f106109a2576101008083540402835291602001916109cd565b820191906000526020600020905b8154815290600101906020018083116109b057829003601f168201915b5050505050905090565b6109e1828261149b565b5050565b6109f76109f0610cb9565b83836114b9565b5050565b610a0c610a06610cb9565b83610dee565b610a4b576040517f08c379a0000000000000000000000000000000000000000000000000000000008152600401610a4290612693565b60405180910390fd5b610a5784848484611626565b50505050565b6060610a6882610c6e565b6000600660008481526020019081526020016000208054610a88906124cb565b80601f0160208091040260200160405190810160405280929190818152602001828054610ab4906124cb565b8015610b015780601f10610ad657610100808354040283529160200191610b01565b820191906000526020600020905b815481529060010190602001808311610ae457829003601f168201915b505050505090506000610b126113ae565b9050600081511415610b28578192505050610b6b565b600082511115610b5d578082604051602001610b459291906127ed565b60405160208183030381529060405292505050610b6b565b610b6684611682565b925050505b919050565b6000600560008473ffffffffffffffffffffffffffffffffffffffff1673ffffffffffffffffffffffffffffffffffffffff16815260200190815260200160002060008373ffffffffffffffffffffffffffffffffffffffff1673ffffffffffffffffffffffffffffffffffffffff16815260200190815260200160002060009054906101000a900460ff16905092915050565b60007f01ffc9a7000000000000000000000000000000000000000000000000000000007bffffffffffffffffffffffffffffffffffffffffffffffffffffffff1916827bffffffffffffffffffffffffffffffffffffffffffffffffffffffff1916149050919050565b610c7781611342565b610cb6576040517f08c379a0000000000000000000000000000000000000000000000000000000008152600401610cad906126ff565b60405180910390fd5b50565b600033905090565b816004600083815260200190815260200160002060006101000a81548173ffffffffffffffffffffffffffffffffffffffff021916908373ffffffffffffffffffffffffffffffffffffffff160217905550808273ffffffffffffffffffffffffffffffffffffffff16610d34836107bc565b73ffffffffffffffffffffffffffffffffffffffff167f8c5be1e5ebec7d5bd14f71427d1e84f3dd0314c0f7b2291e5b200ac8c7c3b92560405160405180910390a45050565b610d8382611342565b610dc2576040517f08c379a0000000000000000000000000000000000000000000000000000000008152600401610db990612883565b60405180910390fd5b80600660008481526020019081526020016000209080519060200190610de9929190611bdd565b505050565b600080610dfa836107bc565b90508073ffffffffffffffffffffffffffffffffffffffff168473ffffffffffffffffffffffffffffffffffffffff161480610e3c5750610e3b8185610b70565b5b80610e7a57508373ffffffffffffffffffffffffffffffffffffffff16610e628461058e565b73ffffffffffffffffffffffffffffffffffffffff16145b91505092915050565b8273ffffffffffffffffffffffffffffffffffffffff16610ea3826107bc565b73ffffffffffffffffffffffffffffffffffffffff1614610ef9576040517f08c379a0000000000000000000000000000000000000000000000000000000008152600401610ef090612915565b60405180910390fd5b600073ffffffffffffffffffffffffffffffffffffffff168273ffffffffffffffffffffffffffffffffffffffff161415610f69576040517f08c379a0000000000000000000000000000000000000000000000000000000008152600401610f60906129a7565b60405180910390fd5b610f748383836116ea565b6004600082815260200190815260200160002060006101000a81549073ffffffffffffffffffffffffffffffffffffffff02191690556001600360008573ffffffffffffffffffffffffffffffffffffffff1673ffffffffffffffffffffffffffffffffffffffff1681526020019081526020016000206000828254610ffa91906129f6565b925050819055506001600360008473ffffffffffffffffffffffffffffffffffffffff1673ffffffffffffffffffffffffffffffffffffffff16815260200190815260200160002060008282546110519190612a2a565b92505081905550816002600083815260200190815260200160002060006101000a81548173ffffffffffffffffffffffffffffffffffffffff021916908373ffffffffffffffffffffffffffffffffffffffff160217905550808273ffffffffffffffffffffffffffffffffffffffff168473ffffffffffffffffffffffffffffffffffffffff167fddf252ad1be2c89b69c2b068fc378daa952ba7f163c4a11628f55a4df523b3ef60405160405180910390a46111108383836116ef565b505050565b600073ffffffffffffffffffffffffffffffffffffffff168273ffffffffffffffffffffffffffffffffffffffff161415611185576040517f08c379a000000000000000000000000000000000000000000000000000000000815260040161117c90612acc565b60405180910390fd5b61118e81611342565b156111ce576040517f08c379a00000000000000000000000000000000000000000000000000000000081526004016111c590612b38565b60405180910390fd5b6111da600083836116ea565b6001600360008473ffffffffffffffffffffffffffffffffffffffff1673ffffffffffffffffffffffffffffffffffffffff168152602001908152602001600020600082825461122a9190612a2a565b92505081905550816002600083815260200190815260200160002060006101000a81548173ffffffffffffffffffffffffffffffffffffffff021916908373ffffffffffffffffffffffffffffffffffffffff160217905550808273ffffffffffffffffffffffffffffffffffffffff16600073ffffffffffffffffffffffffffffffffffffffff167fddf252ad1be2c89b69c2b068fc378daa952ba7f163c4a11628f55a4df523b3ef60405160405180910390a46112eb600083836116ef565b5050565b6112f8816116f4565b6000600660008381526020019081526020016000208054611318906124cb565b90501461133f5760066000828152602001908152602001600020600061133e9190611c63565b5b50565b60008073ffffffffffffffffffffffffffffffffffffffff166002600084815260200190815260200160002060009054906101000a900473ffffffffffffffffffffffffffffffffffffffff1673ffffffffffffffffffffffffffffffffffffffff1614159050919050565b6060600780546113bd906124cb565b80601f01602080910402602001604051908101604052809291908181526020018280546113e9906124cb565b80156114365780601f1061140b57610100808354040283529160200191611436565b820191906000526020600020905b81548152906001019060200180831161141957829003601f168201915b5050505050905090565b61144a8383611115565b611457600084848461183c565b611496576040517f08c379a000000000000000000000000000000000000000000000000000000000815260040161148d90612bca565b60405180910390fd5b505050565b6114b5828260405180602001604052806000815250611440565b5050565b8173ffffffffffffffffffffffffffffffffffffffff168373ffffffffffffffffffffffffffffffffffffffff161415611528576040517f08c379a000000000000000000000000000000000000000000000000000000000815260040161151f90612c36565b60405180910390fd5b80600560008573ffffffffffffffffffffffffffffffffffffffff1673ffffffffffffffffffffffffffffffffffffffff16815260200190815260200160002060008473ffffffffffffffffffffffffffffffffffffffff1673ffffffffffffffffffffffffffffffffffffffff16815260200190815260200160002060006101000a81548160ff0219169083151502179055508173ffffffffffffffffffffffffffffffffffffffff168373ffffffffffffffffffffffffffffffffffffffff167f17307eab39ab6107e8899845ad3d59bd9653f200f220920489ca2b5937696c31836040516116199190611d74565b60405180910390a3505050565b611631848484610e83565b61163d8484848461183c565b61167c576040517f08c379a000000000000000000000000000000000000000000000000000000000815260040161167390612bca565b60405180910390fd5b50505050565b606061168d82610c6e565b60006116976113ae565b905060008151116116b757604051806020016040528060008152506116e2565b806116c1846119d3565b6040516020016116d29291906127ed565b6040516020818303038152906040525b915050919050565b505050565b505050565b60006116ff826107bc565b905061170d816000846116ea565b6004600083815260200190815260200160002060006101000a81549073ffffffffffffffffffffffffffffffffffffffff02191690556001600360008373ffffffffffffffffffffffffffffffffffffffff1673ffffffffffffffffffffffffffffffffffffffff168152602001908152602001600020600082825461179391906129f6565b925050819055506002600083815260200190815260200160002060006101000a81549073ffffffffffffffffffffffffffffffffffffffff021916905581600073ffffffffffffffffffffffffffffffffffffffff168273ffffffffffffffffffffffffffffffffffffffff167fddf252ad1be2c89b69c2b068fc378daa952ba7f163c4a11628f55a4df523b3ef60405160405180910390a4611838816000846116ef565b5050565b600061185d8473ffffffffffffffffffffffffffffffffffffffff16611b34565b156119c6578373ffffffffffffffffffffffffffffffffffffffff1663150b7a02611886610cb9565b8786866040518563ffffffff1660e01b81526004016118a89493929190612cab565b602060405180830381600087803b1580156118c257600080fd5b505af19250505080156118f357506040513d601f19601f820116820180604052508101906118f09190612d0c565b60015b611976573d8060008114611923576040519150601f19603f3d011682016040523d82523d6000602084013e611928565b606091505b5060008151141561196e576040517f08c379a000000000000000000000000000000000000000000000000000000000815260040161196590612bca565b60405180910390fd5b805181602001fd5b63150b7a0260e01b7bffffffffffffffffffffffffffffffffffffffffffffffffffffffff1916817bffffffffffffffffffffffffffffffffffffffffffffffffffffffff1916149150506119cb565b600190505b949350505050565b60606000821415611a1b576040518060400160405280600181526020017f30000000000000000000000000000000000000000000000000000000000000008152509050611b2f565b600082905060005b60008214611a4d578080611a3690612d39565b915050600a82611a469190612db1565b9150611a23565b60008167ffffffffffffffff811115611a6957611a68611f7f565b5b6040519080825280601f01601f191660200182016040528015611a9b5781602001600182028036833780820191505090505b5090505b60008514611b2857600182611ab491906129f6565b9150600a85611ac39190612de2565b6030611acf9190612a2a565b60f81b818381518110611ae557611ae4612e13565b5b60200101907effffffffffffffffffffffffffffffffffffffffffffffffffffffffffffff1916908160001a905350600a85611b219190612db1565b9450611a9f565b8093505050505b919050565b6000808273ffffffffffffffffffffffffffffffffffffffff163b119050919050565b828054611b63906124cb565b90600052602060002090601f016020900481019282611b855760008555611bcc565b82601f10611b9e57803560ff1916838001178555611bcc565b82800160010185558215611bcc579182015b82811115611bcb578235825591602001919060010190611bb0565b5b509050611bd99190611ca3565b5090565b828054611be9906124cb565b90600052602060002090601f016020900481019282611c0b5760008555611c52565b82601f10611c2457805160ff1916838001178555611c52565b82800160010185558215611c52579182015b82811115611c51578251825591602001919060010190611c36565b5b509050611c5f9190611ca3565b5090565b508054611c6f906124cb565b6000825580601f10611c815750611ca0565b601f016020900490600052602060002090810190611c9f9190611ca3565b5b50565b5b80821115611cbc576000816000905550600101611ca4565b5090565b6000604051905090565b600080fd5b600080fd5b60007fffffffff0000000000000000000000000000000000000000000000000000000082169050919050565b611d0981611cd4565b8114611d1457600080fd5b50565b600081359050611d2681611d00565b92915050565b600060208284031215611d4257611d41611cca565b5b6000611d5084828501611d17565b91505092915050565b60008115159050919050565b611d6e81611d59565b82525050565b6000602082019050611d896000830184611d65565b92915050565b600081519050919050565b600082825260208201905092915050565b60005b83811015611dc9578082015181840152602081019050611dae565b83811115611dd8576000848401525b50505050565b6000601f19601f8301169050919050565b6000611dfa82611d8f565b611e048185611d9a565b9350611e14818560208601611dab565b611e1d81611dde565b840191505092915050565b60006020820190508181036000830152611e428184611def565b905092915050565b6000819050919050565b611e5d81611e4a565b8114611e6857600080fd5b50565b600081359050611e7a81611e54565b92915050565b600060208284031215611e9657611e95611cca565b5b6000611ea484828501611e6b565b91505092915050565b600073ffffffffffffffffffffffffffffffffffffffff82169050919050565b6000611ed882611ead565b9050919050565b611ee881611ecd565b82525050565b6000602082019050611f036000830184611edf565b92915050565b611f1281611ecd565b8114611f1d57600080fd5b50565b600081359050611f2f81611f09565b92915050565b60008060408385031215611f4c57611f4b611cca565b5b6000611f5a85828601611f20565b9250506020611f6b85828601611e6b565b9150509250929050565b600080fd5b600080fd5b7f4e487b7100000000000000000000000000000000000000000000000000000000600052604160045260246000fd5b611fb782611dde565b810181811067ffffffffffffffff82111715611fd657611fd5611f7f565b5b80604052505050565b6000611fe9611cc0565b9050611ff58282611fae565b919050565b600067ffffffffffffffff82111561201557612014611f7f565b5b61201e82611dde565b9050602081019050919050565b82818337600083830152505050565b600061204d61204884611ffa565b611fdf565b90508281526020810184848401111561206957612068611f7a565b5b61207484828561202b565b509392505050565b600082601f83011261209157612090611f75565b5b81356120a184826020860161203a565b91505092915050565b600080604083850312156120c1576120c0611cca565b5b60006120cf85828601611e6b565b925050602083013567ffffffffffffffff8111156120f0576120ef611ccf565b5b6120fc8582860161207c565b9150509250929050565b60008060006060848603121561211f5761211e611cca565b5b600061212d86828701611f20565b935050602061213e86828701611f20565b925050604061214f86828701611e6b565b9150509250925092565b600080fd5b600080fd5b60008083601f84011261217957612178611f75565b5b8235905067ffffffffffffffff81111561219657612195612159565b5b6020830191508360018202830111156121b2576121b161215e565b5b9250929050565b600080602083850312156121d0576121cf611cca565b5b600083013567ffffffffffffffff8111156121ee576121ed611ccf565b5b6121fa85828601612163565b92509250509250929050565b60006020828403121561221c5761221b611cca565b5b600061222a84828501611f20565b91505092915050565b61223c81611e4a565b82525050565b60006020820190506122576000830184612233565b92915050565b600067ffffffffffffffff82111561227857612277611f7f565b5b61228182611dde565b9050602081019050919050565b60006122a161229c8461225d565b611fdf565b9050828152602081018484840111156122bd576122bc611f7a565b5b6122c884828561202b565b509392505050565b600082601f8301126122e5576122e4611f75565b5b81356122f584826020860161228e565b91505092915050565b60008060006060848603121561231757612316611cca565b5b600061232586828701611f20565b935050602061233686828701611e6b565b925050604084013567ffffffffffffffff81111561235757612356611ccf565b5b612363868287016122d0565b9150509250925092565b61237681611d59565b811461238157600080fd5b50565b6000813590506123938161236d565b92915050565b600080604083850312156123b0576123af611cca565b5b60006123be85828601611f20565b92505060206123cf85828601612384565b9150509250929050565b600080600080608085870312156123f3576123f2611cca565b5b600061240187828801611f20565b945050602061241287828801611f20565b935050604061242387828801611e6b565b925050606085013567ffffffffffffffff81111561244457612443611ccf565b5b612450878288016122d0565b91505092959194509250565b6000806040838503121561247357612472611cca565b5b600061248185828601611f20565b925050602061249285828601611f20565b9150509250929050565b7f4e487b7100000000000000000000000000000000000000000000000000000000600052602260045260246000fd5b600060028204905060018216806124e357607f821691505b602082108114156124f7576124f661249c565b5b50919050565b7f4552433732313a20617070726f76616c20746f2063757272656e74206f776e6560008201527f7200000000000000000000000000000000000000000000000000000000000000602082015250565b6000612559602183611d9a565b9150612564826124fd565b604082019050919050565b600060208201905081810360008301526125888161254c565b9050919050565b7f4552433732313a20617070726f76652063616c6c6572206973206e6f7420746f60008201527f6b656e206f776e6572206e6f7220617070726f76656420666f7220616c6c0000602082015250565b60006125eb603e83611d9a565b91506125f68261258f565b604082019050919050565b6000602082019050818103600083015261261a816125de565b9050919050565b7f4552433732313a2063616c6c6572206973206e6f7420746f6b656e206f776e6560008201527f72206e6f7220617070726f766564000000000000000000000000000000000000602082015250565b600061267d602e83611d9a565b915061268882612621565b604082019050919050565b600060208201905081810360008301526126ac81612670565b9050919050565b7f4552433732313a20696e76616c696420746f6b656e2049440000000000000000600082015250565b60006126e9601883611d9a565b91506126f4826126b3565b602082019050919050565b60006020820190508181036000830152612718816126dc565b9050919050565b7f4552433732313a2061646472657373207a65726f206973206e6f74206120766160008201527f6c6964206f776e65720000000000000000000000000000000000000000000000602082015250565b600061277b602983611d9a565b91506127868261271f565b604082019050919050565b600060208201905081810360008301526127aa8161276e565b9050919050565b600081905092915050565b60006127c782611d8f565b6127d181856127b1565b93506127e1818560208601611dab565b80840191505092915050565b60006127f982856127bc565b915061280582846127bc565b91508190509392505050565b7f45524337323155524953746f726167653a2055524920736574206f66206e6f6e60008201527f6578697374656e7420746f6b656e000000000000000000000000000000000000602082015250565b600061286d602e83611d9a565b915061287882612811565b604082019050919050565b6000602082019050818103600083015261289c81612860565b9050919050565b7f4552433732313a207472616e736665722066726f6d20696e636f72726563742060008201527f6f776e6572000000000000000000000000000000000000000000000000000000602082015250565b60006128ff602583611d9a565b915061290a826128a3565b604082019050919050565b6000602082019050818103600083015261292e816128f2565b9050919050565b7f4552433732313a207472616e7366657220746f20746865207a65726f2061646460008201527f7265737300000000000000000000000000000000000000000000000000000000602082015250565b6000612991602483611d9a565b915061299c82612935565b604082019050919050565b600060208201905081810360008301526129c081612984565b9050919050565b7f4e487b7100000000000000000000000000000000000000000000000000000000600052601160045260246000fd5b6000612a0182611e4a565b9150612a0c83611e4a565b925082821015612a1f57612a1e6129c7565b5b828203905092915050565b6000612a3582611e4a565b9150612a4083611e4a565b9250827fffffffffffffffffffffffffffffffffffffffffffffffffffffffffffffffff03821115612a7557612a746129c7565b5b828201905092915050565b7f4552433732313a206d696e7420746f20746865207a65726f2061646472657373600082015250565b6000612ab6602083611d9a565b9150612ac182612a80565b602082019050919050565b60006020820190508181036000830152612ae581612aa9565b9050919050565b7f4552433732313a20746f6b656e20616c7265616479206d696e74656400000000600082015250565b6000612b22601c83611d9a565b9150612b2d82612aec565b602082019050919050565b60006020820190508181036000830152612b5181612b15565b9050919050565b7f4552433732313a207472616e7366657220746f206e6f6e20455243373231526560008201527f63656976657220696d706c656d656e7465720000000000000000000000000000602082015250565b6000612bb4603283611d9a565b9150612bbf82612b58565b604082019050919050565b60006020820190508181036000830152612be381612ba7565b9050919050565b7f4552433732313a20617070726f766520746f2063616c6c657200000000000000600082015250565b6000612c20601983611d9a565b9150612c2b82612bea565b602082019050919050565b60006020820190508181036000830152612c4f81612c13565b9050919050565b600081519050919050565b600082825260208201905092915050565b6000612c7d82612c56565b612c878185612c61565b9350612c97818560208601611dab565b612ca081611dde565b840191505092915050565b6000608082019050612cc06000830187611edf565b612ccd6020830186611edf565b612cda6040830185612233565b8181036060830152612cec8184612c72565b905095945050505050565b600081519050612d0681611d00565b92915050565b600060208284031215612d2257612d21611cca565b5b6000612d3084828501612cf7565b91505092915050565b6000612d4482611e4a565b91507fffffffffffffffffffffffffffffffffffffffffffffffffffffffffffffffff821415612d7757612d766129c7565b5b600182019050919050565b7f4e487b7100000000000000000000000000000000000000000000000000000000600052601260045260246000fd5b6000612dbc82611e4a565b9150612dc783611e4a565b925082612dd757612dd6612d82565b5b828204905092915050565b6000612ded82611e4a565b9150612df883611e4a565b925082612e0857612e07612d82565b5b828206905092915050565b7f4e487b7100000000000000000000000000000000000000000000000000000000600052603260045260246000fdfea26469706673582212203ca8f560d3ae6062304a6f7cd125f8b6b4e318e53969ffe2fdc477c415e62a7264736f6c63430008090033",
  "linkReferences": {},
  "deployedLinkReferences": {}
}