{
  "_format": "hh-sol-artifact-1",
  "contractName": "SafeCastMock",
  "sourceName": "contracts/openzeppelin-contracts/mocks/SafeCastMock.sol",
  "abi": [
    {
      "inputs": [
        {
          "internalType": "int256",
          "name": "a",
          "type": "int256"
        }
      ],
      "name": "toInt104",
      "outputs": [
        {
          "internalType": "int104",
          "name": "",
          "type": "int104"
        }
      ],
      "stateMutability": "pure",
      "type": "function"
    },
    {
      "inputs": [
        {
          "internalType": "int256",
          "name": "a",
          "type": "int256"
        }
      ],
      "name": "toInt112",
      "outputs": [
        {
          "internalType": "int112",
          "name": "",
          "type": "int112"
        }
      ],
      "stateMutability": "pure",
      "type": "function"
    },
    {
      "inputs": [
        {
          "internalType": "int256",
          "name": "a",
          "type": "int256"
        }
      ],
      "name": "toInt120",
      "outputs": [
        {
          "internalType": "int120",
          "name": "",
          "type": "int120"
        }
      ],
      "stateMutability": "pure",
      "type": "function"
    },
    {
      "inputs": [
        {
          "internalType": "int256",
          "name": "a",
          "type": "int256"
        }
      ],
      "name": "toInt128",
      "outputs": [
        {
          "internalType": "int128",
          "name": "",
          "type": "int128"
        }
      ],
      "stateMutability": "pure",
      "type": "function"
    },
    {
      "inputs": [
        {
          "internalType": "int256",
          "name": "a",
          "type": "int256"
        }
      ],
      "name": "toInt136",
      "outputs": [
        {
          "internalType": "int136",
          "name": "",
          "type": "int136"
        }
      ],
      "stateMutability": "pure",
      "type": "function"
    },
    {
      "inputs": [
        {
          "internalType": "int256",
          "name": "a",
          "type": "int256"
        }
      ],
      "name": "toInt144",
      "outputs": [
        {
          "internalType": "int144",
          "name": "",
          "type": "int144"
        }
      ],
      "stateMutability": "pure",
      "type": "function"
    },
    {
      "inputs": [
        {
          "internalType": "int256",
          "name": "a",
          "type": "int256"
        }
      ],
      "name": "toInt152",
      "outputs": [
        {
          "internalType": "int152",
          "name": "",
          "type": "int152"
        }
      ],
      "stateMutability": "pure",
      "type": "function"
    },
    {
      "inputs": [
        {
          "internalType": "int256",
          "name": "a",
          "type": "int256"
        }
      ],
      "name": "toInt16",
      "outputs": [
        {
          "internalType": "int16",
          "name": "",
          "type": "int16"
        }
      ],
      "stateMutability": "pure",
      "type": "function"
    },
    {
      "inputs": [
        {
          "internalType": "int256",
          "name": "a",
          "type": "int256"
        }
      ],
      "name": "toInt160",
      "outputs": [
        {
          "internalType": "int160",
          "name": "",
          "type": "int160"
        }
      ],
      "stateMutability": "pure",
      "type": "function"
    },
    {
      "inputs": [
        {
          "internalType": "int256",
          "name": "a",
          "type": "int256"
        }
      ],
      "name": "toInt168",
      "outputs": [
        {
          "internalType": "int168",
          "name": "",
          "type": "int168"
        }
      ],
      "stateMutability": "pure",
      "type": "function"
    },
    {
      "inputs": [
        {
          "internalType": "int256",
          "name": "a",
          "type": "int256"
        }
      ],
      "name": "toInt176",
      "outputs": [
        {
          "internalType": "int176",
          "name": "",
          "type": "int176"
        }
      ],
      "stateMutability": "pure",
      "type": "function"
    },
    {
      "inputs": [
        {
          "internalType": "int256",
          "name": "a",
          "type": "int256"
        }
      ],
      "name": "toInt184",
      "outputs": [
        {
          "internalType": "int184",
          "name": "",
          "type": "int184"
        }
      ],
      "stateMutability": "pure",
      "type": "function"
    },
    {
      "inputs": [
        {
          "internalType": "int256",
          "name": "a",
          "type": "int256"
        }
      ],
      "name": "toInt192",
      "outputs": [
        {
          "internalType": "int192",
          "name": "",
          "type": "int192"
        }
      ],
      "stateMutability": "pure",
      "type": "function"
    },
    {
      "inputs": [
        {
          "internalType": "int256",
          "name": "a",
          "type": "int256"
        }
      ],
      "name": "toInt200",
      "outputs": [
        {
          "internalType": "int200",
          "name": "",
          "type": "int200"
        }
      ],
      "stateMutability": "pure",
      "type": "function"
    },
    {
      "inputs": [
        {
          "internalType": "int256",
          "name": "a",
          "type": "int256"
        }
      ],
      "name": "toInt208",
      "outputs": [
        {
          "internalType": "int208",
          "name": "",
          "type": "int208"
        }
      ],
      "stateMutability": "pure",
      "type": "function"
    },
    {
      "inputs": [
        {
          "internalType": "int256",
          "name": "a",
          "type": "int256"
        }
      ],
      "name": "toInt216",
      "outputs": [
        {
          "internalType": "int216",
          "name": "",
          "type": "int216"
        }
      ],
      "stateMutability": "pure",
      "type": "function"
    },
    {
      "inputs": [
        {
          "internalType": "int256",
          "name": "a",
          "type": "int256"
        }
      ],
      "name": "toInt224",
      "outputs": [
        {
          "internalType": "int224",
          "name": "",
          "type": "int224"
        }
      ],
      "stateMutability": "pure",
      "type": "function"
    },
    {
      "inputs": [
        {
          "internalType": "int256",
          "name": "a",
          "type": "int256"
        }
      ],
      "name": "toInt232",
      "outputs": [
        {
          "internalType": "int232",
          "name": "",
          "type": "int232"
        }
      ],
      "stateMutability": "pure",
      "type": "function"
    },
    {
      "inputs": [
        {
          "internalType": "int256",
          "name": "a",
          "type": "int256"
        }
      ],
      "name": "toInt24",
      "outputs": [
        {
          "internalType": "int24",
          "name": "",
          "type": "int24"
        }
      ],
      "stateMutability": "pure",
      "type": "function"
    },
    {
      "inputs": [
        {
          "internalType": "int256",
          "name": "a",
          "type": "int256"
        }
      ],
      "name": "toInt240",
      "outputs": [
        {
          "internalType": "int240",
          "name": "",
          "type": "int240"
        }
      ],
      "stateMutability": "pure",
      "type": "function"
    },
    {
      "inputs": [
        {
          "internalType": "int256",
          "name": "a",
          "type": "int256"
        }
      ],
      "name": "toInt248",
      "outputs": [
        {
          "internalType": "int248",
          "name": "",
          "type": "int248"
        }
      ],
      "stateMutability": "pure",
      "type": "function"
    },
    {
      "inputs": [
        {
          "internalType": "uint256",
          "name": "a",
          "type": "uint256"
        }
      ],
      "name": "toInt256",
      "outputs": [
        {
          "internalType": "int256",
          "name": "",
          "type": "int256"
        }
      ],
      "stateMutability": "pure",
      "type": "function"
    },
    {
      "inputs": [
        {
          "internalType": "int256",
          "name": "a",
          "type": "int256"
        }
      ],
      "name": "toInt32",
      "outputs": [
        {
          "internalType": "int32",
          "name": "",
          "type": "int32"
        }
      ],
      "stateMutability": "pure",
      "type": "function"
    },
    {
      "inputs": [
        {
          "internalType": "int256",
          "name": "a",
          "type": "int256"
        }
      ],
      "name": "toInt40",
      "outputs": [
        {
          "internalType": "int40",
          "name": "",
          "type": "int40"
        }
      ],
      "stateMutability": "pure",
      "type": "function"
    },
    {
      "inputs": [
        {
          "internalType": "int256",
          "name": "a",
          "type": "int256"
        }
      ],
      "name": "toInt48",
      "outputs": [
        {
          "internalType": "int48",
          "name": "",
          "type": "int48"
        }
      ],
      "stateMutability": "pure",
      "type": "function"
    },
    {
      "inputs": [
        {
          "internalType": "int256",
          "name": "a",
          "type": "int256"
        }
      ],
      "name": "toInt56",
      "outputs": [
        {
          "internalType": "int56",
          "name": "",
          "type": "int56"
        }
      ],
      "stateMutability": "pure",
      "type": "function"
    },
    {
      "inputs": [
        {
          "internalType": "int256",
          "name": "a",
          "type": "int256"
        }
      ],
      "name": "toInt64",
      "outputs": [
        {
          "internalType": "int64",
          "name": "",
          "type": "int64"
        }
      ],
      "stateMutability": "pure",
      "type": "function"
    },
    {
      "inputs": [
        {
          "internalType": "int256",
          "name": "a",
          "type": "int256"
        }
      ],
      "name": "toInt72",
      "outputs": [
        {
          "internalType": "int72",
          "name": "",
          "type": "int72"
        }
      ],
      "stateMutability": "pure",
      "type": "function"
    },
    {
      "inputs": [
        {
          "internalType": "int256",
          "name": "a",
          "type": "int256"
        }
      ],
      "name": "toInt8",
      "outputs": [
        {
          "internalType": "int8",
          "name": "",
          "type": "int8"
        }
      ],
      "stateMutability": "pure",
      "type": "function"
    },
    {
      "inputs": [
        {
          "internalType": "int256",
          "name": "a",
          "type": "int256"
        }
      ],
      "name": "toInt80",
      "outputs": [
        {
          "internalType": "int80",
          "name": "",
          "type": "int80"
        }
      ],
      "stateMutability": "pure",
      "type": "function"
    },
    {
      "inputs": [
        {
          "internalType": "int256",
          "name": "a",
          "type": "int256"
        }
      ],
      "name": "toInt88",
      "outputs": [
        {
          "internalType": "int88",
          "name": "",
          "type": "int88"
        }
      ],
      "stateMutability": "pure",
      "type": "function"
    },
    {
      "inputs": [
        {
          "internalType": "int256",
          "name": "a",
          "type": "int256"
        }
      ],
      "name": "toInt96",
      "outputs": [
        {
          "internalType": "int96",
          "name": "",
          "type": "int96"
        }
      ],
      "stateMutability": "pure",
      "type": "function"
    },
    {
      "inputs": [
        {
          "internalType": "uint256",
          "name": "a",
          "type": "uint256"
        }
      ],
      "name": "toUint104",
      "outputs": [
        {
          "internalType": "uint104",
          "name": "",
          "type": "uint104"
        }
      ],
      "stateMutability": "pure",
      "type": "function"
    },
    {
      "inputs": [
        {
          "internalType": "uint256",
          "name": "a",
          "type": "uint256"
        }
      ],
      "name": "toUint112",
      "outputs": [
        {
          "internalType": "uint112",
          "name": "",
          "type": "uint112"
        }
      ],
      "stateMutability": "pure",
      "type": "function"
    },
    {
      "inputs": [
        {
          "internalType": "uint256",
          "name": "a",
          "type": "uint256"
        }
      ],
      "name": "toUint120",
      "outputs": [
        {
          "internalType": "uint120",
          "name": "",
          "type": "uint120"
        }
      ],
      "stateMutability": "pure",
      "type": "function"
    },
    {
      "inputs": [
        {
          "internalType": "uint256",
          "name": "a",
          "type": "uint256"
        }
      ],
      "name": "toUint128",
      "outputs": [
        {
          "internalType": "uint128",
          "name": "",
          "type": "uint128"
        }
      ],
      "stateMutability": "pure",
      "type": "function"
    },
    {
      "inputs": [
        {
          "internalType": "uint256",
          "name": "a",
          "type": "uint256"
        }
      ],
      "name": "toUint136",
      "outputs": [
        {
          "internalType": "uint136",
          "name": "",
          "type": "uint136"
        }
      ],
      "stateMutability": "pure",
      "type": "function"
    },
    {
      "inputs": [
        {
          "internalType": "uint256",
          "name": "a",
          "type": "uint256"
        }
      ],
      "name": "toUint144",
      "outputs": [
        {
          "internalType": "uint144",
          "name": "",
          "type": "uint144"
        }
      ],
      "stateMutability": "pure",
      "type": "function"
    },
    {
      "inputs": [
        {
          "internalType": "uint256",
          "name": "a",
          "type": "uint256"
        }
      ],
      "name": "toUint152",
      "outputs": [
        {
          "internalType": "uint152",
          "name": "",
          "type": "uint152"
        }
      ],
      "stateMutability": "pure",
      "type": "function"
    },
    {
      "inputs": [
        {
          "internalType": "uint256",
          "name": "a",
          "type": "uint256"
        }
      ],
      "name": "toUint16",
      "outputs": [
        {
          "internalType": "uint16",
          "name": "",
          "type": "uint16"
        }
      ],
      "stateMutability": "pure",
      "type": "function"
    },
    {
      "inputs": [
        {
          "internalType": "uint256",
          "name": "a",
          "type": "uint256"
        }
      ],
      "name": "toUint160",
      "outputs": [
        {
          "internalType": "uint160",
          "name": "",
          "type": "uint160"
        }
      ],
      "stateMutability": "pure",
      "type": "function"
    },
    {
      "inputs": [
        {
          "internalType": "uint256",
          "name": "a",
          "type": "uint256"
        }
      ],
      "name": "toUint168",
      "outputs": [
        {
          "internalType": "uint168",
          "name": "",
          "type": "uint168"
        }
      ],
      "stateMutability": "pure",
      "type": "function"
    },
    {
      "inputs": [
        {
          "internalType": "uint256",
          "name": "a",
          "type": "uint256"
        }
      ],
      "name": "toUint176",
      "outputs": [
        {
          "internalType": "uint176",
          "name": "",
          "type": "uint176"
        }
      ],
      "stateMutability": "pure",
      "type": "function"
    },
    {
      "inputs": [
        {
          "internalType": "uint256",
          "name": "a",
          "type": "uint256"
        }
      ],
      "name": "toUint184",
      "outputs": [
        {
          "internalType": "uint184",
          "name": "",
          "type": "uint184"
        }
      ],
      "stateMutability": "pure",
      "type": "function"
    },
    {
      "inputs": [
        {
          "internalType": "uint256",
          "name": "a",
          "type": "uint256"
        }
      ],
      "name": "toUint192",
      "outputs": [
        {
          "internalType": "uint192",
          "name": "",
          "type": "uint192"
        }
      ],
      "stateMutability": "pure",
      "type": "function"
    },
    {
      "inputs": [
        {
          "internalType": "uint256",
          "name": "a",
          "type": "uint256"
        }
      ],
      "name": "toUint200",
      "outputs": [
        {
          "internalType": "uint200",
          "name": "",
          "type": "uint200"
        }
      ],
      "stateMutability": "pure",
      "type": "function"
    },
    {
      "inputs": [
        {
          "internalType": "uint256",
          "name": "a",
          "type": "uint256"
        }
      ],
      "name": "toUint208",
      "outputs": [
        {
          "internalType": "uint208",
          "name": "",
          "type": "uint208"
        }
      ],
      "stateMutability": "pure",
      "type": "function"
    },
    {
      "inputs": [
        {
          "internalType": "uint256",
          "name": "a",
          "type": "uint256"
        }
      ],
      "name": "toUint216",
      "outputs": [
        {
          "internalType": "uint216",
          "name": "",
          "type": "uint216"
        }
      ],
      "stateMutability": "pure",
      "type": "function"
    },
    {
      "inputs": [
        {
          "internalType": "uint256",
          "name": "a",
          "type": "uint256"
        }
      ],
      "name": "toUint224",
      "outputs": [
        {
          "internalType": "uint224",
          "name": "",
          "type": "uint224"
        }
      ],
      "stateMutability": "pure",
      "type": "function"
    },
    {
      "inputs": [
        {
          "internalType": "uint256",
          "name": "a",
          "type": "uint256"
        }
      ],
      "name": "toUint232",
      "outputs": [
        {
          "internalType": "uint232",
          "name": "",
          "type": "uint232"
        }
      ],
      "stateMutability": "pure",
      "type": "function"
    },
    {
      "inputs": [
        {
          "internalType": "uint256",
          "name": "a",
          "type": "uint256"
        }
      ],
      "name": "toUint24",
      "outputs": [
        {
          "internalType": "uint24",
          "name": "",
          "type": "uint24"
        }
      ],
      "stateMutability": "pure",
      "type": "function"
    },
    {
      "inputs": [
        {
          "internalType": "uint256",
          "name": "a",
          "type": "uint256"
        }
      ],
      "name": "toUint240",
      "outputs": [
        {
          "internalType": "uint240",
          "name": "",
          "type": "uint240"
        }
      ],
      "stateMutability": "pure",
      "type": "function"
    },
    {
      "inputs": [
        {
          "internalType": "uint256",
          "name": "a",
          "type": "uint256"
        }
      ],
      "name": "toUint248",
      "outputs": [
        {
          "internalType": "uint248",
          "name": "",
          "type": "uint248"
        }
      ],
      "stateMutability": "pure",
      "type": "function"
    },
    {
      "inputs": [
        {
          "internalType": "int256",
          "name": "a",
          "type": "int256"
        }
      ],
      "name": "toUint256",
      "outputs": [
        {
          "internalType": "uint256",
          "name": "",
          "type": "uint256"
        }
      ],
      "stateMutability": "pure",
      "type": "function"
    },
    {
      "inputs": [
        {
          "internalType": "uint256",
          "name": "a",
          "type": "uint256"
        }
      ],
      "name": "toUint32",
      "outputs": [
        {
          "internalType": "uint32",
          "name": "",
          "type": "uint32"
        }
      ],
      "stateMutability": "pure",
      "type": "function"
    },
    {
      "inputs": [
        {
          "internalType": "uint256",
          "name": "a",
          "type": "uint256"
        }
      ],
      "name": "toUint40",
      "outputs": [
        {
          "internalType": "uint40",
          "name": "",
          "type": "uint40"
        }
      ],
      "stateMutability": "pure",
      "type": "function"
    },
    {
      "inputs": [
        {
          "internalType": "uint256",
          "name": "a",
          "type": "uint256"
        }
      ],
      "name": "toUint48",
      "outputs": [
        {
          "internalType": "uint48",
          "name": "",
          "type": "uint48"
        }
      ],
      "stateMutability": "pure",
      "type": "function"
    },
    {
      "inputs": [
        {
          "internalType": "uint256",
          "name": "a",
          "type": "uint256"
        }
      ],
      "name": "toUint56",
      "outputs": [
        {
          "internalType": "uint56",
          "name": "",
          "type": "uint56"
        }
      ],
      "stateMutability": "pure",
      "type": "function"
    },
    {
      "inputs": [
        {
          "internalType": "uint256",
          "name": "a",
          "type": "uint256"
        }
      ],
      "name": "toUint64",
      "outputs": [
        {
          "internalType": "uint64",
          "name": "",
          "type": "uint64"
        }
      ],
      "stateMutability": "pure",
      "type": "function"
    },
    {
      "inputs": [
        {
          "internalType": "uint256",
          "name": "a",
          "type": "uint256"
        }
      ],
      "name": "toUint72",
      "outputs": [
        {
          "internalType": "uint72",
          "name": "",
          "type": "uint72"
        }
      ],
      "stateMutability": "pure",
      "type": "function"
    },
    {
      "inputs": [
        {
          "internalType": "uint256",
          "name": "a",
          "type": "uint256"
        }
      ],
      "name": "toUint8",
      "outputs": [
        {
          "internalType": "uint8",
          "name": "",
          "type": "uint8"
        }
      ],
      "stateMutability": "pure",
      "type": "function"
    },
    {
      "inputs": [
        {
          "internalType": "uint256",
          "name": "a",
          "type": "uint256"
        }
      ],
      "name": "toUint80",
      "outputs": [
        {
          "internalType": "uint80",
          "name": "",
          "type": "uint80"
        }
      ],
      "stateMutability": "pure",
      "type": "function"
    },
    {
      "inputs": [
        {
          "internalType": "uint256",
          "name": "a",
          "type": "uint256"
        }
      ],
      "name": "toUint88",
      "outputs": [
        {
          "internalType": "uint88",
          "name": "",
          "type": "uint88"
        }
      ],
      "stateMutability": "pure",
      "type": "function"
    },
    {
      "inputs": [
        {
          "internalType": "uint256",
          "name": "a",
          "type": "uint256"
        }
      ],
      "name": "toUint96",
      "outputs": [
        {
          "internalType": "uint96",
          "name": "",
          "type": "uint96"
        }
      ],
      "stateMutability": "pure",
      "type": "function"
    }
  ],
  "bytecode": "0x608060405234801561001057600080fd5b50615516806100206000396000f3fe608060405234801561001057600080fd5b50600436106103d05760003560e01c8063809fdd33116101ff578063c81932551161011a578063e5feca77116100ad578063eaeff4e51161007c578063eaeff4e514610f15578063f136dc0214610f45578063fb7f3c7914610f75578063fdcf791b14610fa5576103d0565b8063e5feca7714610e55578063e6a6f6f814610e85578063e87167c314610eb5578063ea4b667414610ee5576103d0565b8063dd2a0316116100e9578063dd2a031614610d95578063dfbe873b14610dc5578063dfef6beb14610df5578063e46ea12014610e25576103d0565b8063c819325514610cd5578063cbff595f14610d05578063cf65b4d314610d35578063d6bd32aa14610d65576103d0565b80639c6f59be11610192578063b936bfb311610161578063b936bfb314610c15578063bb33fe0814610c45578063c3cd16b514610c75578063c4b4298c14610ca5576103d0565b80639c6f59be14610b55578063ad4b458a14610b85578063b012db6f14610bb5578063b0a9408714610be5576103d0565b80638c48fc22116101ce5780638c48fc2214610a955780639374068f14610ac557806395cb3ec614610af5578063971bcc2214610b25576103d0565b8063809fdd33146109d5578063821bedfa14610a055780638398383814610a3557806385bb6ae114610a65576103d0565b80633b703090116102ef5780635badd405116102825780636d6d9e4b116102515780636d6d9e4b14610915578063720ad67414610945578063785de9bf146109755780637ef90ce0146109a5576103d0565b80635badd405146108555780635bb798601461088557806368048346146108b55780636c504853146108e5576103d0565b806353b916f1116102be57806353b916f11461079557806354c23feb146107c5578063564121c7146107f557806358d421eb14610825576103d0565b80633b703090146106d55780633fd726721461070557806341d2aa641461073557806343710f4614610765576103d0565b80631cf887fc116103675780632665fad0116103365780632665fad0146106155780632c81868d14610645578063316fcbbd1461067557806338d8e45a146106a5576103d0565b80631cf887fc146105555780631d1131e2146105855780631e07d036146105b55780631e4e4bad146105e5576103d0565b80630cc4681e116103a35780630cc4681e146104955780630d4a7bdb146104c557806311e867ff146104f557806318a359ec14610525576103d0565b806301b49217146103d557806305752e511461040557806305b131011461043557806307f841be14610465575b600080fd5b6103ef60048036038101906103ea919061321c565b610fd5565b6040516103fc9190613265565b60405180910390f35b61041f600480360381019061041a919061321c565b610fe7565b60405161042c919061329c565b60405180910390f35b61044f600480360381019061044a91906132ed565b610ff9565b60405161045c919061334b565b60405180910390f35b61047f600480360381019061047a919061321c565b61100b565b60405161048c9190613382565b60405180910390f35b6104af60048036038101906104aa91906132ed565b61101d565b6040516104bc91906133b9565b60405180910390f35b6104df60048036038101906104da91906132ed565b61102f565b6040516104ec919061340c565b60405180910390f35b61050f600480360381019061050a919061321c565b611041565b60405161051c9190613443565b60405180910390f35b61053f600480360381019061053a919061321c565b611053565b60405161054c919061347a565b60405180910390f35b61056f600480360381019061056a91906132ed565b611065565b60405161057c91906134bc565b60405180910390f35b61059f600480360381019061059a919061321c565b611077565b6040516105ac91906134f3565b60405180910390f35b6105cf60048036038101906105ca919061321c565b611089565b6040516105dc919061352a565b60405180910390f35b6105ff60048036038101906105fa91906132ed565b61109b565b60405161060c919061356f565b60405180910390f35b61062f600480360381019061062a91906132ed565b6110ad565b60405161063c91906135ad565b60405180910390f35b61065f600480360381019061065a919061321c565b6110bf565b60405161066c91906135e4565b60405180910390f35b61068f600480360381019061068a91906132ed565b6110d1565b60405161069c9190613623565b60405180910390f35b6106bf60048036038101906106ba919061321c565b6110e3565b6040516106cc919061365a565b60405180910390f35b6106ef60048036038101906106ea91906132ed565b6110f5565b6040516106fc91906136ae565b60405180910390f35b61071f600480360381019061071a91906132ed565b611107565b60405161072c9190613703565b60405180910390f35b61074f600480360381019061074a91906132ed565b611119565b60405161075c9190613747565b60405180910390f35b61077f600480360381019061077a919061321c565b61112b565b60405161078c919061377e565b60405180910390f35b6107af60048036038101906107aa919061321c565b61113d565b6040516107bc91906137b5565b60405180910390f35b6107df60048036038101906107da91906132ed565b61114f565b6040516107ec9190613800565b60405180910390f35b61080f600480360381019061080a91906132ed565b611161565b60405161081c919061384d565b60405180910390f35b61083f600480360381019061083a919061321c565b611173565b60405161084c9190613884565b60405180910390f35b61086f600480360381019061086a919061321c565b611185565b60405161087c91906138bb565b60405180910390f35b61089f600480360381019061089a91906132ed565b611197565b6040516108ac919061390d565b60405180910390f35b6108cf60048036038101906108ca919061321c565b6111a9565b6040516108dc9190613944565b60405180910390f35b6108ff60048036038101906108fa919061321c565b6111bb565b60405161090c919061397b565b60405180910390f35b61092f600480360381019061092a919061321c565b6111cd565b60405161093c91906139b2565b60405180910390f35b61095f600480360381019061095a91906132ed565b6111df565b60405161096c9190613a01565b60405180910390f35b61098f600480360381019061098a91906132ed565b6111f1565b60405161099c9190613a4f565b60405180910390f35b6109bf60048036038101906109ba91906132ed565b611203565b6040516109cc9190613a90565b60405180910390f35b6109ef60048036038101906109ea91906132ed565b611215565b6040516109fc9190613ad6565b60405180910390f35b610a1f6004803603810190610a1a919061321c565b611227565b604051610a2c9190613b0d565b60405180910390f35b610a4f6004803603810190610a4a91906132ed565b611239565b604051610a5c9190613b50565b60405180910390f35b610a7f6004803603810190610a7a91906132ed565b61124b565b604051610a8c9190613ba1565b60405180910390f35b610aaf6004803603810190610aaa91906132ed565b61125d565b604051610abc9190613bea565b60405180910390f35b610adf6004803603810190610ada91906132ed565b61126f565b604051610aec9190613c22565b60405180910390f35b610b0f6004803603810190610b0a91906132ed565b611281565b604051610b1c9190613c5b565b60405180910390f35b610b3f6004803603810190610b3a919061321c565b611293565b604051610b4c9190613c92565b60405180910390f35b610b6f6004803603810190610b6a919061321c565b6112a5565b604051610b7c9190613cc9565b60405180910390f35b610b9f6004803603810190610b9a91906132ed565b6112b7565b604051610bac9190613d10565b60405180910390f35b610bcf6004803603810190610bca91906132ed565b6112c9565b604051610bdc9190613d4c565b60405180910390f35b610bff6004803603810190610bfa919061321c565b6112db565b604051610c0c9190613d83565b60405180910390f35b610c2f6004803603810190610c2a91906132ed565b6112ed565b604051610c3c9190613dcb565b60405180910390f35b610c5f6004803603810190610c5a91906132ed565b6112ff565b604051610c6c9190613e1b565b60405180910390f35b610c8f6004803603810190610c8a919061321c565b611311565b604051610c9c9190613e52565b60405180910390f35b610cbf6004803603810190610cba91906132ed565b611323565b604051610ccc9190613e8f565b60405180910390f35b610cef6004803603810190610cea91906132ed565b611335565b604051610cfc9190613ec9565b60405180910390f35b610d1f6004803603810190610d1a91906132ed565b611347565b604051610d2c9190613f09565b60405180910390f35b610d4f6004803603810190610d4a919061321c565b611359565b604051610d5c9190613f40565b60405180910390f35b610d7f6004803603810190610d7a919061321c565b61136b565b604051610d8c9190613f77565b60405180910390f35b610daf6004803603810190610daa919061321c565b61137d565b604051610dbc9190613fae565b60405180910390f35b610ddf6004803603810190610dda91906132ed565b61138f565b604051610dec9190613fd8565b60405180910390f35b610e0f6004803603810190610e0a91906132ed565b6113a1565b604051610e1c9190614022565b60405180910390f35b610e3f6004803603810190610e3a919061321c565b6113b3565b604051610e4c9190614059565b60405180910390f35b610e6f6004803603810190610e6a919061321c565b6113c5565b604051610e7c9190614090565b60405180910390f35b610e9f6004803603810190610e9a919061321c565b6113d7565b604051610eac91906140c7565b60405180910390f35b610ecf6004803603810190610eca919061321c565b6113e9565b604051610edc91906140fe565b60405180910390f35b610eff6004803603810190610efa919061321c565b6113fb565b604051610f0c9190614135565b60405180910390f35b610f2f6004803603810190610f2a919061321c565b61140d565b604051610f3c919061416c565b60405180910390f35b610f5f6004803603810190610f5a919061321c565b61141f565b604051610f6c91906141a3565b60405180910390f35b610f8f6004803603810190610f8a91906132ed565b611431565b604051610f9c91906141de565b60405180910390f35b610fbf6004803603810190610fba919061321c565b611443565b604051610fcc9190614208565b60405180910390f35b6000610fe082611455565b9050919050565b6000610ff2826114f3565b9050919050565b60006110048261158f565b9050919050565b6000611016826115f4565b9050919050565b60006110288261168b565b9050919050565b600061103a826116db565b9050919050565b600061104c82611747565b9050919050565b600061105e826117df565b9050919050565b600061107082611864565b9050919050565b6000611082826118bf565b9050919050565b60006110948261194a565b9050919050565b60006110a6826119d6565b9050919050565b60006110b882611a34565b9050919050565b60006110ca82611a8b565b9050919050565b60006110dc82611b14565b9050919050565b60006110ee82611b6c565b9050919050565b600061110082611c07565b9050919050565b600061111282611c74565b9050919050565b600061112482611ce2565b9050919050565b600061113682611d3f565b9050919050565b600061114882611dc5565b9050919050565b600061115a82611e62565b9050919050565b600061116c82611ec6565b9050919050565b600061117e82611f2c565b9050919050565b600061119082611fb9565b9050919050565b60006111a28261204b565b9050919050565b60006111b4826120b6565b9050919050565b60006111c682612149565b9050919050565b60006111d8826121df565b9050919050565b60006111ea82612270565b9050919050565b60006111fc826122d8565b9050919050565b600061120e8261233f565b9050919050565b600061122082612399565b9050919050565b6000611232826123f8565b9050919050565b60006112448261248d565b9050919050565b6000611256826124e9565b9050919050565b600061126882612553565b9050919050565b600061127a826125b5565b9050919050565b600061128c82612606565b9050919050565b600061129e82612658565b9050919050565b60006112b0826126e2565b9050919050565b60006112c282612765565b9050919050565b60006112d4826127c5565b9050919050565b60006112e68261281a565b9050919050565b60006112f8826128aa565b9050919050565b600061130a8261290b565b9050919050565b600061131c82612974565b9050919050565b600061132e826129f8565b9050919050565b600061134082612a4e565b9050919050565b600061135282612aa1565b9050919050565b600061136482612afa565b9050919050565b600061137682612b7b565b9050919050565b600061138882612c02565b9050919050565b600061139a82612c91565b9050919050565b60006113ac82612cfe565b9050919050565b60006113be82612d61565b9050919050565b60006113d082612de9565b9050919050565b60006113e282612e6b565b9050919050565b60006113f482612eff565b9050919050565b600061140682612f99565b9050919050565b600061141882613027565b9050919050565b600061142a826130c0565b9050919050565b600061143c82613140565b9050919050565b600061144e82613194565b9050919050565b60007fff80000000000000000000000000000000000000000000000000000000000000601e0b82121580156114ac57507e7fffffffffffffffffffffffffffffffffffffffffffffffffffffffffffff601e0b8213155b6114eb576040517f08c379a00000000000000000000000000000000000000000000000000000000081526004016114e2906142a6565b60405180910390fd5b819050919050565b60007fffffff8000000000000000000000000000000000000000000000000000000000601c0b821215801561154857507c7fffffffffffffffffffffffffffffffffffffffffffffffffffffffff601c0b8213155b611587576040517f08c379a000000000000000000000000000000000000000000000000000000000815260040161157e90614338565b60405180910390fd5b819050919050565b600075ffffffffffffffffffffffffffffffffffffffffffff80168211156115ec576040517f08c379a00000000000000000000000000000000000000000000000000000000081526004016115e3906143ca565b60405180910390fd5b819050919050565b60007fffffffffffffffff80000000000000000000000000000000000000000000000060170b82121580156116445750777fffffffffffffffffffffffffffffffffffffffffffffff60170b8213155b611683576040517f08c379a000000000000000000000000000000000000000000000000000000000815260040161167a9061445c565b60405180910390fd5b819050919050565b600060ff80168211156116d3576040517f08c379a00000000000000000000000000000000000000000000000000000000081526004016116ca906144ee565b60405180910390fd5b819050919050565b60007cffffffffffffffffffffffffffffffffffffffffffffffffffffffffff801682111561173f576040517f08c379a000000000000000000000000000000000000000000000000000000000815260040161173690614338565b60405180910390fd5b819050919050565b60007fffffffffffffff8000000000000000000000000000000000000000000000000060180b82121580156117985750787fffffffffffffffffffffffffffffffffffffffffffffffff60180b8213155b6117d7576040517f08c379a00000000000000000000000000000000000000000000000000000000081526004016117ce90614580565b60405180910390fd5b819050919050565b60007fffffffffffffffffffffffffffffffffffffffffffffffffffff80000000000060050b821215801561181d5750657fffffffffff60050b8213155b61185c576040517f08c379a000000000000000000000000000000000000000000000000000000000815260040161185390614612565b60405180910390fd5b819050919050565b60006bffffffffffffffffffffffff80168211156118b7576040517f08c379a00000000000000000000000000000000000000000000000000000000081526004016118ae906146a4565b60405180910390fd5b819050919050565b60007fffffffffffffffffffffffffffffffffffffffff800000000000000000000000600b0b821215801561190357506b7fffffffffffffffffffffff600b0b8213155b611942576040517f08c379a0000000000000000000000000000000000000000000000000000000008152600401611939906146a4565b60405180910390fd5b819050919050565b60007fffffffffffffffffffffffffffffffffffffff80000000000000000000000000600c0b821215801561198f57506c7fffffffffffffffffffffffff600c0b8213155b6119ce576040517f08c379a00000000000000000000000000000000000000000000000000000000081526004016119c590614736565b60405180910390fd5b819050919050565b60006effffffffffffffffffffffffffffff8016821115611a2c576040517f08c379a0000000000000000000000000000000000000000000000000000000008152600401611a23906147c8565b60405180910390fd5b819050919050565b600067ffffffffffffffff8016821115611a83576040517f08c379a0000000000000000000000000000000000000000000000000000000008152600401611a7a9061485a565b60405180910390fd5b819050919050565b60007fffffffffffffffffffffffffffffffffffffffffffff8000000000000000000060090b8212158015611acd5750697fffffffffffffffffff60090b8213155b611b0c576040517f08c379a0000000000000000000000000000000000000000000000000000000008152600401611b03906148ec565b60405180910390fd5b819050919050565b600068ffffffffffffffffff8016821115611b64576040517f08c379a0000000000000000000000000000000000000000000000000000000008152600401611b5b9061497e565b60405180910390fd5b819050919050565b60007fffffffff80000000000000000000000000000000000000000000000000000000601b0b8212158015611bc057507b7fffffffffffffffffffffffffffffffffffffffffffffffffffffff601b0b8213155b611bff576040517f08c379a0000000000000000000000000000000000000000000000000000000008152600401611bf690614a10565b60405180910390fd5b819050919050565b60007dffffffffffffffffffffffffffffffffffffffffffffffffffffffffffff8016821115611c6c576040517f08c379a0000000000000000000000000000000000000000000000000000000008152600401611c6390614aa2565b60405180910390fd5b819050919050565b60007effffffffffffffffffffffffffffffffffffffffffffffffffffffffffffff8016821115611cda576040517f08c379a0000000000000000000000000000000000000000000000000000000008152600401611cd1906142a6565b60405180910390fd5b819050919050565b60006dffffffffffffffffffffffffffff8016821115611d37576040517f08c379a0000000000000000000000000000000000000000000000000000000008152600401611d2e90614b34565b60405180910390fd5b819050919050565b60007fffffffffffffffffffffffffffffffffffffffffffffffffff8000000000000060060b8212158015611d7e5750667fffffffffffff60060b8213155b611dbd576040517f08c379a0000000000000000000000000000000000000000000000000000000008152600401611db490614bc6565b60405180910390fd5b819050919050565b60007fffff800000000000000000000000000000000000000000000000000000000000601d0b8212158015611e1b57507d7fffffffffffffffffffffffffffffffffffffffffffffffffffffffffff601d0b8213155b611e5a576040517f08c379a0000000000000000000000000000000000000000000000000000000008152600401611e5190614aa2565b60405180910390fd5b819050919050565b600074ffffffffffffffffffffffffffffffffffffffffff8016821115611ebe576040517f08c379a0000000000000000000000000000000000000000000000000000000008152600401611eb590614c58565b60405180910390fd5b819050919050565b600076ffffffffffffffffffffffffffffffffffffffffffffff8016821115611f24576040517f08c379a0000000000000000000000000000000000000000000000000000000008152600401611f1b90614cea565b60405180910390fd5b819050919050565b60007fffffffffffffffffffffffffffffffffffff8000000000000000000000000000600d0b8212158015611f7257506d7fffffffffffffffffffffffffff600d0b8213155b611fb1576040517f08c379a0000000000000000000000000000000000000000000000000000000008152600401611fa890614b34565b60405180910390fd5b819050919050565b60007fffffffffffffffffffffffffff8000000000000000000000000000000000000060120b82121580156120045750727fffffffffffffffffffffffffffffffffffff60120b8213155b612043576040517f08c379a000000000000000000000000000000000000000000000000000000000815260040161203a90614d7c565b60405180910390fd5b819050919050565b60007bffffffffffffffffffffffffffffffffffffffffffffffffffffffff80168211156120ae576040517f08c379a00000000000000000000000000000000000000000000000000000000081526004016120a590614a10565b60405180910390fd5b819050919050565b60007fffffffffffffffffffffffff800000000000000000000000000000000000000060130b82121580156121025750737fffffffffffffffffffffffffffffffffffffff60130b8213155b612141576040517f08c379a000000000000000000000000000000000000000000000000000000000815260040161213890614e0e565b60405180910390fd5b819050919050565b60007fffffffffffffffffff800000000000000000000000000000000000000000000060160b82121580156121985750767fffffffffffffffffffffffffffffffffffffffffffff60160b8213155b6121d7576040517f08c379a00000000000000000000000000000000000000000000000000000000081526004016121ce90614cea565b60405180910390fd5b819050919050565b60007fffffffffffffffffffffffffffff80000000000000000000000000000000000060110b82121580156122295750717fffffffffffffffffffffffffffffffffff60110b8213155b612268576040517f08c379a000000000000000000000000000000000000000000000000000000000815260040161225f90614ea0565b60405180910390fd5b819050919050565b600078ffffffffffffffffffffffffffffffffffffffffffffffffff80168211156122d0576040517f08c379a00000000000000000000000000000000000000000000000000000000081526004016122c790614580565b60405180910390fd5b819050919050565b600077ffffffffffffffffffffffffffffffffffffffffffffffff8016821115612337576040517f08c379a000000000000000000000000000000000000000000000000000000000815260040161232e9061445c565b60405180910390fd5b819050919050565b60006affffffffffffffffffffff8016821115612391576040517f08c379a000000000000000000000000000000000000000000000000000000000815260040161238890614f32565b60405180910390fd5b819050919050565b60006fffffffffffffffffffffffffffffffff80168211156123f0576040517f08c379a00000000000000000000000000000000000000000000000000000000081526004016123e790614fc4565b60405180910390fd5b819050919050565b60007fffffffffffffffffffff8000000000000000000000000000000000000000000060150b82121580156124465750757fffffffffffffffffffffffffffffffffffffffffff60150b8213155b612485576040517f08c379a000000000000000000000000000000000000000000000000000000000815260040161247c906143ca565b60405180910390fd5b819050919050565b60006cffffffffffffffffffffffffff80168211156124e1576040517f08c379a00000000000000000000000000000000000000000000000000000000081526004016124d890614736565b60405180910390fd5b819050919050565b60007affffffffffffffffffffffffffffffffffffffffffffffffffffff801682111561254b576040517f08c379a000000000000000000000000000000000000000000000000000000000815260040161254290615056565b60405180910390fd5b819050919050565b600072ffffffffffffffffffffffffffffffffffffff80168211156125ad576040517f08c379a00000000000000000000000000000000000000000000000000000000081526004016125a490614d7c565b60405180910390fd5b819050919050565b600061ffff80168211156125fe576040517f08c379a00000000000000000000000000000000000000000000000000000000081526004016125f5906150e8565b60405180910390fd5b819050919050565b600062ffffff8016821115612650576040517f08c379a00000000000000000000000000000000000000000000000000000000081526004016126479061517a565b60405180910390fd5b819050919050565b60007fffffffffffffffffffffffffffffffffffffffffff8000000000000000000000600a0b821215801561269b57506a7fffffffffffffffffffff600a0b8213155b6126da576040517f08c379a00000000000000000000000000000000000000000000000000000000081526004016126d190614f32565b60405180910390fd5b819050919050565b60007fffffffffffffffffffffffffffffffffffffffffffffffffffffffff8000000060030b821215801561271e5750637fffffff60030b8213155b61275d576040517f08c379a00000000000000000000000000000000000000000000000000000000081526004016127549061520c565b60405180910390fd5b819050919050565b600070ffffffffffffffffffffffffffffffffff80168211156127bd576040517f08c379a00000000000000000000000000000000000000000000000000000000081526004016127b49061529e565b60405180910390fd5b819050919050565b600065ffffffffffff8016821115612812576040517f08c379a000000000000000000000000000000000000000000000000000000000815260040161280990614612565b60405180910390fd5b819050919050565b60007fffffffffffffffffffffffffffffff800000000000000000000000000000000060100b82121580156128635750707fffffffffffffffffffffffffffffffff60100b8213155b6128a2576040517f08c379a00000000000000000000000000000000000000000000000000000000081526004016128999061529e565b60405180910390fd5b819050919050565b600071ffffffffffffffffffffffffffffffffffff8016821115612903576040517f08c379a00000000000000000000000000000000000000000000000000000000081526004016128fa90614ea0565b60405180910390fd5b819050919050565b600079ffffffffffffffffffffffffffffffffffffffffffffffffffff801682111561296c576040517f08c379a000000000000000000000000000000000000000000000000000000000815260040161296390615330565b60405180910390fd5b819050919050565b60007fffffffffffffffffffffffffffffffffffffffffffffffffffffff800000000060040b82121580156129b15750647fffffffff60040b8213155b6129f0576040517f08c379a00000000000000000000000000000000000000000000000000000000081526004016129e7906153c2565b60405180910390fd5b819050919050565b600066ffffffffffffff8016821115612a46576040517f08c379a0000000000000000000000000000000000000000000000000000000008152600401612a3d90614bc6565b60405180910390fd5b819050919050565b600063ffffffff8016821115612a99576040517f08c379a0000000000000000000000000000000000000000000000000000000008152600401612a909061520c565b60405180910390fd5b819050919050565b600069ffffffffffffffffffff8016821115612af2576040517f08c379a0000000000000000000000000000000000000000000000000000000008152600401612ae9906148ec565b60405180910390fd5b819050919050565b60007fffffffffffffffffffffffffffffffffffffffffffffffffffffffffffff800060010b8212158015612b345750617fff60010b8213155b612b73576040517f08c379a0000000000000000000000000000000000000000000000000000000008152600401612b6a906150e8565b60405180910390fd5b819050919050565b60007fffffffffffffffffffffffffffffffffffffffffffffffff800000000000000060070b8212158015612bbb5750677fffffffffffffff60070b8213155b612bfa576040517f08c379a0000000000000000000000000000000000000000000000000000000008152600401612bf19061485a565b60405180910390fd5b819050919050565b60007fffffffffffffffffffffffffffffffff80000000000000000000000000000000600f0b8212158015612c4a57506f7fffffffffffffffffffffffffffffff600f0b8213155b612c89576040517f08c379a0000000000000000000000000000000000000000000000000000000008152600401612c8090614fc4565b60405180910390fd5b819050919050565b60007f7fffffffffffffffffffffffffffffffffffffffffffffffffffffffffffffff821115612cf6576040517f08c379a0000000000000000000000000000000000000000000000000000000008152600401612ced90615454565b60405180910390fd5b819050919050565b600073ffffffffffffffffffffffffffffffffffffffff8016821115612d59576040517f08c379a0000000000000000000000000000000000000000000000000000000008152600401612d5090614e0e565b60405180910390fd5b819050919050565b60007fffffffffffffffffffffffffffffffffffffffffffffff80000000000000000060080b8212158015612da25750687fffffffffffffffff60080b8213155b612de1576040517f08c379a0000000000000000000000000000000000000000000000000000000008152600401612dd89061497e565b60405180910390fd5b819050919050565b60007fffffffffffffffffffffffffffffffffffffffffffffffffffffffffff80000060020b8212158015612e245750627fffff60020b8213155b612e63576040517f08c379a0000000000000000000000000000000000000000000000000000000008152600401612e5a9061517a565b60405180910390fd5b819050919050565b60007fffffffffffffffffffffff80000000000000000000000000000000000000000060140b8212158015612eb85750747fffffffffffffffffffffffffffffffffffffffff60140b8213155b612ef7576040517f08c379a0000000000000000000000000000000000000000000000000000000008152600401612eee90614c58565b60405180910390fd5b819050919050565b60007fffffffffff800000000000000000000000000000000000000000000000000000601a0b8212158015612f5257507a7fffffffffffffffffffffffffffffffffffffffffffffffffffff601a0b8213155b612f91576040517f08c379a0000000000000000000000000000000000000000000000000000000008152600401612f8890615056565b60405180910390fd5b819050919050565b60007fffffffffffffffffffffffffffffffffff800000000000000000000000000000600e0b8212158015612fe057506e7fffffffffffffffffffffffffffff600e0b8213155b61301f576040517f08c379a0000000000000000000000000000000000000000000000000000000008152600401613016906147c8565b60405180910390fd5b819050919050565b60007fffffffffffff800000000000000000000000000000000000000000000000000060190b82121580156130795750797fffffffffffffffffffffffffffffffffffffffffffffffffff60190b8213155b6130b8576040517f08c379a00000000000000000000000000000000000000000000000000000000081526004016130af90615330565b60405180910390fd5b819050919050565b60007fffffffffffffffffffffffffffffffffffffffffffffffffffffffffffffff8060000b82121580156130f95750607f60000b8213155b613138576040517f08c379a000000000000000000000000000000000000000000000000000000000815260040161312f906144ee565b60405180910390fd5b819050919050565b600064ffffffffff801682111561318c576040517f08c379a0000000000000000000000000000000000000000000000000000000008152600401613183906153c2565b60405180910390fd5b819050919050565b6000808212156131d9576040517f08c379a00000000000000000000000000000000000000000000000000000000081526004016131d0906154c0565b60405180910390fd5b819050919050565b600080fd5b6000819050919050565b6131f9816131e6565b811461320457600080fd5b50565b600081359050613216816131f0565b92915050565b600060208284031215613232576132316131e1565b5b600061324084828501613207565b91505092915050565b600081601e0b9050919050565b61325f81613249565b82525050565b600060208201905061327a6000830184613256565b92915050565b600081601c0b9050919050565b61329681613280565b82525050565b60006020820190506132b1600083018461328d565b92915050565b6000819050919050565b6132ca816132b7565b81146132d557600080fd5b50565b6000813590506132e7816132c1565b92915050565b600060208284031215613303576133026131e1565b5b6000613311848285016132d8565b91505092915050565b600075ffffffffffffffffffffffffffffffffffffffffffff82169050919050565b6133458161331a565b82525050565b6000602082019050613360600083018461333c565b92915050565b60008160170b9050919050565b61337c81613366565b82525050565b60006020820190506133976000830184613373565b92915050565b600060ff82169050919050565b6133b38161339d565b82525050565b60006020820190506133ce60008301846133aa565b92915050565b60007cffffffffffffffffffffffffffffffffffffffffffffffffffffffffff82169050919050565b613406816133d4565b82525050565b600060208201905061342160008301846133fd565b92915050565b60008160180b9050919050565b61343d81613427565b82525050565b60006020820190506134586000830184613434565b92915050565b60008160050b9050919050565b6134748161345e565b82525050565b600060208201905061348f600083018461346b565b92915050565b60006bffffffffffffffffffffffff82169050919050565b6134b681613495565b82525050565b60006020820190506134d160008301846134ad565b92915050565b600081600b0b9050919050565b6134ed816134d7565b82525050565b600060208201905061350860008301846134e4565b92915050565b600081600c0b9050919050565b6135248161350e565b82525050565b600060208201905061353f600083018461351b565b92915050565b60006effffffffffffffffffffffffffffff82169050919050565b61356981613545565b82525050565b60006020820190506135846000830184613560565b92915050565b600067ffffffffffffffff82169050919050565b6135a78161358a565b82525050565b60006020820190506135c2600083018461359e565b92915050565b60008160090b9050919050565b6135de816135c8565b82525050565b60006020820190506135f960008301846135d5565b92915050565b600068ffffffffffffffffff82169050919050565b61361d816135ff565b82525050565b60006020820190506136386000830184613614565b92915050565b600081601b0b9050919050565b6136548161363e565b82525050565b600060208201905061366f600083018461364b565b92915050565b60007dffffffffffffffffffffffffffffffffffffffffffffffffffffffffffff82169050919050565b6136a881613675565b82525050565b60006020820190506136c3600083018461369f565b92915050565b60007effffffffffffffffffffffffffffffffffffffffffffffffffffffffffffff82169050919050565b6136fd816136c9565b82525050565b600060208201905061371860008301846136f4565b92915050565b60006dffffffffffffffffffffffffffff82169050919050565b6137418161371e565b82525050565b600060208201905061375c6000830184613738565b92915050565b60008160060b9050919050565b61377881613762565b82525050565b6000602082019050613793600083018461376f565b92915050565b600081601d0b9050919050565b6137af81613799565b82525050565b60006020820190506137ca60008301846137a6565b92915050565b600074ffffffffffffffffffffffffffffffffffffffffff82169050919050565b6137fa816137d0565b82525050565b600060208201905061381560008301846137f1565b92915050565b600076ffffffffffffffffffffffffffffffffffffffffffffff82169050919050565b6138478161381b565b82525050565b6000602082019050613862600083018461383e565b92915050565b600081600d0b9050919050565b61387e81613868565b82525050565b60006020820190506138996000830184613875565b92915050565b60008160120b9050919050565b6138b58161389f565b82525050565b60006020820190506138d060008301846138ac565b92915050565b60007bffffffffffffffffffffffffffffffffffffffffffffffffffffffff82169050919050565b613907816138d6565b82525050565b600060208201905061392260008301846138fe565b92915050565b60008160130b9050919050565b61393e81613928565b82525050565b60006020820190506139596000830184613935565b92915050565b60008160160b9050919050565b6139758161395f565b82525050565b6000602082019050613990600083018461396c565b92915050565b60008160110b9050919050565b6139ac81613996565b82525050565b60006020820190506139c760008301846139a3565b92915050565b600078ffffffffffffffffffffffffffffffffffffffffffffffffff82169050919050565b6139fb816139cd565b82525050565b6000602082019050613a1660008301846139f2565b92915050565b600077ffffffffffffffffffffffffffffffffffffffffffffffff82169050919050565b613a4981613a1c565b82525050565b6000602082019050613a646000830184613a40565b92915050565b60006affffffffffffffffffffff82169050919050565b613a8a81613a6a565b82525050565b6000602082019050613aa56000830184613a81565b92915050565b60006fffffffffffffffffffffffffffffffff82169050919050565b613ad081613aab565b82525050565b6000602082019050613aeb6000830184613ac7565b92915050565b60008160150b9050919050565b613b0781613af1565b82525050565b6000602082019050613b226000830184613afe565b92915050565b60006cffffffffffffffffffffffffff82169050919050565b613b4a81613b28565b82525050565b6000602082019050613b656000830184613b41565b92915050565b60007affffffffffffffffffffffffffffffffffffffffffffffffffffff82169050919050565b613b9b81613b6b565b82525050565b6000602082019050613bb66000830184613b92565b92915050565b600072ffffffffffffffffffffffffffffffffffffff82169050919050565b613be481613bbc565b82525050565b6000602082019050613bff6000830184613bdb565b92915050565b600061ffff82169050919050565b613c1c81613c05565b82525050565b6000602082019050613c376000830184613c13565b92915050565b600062ffffff82169050919050565b613c5581613c3d565b82525050565b6000602082019050613c706000830184613c4c565b92915050565b600081600a0b9050919050565b613c8c81613c76565b82525050565b6000602082019050613ca76000830184613c83565b92915050565b60008160030b9050919050565b613cc381613cad565b82525050565b6000602082019050613cde6000830184613cba565b92915050565b600070ffffffffffffffffffffffffffffffffff82169050919050565b613d0a81613ce4565b82525050565b6000602082019050613d256000830184613d01565b92915050565b600065ffffffffffff82169050919050565b613d4681613d2b565b82525050565b6000602082019050613d616000830184613d3d565b92915050565b60008160100b9050919050565b613d7d81613d67565b82525050565b6000602082019050613d986000830184613d74565b92915050565b600071ffffffffffffffffffffffffffffffffffff82169050919050565b613dc581613d9e565b82525050565b6000602082019050613de06000830184613dbc565b92915050565b600079ffffffffffffffffffffffffffffffffffffffffffffffffffff82169050919050565b613e1581613de6565b82525050565b6000602082019050613e306000830184613e0c565b92915050565b60008160040b9050919050565b613e4c81613e36565b82525050565b6000602082019050613e676000830184613e43565b92915050565b600066ffffffffffffff82169050919050565b613e8981613e6d565b82525050565b6000602082019050613ea46000830184613e80565b92915050565b600063ffffffff82169050919050565b613ec381613eaa565b82525050565b6000602082019050613ede6000830184613eba565b92915050565b600069ffffffffffffffffffff82169050919050565b613f0381613ee4565b82525050565b6000602082019050613f1e6000830184613efa565b92915050565b60008160010b9050919050565b613f3a81613f24565b82525050565b6000602082019050613f556000830184613f31565b92915050565b60008160070b9050919050565b613f7181613f5b565b82525050565b6000602082019050613f8c6000830184613f68565b92915050565b600081600f0b9050919050565b613fa881613f92565b82525050565b6000602082019050613fc36000830184613f9f565b92915050565b613fd2816131e6565b82525050565b6000602082019050613fed6000830184613fc9565b92915050565b600073ffffffffffffffffffffffffffffffffffffffff82169050919050565b61401c81613ff3565b82525050565b60006020820190506140376000830184614013565b92915050565b60008160080b9050919050565b6140538161403d565b82525050565b600060208201905061406e600083018461404a565b92915050565b60008160020b9050919050565b61408a81614074565b82525050565b60006020820190506140a56000830184614081565b92915050565b60008160140b9050919050565b6140c1816140ab565b82525050565b60006020820190506140dc60008301846140b8565b92915050565b600081601a0b9050919050565b6140f8816140e2565b82525050565b600060208201905061411360008301846140ef565b92915050565b600081600e0b9050919050565b61412f81614119565b82525050565b600060208201905061414a6000830184614126565b92915050565b60008160190b9050919050565b61416681614150565b82525050565b6000602082019050614181600083018461415d565b92915050565b60008160000b9050919050565b61419d81614187565b82525050565b60006020820190506141b86000830184614194565b92915050565b600064ffffffffff82169050919050565b6141d8816141be565b82525050565b60006020820190506141f360008301846141cf565b92915050565b614202816132b7565b82525050565b600060208201905061421d60008301846141f9565b92915050565b600082825260208201905092915050565b7f53616665436173743a2076616c756520646f65736e27742066697420696e203260008201527f3438206269747300000000000000000000000000000000000000000000000000602082015250565b6000614290602783614223565b915061429b82614234565b604082019050919050565b600060208201905081810360008301526142bf81614283565b9050919050565b7f53616665436173743a2076616c756520646f65736e27742066697420696e203260008201527f3332206269747300000000000000000000000000000000000000000000000000602082015250565b6000614322602783614223565b915061432d826142c6565b604082019050919050565b6000602082019050818103600083015261435181614315565b9050919050565b7f53616665436173743a2076616c756520646f65736e27742066697420696e203160008201527f3736206269747300000000000000000000000000000000000000000000000000602082015250565b60006143b4602783614223565b91506143bf82614358565b604082019050919050565b600060208201905081810360008301526143e3816143a7565b9050919050565b7f53616665436173743a2076616c756520646f65736e27742066697420696e203160008201527f3932206269747300000000000000000000000000000000000000000000000000602082015250565b6000614446602783614223565b9150614451826143ea565b604082019050919050565b6000602082019050818103600083015261447581614439565b9050919050565b7f53616665436173743a2076616c756520646f65736e27742066697420696e203860008201527f2062697473000000000000000000000000000000000000000000000000000000602082015250565b60006144d8602583614223565b91506144e38261447c565b604082019050919050565b60006020820190508181036000830152614507816144cb565b9050919050565b7f53616665436173743a2076616c756520646f65736e27742066697420696e203260008201527f3030206269747300000000000000000000000000000000000000000000000000602082015250565b600061456a602783614223565b91506145758261450e565b604082019050919050565b600060208201905081810360008301526145998161455d565b9050919050565b7f53616665436173743a2076616c756520646f65736e27742066697420696e203460008201527f3820626974730000000000000000000000000000000000000000000000000000602082015250565b60006145fc602683614223565b9150614607826145a0565b604082019050919050565b6000602082019050818103600083015261462b816145ef565b9050919050565b7f53616665436173743a2076616c756520646f65736e27742066697420696e203960008201527f3620626974730000000000000000000000000000000000000000000000000000602082015250565b600061468e602683614223565b915061469982614632565b604082019050919050565b600060208201905081810360008301526146bd81614681565b9050919050565b7f53616665436173743a2076616c756520646f65736e27742066697420696e203160008201527f3034206269747300000000000000000000000000000000000000000000000000602082015250565b6000614720602783614223565b915061472b826146c4565b604082019050919050565b6000602082019050818103600083015261474f81614713565b9050919050565b7f53616665436173743a2076616c756520646f65736e27742066697420696e203160008201527f3230206269747300000000000000000000000000000000000000000000000000602082015250565b60006147b2602783614223565b91506147bd82614756565b604082019050919050565b600060208201905081810360008301526147e1816147a5565b9050919050565b7f53616665436173743a2076616c756520646f65736e27742066697420696e203660008201527f3420626974730000000000000000000000000000000000000000000000000000602082015250565b6000614844602683614223565b915061484f826147e8565b604082019050919050565b6000602082019050818103600083015261487381614837565b9050919050565b7f53616665436173743a2076616c756520646f65736e27742066697420696e203860008201527f3020626974730000000000000000000000000000000000000000000000000000602082015250565b60006148d6602683614223565b91506148e18261487a565b604082019050919050565b60006020820190508181036000830152614905816148c9565b9050919050565b7f53616665436173743a2076616c756520646f65736e27742066697420696e203760008201527f3220626974730000000000000000000000000000000000000000000000000000602082015250565b6000614968602683614223565b91506149738261490c565b604082019050919050565b600060208201905081810360008301526149978161495b565b9050919050565b7f53616665436173743a2076616c756520646f65736e27742066697420696e203260008201527f3234206269747300000000000000000000000000000000000000000000000000602082015250565b60006149fa602783614223565b9150614a058261499e565b604082019050919050565b60006020820190508181036000830152614a29816149ed565b9050919050565b7f53616665436173743a2076616c756520646f65736e27742066697420696e203260008201527f3430206269747300000000000000000000000000000000000000000000000000602082015250565b6000614a8c602783614223565b9150614a9782614a30565b604082019050919050565b60006020820190508181036000830152614abb81614a7f565b9050919050565b7f53616665436173743a2076616c756520646f65736e27742066697420696e203160008201527f3132206269747300000000000000000000000000000000000000000000000000602082015250565b6000614b1e602783614223565b9150614b2982614ac2565b604082019050919050565b60006020820190508181036000830152614b4d81614b11565b9050919050565b7f53616665436173743a2076616c756520646f65736e27742066697420696e203560008201527f3620626974730000000000000000000000000000000000000000000000000000602082015250565b6000614bb0602683614223565b9150614bbb82614b54565b604082019050919050565b60006020820190508181036000830152614bdf81614ba3565b9050919050565b7f53616665436173743a2076616c756520646f65736e27742066697420696e203160008201527f3638206269747300000000000000000000000000000000000000000000000000602082015250565b6000614c42602783614223565b9150614c4d82614be6565b604082019050919050565b60006020820190508181036000830152614c7181614c35565b9050919050565b7f53616665436173743a2076616c756520646f65736e27742066697420696e203160008201527f3834206269747300000000000000000000000000000000000000000000000000602082015250565b6000614cd4602783614223565b9150614cdf82614c78565b604082019050919050565b60006020820190508181036000830152614d0381614cc7565b9050919050565b7f53616665436173743a2076616c756520646f65736e27742066697420696e203160008201527f3532206269747300000000000000000000000000000000000000000000000000602082015250565b6000614d66602783614223565b9150614d7182614d0a565b604082019050919050565b60006020820190508181036000830152614d9581614d59565b9050919050565b7f53616665436173743a2076616c756520646f65736e27742066697420696e203160008201527f3630206269747300000000000000000000000000000000000000000000000000602082015250565b6000614df8602783614223565b9150614e0382614d9c565b604082019050919050565b60006020820190508181036000830152614e2781614deb565b9050919050565b7f53616665436173743a2076616c756520646f65736e27742066697420696e203160008201527f3434206269747300000000000000000000000000000000000000000000000000602082015250565b6000614e8a602783614223565b9150614e9582614e2e565b604082019050919050565b60006020820190508181036000830152614eb981614e7d565b9050919050565b7f53616665436173743a2076616c756520646f65736e27742066697420696e203860008201527f3820626974730000000000000000000000000000000000000000000000000000602082015250565b6000614f1c602683614223565b9150614f2782614ec0565b604082019050919050565b60006020820190508181036000830152614f4b81614f0f565b9050919050565b7f53616665436173743a2076616c756520646f65736e27742066697420696e203160008201527f3238206269747300000000000000000000000000000000000000000000000000602082015250565b6000614fae602783614223565b9150614fb982614f52565b604082019050919050565b60006020820190508181036000830152614fdd81614fa1565b9050919050565b7f53616665436173743a2076616c756520646f65736e27742066697420696e203260008201527f3136206269747300000000000000000000000000000000000000000000000000602082015250565b6000615040602783614223565b915061504b82614fe4565b604082019050919050565b6000602082019050818103600083015261506f81615033565b9050919050565b7f53616665436173743a2076616c756520646f65736e27742066697420696e203160008201527f3620626974730000000000000000000000000000000000000000000000000000602082015250565b60006150d2602683614223565b91506150dd82615076565b604082019050919050565b60006020820190508181036000830152615101816150c5565b9050919050565b7f53616665436173743a2076616c756520646f65736e27742066697420696e203260008201527f3420626974730000000000000000000000000000000000000000000000000000602082015250565b6000615164602683614223565b915061516f82615108565b604082019050919050565b6000602082019050818103600083015261519381615157565b9050919050565b7f53616665436173743a2076616c756520646f65736e27742066697420696e203360008201527f3220626974730000000000000000000000000000000000000000000000000000602082015250565b60006151f6602683614223565b91506152018261519a565b604082019050919050565b60006020820190508181036000830152615225816151e9565b9050919050565b7f53616665436173743a2076616c756520646f65736e27742066697420696e203160008201527f3336206269747300000000000000000000000000000000000000000000000000602082015250565b6000615288602783614223565b91506152938261522c565b604082019050919050565b600060208201905081810360008301526152b78161527b565b9050919050565b7f53616665436173743a2076616c756520646f65736e27742066697420696e203260008201527f3038206269747300000000000000000000000000000000000000000000000000602082015250565b600061531a602783614223565b9150615325826152be565b604082019050919050565b600060208201905081810360008301526153498161530d565b9050919050565b7f53616665436173743a2076616c756520646f65736e27742066697420696e203460008201527f3020626974730000000000000000000000000000000000000000000000000000602082015250565b60006153ac602683614223565b91506153b782615350565b604082019050919050565b600060208201905081810360008301526153db8161539f565b9050919050565b7f53616665436173743a2076616c756520646f65736e27742066697420696e206160008201527f6e20696e74323536000000000000000000000000000000000000000000000000602082015250565b600061543e602883614223565b9150615449826153e2565b604082019050919050565b6000602082019050818103600083015261546d81615431565b9050919050565b7f53616665436173743a2076616c7565206d75737420626520706f736974697665600082015250565b60006154aa602083614223565b91506154b582615474565b602082019050919050565b600060208201905081810360008301526154d98161549d565b905091905056fea2646970667358221220bc2d94ace3a06576c68ff36debe47f943d2e2ce4b37fdd1d35c788ea75c3ffec64736f6c63430008090033",
  "linkReferences": {},
  "deployedLinkReferences": {}
}