{
  "_format": "hh-sol-artifact-1",
  "contractName": "AccessControlCrossChainMock",
  "sourceName": "contracts/openzeppelin-contracts/mocks/AccessControlCrossChainMock.sol",
  "abi": [
    {
      "inputs": [],
      "stateMutability": "nonpayable",
      "type": "constructor"
    },
    {
      "inputs": [],
      "name": "NotCrossChainCall",
      "type": "error"
    },
    {
      "anonymous": false,
      "inputs": [
        {
          "indexed": true,
          "internalType": "bytes32",
          "name": "role",
          "type": "bytes32"
        },
        {
          "indexed": true,
          "internalType": "bytes32",
          "name": "previousAdminRole",
          "type": "bytes32"
        },
        {
          "indexed": true,
          "internalType": "bytes32",
          "name": "newAdminRole",
          "type": "bytes32"
        }
      ],
      "name": "RoleAdminChanged",
      "type": "event"
    },
    {
      "anonymous": false,
      "inputs": [
        {
          "indexed": true,
          "internalType": "bytes32",
          "name": "role",
          "type": "bytes32"
        },
        {
          "indexed": true,
          "internalType": "address",
          "name": "account",
          "type": "address"
        },
        {
          "indexed": true,
          "internalType": "address",
          "name": "sender",
          "type": "address"
        }
      ],
      "name": "RoleGranted",
      "type": "event"
    },
    {
      "anonymous": false,
      "inputs": [
        {
          "indexed": true,
          "internalType": "bytes32",
          "name": "role",
          "type": "bytes32"
        },
        {
          "indexed": true,
          "internalType": "address",
          "name": "account",
          "type": "address"
        },
        {
          "indexed": true,
          "internalType": "address",
          "name": "sender",
          "type": "address"
        }
      ],
      "name": "RoleRevoked",
      "type": "event"
    },
    {
      "inputs": [],
      "name": "CROSSCHAIN_ALIAS",
      "outputs": [
        {
          "internalType": "bytes32",
          "name": "",
          "type": "bytes32"
        }
      ],
      "stateMutability": "view",
      "type": "function"
    },
    {
      "inputs": [],
      "name": "DEFAULT_ADMIN_ROLE",
      "outputs": [
        {
          "internalType": "bytes32",
          "name": "",
          "type": "bytes32"
        }
      ],
      "stateMutability": "view",
      "type": "function"
    },
    {
      "inputs": [
        {
          "internalType": "bytes32",
          "name": "role",
          "type": "bytes32"
        }
      ],
      "name": "crossChainRoleAlias",
      "outputs": [
        {
          "internalType": "bytes32",
          "name": "",
          "type": "bytes32"
        }
      ],
      "stateMutability": "pure",
      "type": "function"
    },
    {
      "inputs": [
        {
          "internalType": "bytes32",
          "name": "role",
          "type": "bytes32"
        }
      ],
      "name": "getRoleAdmin",
      "outputs": [
        {
          "internalType": "bytes32",
          "name": "",
          "type": "bytes32"
        }
      ],
      "stateMutability": "view",
      "type": "function"
    },
    {
      "inputs": [
        {
          "internalType": "bytes32",
          "name": "role",
          "type": "bytes32"
        },
        {
          "internalType": "address",
          "name": "account",
          "type": "address"
        }
      ],
      "name": "grantRole",
      "outputs": [],
      "stateMutability": "nonpayable",
      "type": "function"
    },
    {
      "inputs": [
        {
          "internalType": "bytes32",
          "name": "role",
          "type": "bytes32"
        },
        {
          "internalType": "address",
          "name": "account",
          "type": "address"
        }
      ],
      "name": "hasRole",
      "outputs": [
        {
          "internalType": "bool",
          "name": "",
          "type": "bool"
        }
      ],
      "stateMutability": "view",
      "type": "function"
    },
    {
      "inputs": [
        {
          "internalType": "bytes32",
          "name": "role",
          "type": "bytes32"
        },
        {
          "internalType": "address",
          "name": "account",
          "type": "address"
        }
      ],
      "name": "renounceRole",
      "outputs": [],
      "stateMutability": "nonpayable",
      "type": "function"
    },
    {
      "inputs": [
        {
          "internalType": "bytes32",
          "name": "role",
          "type": "bytes32"
        },
        {
          "internalType": "address",
          "name": "account",
          "type": "address"
        }
      ],
      "name": "revokeRole",
      "outputs": [],
      "stateMutability": "nonpayable",
      "type": "function"
    },
    {
      "inputs": [
        {
          "internalType": "bytes32",
          "name": "roleId",
          "type": "bytes32"
        }
      ],
      "name": "senderProtected",
      "outputs": [],
      "stateMutability": "nonpayable",
      "type": "function"
    },
    {
      "inputs": [
        {
          "internalType": "bytes32",
          "name": "roleId",
          "type": "bytes32"
        },
        {
          "internalType": "bytes32",
          "name": "adminRoleId",
          "type": "bytes32"
        }
      ],
      "name": "setRoleAdmin",
      "outputs": [],
      "stateMutability": "nonpayable",
      "type": "function"
    },
    {
      "inputs": [
        {
          "internalType": "bytes4",
          "name": "interfaceId",
          "type": "bytes4"
        }
      ],
      "name": "supportsInterface",
      "outputs": [
        {
          "internalType": "bool",
          "name": "",
          "type": "bool"
        }
      ],
      "stateMutability": "view",
      "type": "function"
    }
  ],
  "bytecode": "0x60806040523480156200001157600080fd5b50620000366000801b6200002a6200003c60201b60201c565b6200004460201b60201c565b620001b5565b600033905090565b6200005682826200005a60201b60201c565b5050565b6200006c82826200014b60201b60201c565b6200014757600160008084815260200190815260200160002060000160008373ffffffffffffffffffffffffffffffffffffffff1673ffffffffffffffffffffffffffffffffffffffff16815260200190815260200160002060006101000a81548160ff021916908315150217905550620000ec6200003c60201b60201c565b73ffffffffffffffffffffffffffffffffffffffff168173ffffffffffffffffffffffffffffffffffffffff16837f2f8788117e7eff1d82e926ec794901d17c78024a50270940304540a733656f0d60405160405180910390a45b5050565b600080600084815260200190815260200160002060000160008373ffffffffffffffffffffffffffffffffffffffff1673ffffffffffffffffffffffffffffffffffffffff16815260200190815260200160002060009054906101000a900460ff16905092915050565b6113b580620001c56000396000f3fe608060405234801561001057600080fd5b50600436106100a95760003560e01c80634b9304a4116100715780634b9304a41461016257806391d148541461017e578063933c8dbd146101ae578063a217fddf146101de578063d547741f146101fc578063f9d0429514610218576100a9565b806301ffc9a7146100ae5780631e4e0091146100de578063248a9ca3146100fa5780632f2ff15d1461012a57806336568abe14610146575b600080fd5b6100c860048036038101906100c39190610cde565b610236565b6040516100d59190610d26565b60405180910390f35b6100f860048036038101906100f39190610d77565b6102b0565b005b610114600480360381019061010f9190610db7565b6102be565b6040516101219190610df3565b60405180910390f35b610144600480360381019061013f9190610e6c565b6102dd565b005b610160600480360381019061015b9190610e6c565b6102fe565b005b61017c60048036038101906101779190610db7565b610381565b005b61019860048036038101906101939190610e6c565b61038f565b6040516101a59190610d26565b60405180910390f35b6101c860048036038101906101c39190610db7565b6103f9565b6040516101d59190610df3565b60405180910390f35b6101e661040b565b6040516101f39190610df3565b60405180910390f35b61021660048036038101906102119190610e6c565b610412565b005b610220610433565b60405161022d9190610df3565b60405180910390f35b60007f7965db0b000000000000000000000000000000000000000000000000000000007bffffffffffffffffffffffffffffffffffffffffffffffffffffffff1916827bffffffffffffffffffffffffffffffffffffffffffffffffffffffff191614806102a957506102a882610457565b5b9050919050565b6102ba82826104c1565b5050565b6000806000838152602001908152602001600020600101549050919050565b6102e6826102be565b6102ef8161051c565b6102f98383610554565b505050565b610306610634565b73ffffffffffffffffffffffffffffffffffffffff168173ffffffffffffffffffffffffffffffffffffffff1614610373576040517f08c379a000000000000000000000000000000000000000000000000000000000815260040161036a90610f2f565b60405180910390fd5b61037d828261063c565b5050565b8061038b8161051c565b5050565b600080600084815260200190815260200160002060000160008373ffffffffffffffffffffffffffffffffffffffff1673ffffffffffffffffffffffffffffffffffffffff16815260200190815260200160002060009054906101000a900460ff16905092915050565b60006104048261071d565b9050919050565b6000801b81565b61041b826102be565b6104248161051c565b61042e838361063c565b505050565b7fe870e9cffded00b0b933338bc23ae12648d8d2d4829802ab37a0908f14773b4d81565b60007f01ffc9a7000000000000000000000000000000000000000000000000000000007bffffffffffffffffffffffffffffffffffffffffffffffffffffffff1916827bffffffffffffffffffffffffffffffffffffffffffffffffffffffff1916149050919050565b60006104cc836102be565b905081600080858152602001908152602001600020600101819055508181847fbd79b86ffe0ab8e8776151514217cd7cacd52c909f66475c3af44e129f0b00ff60405160405180910390a4505050565b610524610749565b15610547576105426105358261071d565b61053d61075a565b6107a9565b610551565b6105508161082e565b5b50565b61055e828261038f565b61063057600160008084815260200190815260200160002060000160008373ffffffffffffffffffffffffffffffffffffffff1673ffffffffffffffffffffffffffffffffffffffff16815260200190815260200160002060006101000a81548160ff0219169083151502179055506105d5610634565b73ffffffffffffffffffffffffffffffffffffffff168173ffffffffffffffffffffffffffffffffffffffff16837f2f8788117e7eff1d82e926ec794901d17c78024a50270940304540a733656f0d60405160405180910390a45b5050565b600033905090565b610646828261038f565b1561071957600080600084815260200190815260200160002060000160008373ffffffffffffffffffffffffffffffffffffffff1673ffffffffffffffffffffffffffffffffffffffff16815260200190815260200160002060006101000a81548160ff0219169083151502179055506106be610634565b73ffffffffffffffffffffffffffffffffffffffff168173ffffffffffffffffffffffffffffffffffffffff16837ff6391f5c32d9c69d2a47ea670b442974b53935d1edc7fd64eb21e047a839171b60405160405180910390a45b5050565b60007fe870e9cffded00b0b933338bc23ae12648d8d2d4829802ab37a0908f14773b4d82189050919050565b60006107556064610842565b905090565b6000610764610749565b61079a576040517f4a74df9200000000000000000000000000000000000000000000000000000000815260040160405180910390fd5b6107a460646108c9565b905090565b6107b3828261038f565b61082a576107c081610a18565b6107ce8360001c6020610a45565b6040516020016107df929190611061565b6040516020818303038152906040526040517f08c379a000000000000000000000000000000000000000000000000000000000815260040161082191906110e5565b60405180910390fd5b5050565b61083f8161083a610634565b6107a9565b50565b60008173ffffffffffffffffffffffffffffffffffffffff166308bd624c6040518163ffffffff1660e01b815260040160206040518083038186803b15801561088a57600080fd5b505afa15801561089e573d6000803e3d6000fd5b505050506040513d601f19601f820116820180604052508101906108c29190611133565b9050919050565b60006108d482610842565b61090a576040517f4a74df9200000000000000000000000000000000000000000000000000000000815260040160405180910390fd5b8173ffffffffffffffffffffffffffffffffffffffff1663175a260b6040518163ffffffff1660e01b815260040160206040518083038186803b15801561095057600080fd5b505afa158015610964573d6000803e3d6000fd5b505050506040513d601f19601f820116820180604052508101906109889190611133565b6109925733610a11565b8173ffffffffffffffffffffffffffffffffffffffff1663d74523b36040518163ffffffff1660e01b815260040160206040518083038186803b1580156109d857600080fd5b505afa1580156109ec573d6000803e3d6000fd5b505050506040513d601f19601f82011682018060405250810190610a109190611175565b5b9050919050565b6060610a3e8273ffffffffffffffffffffffffffffffffffffffff16601460ff16610a45565b9050919050565b606060006002836002610a5891906111db565b610a629190611235565b67ffffffffffffffff811115610a7b57610a7a61128b565b5b6040519080825280601f01601f191660200182016040528015610aad5781602001600182028036833780820191505090505b5090507f300000000000000000000000000000000000000000000000000000000000000081600081518110610ae557610ae46112ba565b5b60200101907effffffffffffffffffffffffffffffffffffffffffffffffffffffffffffff1916908160001a9053507f780000000000000000000000000000000000000000000000000000000000000081600181518110610b4957610b486112ba565b5b60200101907effffffffffffffffffffffffffffffffffffffffffffffffffffffffffffff1916908160001a90535060006001846002610b8991906111db565b610b939190611235565b90505b6001811115610c33577f3031323334353637383961626364656600000000000000000000000000000000600f861660108110610bd557610bd46112ba565b5b1a60f81b828281518110610bec57610beb6112ba565b5b60200101907effffffffffffffffffffffffffffffffffffffffffffffffffffffffffffff1916908160001a905350600485901c945080610c2c906112e9565b9050610b96565b5060008414610c77576040517f08c379a0000000000000000000000000000000000000000000000000000000008152600401610c6e9061135f565b60405180910390fd5b8091505092915050565b600080fd5b60007fffffffff0000000000000000000000000000000000000000000000000000000082169050919050565b610cbb81610c86565b8114610cc657600080fd5b50565b600081359050610cd881610cb2565b92915050565b600060208284031215610cf457610cf3610c81565b5b6000610d0284828501610cc9565b91505092915050565b60008115159050919050565b610d2081610d0b565b82525050565b6000602082019050610d3b6000830184610d17565b92915050565b6000819050919050565b610d5481610d41565b8114610d5f57600080fd5b50565b600081359050610d7181610d4b565b92915050565b60008060408385031215610d8e57610d8d610c81565b5b6000610d9c85828601610d62565b9250506020610dad85828601610d62565b9150509250929050565b600060208284031215610dcd57610dcc610c81565b5b6000610ddb84828501610d62565b91505092915050565b610ded81610d41565b82525050565b6000602082019050610e086000830184610de4565b92915050565b600073ffffffffffffffffffffffffffffffffffffffff82169050919050565b6000610e3982610e0e565b9050919050565b610e4981610e2e565b8114610e5457600080fd5b50565b600081359050610e6681610e40565b92915050565b60008060408385031215610e8357610e82610c81565b5b6000610e9185828601610d62565b9250506020610ea285828601610e57565b9150509250929050565b600082825260208201905092915050565b7f416363657373436f6e74726f6c3a2063616e206f6e6c792072656e6f756e636560008201527f20726f6c657320666f722073656c660000000000000000000000000000000000602082015250565b6000610f19602f83610eac565b9150610f2482610ebd565b604082019050919050565b60006020820190508181036000830152610f4881610f0c565b9050919050565b600081905092915050565b7f416363657373436f6e74726f6c3a206163636f756e7420000000000000000000600082015250565b6000610f90601783610f4f565b9150610f9b82610f5a565b601782019050919050565b600081519050919050565b60005b83811015610fcf578082015181840152602081019050610fb4565b83811115610fde576000848401525b50505050565b6000610fef82610fa6565b610ff98185610f4f565b9350611009818560208601610fb1565b80840191505092915050565b7f206973206d697373696e6720726f6c6520000000000000000000000000000000600082015250565b600061104b601183610f4f565b915061105682611015565b601182019050919050565b600061106c82610f83565b91506110788285610fe4565b91506110838261103e565b915061108f8284610fe4565b91508190509392505050565b6000601f19601f8301169050919050565b60006110b782610fa6565b6110c18185610eac565b93506110d1818560208601610fb1565b6110da8161109b565b840191505092915050565b600060208201905081810360008301526110ff81846110ac565b905092915050565b61111081610d0b565b811461111b57600080fd5b50565b60008151905061112d81611107565b92915050565b60006020828403121561114957611148610c81565b5b60006111578482850161111e565b91505092915050565b60008151905061116f81610e40565b92915050565b60006020828403121561118b5761118a610c81565b5b600061119984828501611160565b91505092915050565b6000819050919050565b7f4e487b7100000000000000000000000000000000000000000000000000000000600052601160045260246000fd5b60006111e6826111a2565b91506111f1836111a2565b9250817fffffffffffffffffffffffffffffffffffffffffffffffffffffffffffffffff048311821515161561122a576112296111ac565b5b828202905092915050565b6000611240826111a2565b915061124b836111a2565b9250827fffffffffffffffffffffffffffffffffffffffffffffffffffffffffffffffff038211156112805761127f6111ac565b5b828201905092915050565b7f4e487b7100000000000000000000000000000000000000000000000000000000600052604160045260246000fd5b7f4e487b7100000000000000000000000000000000000000000000000000000000600052603260045260246000fd5b60006112f4826111a2565b91506000821415611308576113076111ac565b5b600182039050919050565b7f537472696e67733a20686578206c656e67746820696e73756666696369656e74600082015250565b6000611349602083610eac565b915061135482611313565b602082019050919050565b600060208201905081810360008301526113788161133c565b905091905056fea26469706673582212209ebb1f1351dac62cab395c4a3ddbf2a8d4d49fbb692354ee0946cb3db2ad776464736f6c63430008090033",
  "linkReferences": {},
  "deployedLinkReferences": {}
}