{
  "_format": "hh-sol-artifact-1",
  "contractName": "GovernorTimelockCompoundMock",
  "sourceName": "contracts/openzeppelin-contracts/mocks/GovernorTimelockCompoundMock.sol",
  "abi": [
    {
      "inputs": [
        {
          "internalType": "string",
          "name": "name_",
          "type": "string"
        },
        {
          "internalType": "contract IVotes",
          "name": "token_",
          "type": "address"
        },
        {
          "internalType": "uint256",
          "name": "votingDelay_",
          "type": "uint256"
        },
        {
          "internalType": "uint256",
          "name": "votingPeriod_",
          "type": "uint256"
        },
        {
          "internalType": "contract ICompoundTimelock",
          "name": "timelock_",
          "type": "address"
        },
        {
          "internalType": "uint256",
          "name": "quorumNumerator_",
          "type": "uint256"
        }
      ],
      "stateMutability": "nonpayable",
      "type": "constructor"
    },
    {
      "inputs": [],
      "name": "Empty",
      "type": "error"
    },
    {
      "anonymous": false,
      "inputs": [
        {
          "indexed": false,
          "internalType": "uint256",
          "name": "proposalId",
          "type": "uint256"
        }
      ],
      "name": "ProposalCanceled",
      "type": "event"
    },
    {
      "anonymous": false,
      "inputs": [
        {
          "indexed": false,
          "internalType": "uint256",
          "name": "proposalId",
          "type": "uint256"
        },
        {
          "indexed": false,
          "internalType": "address",
          "name": "proposer",
          "type": "address"
        },
        {
          "indexed": false,
          "internalType": "address[]",
          "name": "targets",
          "type": "address[]"
        },
        {
          "indexed": false,
          "internalType": "uint256[]",
          "name": "values",
          "type": "uint256[]"
        },
        {
          "indexed": false,
          "internalType": "string[]",
          "name": "signatures",
          "type": "string[]"
        },
        {
          "indexed": false,
          "internalType": "bytes[]",
          "name": "calldatas",
          "type": "bytes[]"
        },
        {
          "indexed": false,
          "internalType": "uint256",
          "name": "startBlock",
          "type": "uint256"
        },
        {
          "indexed": false,
          "internalType": "uint256",
          "name": "endBlock",
          "type": "uint256"
        },
        {
          "indexed": false,
          "internalType": "string",
          "name": "description",
          "type": "string"
        }
      ],
      "name": "ProposalCreated",
      "type": "event"
    },
    {
      "anonymous": false,
      "inputs": [
        {
          "indexed": false,
          "internalType": "uint256",
          "name": "proposalId",
          "type": "uint256"
        }
      ],
      "name": "ProposalExecuted",
      "type": "event"
    },
    {
      "anonymous": false,
      "inputs": [
        {
          "indexed": false,
          "internalType": "uint256",
          "name": "proposalId",
          "type": "uint256"
        },
        {
          "indexed": false,
          "internalType": "uint256",
          "name": "eta",
          "type": "uint256"
        }
      ],
      "name": "ProposalQueued",
      "type": "event"
    },
    {
      "anonymous": false,
      "inputs": [
        {
          "indexed": false,
          "internalType": "uint256",
          "name": "oldProposalThreshold",
          "type": "uint256"
        },
        {
          "indexed": false,
          "internalType": "uint256",
          "name": "newProposalThreshold",
          "type": "uint256"
        }
      ],
      "name": "ProposalThresholdSet",
      "type": "event"
    },
    {
      "anonymous": false,
      "inputs": [
        {
          "indexed": false,
          "internalType": "uint256",
          "name": "oldQuorumNumerator",
          "type": "uint256"
        },
        {
          "indexed": false,
          "internalType": "uint256",
          "name": "newQuorumNumerator",
          "type": "uint256"
        }
      ],
      "name": "QuorumNumeratorUpdated",
      "type": "event"
    },
    {
      "anonymous": false,
      "inputs": [
        {
          "indexed": false,
          "internalType": "address",
          "name": "oldTimelock",
          "type": "address"
        },
        {
          "indexed": false,
          "internalType": "address",
          "name": "newTimelock",
          "type": "address"
        }
      ],
      "name": "TimelockChange",
      "type": "event"
    },
    {
      "anonymous": false,
      "inputs": [
        {
          "indexed": true,
          "internalType": "address",
          "name": "voter",
          "type": "address"
        },
        {
          "indexed": false,
          "internalType": "uint256",
          "name": "proposalId",
          "type": "uint256"
        },
        {
          "indexed": false,
          "internalType": "uint8",
          "name": "support",
          "type": "uint8"
        },
        {
          "indexed": false,
          "internalType": "uint256",
          "name": "weight",
          "type": "uint256"
        },
        {
          "indexed": false,
          "internalType": "string",
          "name": "reason",
          "type": "string"
        }
      ],
      "name": "VoteCast",
      "type": "event"
    },
    {
      "anonymous": false,
      "inputs": [
        {
          "indexed": true,
          "internalType": "address",
          "name": "voter",
          "type": "address"
        },
        {
          "indexed": false,
          "internalType": "uint256",
          "name": "proposalId",
          "type": "uint256"
        },
        {
          "indexed": false,
          "internalType": "uint8",
          "name": "support",
          "type": "uint8"
        },
        {
          "indexed": false,
          "internalType": "uint256",
          "name": "weight",
          "type": "uint256"
        },
        {
          "indexed": false,
          "internalType": "string",
          "name": "reason",
          "type": "string"
        },
        {
          "indexed": false,
          "internalType": "bytes",
          "name": "params",
          "type": "bytes"
        }
      ],
      "name": "VoteCastWithParams",
      "type": "event"
    },
    {
      "anonymous": false,
      "inputs": [
        {
          "indexed": false,
          "internalType": "uint256",
          "name": "oldVotingDelay",
          "type": "uint256"
        },
        {
          "indexed": false,
          "internalType": "uint256",
          "name": "newVotingDelay",
          "type": "uint256"
        }
      ],
      "name": "VotingDelaySet",
      "type": "event"
    },
    {
      "anonymous": false,
      "inputs": [
        {
          "indexed": false,
          "internalType": "uint256",
          "name": "oldVotingPeriod",
          "type": "uint256"
        },
        {
          "indexed": false,
          "internalType": "uint256",
          "name": "newVotingPeriod",
          "type": "uint256"
        }
      ],
      "name": "VotingPeriodSet",
      "type": "event"
    },
    {
      "inputs": [],
      "name": "BALLOT_TYPEHASH",
      "outputs": [
        {
          "internalType": "bytes32",
          "name": "",
          "type": "bytes32"
        }
      ],
      "stateMutability": "view",
      "type": "function"
    },
    {
      "inputs": [],
      "name": "COUNTING_MODE",
      "outputs": [
        {
          "internalType": "string",
          "name": "",
          "type": "string"
        }
      ],
      "stateMutability": "pure",
      "type": "function"
    },
    {
      "inputs": [],
      "name": "EXTENDED_BALLOT_TYPEHASH",
      "outputs": [
        {
          "internalType": "bytes32",
          "name": "",
          "type": "bytes32"
        }
      ],
      "stateMutability": "view",
      "type": "function"
    },
    {
      "inputs": [],
      "name": "__acceptAdmin",
      "outputs": [],
      "stateMutability": "nonpayable",
      "type": "function"
    },
    {
      "inputs": [
        {
          "internalType": "address[]",
          "name": "targets",
          "type": "address[]"
        },
        {
          "internalType": "uint256[]",
          "name": "values",
          "type": "uint256[]"
        },
        {
          "internalType": "bytes[]",
          "name": "calldatas",
          "type": "bytes[]"
        },
        {
          "internalType": "bytes32",
          "name": "salt",
          "type": "bytes32"
        }
      ],
      "name": "cancel",
      "outputs": [
        {
          "internalType": "uint256",
          "name": "proposalId",
          "type": "uint256"
        }
      ],
      "stateMutability": "nonpayable",
      "type": "function"
    },
    {
      "inputs": [
        {
          "internalType": "uint256",
          "name": "proposalId",
          "type": "uint256"
        },
        {
          "internalType": "uint8",
          "name": "support",
          "type": "uint8"
        }
      ],
      "name": "castVote",
      "outputs": [
        {
          "internalType": "uint256",
          "name": "",
          "type": "uint256"
        }
      ],
      "stateMutability": "nonpayable",
      "type": "function"
    },
    {
      "inputs": [
        {
          "internalType": "uint256",
          "name": "proposalId",
          "type": "uint256"
        },
        {
          "internalType": "uint8",
          "name": "support",
          "type": "uint8"
        },
        {
          "internalType": "uint8",
          "name": "v",
          "type": "uint8"
        },
        {
          "internalType": "bytes32",
          "name": "r",
          "type": "bytes32"
        },
        {
          "internalType": "bytes32",
          "name": "s",
          "type": "bytes32"
        }
      ],
      "name": "castVoteBySig",
      "outputs": [
        {
          "internalType": "uint256",
          "name": "",
          "type": "uint256"
        }
      ],
      "stateMutability": "nonpayable",
      "type": "function"
    },
    {
      "inputs": [
        {
          "internalType": "uint256",
          "name": "proposalId",
          "type": "uint256"
        },
        {
          "internalType": "uint8",
          "name": "support",
          "type": "uint8"
        },
        {
          "internalType": "string",
          "name": "reason",
          "type": "string"
        }
      ],
      "name": "castVoteWithReason",
      "outputs": [
        {
          "internalType": "uint256",
          "name": "",
          "type": "uint256"
        }
      ],
      "stateMutability": "nonpayable",
      "type": "function"
    },
    {
      "inputs": [
        {
          "internalType": "uint256",
          "name": "proposalId",
          "type": "uint256"
        },
        {
          "internalType": "uint8",
          "name": "support",
          "type": "uint8"
        },
        {
          "internalType": "string",
          "name": "reason",
          "type": "string"
        },
        {
          "internalType": "bytes",
          "name": "params",
          "type": "bytes"
        }
      ],
      "name": "castVoteWithReasonAndParams",
      "outputs": [
        {
          "internalType": "uint256",
          "name": "",
          "type": "uint256"
        }
      ],
      "stateMutability": "nonpayable",
      "type": "function"
    },
    {
      "inputs": [
        {
          "internalType": "uint256",
          "name": "proposalId",
          "type": "uint256"
        },
        {
          "internalType": "uint8",
          "name": "support",
          "type": "uint8"
        },
        {
          "internalType": "string",
          "name": "reason",
          "type": "string"
        },
        {
          "internalType": "bytes",
          "name": "params",
          "type": "bytes"
        },
        {
          "internalType": "uint8",
          "name": "v",
          "type": "uint8"
        },
        {
          "internalType": "bytes32",
          "name": "r",
          "type": "bytes32"
        },
        {
          "internalType": "bytes32",
          "name": "s",
          "type": "bytes32"
        }
      ],
      "name": "castVoteWithReasonAndParamsBySig",
      "outputs": [
        {
          "internalType": "uint256",
          "name": "",
          "type": "uint256"
        }
      ],
      "stateMutability": "nonpayable",
      "type": "function"
    },
    {
      "inputs": [
        {
          "internalType": "address[]",
          "name": "targets",
          "type": "address[]"
        },
        {
          "internalType": "uint256[]",
          "name": "values",
          "type": "uint256[]"
        },
        {
          "internalType": "bytes[]",
          "name": "calldatas",
          "type": "bytes[]"
        },
        {
          "internalType": "bytes32",
          "name": "descriptionHash",
          "type": "bytes32"
        }
      ],
      "name": "execute",
      "outputs": [
        {
          "internalType": "uint256",
          "name": "",
          "type": "uint256"
        }
      ],
      "stateMutability": "payable",
      "type": "function"
    },
    {
      "inputs": [
        {
          "internalType": "address",
          "name": "account",
          "type": "address"
        },
        {
          "internalType": "uint256",
          "name": "blockNumber",
          "type": "uint256"
        }
      ],
      "name": "getVotes",
      "outputs": [
        {
          "internalType": "uint256",
          "name": "",
          "type": "uint256"
        }
      ],
      "stateMutability": "view",
      "type": "function"
    },
    {
      "inputs": [
        {
          "internalType": "address",
          "name": "account",
          "type": "address"
        },
        {
          "internalType": "uint256",
          "name": "blockNumber",
          "type": "uint256"
        },
        {
          "internalType": "bytes",
          "name": "params",
          "type": "bytes"
        }
      ],
      "name": "getVotesWithParams",
      "outputs": [
        {
          "internalType": "uint256",
          "name": "",
          "type": "uint256"
        }
      ],
      "stateMutability": "view",
      "type": "function"
    },
    {
      "inputs": [
        {
          "internalType": "uint256",
          "name": "proposalId",
          "type": "uint256"
        },
        {
          "internalType": "address",
          "name": "account",
          "type": "address"
        }
      ],
      "name": "hasVoted",
      "outputs": [
        {
          "internalType": "bool",
          "name": "",
          "type": "bool"
        }
      ],
      "stateMutability": "view",
      "type": "function"
    },
    {
      "inputs": [
        {
          "internalType": "address[]",
          "name": "targets",
          "type": "address[]"
        },
        {
          "internalType": "uint256[]",
          "name": "values",
          "type": "uint256[]"
        },
        {
          "internalType": "bytes[]",
          "name": "calldatas",
          "type": "bytes[]"
        },
        {
          "internalType": "bytes32",
          "name": "descriptionHash",
          "type": "bytes32"
        }
      ],
      "name": "hashProposal",
      "outputs": [
        {
          "internalType": "uint256",
          "name": "",
          "type": "uint256"
        }
      ],
      "stateMutability": "pure",
      "type": "function"
    },
    {
      "inputs": [],
      "name": "name",
      "outputs": [
        {
          "internalType": "string",
          "name": "",
          "type": "string"
        }
      ],
      "stateMutability": "view",
      "type": "function"
    },
    {
      "inputs": [
        {
          "internalType": "address",
          "name": "",
          "type": "address"
        },
        {
          "internalType": "address",
          "name": "",
          "type": "address"
        },
        {
          "internalType": "uint256[]",
          "name": "",
          "type": "uint256[]"
        },
        {
          "internalType": "uint256[]",
          "name": "",
          "type": "uint256[]"
        },
        {
          "internalType": "bytes",
          "name": "",
          "type": "bytes"
        }
      ],
      "name": "onERC1155BatchReceived",
      "outputs": [
        {
          "internalType": "bytes4",
          "name": "",
          "type": "bytes4"
        }
      ],
      "stateMutability": "nonpayable",
      "type": "function"
    },
    {
      "inputs": [
        {
          "internalType": "address",
          "name": "",
          "type": "address"
        },
        {
          "internalType": "address",
          "name": "",
          "type": "address"
        },
        {
          "internalType": "uint256",
          "name": "",
          "type": "uint256"
        },
        {
          "internalType": "uint256",
          "name": "",
          "type": "uint256"
        },
        {
          "internalType": "bytes",
          "name": "",
          "type": "bytes"
        }
      ],
      "name": "onERC1155Received",
      "outputs": [
        {
          "internalType": "bytes4",
          "name": "",
          "type": "bytes4"
        }
      ],
      "stateMutability": "nonpayable",
      "type": "function"
    },
    {
      "inputs": [
        {
          "internalType": "address",
          "name": "",
          "type": "address"
        },
        {
          "internalType": "address",
          "name": "",
          "type": "address"
        },
        {
          "internalType": "uint256",
          "name": "",
          "type": "uint256"
        },
        {
          "internalType": "bytes",
          "name": "",
          "type": "bytes"
        }
      ],
      "name": "onERC721Received",
      "outputs": [
        {
          "internalType": "bytes4",
          "name": "",
          "type": "bytes4"
        }
      ],
      "stateMutability": "nonpayable",
      "type": "function"
    },
    {
      "inputs": [
        {
          "internalType": "uint256",
          "name": "proposalId",
          "type": "uint256"
        }
      ],
      "name": "proposalDeadline",
      "outputs": [
        {
          "internalType": "uint256",
          "name": "",
          "type": "uint256"
        }
      ],
      "stateMutability": "view",
      "type": "function"
    },
    {
      "inputs": [
        {
          "internalType": "uint256",
          "name": "proposalId",
          "type": "uint256"
        }
      ],
      "name": "proposalEta",
      "outputs": [
        {
          "internalType": "uint256",
          "name": "",
          "type": "uint256"
        }
      ],
      "stateMutability": "view",
      "type": "function"
    },
    {
      "inputs": [
        {
          "internalType": "uint256",
          "name": "proposalId",
          "type": "uint256"
        }
      ],
      "name": "proposalSnapshot",
      "outputs": [
        {
          "internalType": "uint256",
          "name": "",
          "type": "uint256"
        }
      ],
      "stateMutability": "view",
      "type": "function"
    },
    {
      "inputs": [],
      "name": "proposalThreshold",
      "outputs": [
        {
          "internalType": "uint256",
          "name": "",
          "type": "uint256"
        }
      ],
      "stateMutability": "view",
      "type": "function"
    },
    {
      "inputs": [
        {
          "internalType": "uint256",
          "name": "proposalId",
          "type": "uint256"
        }
      ],
      "name": "proposalVotes",
      "outputs": [
        {
          "internalType": "uint256",
          "name": "againstVotes",
          "type": "uint256"
        },
        {
          "internalType": "uint256",
          "name": "forVotes",
          "type": "uint256"
        },
        {
          "internalType": "uint256",
          "name": "abstainVotes",
          "type": "uint256"
        }
      ],
      "stateMutability": "view",
      "type": "function"
    },
    {
      "inputs": [
        {
          "internalType": "address[]",
          "name": "targets",
          "type": "address[]"
        },
        {
          "internalType": "uint256[]",
          "name": "values",
          "type": "uint256[]"
        },
        {
          "internalType": "bytes[]",
          "name": "calldatas",
          "type": "bytes[]"
        },
        {
          "internalType": "string",
          "name": "description",
          "type": "string"
        }
      ],
      "name": "propose",
      "outputs": [
        {
          "internalType": "uint256",
          "name": "",
          "type": "uint256"
        }
      ],
      "stateMutability": "nonpayable",
      "type": "function"
    },
    {
      "inputs": [
        {
          "internalType": "address[]",
          "name": "targets",
          "type": "address[]"
        },
        {
          "internalType": "uint256[]",
          "name": "values",
          "type": "uint256[]"
        },
        {
          "internalType": "bytes[]",
          "name": "calldatas",
          "type": "bytes[]"
        },
        {
          "internalType": "bytes32",
          "name": "descriptionHash",
          "type": "bytes32"
        }
      ],
      "name": "queue",
      "outputs": [
        {
          "internalType": "uint256",
          "name": "",
          "type": "uint256"
        }
      ],
      "stateMutability": "nonpayable",
      "type": "function"
    },
    {
      "inputs": [
        {
          "internalType": "uint256",
          "name": "blockNumber",
          "type": "uint256"
        }
      ],
      "name": "quorum",
      "outputs": [
        {
          "internalType": "uint256",
          "name": "",
          "type": "uint256"
        }
      ],
      "stateMutability": "view",
      "type": "function"
    },
    {
      "inputs": [],
      "name": "quorumDenominator",
      "outputs": [
        {
          "internalType": "uint256",
          "name": "",
          "type": "uint256"
        }
      ],
      "stateMutability": "view",
      "type": "function"
    },
    {
      "inputs": [],
      "name": "quorumNumerator",
      "outputs": [
        {
          "internalType": "uint256",
          "name": "",
          "type": "uint256"
        }
      ],
      "stateMutability": "view",
      "type": "function"
    },
    {
      "inputs": [
        {
          "internalType": "address",
          "name": "target",
          "type": "address"
        },
        {
          "internalType": "uint256",
          "name": "value",
          "type": "uint256"
        },
        {
          "internalType": "bytes",
          "name": "data",
          "type": "bytes"
        }
      ],
      "name": "relay",
      "outputs": [],
      "stateMutability": "nonpayable",
      "type": "function"
    },
    {
      "inputs": [
        {
          "internalType": "uint256",
          "name": "newProposalThreshold",
          "type": "uint256"
        }
      ],
      "name": "setProposalThreshold",
      "outputs": [],
      "stateMutability": "nonpayable",
      "type": "function"
    },
    {
      "inputs": [
        {
          "internalType": "uint256",
          "name": "newVotingDelay",
          "type": "uint256"
        }
      ],
      "name": "setVotingDelay",
      "outputs": [],
      "stateMutability": "nonpayable",
      "type": "function"
    },
    {
      "inputs": [
        {
          "internalType": "uint256",
          "name": "newVotingPeriod",
          "type": "uint256"
        }
      ],
      "name": "setVotingPeriod",
      "outputs": [],
      "stateMutability": "nonpayable",
      "type": "function"
    },
    {
      "inputs": [
        {
          "internalType": "uint256",
          "name": "proposalId",
          "type": "uint256"
        }
      ],
      "name": "state",
      "outputs": [
        {
          "internalType": "enum IGovernor.ProposalState",
          "name": "",
          "type": "uint8"
        }
      ],
      "stateMutability": "view",
      "type": "function"
    },
    {
      "inputs": [
        {
          "internalType": "bytes4",
          "name": "interfaceId",
          "type": "bytes4"
        }
      ],
      "name": "supportsInterface",
      "outputs": [
        {
          "internalType": "bool",
          "name": "",
          "type": "bool"
        }
      ],
      "stateMutability": "view",
      "type": "function"
    },
    {
      "inputs": [],
      "name": "timelock",
      "outputs": [
        {
          "internalType": "address",
          "name": "",
          "type": "address"
        }
      ],
      "stateMutability": "view",
      "type": "function"
    },
    {
      "inputs": [],
      "name": "token",
      "outputs": [
        {
          "internalType": "contract IVotes",
          "name": "",
          "type": "address"
        }
      ],
      "stateMutability": "view",
      "type": "function"
    },
    {
      "inputs": [
        {
          "internalType": "uint256",
          "name": "newQuorumNumerator",
          "type": "uint256"
        }
      ],
      "name": "updateQuorumNumerator",
      "outputs": [],
      "stateMutability": "nonpayable",
      "type": "function"
    },
    {
      "inputs": [
        {
          "internalType": "contract ICompoundTimelock",
          "name": "newTimelock",
          "type": "address"
        }
      ],
      "name": "updateTimelock",
      "outputs": [],
      "stateMutability": "nonpayable",
      "type": "function"
    },
    {
      "inputs": [],
      "name": "version",
      "outputs": [
        {
          "internalType": "string",
          "name": "",
          "type": "string"
        }
      ],
      "stateMutability": "view",
      "type": "function"
    },
    {
      "inputs": [],
      "name": "votingDelay",
      "outputs": [
        {
          "internalType": "uint256",
          "name": "",
          "type": "uint256"
        }
      ],
      "stateMutability": "view",
      "type": "function"
    },
    {
      "inputs": [],
      "name": "votingPeriod",
      "outputs": [
        {
          "internalType": "uint256",
          "name": "",
          "type": "uint256"
        }
      ],
      "stateMutability": "view",
      "type": "function"
    },
    {
      "stateMutability": "payable",
      "type": "receive"
    }
  ],
  "bytecode": "0x6101606040523480156200001257600080fd5b5060405162007768380380620077688339818101604052810190620000389190620007f3565b808583868660008b8062000051620001b960201b60201c565b60008280519060200120905060008280519060200120905060007f8b73c3c69bb8fe3d512ecc4cf759cc79239f7b179b0ffacaa9a75d522b39400f90508260e081815250508161010081815250504660a08181525050620000ba818484620001f660201b60201c565b608081815250503073ffffffffffffffffffffffffffffffffffffffff1660c08173ffffffffffffffffffffffffffffffffffffffff1681525050806101208181525050505050505080600090805190602001906200011b92919062000499565b50506200012e836200023260201b60201c565b6200013f826200027960201b60201c565b62000150816200030660201b60201c565b50505062000164816200034d60201b60201c565b508073ffffffffffffffffffffffffffffffffffffffff166101408173ffffffffffffffffffffffffffffffffffffffff168152505050620001ac81620003ee60201b60201c565b5050505050505062000b6e565b60606040518060400160405280600181526020017f3100000000000000000000000000000000000000000000000000000000000000815250905090565b6000838383463060405160200162000213959493929190620008eb565b6040516020818303038152906040528051906020012090509392505050565b7fc565b045403dc03c2eea82b81a0465edad9e2e7fc4d97e11421c209da93d7a93600454826040516200026792919062000948565b60405180910390a18060048190555050565b60008111620002bf576040517f08c379a0000000000000000000000000000000000000000000000000000000008152600401620002b690620009fc565b60405180910390fd5b7f7e3f7f0708a84de9203036abaa450dccc85ad5ff52f78c170f3edb55cf5e882860055482604051620002f492919062000948565b60405180910390a18060058190555050565b7fccb45da8d5717e6c4544694297c4ba5cf151d455c9bb0ed4fc7a38411bc05461600654826040516200033b92919062000948565b60405180910390a18060068190555050565b7f08f74ea46ef7894f65eabfb5e6e695de773a000b47c529ab559178069b226401600760009054906101000a900473ffffffffffffffffffffffffffffffffffffffff1682604051620003a292919062000a1e565b60405180910390a180600760006101000a81548173ffffffffffffffffffffffffffffffffffffffff021916908373ffffffffffffffffffffffffffffffffffffffff16021790555050565b620003fe6200049060201b60201c565b81111562000443576040517f08c379a00000000000000000000000000000000000000000000000000000000081526004016200043a9062000ae7565b60405180910390fd5b60006009549050816009819055507f0553476bf02ef2726e8ce5ced78d63e26e602e4a2257b1f559418e24b463399781836040516200048492919062000948565b60405180910390a15050565b60006064905090565b828054620004a79062000b38565b90600052602060002090601f016020900481019282620004cb576000855562000517565b82601f10620004e657805160ff191683800117855562000517565b8280016001018555821562000517579182015b8281111562000516578251825591602001919060010190620004f9565b5b5090506200052691906200052a565b5090565b5b80821115620005455760008160009055506001016200052b565b5090565b6000604051905090565b600080fd5b600080fd5b600080fd5b600080fd5b6000601f19601f8301169050919050565b7f4e487b7100000000000000000000000000000000000000000000000000000000600052604160045260246000fd5b620005b28262000567565b810181811067ffffffffffffffff82111715620005d457620005d362000578565b5b80604052505050565b6000620005e962000549565b9050620005f78282620005a7565b919050565b600067ffffffffffffffff8211156200061a576200061962000578565b5b620006258262000567565b9050602081019050919050565b60005b838110156200065257808201518184015260208101905062000635565b8381111562000662576000848401525b50505050565b60006200067f6200067984620005fc565b620005dd565b9050828152602081018484840111156200069e576200069d62000562565b5b620006ab84828562000632565b509392505050565b600082601f830112620006cb57620006ca6200055d565b5b8151620006dd84826020860162000668565b91505092915050565b600073ffffffffffffffffffffffffffffffffffffffff82169050919050565b60006200071382620006e6565b9050919050565b6000620007278262000706565b9050919050565b62000739816200071a565b81146200074557600080fd5b50565b60008151905062000759816200072e565b92915050565b6000819050919050565b62000774816200075f565b81146200078057600080fd5b50565b600081519050620007948162000769565b92915050565b6000620007a782620006e6565b9050919050565b6000620007bb826200079a565b9050919050565b620007cd81620007ae565b8114620007d957600080fd5b50565b600081519050620007ed81620007c2565b92915050565b60008060008060008060c0878903121562000813576200081262000553565b5b600087015167ffffffffffffffff81111562000834576200083362000558565b5b6200084289828a01620006b3565b96505060206200085589828a0162000748565b95505060406200086889828a0162000783565b94505060606200087b89828a0162000783565b93505060806200088e89828a01620007dc565b92505060a0620008a189828a0162000783565b9150509295509295509295565b6000819050919050565b620008c381620008ae565b82525050565b620008d4816200075f565b82525050565b620008e58162000706565b82525050565b600060a082019050620009026000830188620008b8565b620009116020830187620008b8565b620009206040830186620008b8565b6200092f6060830185620008c9565b6200093e6080830184620008da565b9695505050505050565b60006040820190506200095f6000830185620008c9565b6200096e6020830184620008c9565b9392505050565b600082825260208201905092915050565b7f476f7665726e6f7253657474696e67733a20766f74696e6720706572696f642060008201527f746f6f206c6f7700000000000000000000000000000000000000000000000000602082015250565b6000620009e460278362000975565b9150620009f18262000986565b604082019050919050565b6000602082019050818103600083015262000a1781620009d5565b9050919050565b600060408201905062000a356000830185620008da565b62000a446020830184620008da565b9392505050565b7f476f7665726e6f72566f74657351756f72756d4672616374696f6e3a2071756f60008201527f72756d4e756d657261746f72206f7665722071756f72756d44656e6f6d696e6160208201527f746f720000000000000000000000000000000000000000000000000000000000604082015250565b600062000acf60438362000975565b915062000adc8262000a4b565b606082019050919050565b6000602082019050818103600083015262000b028162000ac0565b9050919050565b7f4e487b7100000000000000000000000000000000000000000000000000000000600052602260045260246000fd5b6000600282049050600182168062000b5157607f821691505b6020821081141562000b685762000b6762000b09565b5b50919050565b60805160a05160c05160e051610100516101205161014051616b9162000bd7600039600081816121730152818161299d0152612c2d01526000612f0201526000612f4401526000612f2301526000612e5801526000612eae01526000612ed70152616b916000f3fe6080604052600436106102555760003560e01c80637d5e81e211610139578063c28bc2fa116100b6578063ea0217cf1161007a578063ea0217cf146109ed578063eb9019d414610a16578063ece40cc114610a53578063f23a6e6114610a7c578063f8ce560a14610ab9578063fc0c546a14610af65761029b565b8063c28bc2fa14610906578063c59057e41461092f578063d33219b41461096c578063dd4e2ba514610997578063deaaa7cc146109c25761029b565b8063ab58fb8e116100fd578063ab58fb8e1461080d578063b58131b01461084a578063b9a6196114610875578063bc197c811461088c578063c01f9e37146108c95761029b565b80637d5e81e21461071457806397c3d334146107515780639a802a6d1461077c578063a7713a70146107b9578063a890c910146107e45761029b565b80633932abb1116101d2578063544ffc9c11610196578063544ffc9c146105ca57806354fd4d501461060957806356781388146106345780635f398a141461067157806370b0f660146106ae5780637b3c71d3146106d75761029b565b80633932abb1146104ab5780633bccf4fd146104d65780633e4f49e6146105135780634385963214610550578063452115d61461058d5761029b565b8063150b7a0211610219578063150b7a0214610399578063160cbed7146103d65780632656227d146104135780632d63f693146104435780632fe3e261146104805761029b565b806301ffc9a7146102a057806302a251a3146102dd578063034201811461030857806306f3f9e61461034557806306fdde031461036e5761029b565b3661029b573073ffffffffffffffffffffffffffffffffffffffff16610279610b21565b73ffffffffffffffffffffffffffffffffffffffff161461029957600080fd5b005b600080fd5b3480156102ac57600080fd5b506102c760048036038101906102c29190613f80565b610b30565b6040516102d49190613fc8565b60405180910390f35b3480156102e957600080fd5b506102f2610b42565b6040516102ff9190613ffc565b60405180910390f35b34801561031457600080fd5b5061032f600480360381019061032a9190614258565b610b4c565b60405161033c9190613ffc565b60405180910390f35b34801561035157600080fd5b5061036c60048036038101906103679190614336565b610c31565b005b34801561037a57600080fd5b50610383610d2d565b60405161039091906143eb565b60405180910390f35b3480156103a557600080fd5b506103c060048036038101906103bb919061446b565b610dbf565b6040516103cd91906144fd565b60405180910390f35b3480156103e257600080fd5b506103fd60048036038101906103f8919061477f565b610dd3565b60405161040a9190613ffc565b60405180910390f35b61042d6004803603810190610428919061477f565b6111fd565b60405161043a9190613ffc565b60405180910390f35b34801561044f57600080fd5b5061046a60048036038101906104659190614336565b61134a565b6040516104779190613ffc565b60405180910390f35b34801561048c57600080fd5b506104956113b8565b6040516104a29190614849565b60405180910390f35b3480156104b757600080fd5b506104c06113dc565b6040516104cd9190613ffc565b60405180910390f35b3480156104e257600080fd5b506104fd60048036038101906104f89190614864565b6113e6565b60405161050a9190613ffc565b60405180910390f35b34801561051f57600080fd5b5061053a60048036038101906105359190614336565b611470565b6040516105479190614956565b60405180910390f35b34801561055c57600080fd5b5061057760048036038101906105729190614971565b611482565b6040516105849190613fc8565b60405180910390f35b34801561059957600080fd5b506105b460048036038101906105af919061477f565b6114ed565b6040516105c19190613ffc565b60405180910390f35b3480156105d657600080fd5b506105f160048036038101906105ec9190614336565b611505565b604051610600939291906149b1565b60405180910390f35b34801561061557600080fd5b5061061e61153d565b60405161062b91906143eb565b60405180910390f35b34801561064057600080fd5b5061065b600480360381019061065691906149e8565b61157a565b6040516106689190613ffc565b60405180910390f35b34801561067d57600080fd5b5061069860048036038101906106939190614a28565b6115ab565b6040516106a59190613ffc565b60405180910390f35b3480156106ba57600080fd5b506106d560048036038101906106d09190614336565b611615565b005b3480156106e357600080fd5b506106fe60048036038101906106f99190614acc565b611711565b60405161070b9190613ffc565b60405180910390f35b34801561072057600080fd5b5061073b60048036038101906107369190614be1565b611779565b6040516107489190613ffc565b60405180910390f35b34801561075d57600080fd5b50610766611a80565b6040516107739190613ffc565b60405180910390f35b34801561078857600080fd5b506107a3600480360381019061079e9190614cb8565b611a89565b6040516107b09190613ffc565b60405180910390f35b3480156107c557600080fd5b506107ce611a9f565b6040516107db9190613ffc565b60405180910390f35b3480156107f057600080fd5b5061080b60048036038101906108069190614d77565b611aa9565b005b34801561081957600080fd5b50610834600480360381019061082f9190614336565b611ba5565b6040516108419190613ffc565b60405180910390f35b34801561085657600080fd5b5061085f611c13565b60405161086c9190613ffc565b60405180910390f35b34801561088157600080fd5b5061088a611c22565b005b34801561089857600080fd5b506108b360048036038101906108ae9190614da4565b611ca6565b6040516108c091906144fd565b60405180910390f35b3480156108d557600080fd5b506108f060048036038101906108eb9190614336565b611cbb565b6040516108fd9190613ffc565b60405180910390f35b34801561091257600080fd5b5061092d60048036038101906109289190614ec9565b611d29565b005b34801561093b57600080fd5b506109566004803603810190610951919061477f565b611e6f565b6040516109639190613ffc565b60405180910390f35b34801561097857600080fd5b50610981611eab565b60405161098e9190614f4c565b60405180910390f35b3480156109a357600080fd5b506109ac611ed5565b6040516109b991906143eb565b60405180910390f35b3480156109ce57600080fd5b506109d7611f12565b6040516109e49190614849565b60405180910390f35b3480156109f957600080fd5b50610a146004803603810190610a0f9190614336565b611f36565b005b348015610a2257600080fd5b50610a3d6004803603810190610a389190614f67565b612032565b604051610a4a9190613ffc565b60405180910390f35b348015610a5f57600080fd5b50610a7a6004803603810190610a759190614336565b61204e565b005b348015610a8857600080fd5b50610aa36004803603810190610a9e9190614fa7565b61214a565b604051610ab091906144fd565b60405180910390f35b348015610ac557600080fd5b50610ae06004803603810190610adb9190614336565b61215f565b604051610aed9190613ffc565b60405180910390f35b348015610b0257600080fd5b50610b0b612171565b604051610b18919061509d565b60405180910390f35b6000610b2b612195565b905090565b6000610b3b826121bf565b9050919050565b6000600554905090565b600080610bcf610bc77fb3b3f3b703cd84ce352197dcff232b1b5d3cfb2025ce47cf04742d0651f1af888c8c8c8c604051610b889291906150e8565b60405180910390208b80519060200120604051602001610bac959493929190615110565b60405160208183030381529060405280519060200120612239565b868686612253565b9050610c228a828b8b8b8080601f016020809104026020016040519081016040528093929190818152602001838380828437600081840152601f19601f820116905080830192505050505050508a61227e565b91505098975050505050505050565b610c39610b21565b73ffffffffffffffffffffffffffffffffffffffff16610c5761243b565b73ffffffffffffffffffffffffffffffffffffffff1614610cad576040517f08c379a0000000000000000000000000000000000000000000000000000000008152600401610ca4906151af565b60405180910390fd5b3073ffffffffffffffffffffffffffffffffffffffff16610ccc610b21565b73ffffffffffffffffffffffffffffffffffffffff1614610d21576000610cf1612443565b604051610cff9291906150e8565b604051809103902090505b80610d156002612450565b14610d1f57610d0a565b505b610d2a8161252c565b50565b606060008054610d3c906151fe565b80601f0160208091040260200160405190810160405280929190818152602001828054610d68906151fe565b8015610db55780601f10610d8a57610100808354040283529160200191610db5565b820191906000526020600020905b815481529060010190602001808311610d9857829003601f168201915b5050505050905090565b600063150b7a0260e01b9050949350505050565b600080610de286868686611e6f565b905060046007811115610df857610df76148df565b5b610e0182611470565b6007811115610e1357610e126148df565b5b14610e53576040517f08c379a0000000000000000000000000000000000000000000000000000000008152600401610e4a906152a2565b60405180910390fd5b6000600760009054906101000a900473ffffffffffffffffffffffffffffffffffffffff1673ffffffffffffffffffffffffffffffffffffffff16636a42b8f86040518163ffffffff1660e01b815260040160206040518083038186803b158015610ebd57600080fd5b505afa158015610ed1573d6000803e3d6000fd5b505050506040513d601f19601f82011682018060405250810190610ef591906152d7565b42610f009190615333565b9050610f32610f0e826125c1565b6008600085815260200190815260200160002060000161261890919063ffffffff16565b60005b87518110156111b657600760009054906101000a900473ffffffffffffffffffffffffffffffffffffffff1673ffffffffffffffffffffffffffffffffffffffff1663f2b06537898381518110610f8f57610f8e615389565b5b6020026020010151898481518110610faa57610fa9615389565b5b6020026020010151898581518110610fc557610fc4615389565b5b602002602001015186604051602001610fe19493929190615433565b604051602081830303815290604052805190602001206040518263ffffffff1660e01b81526004016110139190614849565b60206040518083038186803b15801561102b57600080fd5b505afa15801561103f573d6000803e3d6000fd5b505050506040513d601f19601f8201168201806040525081019061106391906154be565b156110a3576040517f08c379a000000000000000000000000000000000000000000000000000000000815260040161109a90615583565b60405180910390fd5b600760009054906101000a900473ffffffffffffffffffffffffffffffffffffffff1673ffffffffffffffffffffffffffffffffffffffff16633a66f9018983815181106110f4576110f3615389565b5b602002602001015189848151811061110f5761110e615389565b5b602002602001015189858151811061112a57611129615389565b5b6020026020010151866040518563ffffffff1660e01b81526004016111529493929190615433565b602060405180830381600087803b15801561116c57600080fd5b505af1158015611180573d6000803e3d6000fd5b505050506040513d601f19601f820116820180604052508101906111a491906155b8565b50806111af906155e5565b9050610f35565b507f9a2e42fd6722813d69113e7d0079d3d940171428df7373df9c7f7617cfda289282826040516111e892919061562e565b60405180910390a18192505050949350505050565b60008061120c86868686611e6f565b9050600061121982611470565b90506004600781111561122f5761122e6148df565b5b816007811115611242576112416148df565b5b148061127257506005600781111561125d5761125c6148df565b5b8160078111156112705761126f6148df565b5b145b6112b1576040517f08c379a00000000000000000000000000000000000000000000000000000000081526004016112a8906152a2565b60405180910390fd5b600180600084815260200190815260200160002060020160006101000a81548160ff0219169083151502179055507f712ae1383f79ac853f8d882153778e0260ef8f03b504e2866e0593e04d2b291f8260405161130e9190613ffc565b60405180910390a16113238288888888612647565b611330828888888861272b565b61133d828888888861273f565b8192505050949350505050565b60006113a7600160008481526020019081526020016000206000016040518060200160405290816000820160009054906101000a900467ffffffffffffffff1667ffffffffffffffff1667ffffffffffffffff168152505061279a565b67ffffffffffffffff169050919050565b7fb3b3f3b703cd84ce352197dcff232b1b5d3cfb2025ce47cf04742d0651f1af8881565b6000600454905090565b60008061144761143f7f150214d74d59b7d1e90c73fc22ef3d991dd0a76b046543d4d80ab92d2a50328f898960405160200161142493929190615657565b60405160208183030381529060405280519060200120612239565b868686612253565b9050611464878288604051806020016040528060008152506127a8565b91505095945050505050565b600061147b826127c8565b9050919050565b6000600a600084815260200190815260200160002060030160008373ffffffffffffffffffffffffffffffffffffffff1673ffffffffffffffffffffffffffffffffffffffff16815260200190815260200160002060009054906101000a900460ff16905092915050565b60006114fb858585856128f3565b9050949350505050565b600080600080600a60008681526020019081526020016000209050806000015481600101548260020154935093509350509193909250565b60606040518060400160405280600181526020017f3100000000000000000000000000000000000000000000000000000000000000815250905090565b60008061158561243b565b90506115a2848285604051806020016040528060008152506127a8565b91505092915050565b6000806115b661243b565b905061160987828888888080601f016020809104026020016040519081016040528093929190818152602001838380828437600081840152601f19601f820116905080830192505050505050508761227e565b91505095945050505050565b61161d610b21565b73ffffffffffffffffffffffffffffffffffffffff1661163b61243b565b73ffffffffffffffffffffffffffffffffffffffff1614611691576040517f08c379a0000000000000000000000000000000000000000000000000000000008152600401611688906151af565b60405180910390fd5b3073ffffffffffffffffffffffffffffffffffffffff166116b0610b21565b73ffffffffffffffffffffffffffffffffffffffff16146117055760006116d5612443565b6040516116e39291906150e8565b604051809103902090505b806116f96002612450565b14611703576116ee565b505b61170e8161290b565b50565b60008061171c61243b565b905061176e86828787878080601f016020809104026020016040519081016040528093929190818152602001838380828437600081840152601f19601f820116905080830192505050505050506127a8565b915050949350505050565b6000611783611c13565b6117a061178e61243b565b60014361179b919061568e565b612032565b10156117e1576040517f08c379a00000000000000000000000000000000000000000000000000000000081526004016117d890615734565b60405180910390fd5b60006117f68686868680519060200120611e6f565b9050845186511461183c576040517f08c379a0000000000000000000000000000000000000000000000000000000008152600401611833906157c6565b60405180910390fd5b8351865114611880576040517f08c379a0000000000000000000000000000000000000000000000000000000008152600401611877906157c6565b60405180910390fd5b60008651116118c4576040517f08c379a00000000000000000000000000000000000000000000000000000000081526004016118bb90615832565b60405180910390fd5b6000600160008381526020019081526020016000209050611924816000016040518060200160405290816000820160009054906101000a900467ffffffffffffffff1667ffffffffffffffff1667ffffffffffffffff1681525050612950565b611963576040517f08c379a000000000000000000000000000000000000000000000000000000000815260040161195a906158c4565b60405180910390fd5b60006119756119706113dc565b6125c1565b61197e436125c1565b61198891906158f8565b9050600061199c611997610b42565b6125c1565b826119a791906158f8565b90506119bf828460000161296a90919063ffffffff16565b6119d5818460010161296a90919063ffffffff16565b7f7d84a6263ae0d98d3329bd7b46bb4e8d6f98cd35a7adb45c274c8b7fd5ebd5e0846119ff61243b565b8b8b8d5167ffffffffffffffff811115611a1c57611a1b6140f7565b5b604051908082528060200260200182016040528015611a4f57816020015b6060815260200190600190039081611a3a5790505b508c88888e604051611a6999989796959493929190615cfb565b60405180910390a183945050505050949350505050565b60006064905090565b6000611a96848484612999565b90509392505050565b6000600954905090565b611ab1610b21565b73ffffffffffffffffffffffffffffffffffffffff16611acf61243b565b73ffffffffffffffffffffffffffffffffffffffff1614611b25576040517f08c379a0000000000000000000000000000000000000000000000000000000008152600401611b1c906151af565b60405180910390fd5b3073ffffffffffffffffffffffffffffffffffffffff16611b44610b21565b73ffffffffffffffffffffffffffffffffffffffff1614611b99576000611b69612443565b604051611b779291906150e8565b604051809103902090505b80611b8d6002612450565b14611b9757611b82565b505b611ba281612a4f565b50565b6000611c02600860008481526020019081526020016000206000016040518060200160405290816000820160009054906101000a900467ffffffffffffffff1667ffffffffffffffff1667ffffffffffffffff1681525050612aee565b67ffffffffffffffff169050919050565b6000611c1d612afc565b905090565b600760009054906101000a900473ffffffffffffffffffffffffffffffffffffffff1673ffffffffffffffffffffffffffffffffffffffff16630e18b6816040518163ffffffff1660e01b8152600401600060405180830381600087803b158015611c8c57600080fd5b505af1158015611ca0573d6000803e3d6000fd5b50505050565b600063bc197c8160e01b905095945050505050565b6000611d18600160008481526020019081526020016000206001016040518060200160405290816000820160009054906101000a900467ffffffffffffffff1667ffffffffffffffff1667ffffffffffffffff168152505061279a565b67ffffffffffffffff169050919050565b611d31610b21565b73ffffffffffffffffffffffffffffffffffffffff16611d4f61243b565b73ffffffffffffffffffffffffffffffffffffffff1614611da5576040517f08c379a0000000000000000000000000000000000000000000000000000000008152600401611d9c906151af565b60405180910390fd5b3073ffffffffffffffffffffffffffffffffffffffff16611dc4610b21565b73ffffffffffffffffffffffffffffffffffffffff1614611e19576000611de9612443565b604051611df79291906150e8565b604051809103902090505b80611e0d6002612450565b14611e1757611e02565b505b611e688483838080601f016020809104026020016040519081016040528093929190818152602001838380828437600081840152601f19601f8201169050808301925050505050505085612b06565b5050505050565b600084848484604051602001611e889493929190615dab565b6040516020818303038152906040528051906020012060001c9050949350505050565b6000600760009054906101000a900473ffffffffffffffffffffffffffffffffffffffff16905090565b60606040518060400160405280602081526020017f737570706f72743d627261766f2671756f72756d3d666f722c6162737461696e815250905090565b7f150214d74d59b7d1e90c73fc22ef3d991dd0a76b046543d4d80ab92d2a50328f81565b611f3e610b21565b73ffffffffffffffffffffffffffffffffffffffff16611f5c61243b565b73ffffffffffffffffffffffffffffffffffffffff1614611fb2576040517f08c379a0000000000000000000000000000000000000000000000000000000008152600401611fa9906151af565b60405180910390fd5b3073ffffffffffffffffffffffffffffffffffffffff16611fd1610b21565b73ffffffffffffffffffffffffffffffffffffffff1614612026576000611ff6612443565b6040516120049291906150e8565b604051809103902090505b8061201a6002612450565b146120245761200f565b505b61202f81612b35565b50565b60006120468383612041612bbd565b612999565b905092915050565b612056610b21565b73ffffffffffffffffffffffffffffffffffffffff1661207461243b565b73ffffffffffffffffffffffffffffffffffffffff16146120ca576040517f08c379a00000000000000000000000000000000000000000000000000000000081526004016120c1906151af565b60405180910390fd5b3073ffffffffffffffffffffffffffffffffffffffff166120e9610b21565b73ffffffffffffffffffffffffffffffffffffffff161461213e57600061210e612443565b60405161211c9291906150e8565b604051809103902090505b806121326002612450565b1461213c57612127565b505b61214781612bd4565b50565b600063f23a6e6160e01b905095945050505050565b600061216a82612c19565b9050919050565b7f000000000000000000000000000000000000000000000000000000000000000081565b6000600760009054906101000a900473ffffffffffffffffffffffffffffffffffffffff16905090565b60007f6e665ced000000000000000000000000000000000000000000000000000000007bffffffffffffffffffffffffffffffffffffffffffffffffffffffff1916827bffffffffffffffffffffffffffffffffffffffffffffffffffffffff19161480612232575061223182612cef565b5b9050919050565b600061224c612246612e54565b83612f6e565b9050919050565b600080600061226487878787612fa1565b91509150612271816130ae565b8192505050949350505050565b600080600160008881526020019081526020016000209050600160078111156122aa576122a96148df565b5b6122b388611470565b60078111156122c5576122c46148df565b5b14612305576040517f08c379a00000000000000000000000000000000000000000000000000000000081526004016122fc90615e77565b60405180910390fd5b600061236487612354846000016040518060200160405290816000820160009054906101000a900467ffffffffffffffff1667ffffffffffffffff1667ffffffffffffffff168152505061279a565b67ffffffffffffffff1686612999565b90506123738888888488613283565b6000845114156123d6578673ffffffffffffffffffffffffffffffffffffffff167fb8e138887d0aa13bab447e82de9d5c1777041ecd21ca36ba824ff1e6c07ddda4898884896040516123c99493929190615e97565b60405180910390a261242d565b8673ffffffffffffffffffffffffffffffffffffffff167fe2babfbac5889a709b63bb7f598b324e08bc5a4fb9ec647fb3cbc9ec07eb87128988848989604051612424959493929190615ee3565b60405180910390a25b809250505095945050505050565b600033905090565b3660008036915091509091565b600061245b8261348a565b15612492576040517f3db2a12a00000000000000000000000000000000000000000000000000000000815260040160405180910390fd5b60008260000160009054906101000a9004600f0b905082600101600082600f0b600f0b815260200190815260200160002054915082600101600082600f0b600f0b815260200190815260200160002060009055600181018360000160006101000a8154816fffffffffffffffffffffffffffffffff0219169083600f0b6fffffffffffffffffffffffffffffffff16021790555050919050565b612534611a80565b811115612576576040517f08c379a000000000000000000000000000000000000000000000000000000000815260040161256d90615fdc565b60405180910390fd5b60006009549050816009819055507f0553476bf02ef2726e8ce5ced78d63e26e602e4a2257b1f559418e24b463399781836040516125b592919061562e565b60405180910390a15050565b600067ffffffffffffffff8016821115612610576040517f08c379a00000000000000000000000000000000000000000000000000000000081526004016126079061606e565b60405180910390fd5b819050919050565b808260000160006101000a81548167ffffffffffffffff021916908367ffffffffffffffff1602179055505050565b3073ffffffffffffffffffffffffffffffffffffffff16612666610b21565b73ffffffffffffffffffffffffffffffffffffffff16146127245760005b8451811015612722573073ffffffffffffffffffffffffffffffffffffffff168582815181106126b7576126b6615389565b5b602002602001015173ffffffffffffffffffffffffffffffffffffffff161415612711576127108382815181106126f1576126f0615389565b5b60200260200101518051906020012060026134bf90919063ffffffff16565b5b8061271b906155e5565b9050612684565b505b5050505050565b612738858585858561353b565b5050505050565b3073ffffffffffffffffffffffffffffffffffffffff1661275e610b21565b73ffffffffffffffffffffffffffffffffffffffff161461279357612783600261348a565b6127925761279160026136e4565b5b5b5050505050565b600081600001519050919050565b60006127be858585856127b9612bbd565b61227e565b9050949350505050565b6000806127d483613765565b9050600460078111156127ea576127e96148df565b5b8160078111156127fd576127fc6148df565b5b1461280b57809150506128ee565b600061281684611ba5565b9050600081141561282b5781925050506128ee565b600760009054906101000a900473ffffffffffffffffffffffffffffffffffffffff1673ffffffffffffffffffffffffffffffffffffffff1663c1a287e26040518163ffffffff1660e01b815260040160206040518083038186803b15801561289357600080fd5b505afa1580156128a7573d6000803e3d6000fd5b505050506040513d601f19601f820116820180604052508101906128cb91906152d7565b816128d69190615333565b42106128e7576006925050506128ee565b6005925050505b919050565b60006129018585858561387a565b9050949350505050565b7fc565b045403dc03c2eea82b81a0465edad9e2e7fc4d97e11421c209da93d7a936004548260405161293e92919061562e565b60405180910390a18060048190555050565b600080826000015167ffffffffffffffff16149050919050565b808260000160006101000a81548167ffffffffffffffff021916908367ffffffffffffffff1602179055505050565b60007f000000000000000000000000000000000000000000000000000000000000000073ffffffffffffffffffffffffffffffffffffffff16633a46b1a885856040518363ffffffff1660e01b81526004016129f692919061608e565b60206040518083038186803b158015612a0e57600080fd5b505afa158015612a22573d6000803e3d6000fd5b505050506040513d601f19601f82011682018060405250810190612a4691906152d7565b90509392505050565b7f08f74ea46ef7894f65eabfb5e6e695de773a000b47c529ab559178069b226401600760009054906101000a900473ffffffffffffffffffffffffffffffffffffffff1682604051612aa29291906160b7565b60405180910390a180600760006101000a81548173ffffffffffffffffffffffffffffffffffffffff021916908373ffffffffffffffffffffffffffffffffffffffff16021790555050565b600081600001519050919050565b6000600654905090565b6060612b2c848484604051806060016040528060298152602001616b33602991396139cc565b90509392505050565b60008111612b78576040517f08c379a0000000000000000000000000000000000000000000000000000000008152600401612b6f90616152565b60405180910390fd5b7f7e3f7f0708a84de9203036abaa450dccc85ad5ff52f78c170f3edb55cf5e882860055482604051612bab92919061562e565b60405180910390a18060058190555050565b606060405180602001604052806000815250905090565b7fccb45da8d5717e6c4544694297c4ba5cf151d455c9bb0ed4fc7a38411bc0546160065482604051612c0792919061562e565b60405180910390a18060068190555050565b6000612c23611a80565b612c2b611a9f565b7f000000000000000000000000000000000000000000000000000000000000000073ffffffffffffffffffffffffffffffffffffffff16638e539e8c856040518263ffffffff1660e01b8152600401612c849190613ffc565b60206040518083038186803b158015612c9c57600080fd5b505afa158015612cb0573d6000803e3d6000fd5b505050506040513d601f19601f82011682018060405250810190612cd491906152d7565b612cde9190616172565b612ce891906161fb565b9050919050565b6000639a802a6d60e01b630342018160e01b635f398a1460e01b7f79dd796f000000000000000000000000000000000000000000000000000000001818187bffffffffffffffffffffffffffffffffffffffffffffffffffffffff1916827bffffffffffffffffffffffffffffffffffffffffffffffffffffffff19161480612dd557507f79dd796f000000000000000000000000000000000000000000000000000000007bffffffffffffffffffffffffffffffffffffffffffffffffffffffff1916827bffffffffffffffffffffffffffffffffffffffffffffffffffffffff1916145b80612e3d57507f4e2312e0000000000000000000000000000000000000000000000000000000007bffffffffffffffffffffffffffffffffffffffffffffffffffffffff1916827bffffffffffffffffffffffffffffffffffffffffffffffffffffffff1916145b80612e4d5750612e4c82613a99565b5b9050919050565b60007f000000000000000000000000000000000000000000000000000000000000000073ffffffffffffffffffffffffffffffffffffffff163073ffffffffffffffffffffffffffffffffffffffff16148015612ed057507f000000000000000000000000000000000000000000000000000000000000000046145b15612efd577f00000000000000000000000000000000000000000000000000000000000000009050612f6b565b612f687f00000000000000000000000000000000000000000000000000000000000000007f00000000000000000000000000000000000000000000000000000000000000007f0000000000000000000000000000000000000000000000000000000000000000613b03565b90505b90565b60008282604051602001612f839291906162a4565b60405160208183030381529060405280519060200120905092915050565b6000807f7fffffffffffffffffffffffffffffff5d576e7357a4501ddfe92f46681b20a08360001c1115612fdc5760006003915091506130a5565b601b8560ff1614158015612ff45750601c8560ff1614155b156130065760006004915091506130a5565b60006001878787876040516000815260200160405260405161302b94939291906162db565b6020604051602081039080840390855afa15801561304d573d6000803e3d6000fd5b505050602060405103519050600073ffffffffffffffffffffffffffffffffffffffff168173ffffffffffffffffffffffffffffffffffffffff16141561309c576000600192509250506130a5565b80600092509250505b94509492505050565b600060048111156130c2576130c16148df565b5b8160048111156130d5576130d46148df565b5b14156130e057613280565b600160048111156130f4576130f36148df565b5b816004811115613107576131066148df565b5b1415613148576040517f08c379a000000000000000000000000000000000000000000000000000000000815260040161313f9061636c565b60405180910390fd5b6002600481111561315c5761315b6148df565b5b81600481111561316f5761316e6148df565b5b14156131b0576040517f08c379a00000000000000000000000000000000000000000000000000000000081526004016131a7906163d8565b60405180910390fd5b600360048111156131c4576131c36148df565b5b8160048111156131d7576131d66148df565b5b1415613218576040517f08c379a000000000000000000000000000000000000000000000000000000000815260040161320f9061646a565b60405180910390fd5b60048081111561322b5761322a6148df565b5b81600481111561323e5761323d6148df565b5b141561327f576040517f08c379a0000000000000000000000000000000000000000000000000000000008152600401613276906164fc565b60405180910390fd5b5b50565b6000600a600087815260200190815260200160002090508060030160008673ffffffffffffffffffffffffffffffffffffffff1673ffffffffffffffffffffffffffffffffffffffff16815260200190815260200160002060009054906101000a900460ff1615613329576040517f08c379a00000000000000000000000000000000000000000000000000000000081526004016133209061658e565b60405180910390fd5b60018160030160008773ffffffffffffffffffffffffffffffffffffffff1673ffffffffffffffffffffffffffffffffffffffff16815260200190815260200160002060006101000a81548160ff02191690831515021790555060006002811115613397576133966148df565b5b60ff168460ff1614156133c457828160000160008282546133b89190615333565b92505081905550613482565b600160028111156133d8576133d76148df565b5b60ff168460ff16141561340557828160010160008282546133f99190615333565b92505081905550613481565b600280811115613418576134176148df565b5b60ff168460ff16141561344557828160020160008282546134399190615333565b92505081905550613480565b6040517f08c379a000000000000000000000000000000000000000000000000000000000815260040161347790616620565b60405180910390fd5b5b5b505050505050565b60008160000160009054906101000a9004600f0b600f0b8260000160109054906101000a9004600f0b600f0b13159050919050565b60008260000160109054906101000a9004600f0b90508183600101600083600f0b600f0b815260200190815260200160002081905550600181018360000160106101000a8154816fffffffffffffffffffffffffffffffff0219169083600f0b6fffffffffffffffffffffffffffffffff160217905550505050565b600061354686611ba5565b90506000811161358b576040517f08c379a0000000000000000000000000000000000000000000000000000000008152600401613582906166b2565b60405180910390fd5b6135b7600760009054906101000a900473ffffffffffffffffffffffffffffffffffffffff1634613b3d565b60005b85518110156136db57600760009054906101000a900473ffffffffffffffffffffffffffffffffffffffff1673ffffffffffffffffffffffffffffffffffffffff16630825f38f87838151811061361457613613615389565b5b602002602001015187848151811061362f5761362e615389565b5b602002602001015187858151811061364a57613649615389565b5b6020026020010151866040518563ffffffff1660e01b81526004016136729493929190615433565b600060405180830381600087803b15801561368c57600080fd5b505af11580156136a0573d6000803e3d6000fd5b505050506040513d6000823e3d601f19601f820116820180604052508101906136c99190616742565b50806136d4906155e5565b90506135ba565b50505050505050565b60008160000160006101000a8154816fffffffffffffffffffffffffffffffff0219169083600f0b6fffffffffffffffffffffffffffffffff16021790555060008160000160106101000a8154816fffffffffffffffffffffffffffffffff0219169083600f0b6fffffffffffffffffffffffffffffffff16021790555050565b6000806001600084815260200190815260200160002090508060020160009054906101000a900460ff161561379e576007915050613875565b8060020160019054906101000a900460ff16156137bf576002915050613875565b60006137ca8461134a565b90506000811415613810576040517f08c379a0000000000000000000000000000000000000000000000000000000008152600401613807906167d7565b60405180910390fd5b43811061382257600092505050613875565b600061382d85611cbb565b90504381106138425760019350505050613875565b61384b85613c31565b801561385c575061385b85613c78565b5b1561386d5760049350505050613875565b600393505050505b919050565b60008061388986868686613ca3565b9050600061389682611ba5565b905060008111156139bf5760005b875181101561399f57600760009054906101000a900473ffffffffffffffffffffffffffffffffffffffff1673ffffffffffffffffffffffffffffffffffffffff1663591fcdfe8983815181106138fe576138fd615389565b5b602002602001015189848151811061391957613918615389565b5b602002602001015189858151811061393457613933615389565b5b6020026020010151866040518563ffffffff1660e01b815260040161395c9493929190615433565b600060405180830381600087803b15801561397657600080fd5b505af115801561398a573d6000803e3d6000fd5b5050505080613998906155e5565b90506138a4565b506139be60086000848152602001908152602001600020600001613dfc565b5b8192505050949350505050565b606082471015613a11576040517f08c379a0000000000000000000000000000000000000000000000000000000008152600401613a0890616869565b60405180910390fd5b6000808673ffffffffffffffffffffffffffffffffffffffff168587604051613a3a91906168ba565b60006040518083038185875af1925050503d8060008114613a77576040519150601f19603f3d011682016040523d82523d6000602084013e613a7c565b606091505b5091509150613a8d87838387613e2b565b92505050949350505050565b60007f01ffc9a7000000000000000000000000000000000000000000000000000000007bffffffffffffffffffffffffffffffffffffffffffffffffffffffff1916827bffffffffffffffffffffffffffffffffffffffffffffffffffffffff1916149050919050565b60008383834630604051602001613b1e9594939291906168d1565b6040516020818303038152906040528051906020012090509392505050565b80471015613b80576040517f08c379a0000000000000000000000000000000000000000000000000000000008152600401613b7790616970565b60405180910390fd5b60008273ffffffffffffffffffffffffffffffffffffffff1682604051613ba6906169b3565b60006040518083038185875af1925050503d8060008114613be3576040519150601f19603f3d011682016040523d82523d6000602084013e613be8565b606091505b5050905080613c2c576040517f08c379a0000000000000000000000000000000000000000000000000000000008152600401613c2390616a3a565b60405180910390fd5b505050565b600080600a6000848152602001908152602001600020905080600201548160010154613c5d9190615333565b613c6e613c698561134a565b61215f565b1115915050919050565b600080600a600084815260200190815260200160002090508060000154816001015411915050919050565b600080613cb286868686611e6f565b90506000613cbf82611470565b905060026007811115613cd557613cd46148df565b5b816007811115613ce857613ce76148df565b5b14158015613d1b575060066007811115613d0557613d046148df565b5b816007811115613d1857613d176148df565b5b14155b8015613d4b5750600780811115613d3557613d346148df565b5b816007811115613d4857613d476148df565b5b14155b613d8a576040517f08c379a0000000000000000000000000000000000000000000000000000000008152600401613d8190616aa6565b60405180910390fd5b600180600084815260200190815260200160002060020160016101000a81548160ff0219169083151502179055507f789cf55be980739dad1d0699b93b58e806b51c9d96619bfa8fe0a28abaa7b30c82604051613de79190613ffc565b60405180910390a18192505050949350505050565b60008160000160006101000a81548167ffffffffffffffff021916908367ffffffffffffffff16021790555050565b60608315613e8e57600083511415613e8657613e4685613ea1565b613e85576040517f08c379a0000000000000000000000000000000000000000000000000000000008152600401613e7c90616b12565b60405180910390fd5b5b829050613e99565b613e988383613ec4565b5b949350505050565b6000808273ffffffffffffffffffffffffffffffffffffffff163b119050919050565b600082511115613ed75781518083602001fd5b806040517f08c379a0000000000000000000000000000000000000000000000000000000008152600401613f0b91906143eb565b60405180910390fd5b6000604051905090565b600080fd5b600080fd5b60007fffffffff0000000000000000000000000000000000000000000000000000000082169050919050565b613f5d81613f28565b8114613f6857600080fd5b50565b600081359050613f7a81613f54565b92915050565b600060208284031215613f9657613f95613f1e565b5b6000613fa484828501613f6b565b91505092915050565b60008115159050919050565b613fc281613fad565b82525050565b6000602082019050613fdd6000830184613fb9565b92915050565b6000819050919050565b613ff681613fe3565b82525050565b60006020820190506140116000830184613fed565b92915050565b61402081613fe3565b811461402b57600080fd5b50565b60008135905061403d81614017565b92915050565b600060ff82169050919050565b61405981614043565b811461406457600080fd5b50565b60008135905061407681614050565b92915050565b600080fd5b600080fd5b600080fd5b60008083601f8401126140a1576140a061407c565b5b8235905067ffffffffffffffff8111156140be576140bd614081565b5b6020830191508360018202830111156140da576140d9614086565b5b9250929050565b600080fd5b6000601f19601f8301169050919050565b7f4e487b7100000000000000000000000000000000000000000000000000000000600052604160045260246000fd5b61412f826140e6565b810181811067ffffffffffffffff8211171561414e5761414d6140f7565b5b80604052505050565b6000614161613f14565b905061416d8282614126565b919050565b600067ffffffffffffffff82111561418d5761418c6140f7565b5b614196826140e6565b9050602081019050919050565b82818337600083830152505050565b60006141c56141c084614172565b614157565b9050828152602081018484840111156141e1576141e06140e1565b5b6141ec8482856141a3565b509392505050565b600082601f8301126142095761420861407c565b5b81356142198482602086016141b2565b91505092915050565b6000819050919050565b61423581614222565b811461424057600080fd5b50565b6000813590506142528161422c565b92915050565b60008060008060008060008060e0898b03121561427857614277613f1e565b5b60006142868b828c0161402e565b98505060206142978b828c01614067565b975050604089013567ffffffffffffffff8111156142b8576142b7613f23565b5b6142c48b828c0161408b565b9650965050606089013567ffffffffffffffff8111156142e7576142e6613f23565b5b6142f38b828c016141f4565b94505060806143048b828c01614067565b93505060a06143158b828c01614243565b92505060c06143268b828c01614243565b9150509295985092959890939650565b60006020828403121561434c5761434b613f1e565b5b600061435a8482850161402e565b91505092915050565b600081519050919050565b600082825260208201905092915050565b60005b8381101561439d578082015181840152602081019050614382565b838111156143ac576000848401525b50505050565b60006143bd82614363565b6143c7818561436e565b93506143d781856020860161437f565b6143e0816140e6565b840191505092915050565b6000602082019050818103600083015261440581846143b2565b905092915050565b600073ffffffffffffffffffffffffffffffffffffffff82169050919050565b60006144388261440d565b9050919050565b6144488161442d565b811461445357600080fd5b50565b6000813590506144658161443f565b92915050565b6000806000806080858703121561448557614484613f1e565b5b600061449387828801614456565b94505060206144a487828801614456565b93505060406144b58782880161402e565b925050606085013567ffffffffffffffff8111156144d6576144d5613f23565b5b6144e2878288016141f4565b91505092959194509250565b6144f781613f28565b82525050565b600060208201905061451260008301846144ee565b92915050565b600067ffffffffffffffff821115614533576145326140f7565b5b602082029050602081019050919050565b600061455761455284614518565b614157565b9050808382526020820190506020840283018581111561457a57614579614086565b5b835b818110156145a3578061458f8882614456565b84526020840193505060208101905061457c565b5050509392505050565b600082601f8301126145c2576145c161407c565b5b81356145d2848260208601614544565b91505092915050565b600067ffffffffffffffff8211156145f6576145f56140f7565b5b602082029050602081019050919050565b600061461a614615846145db565b614157565b9050808382526020820190506020840283018581111561463d5761463c614086565b5b835b818110156146665780614652888261402e565b84526020840193505060208101905061463f565b5050509392505050565b600082601f8301126146855761468461407c565b5b8135614695848260208601614607565b91505092915050565b600067ffffffffffffffff8211156146b9576146b86140f7565b5b602082029050602081019050919050565b60006146dd6146d88461469e565b614157565b90508083825260208201905060208402830185811115614700576146ff614086565b5b835b8181101561474757803567ffffffffffffffff8111156147255761472461407c565b5b80860161473289826141f4565b85526020850194505050602081019050614702565b5050509392505050565b600082601f8301126147665761476561407c565b5b81356147768482602086016146ca565b91505092915050565b6000806000806080858703121561479957614798613f1e565b5b600085013567ffffffffffffffff8111156147b7576147b6613f23565b5b6147c3878288016145ad565b945050602085013567ffffffffffffffff8111156147e4576147e3613f23565b5b6147f087828801614670565b935050604085013567ffffffffffffffff81111561481157614810613f23565b5b61481d87828801614751565b925050606061482e87828801614243565b91505092959194509250565b61484381614222565b82525050565b600060208201905061485e600083018461483a565b92915050565b600080600080600060a086880312156148805761487f613f1e565b5b600061488e8882890161402e565b955050602061489f88828901614067565b94505060406148b088828901614067565b93505060606148c188828901614243565b92505060806148d288828901614243565b9150509295509295909350565b7f4e487b7100000000000000000000000000000000000000000000000000000000600052602160045260246000fd5b6008811061491f5761491e6148df565b5b50565b60008190506149308261490e565b919050565b600061494082614922565b9050919050565b61495081614935565b82525050565b600060208201905061496b6000830184614947565b92915050565b6000806040838503121561498857614987613f1e565b5b60006149968582860161402e565b92505060206149a785828601614456565b9150509250929050565b60006060820190506149c66000830186613fed565b6149d36020830185613fed565b6149e06040830184613fed565b949350505050565b600080604083850312156149ff576149fe613f1e565b5b6000614a0d8582860161402e565b9250506020614a1e85828601614067565b9150509250929050565b600080600080600060808688031215614a4457614a43613f1e565b5b6000614a528882890161402e565b9550506020614a6388828901614067565b945050604086013567ffffffffffffffff811115614a8457614a83613f23565b5b614a908882890161408b565b9350935050606086013567ffffffffffffffff811115614ab357614ab2613f23565b5b614abf888289016141f4565b9150509295509295909350565b60008060008060608587031215614ae657614ae5613f1e565b5b6000614af48782880161402e565b9450506020614b0587828801614067565b935050604085013567ffffffffffffffff811115614b2657614b25613f23565b5b614b328782880161408b565b925092505092959194509250565b600067ffffffffffffffff821115614b5b57614b5a6140f7565b5b614b64826140e6565b9050602081019050919050565b6000614b84614b7f84614b40565b614157565b905082815260208101848484011115614ba057614b9f6140e1565b5b614bab8482856141a3565b509392505050565b600082601f830112614bc857614bc761407c565b5b8135614bd8848260208601614b71565b91505092915050565b60008060008060808587031215614bfb57614bfa613f1e565b5b600085013567ffffffffffffffff811115614c1957614c18613f23565b5b614c25878288016145ad565b945050602085013567ffffffffffffffff811115614c4657614c45613f23565b5b614c5287828801614670565b935050604085013567ffffffffffffffff811115614c7357614c72613f23565b5b614c7f87828801614751565b925050606085013567ffffffffffffffff811115614ca057614c9f613f23565b5b614cac87828801614bb3565b91505092959194509250565b600080600060608486031215614cd157614cd0613f1e565b5b6000614cdf86828701614456565b9350506020614cf08682870161402e565b925050604084013567ffffffffffffffff811115614d1157614d10613f23565b5b614d1d868287016141f4565b9150509250925092565b6000614d328261440d565b9050919050565b6000614d4482614d27565b9050919050565b614d5481614d39565b8114614d5f57600080fd5b50565b600081359050614d7181614d4b565b92915050565b600060208284031215614d8d57614d8c613f1e565b5b6000614d9b84828501614d62565b91505092915050565b600080600080600060a08688031215614dc057614dbf613f1e565b5b6000614dce88828901614456565b9550506020614ddf88828901614456565b945050604086013567ffffffffffffffff811115614e0057614dff613f23565b5b614e0c88828901614670565b935050606086013567ffffffffffffffff811115614e2d57614e2c613f23565b5b614e3988828901614670565b925050608086013567ffffffffffffffff811115614e5a57614e59613f23565b5b614e66888289016141f4565b9150509295509295909350565b60008083601f840112614e8957614e8861407c565b5b8235905067ffffffffffffffff811115614ea657614ea5614081565b5b602083019150836001820283011115614ec257614ec1614086565b5b9250929050565b60008060008060608587031215614ee357614ee2613f1e565b5b6000614ef187828801614456565b9450506020614f028782880161402e565b935050604085013567ffffffffffffffff811115614f2357614f22613f23565b5b614f2f87828801614e73565b925092505092959194509250565b614f468161442d565b82525050565b6000602082019050614f616000830184614f3d565b92915050565b60008060408385031215614f7e57614f7d613f1e565b5b6000614f8c85828601614456565b9250506020614f9d8582860161402e565b9150509250929050565b600080600080600060a08688031215614fc357614fc2613f1e565b5b6000614fd188828901614456565b9550506020614fe288828901614456565b9450506040614ff38882890161402e565b93505060606150048882890161402e565b925050608086013567ffffffffffffffff81111561502557615024613f23565b5b615031888289016141f4565b9150509295509295909350565b6000819050919050565b600061506361505e6150598461440d565b61503e565b61440d565b9050919050565b600061507582615048565b9050919050565b60006150878261506a565b9050919050565b6150978161507c565b82525050565b60006020820190506150b2600083018461508e565b92915050565b600081905092915050565b60006150cf83856150b8565b93506150dc8385846141a3565b82840190509392505050565b60006150f58284866150c3565b91508190509392505050565b61510a81614043565b82525050565b600060a082019050615125600083018861483a565b6151326020830187613fed565b61513f6040830186615101565b61514c606083018561483a565b615159608083018461483a565b9695505050505050565b7f476f7665726e6f723a206f6e6c79476f7665726e616e63650000000000000000600082015250565b600061519960188361436e565b91506151a482615163565b602082019050919050565b600060208201905081810360008301526151c88161518c565b9050919050565b7f4e487b7100000000000000000000000000000000000000000000000000000000600052602260045260246000fd5b6000600282049050600182168061521657607f821691505b6020821081141561522a576152296151cf565b5b50919050565b7f476f7665726e6f723a2070726f706f73616c206e6f742073756363657373667560008201527f6c00000000000000000000000000000000000000000000000000000000000000602082015250565b600061528c60218361436e565b915061529782615230565b604082019050919050565b600060208201905081810360008301526152bb8161527f565b9050919050565b6000815190506152d181614017565b92915050565b6000602082840312156152ed576152ec613f1e565b5b60006152fb848285016152c2565b91505092915050565b7f4e487b7100000000000000000000000000000000000000000000000000000000600052601160045260246000fd5b600061533e82613fe3565b915061534983613fe3565b9250827fffffffffffffffffffffffffffffffffffffffffffffffffffffffffffffffff0382111561537e5761537d615304565b5b828201905092915050565b7f4e487b7100000000000000000000000000000000000000000000000000000000600052603260045260246000fd5b50565b60006153c860008361436e565b91506153d3826153b8565b600082019050919050565b600081519050919050565b600082825260208201905092915050565b6000615405826153de565b61540f81856153e9565b935061541f81856020860161437f565b615428816140e6565b840191505092915050565b600060a0820190506154486000830187614f3d565b6154556020830186613fed565b8181036040830152615466816153bb565b9050818103606083015261547a81856153fa565b90506154896080830184613fed565b95945050505050565b61549b81613fad565b81146154a657600080fd5b50565b6000815190506154b881615492565b92915050565b6000602082840312156154d4576154d3613f1e565b5b60006154e2848285016154a9565b91505092915050565b7f476f7665726e6f7254696d656c6f636b436f6d706f756e643a206964656e746960008201527f63616c2070726f706f73616c20616374696f6e20616c7265616479207175657560208201527f6564000000000000000000000000000000000000000000000000000000000000604082015250565b600061556d60428361436e565b9150615578826154eb565b606082019050919050565b6000602082019050818103600083015261559c81615560565b9050919050565b6000815190506155b28161422c565b92915050565b6000602082840312156155ce576155cd613f1e565b5b60006155dc848285016155a3565b91505092915050565b60006155f082613fe3565b91507fffffffffffffffffffffffffffffffffffffffffffffffffffffffffffffffff82141561562357615622615304565b5b600182019050919050565b60006040820190506156436000830185613fed565b6156506020830184613fed565b9392505050565b600060608201905061566c600083018661483a565b6156796020830185613fed565b6156866040830184615101565b949350505050565b600061569982613fe3565b91506156a483613fe3565b9250828210156156b7576156b6615304565b5b828203905092915050565b7f476f7665726e6f723a2070726f706f73657220766f7465732062656c6f77207060008201527f726f706f73616c207468726573686f6c64000000000000000000000000000000602082015250565b600061571e60318361436e565b9150615729826156c2565b604082019050919050565b6000602082019050818103600083015261574d81615711565b9050919050565b7f476f7665726e6f723a20696e76616c69642070726f706f73616c206c656e677460008201527f6800000000000000000000000000000000000000000000000000000000000000602082015250565b60006157b060218361436e565b91506157bb82615754565b604082019050919050565b600060208201905081810360008301526157df816157a3565b9050919050565b7f476f7665726e6f723a20656d7074792070726f706f73616c0000000000000000600082015250565b600061581c60188361436e565b9150615827826157e6565b602082019050919050565b6000602082019050818103600083015261584b8161580f565b9050919050565b7f476f7665726e6f723a2070726f706f73616c20616c726561647920657869737460008201527f7300000000000000000000000000000000000000000000000000000000000000602082015250565b60006158ae60218361436e565b91506158b982615852565b604082019050919050565b600060208201905081810360008301526158dd816158a1565b9050919050565b600067ffffffffffffffff82169050919050565b6000615903826158e4565b915061590e836158e4565b92508267ffffffffffffffff0382111561592b5761592a615304565b5b828201905092915050565b600081519050919050565b600082825260208201905092915050565b6000819050602082019050919050565b61596b8161442d565b82525050565b600061597d8383615962565b60208301905092915050565b6000602082019050919050565b60006159a182615936565b6159ab8185615941565b93506159b683615952565b8060005b838110156159e75781516159ce8882615971565b97506159d983615989565b9250506001810190506159ba565b5085935050505092915050565b600081519050919050565b600082825260208201905092915050565b6000819050602082019050919050565b615a2981613fe3565b82525050565b6000615a3b8383615a20565b60208301905092915050565b6000602082019050919050565b6000615a5f826159f4565b615a6981856159ff565b9350615a7483615a10565b8060005b83811015615aa5578151615a8c8882615a2f565b9750615a9783615a47565b925050600181019050615a78565b5085935050505092915050565b600081519050919050565b600082825260208201905092915050565b6000819050602082019050919050565b600082825260208201905092915050565b6000615afa82614363565b615b048185615ade565b9350615b1481856020860161437f565b615b1d816140e6565b840191505092915050565b6000615b348383615aef565b905092915050565b6000602082019050919050565b6000615b5482615ab2565b615b5e8185615abd565b935083602082028501615b7085615ace565b8060005b85811015615bac5784840389528151615b8d8582615b28565b9450615b9883615b3c565b925060208a01995050600181019050615b74565b50829750879550505050505092915050565b600081519050919050565b600082825260208201905092915050565b6000819050602082019050919050565b600082825260208201905092915050565b6000615c06826153de565b615c108185615bea565b9350615c2081856020860161437f565b615c29816140e6565b840191505092915050565b6000615c408383615bfb565b905092915050565b6000602082019050919050565b6000615c6082615bbe565b615c6a8185615bc9565b935083602082028501615c7c85615bda565b8060005b85811015615cb85784840389528151615c998582615c34565b9450615ca483615c48565b925060208a01995050600181019050615c80565b50829750879550505050505092915050565b6000615ce5615ce0615cdb846158e4565b61503e565b613fe3565b9050919050565b615cf581615cca565b82525050565b600061012082019050615d11600083018c613fed565b615d1e602083018b614f3d565b8181036040830152615d30818a615996565b90508181036060830152615d448189615a54565b90508181036080830152615d588188615b49565b905081810360a0830152615d6c8187615c55565b9050615d7b60c0830186615cec565b615d8860e0830185615cec565b818103610100830152615d9b81846143b2565b90509a9950505050505050505050565b60006080820190508181036000830152615dc58187615996565b90508181036020830152615dd98186615a54565b90508181036040830152615ded8185615c55565b9050615dfc606083018461483a565b95945050505050565b7f476f7665726e6f723a20766f7465206e6f742063757272656e746c792061637460008201527f6976650000000000000000000000000000000000000000000000000000000000602082015250565b6000615e6160238361436e565b9150615e6c82615e05565b604082019050919050565b60006020820190508181036000830152615e9081615e54565b9050919050565b6000608082019050615eac6000830187613fed565b615eb96020830186615101565b615ec66040830185613fed565b8181036060830152615ed881846143b2565b905095945050505050565b600060a082019050615ef86000830188613fed565b615f056020830187615101565b615f126040830186613fed565b8181036060830152615f2481856143b2565b90508181036080830152615f3881846153fa565b90509695505050505050565b7f476f7665726e6f72566f74657351756f72756d4672616374696f6e3a2071756f60008201527f72756d4e756d657261746f72206f7665722071756f72756d44656e6f6d696e6160208201527f746f720000000000000000000000000000000000000000000000000000000000604082015250565b6000615fc660438361436e565b9150615fd182615f44565b606082019050919050565b60006020820190508181036000830152615ff581615fb9565b9050919050565b7f53616665436173743a2076616c756520646f65736e27742066697420696e203660008201527f3420626974730000000000000000000000000000000000000000000000000000602082015250565b600061605860268361436e565b915061606382615ffc565b604082019050919050565b600060208201905081810360008301526160878161604b565b9050919050565b60006040820190506160a36000830185614f3d565b6160b06020830184613fed565b9392505050565b60006040820190506160cc6000830185614f3d565b6160d96020830184614f3d565b9392505050565b7f476f7665726e6f7253657474696e67733a20766f74696e6720706572696f642060008201527f746f6f206c6f7700000000000000000000000000000000000000000000000000602082015250565b600061613c60278361436e565b9150616147826160e0565b604082019050919050565b6000602082019050818103600083015261616b8161612f565b9050919050565b600061617d82613fe3565b915061618883613fe3565b9250817fffffffffffffffffffffffffffffffffffffffffffffffffffffffffffffffff04831182151516156161c1576161c0615304565b5b828202905092915050565b7f4e487b7100000000000000000000000000000000000000000000000000000000600052601260045260246000fd5b600061620682613fe3565b915061621183613fe3565b925082616221576162206161cc565b5b828204905092915050565b600081905092915050565b7f1901000000000000000000000000000000000000000000000000000000000000600082015250565b600061626d60028361622c565b915061627882616237565b600282019050919050565b6000819050919050565b61629e61629982614222565b616283565b82525050565b60006162af82616260565b91506162bb828561628d565b6020820191506162cb828461628d565b6020820191508190509392505050565b60006080820190506162f0600083018761483a565b6162fd6020830186615101565b61630a604083018561483a565b616317606083018461483a565b95945050505050565b7f45434453413a20696e76616c6964207369676e61747572650000000000000000600082015250565b600061635660188361436e565b915061636182616320565b602082019050919050565b6000602082019050818103600083015261638581616349565b9050919050565b7f45434453413a20696e76616c6964207369676e6174757265206c656e67746800600082015250565b60006163c2601f8361436e565b91506163cd8261638c565b602082019050919050565b600060208201905081810360008301526163f1816163b5565b9050919050565b7f45434453413a20696e76616c6964207369676e6174757265202773272076616c60008201527f7565000000000000000000000000000000000000000000000000000000000000602082015250565b600061645460228361436e565b915061645f826163f8565b604082019050919050565b6000602082019050818103600083015261648381616447565b9050919050565b7f45434453413a20696e76616c6964207369676e6174757265202776272076616c60008201527f7565000000000000000000000000000000000000000000000000000000000000602082015250565b60006164e660228361436e565b91506164f18261648a565b604082019050919050565b60006020820190508181036000830152616515816164d9565b9050919050565b7f476f7665726e6f72566f74696e6753696d706c653a20766f746520616c72656160008201527f6479206361737400000000000000000000000000000000000000000000000000602082015250565b600061657860278361436e565b91506165838261651c565b604082019050919050565b600060208201905081810360008301526165a78161656b565b9050919050565b7f476f7665726e6f72566f74696e6753696d706c653a20696e76616c696420766160008201527f6c756520666f7220656e756d20566f7465547970650000000000000000000000602082015250565b600061660a60358361436e565b9150616615826165ae565b604082019050919050565b60006020820190508181036000830152616639816165fd565b9050919050565b7f476f7665726e6f7254696d656c6f636b436f6d706f756e643a2070726f706f7360008201527f616c206e6f742079657420717565756564000000000000000000000000000000602082015250565b600061669c60318361436e565b91506166a782616640565b604082019050919050565b600060208201905081810360008301526166cb8161668f565b9050919050565b60006166e56166e084614172565b614157565b905082815260208101848484011115616701576167006140e1565b5b61670c84828561437f565b509392505050565b600082601f8301126167295761672861407c565b5b81516167398482602086016166d2565b91505092915050565b60006020828403121561675857616757613f1e565b5b600082015167ffffffffffffffff81111561677657616775613f23565b5b61678284828501616714565b91505092915050565b7f476f7665726e6f723a20756e6b6e6f776e2070726f706f73616c206964000000600082015250565b60006167c1601d8361436e565b91506167cc8261678b565b602082019050919050565b600060208201905081810360008301526167f0816167b4565b9050919050565b7f416464726573733a20696e73756666696369656e742062616c616e636520666f60008201527f722063616c6c0000000000000000000000000000000000000000000000000000602082015250565b600061685360268361436e565b915061685e826167f7565b604082019050919050565b6000602082019050818103600083015261688281616846565b9050919050565b6000616894826153de565b61689e81856150b8565b93506168ae81856020860161437f565b80840191505092915050565b60006168c68284616889565b915081905092915050565b600060a0820190506168e6600083018861483a565b6168f3602083018761483a565b616900604083018661483a565b61690d6060830185613fed565b61691a6080830184614f3d565b9695505050505050565b7f416464726573733a20696e73756666696369656e742062616c616e6365000000600082015250565b600061695a601d8361436e565b915061696582616924565b602082019050919050565b600060208201905081810360008301526169898161694d565b9050919050565b600061699d6000836150b8565b91506169a8826153b8565b600082019050919050565b60006169be82616990565b9150819050919050565b7f416464726573733a20756e61626c6520746f2073656e642076616c75652c207260008201527f6563697069656e74206d61792068617665207265766572746564000000000000602082015250565b6000616a24603a8361436e565b9150616a2f826169c8565b604082019050919050565b60006020820190508181036000830152616a5381616a17565b9050919050565b7f476f7665726e6f723a2070726f706f73616c206e6f7420616374697665000000600082015250565b6000616a90601d8361436e565b9150616a9b82616a5a565b602082019050919050565b60006020820190508181036000830152616abf81616a83565b9050919050565b7f416464726573733a2063616c6c20746f206e6f6e2d636f6e7472616374000000600082015250565b6000616afc601d8361436e565b9150616b0782616ac6565b602082019050919050565b60006020820190508181036000830152616b2b81616aef565b905091905056fe416464726573733a206c6f772d6c6576656c2063616c6c20776974682076616c7565206661696c6564a2646970667358221220d2797bcebde78497013e00a1519b9983f3b52cafdbc37ea66f341c215aca615f64736f6c63430008090033",
  "linkReferences": {},
  "deployedLinkReferences": {}
}