{
  "_format": "hh-sol-artifact-1",
  "contractName": "GovernorPreventLateQuorumMock",
  "sourceName": "contracts/openzeppelin-contracts/mocks/GovernorPreventLateQuorumMock.sol",
  "abi": [
    {
      "inputs": [
        {
          "internalType": "string",
          "name": "name_",
          "type": "string"
        },
        {
          "internalType": "contract IVotes",
          "name": "token_",
          "type": "address"
        },
        {
          "internalType": "uint256",
          "name": "votingDelay_",
          "type": "uint256"
        },
        {
          "internalType": "uint256",
          "name": "votingPeriod_",
          "type": "uint256"
        },
        {
          "internalType": "uint256",
          "name": "quorum_",
          "type": "uint256"
        },
        {
          "internalType": "uint64",
          "name": "voteExtension_",
          "type": "uint64"
        }
      ],
      "stateMutability": "nonpayable",
      "type": "constructor"
    },
    {
      "inputs": [],
      "name": "Empty",
      "type": "error"
    },
    {
      "anonymous": false,
      "inputs": [
        {
          "indexed": false,
          "internalType": "uint64",
          "name": "oldVoteExtension",
          "type": "uint64"
        },
        {
          "indexed": false,
          "internalType": "uint64",
          "name": "newVoteExtension",
          "type": "uint64"
        }
      ],
      "name": "LateQuorumVoteExtensionSet",
      "type": "event"
    },
    {
      "anonymous": false,
      "inputs": [
        {
          "indexed": false,
          "internalType": "uint256",
          "name": "proposalId",
          "type": "uint256"
        }
      ],
      "name": "ProposalCanceled",
      "type": "event"
    },
    {
      "anonymous": false,
      "inputs": [
        {
          "indexed": false,
          "internalType": "uint256",
          "name": "proposalId",
          "type": "uint256"
        },
        {
          "indexed": false,
          "internalType": "address",
          "name": "proposer",
          "type": "address"
        },
        {
          "indexed": false,
          "internalType": "address[]",
          "name": "targets",
          "type": "address[]"
        },
        {
          "indexed": false,
          "internalType": "uint256[]",
          "name": "values",
          "type": "uint256[]"
        },
        {
          "indexed": false,
          "internalType": "string[]",
          "name": "signatures",
          "type": "string[]"
        },
        {
          "indexed": false,
          "internalType": "bytes[]",
          "name": "calldatas",
          "type": "bytes[]"
        },
        {
          "indexed": false,
          "internalType": "uint256",
          "name": "startBlock",
          "type": "uint256"
        },
        {
          "indexed": false,
          "internalType": "uint256",
          "name": "endBlock",
          "type": "uint256"
        },
        {
          "indexed": false,
          "internalType": "string",
          "name": "description",
          "type": "string"
        }
      ],
      "name": "ProposalCreated",
      "type": "event"
    },
    {
      "anonymous": false,
      "inputs": [
        {
          "indexed": false,
          "internalType": "uint256",
          "name": "proposalId",
          "type": "uint256"
        }
      ],
      "name": "ProposalExecuted",
      "type": "event"
    },
    {
      "anonymous": false,
      "inputs": [
        {
          "indexed": true,
          "internalType": "uint256",
          "name": "proposalId",
          "type": "uint256"
        },
        {
          "indexed": false,
          "internalType": "uint64",
          "name": "extendedDeadline",
          "type": "uint64"
        }
      ],
      "name": "ProposalExtended",
      "type": "event"
    },
    {
      "anonymous": false,
      "inputs": [
        {
          "indexed": false,
          "internalType": "uint256",
          "name": "oldProposalThreshold",
          "type": "uint256"
        },
        {
          "indexed": false,
          "internalType": "uint256",
          "name": "newProposalThreshold",
          "type": "uint256"
        }
      ],
      "name": "ProposalThresholdSet",
      "type": "event"
    },
    {
      "anonymous": false,
      "inputs": [
        {
          "indexed": true,
          "internalType": "address",
          "name": "voter",
          "type": "address"
        },
        {
          "indexed": false,
          "internalType": "uint256",
          "name": "proposalId",
          "type": "uint256"
        },
        {
          "indexed": false,
          "internalType": "uint8",
          "name": "support",
          "type": "uint8"
        },
        {
          "indexed": false,
          "internalType": "uint256",
          "name": "weight",
          "type": "uint256"
        },
        {
          "indexed": false,
          "internalType": "string",
          "name": "reason",
          "type": "string"
        }
      ],
      "name": "VoteCast",
      "type": "event"
    },
    {
      "anonymous": false,
      "inputs": [
        {
          "indexed": true,
          "internalType": "address",
          "name": "voter",
          "type": "address"
        },
        {
          "indexed": false,
          "internalType": "uint256",
          "name": "proposalId",
          "type": "uint256"
        },
        {
          "indexed": false,
          "internalType": "uint8",
          "name": "support",
          "type": "uint8"
        },
        {
          "indexed": false,
          "internalType": "uint256",
          "name": "weight",
          "type": "uint256"
        },
        {
          "indexed": false,
          "internalType": "string",
          "name": "reason",
          "type": "string"
        },
        {
          "indexed": false,
          "internalType": "bytes",
          "name": "params",
          "type": "bytes"
        }
      ],
      "name": "VoteCastWithParams",
      "type": "event"
    },
    {
      "anonymous": false,
      "inputs": [
        {
          "indexed": false,
          "internalType": "uint256",
          "name": "oldVotingDelay",
          "type": "uint256"
        },
        {
          "indexed": false,
          "internalType": "uint256",
          "name": "newVotingDelay",
          "type": "uint256"
        }
      ],
      "name": "VotingDelaySet",
      "type": "event"
    },
    {
      "anonymous": false,
      "inputs": [
        {
          "indexed": false,
          "internalType": "uint256",
          "name": "oldVotingPeriod",
          "type": "uint256"
        },
        {
          "indexed": false,
          "internalType": "uint256",
          "name": "newVotingPeriod",
          "type": "uint256"
        }
      ],
      "name": "VotingPeriodSet",
      "type": "event"
    },
    {
      "inputs": [],
      "name": "BALLOT_TYPEHASH",
      "outputs": [
        {
          "internalType": "bytes32",
          "name": "",
          "type": "bytes32"
        }
      ],
      "stateMutability": "view",
      "type": "function"
    },
    {
      "inputs": [],
      "name": "COUNTING_MODE",
      "outputs": [
        {
          "internalType": "string",
          "name": "",
          "type": "string"
        }
      ],
      "stateMutability": "pure",
      "type": "function"
    },
    {
      "inputs": [],
      "name": "EXTENDED_BALLOT_TYPEHASH",
      "outputs": [
        {
          "internalType": "bytes32",
          "name": "",
          "type": "bytes32"
        }
      ],
      "stateMutability": "view",
      "type": "function"
    },
    {
      "inputs": [
        {
          "internalType": "uint256",
          "name": "proposalId",
          "type": "uint256"
        },
        {
          "internalType": "uint8",
          "name": "support",
          "type": "uint8"
        }
      ],
      "name": "castVote",
      "outputs": [
        {
          "internalType": "uint256",
          "name": "",
          "type": "uint256"
        }
      ],
      "stateMutability": "nonpayable",
      "type": "function"
    },
    {
      "inputs": [
        {
          "internalType": "uint256",
          "name": "proposalId",
          "type": "uint256"
        },
        {
          "internalType": "uint8",
          "name": "support",
          "type": "uint8"
        },
        {
          "internalType": "uint8",
          "name": "v",
          "type": "uint8"
        },
        {
          "internalType": "bytes32",
          "name": "r",
          "type": "bytes32"
        },
        {
          "internalType": "bytes32",
          "name": "s",
          "type": "bytes32"
        }
      ],
      "name": "castVoteBySig",
      "outputs": [
        {
          "internalType": "uint256",
          "name": "",
          "type": "uint256"
        }
      ],
      "stateMutability": "nonpayable",
      "type": "function"
    },
    {
      "inputs": [
        {
          "internalType": "uint256",
          "name": "proposalId",
          "type": "uint256"
        },
        {
          "internalType": "uint8",
          "name": "support",
          "type": "uint8"
        },
        {
          "internalType": "string",
          "name": "reason",
          "type": "string"
        }
      ],
      "name": "castVoteWithReason",
      "outputs": [
        {
          "internalType": "uint256",
          "name": "",
          "type": "uint256"
        }
      ],
      "stateMutability": "nonpayable",
      "type": "function"
    },
    {
      "inputs": [
        {
          "internalType": "uint256",
          "name": "proposalId",
          "type": "uint256"
        },
        {
          "internalType": "uint8",
          "name": "support",
          "type": "uint8"
        },
        {
          "internalType": "string",
          "name": "reason",
          "type": "string"
        },
        {
          "internalType": "bytes",
          "name": "params",
          "type": "bytes"
        }
      ],
      "name": "castVoteWithReasonAndParams",
      "outputs": [
        {
          "internalType": "uint256",
          "name": "",
          "type": "uint256"
        }
      ],
      "stateMutability": "nonpayable",
      "type": "function"
    },
    {
      "inputs": [
        {
          "internalType": "uint256",
          "name": "proposalId",
          "type": "uint256"
        },
        {
          "internalType": "uint8",
          "name": "support",
          "type": "uint8"
        },
        {
          "internalType": "string",
          "name": "reason",
          "type": "string"
        },
        {
          "internalType": "bytes",
          "name": "params",
          "type": "bytes"
        },
        {
          "internalType": "uint8",
          "name": "v",
          "type": "uint8"
        },
        {
          "internalType": "bytes32",
          "name": "r",
          "type": "bytes32"
        },
        {
          "internalType": "bytes32",
          "name": "s",
          "type": "bytes32"
        }
      ],
      "name": "castVoteWithReasonAndParamsBySig",
      "outputs": [
        {
          "internalType": "uint256",
          "name": "",
          "type": "uint256"
        }
      ],
      "stateMutability": "nonpayable",
      "type": "function"
    },
    {
      "inputs": [
        {
          "internalType": "address[]",
          "name": "targets",
          "type": "address[]"
        },
        {
          "internalType": "uint256[]",
          "name": "values",
          "type": "uint256[]"
        },
        {
          "internalType": "bytes[]",
          "name": "calldatas",
          "type": "bytes[]"
        },
        {
          "internalType": "bytes32",
          "name": "descriptionHash",
          "type": "bytes32"
        }
      ],
      "name": "execute",
      "outputs": [
        {
          "internalType": "uint256",
          "name": "",
          "type": "uint256"
        }
      ],
      "stateMutability": "payable",
      "type": "function"
    },
    {
      "inputs": [
        {
          "internalType": "address",
          "name": "account",
          "type": "address"
        },
        {
          "internalType": "uint256",
          "name": "blockNumber",
          "type": "uint256"
        }
      ],
      "name": "getVotes",
      "outputs": [
        {
          "internalType": "uint256",
          "name": "",
          "type": "uint256"
        }
      ],
      "stateMutability": "view",
      "type": "function"
    },
    {
      "inputs": [
        {
          "internalType": "address",
          "name": "account",
          "type": "address"
        },
        {
          "internalType": "uint256",
          "name": "blockNumber",
          "type": "uint256"
        },
        {
          "internalType": "bytes",
          "name": "params",
          "type": "bytes"
        }
      ],
      "name": "getVotesWithParams",
      "outputs": [
        {
          "internalType": "uint256",
          "name": "",
          "type": "uint256"
        }
      ],
      "stateMutability": "view",
      "type": "function"
    },
    {
      "inputs": [
        {
          "internalType": "uint256",
          "name": "proposalId",
          "type": "uint256"
        },
        {
          "internalType": "address",
          "name": "account",
          "type": "address"
        }
      ],
      "name": "hasVoted",
      "outputs": [
        {
          "internalType": "bool",
          "name": "",
          "type": "bool"
        }
      ],
      "stateMutability": "view",
      "type": "function"
    },
    {
      "inputs": [
        {
          "internalType": "address[]",
          "name": "targets",
          "type": "address[]"
        },
        {
          "internalType": "uint256[]",
          "name": "values",
          "type": "uint256[]"
        },
        {
          "internalType": "bytes[]",
          "name": "calldatas",
          "type": "bytes[]"
        },
        {
          "internalType": "bytes32",
          "name": "descriptionHash",
          "type": "bytes32"
        }
      ],
      "name": "hashProposal",
      "outputs": [
        {
          "internalType": "uint256",
          "name": "",
          "type": "uint256"
        }
      ],
      "stateMutability": "pure",
      "type": "function"
    },
    {
      "inputs": [],
      "name": "lateQuorumVoteExtension",
      "outputs": [
        {
          "internalType": "uint64",
          "name": "",
          "type": "uint64"
        }
      ],
      "stateMutability": "view",
      "type": "function"
    },
    {
      "inputs": [],
      "name": "name",
      "outputs": [
        {
          "internalType": "string",
          "name": "",
          "type": "string"
        }
      ],
      "stateMutability": "view",
      "type": "function"
    },
    {
      "inputs": [
        {
          "internalType": "address",
          "name": "",
          "type": "address"
        },
        {
          "internalType": "address",
          "name": "",
          "type": "address"
        },
        {
          "internalType": "uint256[]",
          "name": "",
          "type": "uint256[]"
        },
        {
          "internalType": "uint256[]",
          "name": "",
          "type": "uint256[]"
        },
        {
          "internalType": "bytes",
          "name": "",
          "type": "bytes"
        }
      ],
      "name": "onERC1155BatchReceived",
      "outputs": [
        {
          "internalType": "bytes4",
          "name": "",
          "type": "bytes4"
        }
      ],
      "stateMutability": "nonpayable",
      "type": "function"
    },
    {
      "inputs": [
        {
          "internalType": "address",
          "name": "",
          "type": "address"
        },
        {
          "internalType": "address",
          "name": "",
          "type": "address"
        },
        {
          "internalType": "uint256",
          "name": "",
          "type": "uint256"
        },
        {
          "internalType": "uint256",
          "name": "",
          "type": "uint256"
        },
        {
          "internalType": "bytes",
          "name": "",
          "type": "bytes"
        }
      ],
      "name": "onERC1155Received",
      "outputs": [
        {
          "internalType": "bytes4",
          "name": "",
          "type": "bytes4"
        }
      ],
      "stateMutability": "nonpayable",
      "type": "function"
    },
    {
      "inputs": [
        {
          "internalType": "address",
          "name": "",
          "type": "address"
        },
        {
          "internalType": "address",
          "name": "",
          "type": "address"
        },
        {
          "internalType": "uint256",
          "name": "",
          "type": "uint256"
        },
        {
          "internalType": "bytes",
          "name": "",
          "type": "bytes"
        }
      ],
      "name": "onERC721Received",
      "outputs": [
        {
          "internalType": "bytes4",
          "name": "",
          "type": "bytes4"
        }
      ],
      "stateMutability": "nonpayable",
      "type": "function"
    },
    {
      "inputs": [
        {
          "internalType": "uint256",
          "name": "proposalId",
          "type": "uint256"
        }
      ],
      "name": "proposalDeadline",
      "outputs": [
        {
          "internalType": "uint256",
          "name": "",
          "type": "uint256"
        }
      ],
      "stateMutability": "view",
      "type": "function"
    },
    {
      "inputs": [
        {
          "internalType": "uint256",
          "name": "proposalId",
          "type": "uint256"
        }
      ],
      "name": "proposalSnapshot",
      "outputs": [
        {
          "internalType": "uint256",
          "name": "",
          "type": "uint256"
        }
      ],
      "stateMutability": "view",
      "type": "function"
    },
    {
      "inputs": [],
      "name": "proposalThreshold",
      "outputs": [
        {
          "internalType": "uint256",
          "name": "",
          "type": "uint256"
        }
      ],
      "stateMutability": "view",
      "type": "function"
    },
    {
      "inputs": [
        {
          "internalType": "uint256",
          "name": "proposalId",
          "type": "uint256"
        }
      ],
      "name": "proposalVotes",
      "outputs": [
        {
          "internalType": "uint256",
          "name": "againstVotes",
          "type": "uint256"
        },
        {
          "internalType": "uint256",
          "name": "forVotes",
          "type": "uint256"
        },
        {
          "internalType": "uint256",
          "name": "abstainVotes",
          "type": "uint256"
        }
      ],
      "stateMutability": "view",
      "type": "function"
    },
    {
      "inputs": [
        {
          "internalType": "address[]",
          "name": "targets",
          "type": "address[]"
        },
        {
          "internalType": "uint256[]",
          "name": "values",
          "type": "uint256[]"
        },
        {
          "internalType": "bytes[]",
          "name": "calldatas",
          "type": "bytes[]"
        },
        {
          "internalType": "string",
          "name": "description",
          "type": "string"
        }
      ],
      "name": "propose",
      "outputs": [
        {
          "internalType": "uint256",
          "name": "",
          "type": "uint256"
        }
      ],
      "stateMutability": "nonpayable",
      "type": "function"
    },
    {
      "inputs": [
        {
          "internalType": "uint256",
          "name": "",
          "type": "uint256"
        }
      ],
      "name": "quorum",
      "outputs": [
        {
          "internalType": "uint256",
          "name": "",
          "type": "uint256"
        }
      ],
      "stateMutability": "view",
      "type": "function"
    },
    {
      "inputs": [
        {
          "internalType": "address",
          "name": "target",
          "type": "address"
        },
        {
          "internalType": "uint256",
          "name": "value",
          "type": "uint256"
        },
        {
          "internalType": "bytes",
          "name": "data",
          "type": "bytes"
        }
      ],
      "name": "relay",
      "outputs": [],
      "stateMutability": "nonpayable",
      "type": "function"
    },
    {
      "inputs": [
        {
          "internalType": "uint64",
          "name": "newVoteExtension",
          "type": "uint64"
        }
      ],
      "name": "setLateQuorumVoteExtension",
      "outputs": [],
      "stateMutability": "nonpayable",
      "type": "function"
    },
    {
      "inputs": [
        {
          "internalType": "uint256",
          "name": "newProposalThreshold",
          "type": "uint256"
        }
      ],
      "name": "setProposalThreshold",
      "outputs": [],
      "stateMutability": "nonpayable",
      "type": "function"
    },
    {
      "inputs": [
        {
          "internalType": "uint256",
          "name": "newVotingDelay",
          "type": "uint256"
        }
      ],
      "name": "setVotingDelay",
      "outputs": [],
      "stateMutability": "nonpayable",
      "type": "function"
    },
    {
      "inputs": [
        {
          "internalType": "uint256",
          "name": "newVotingPeriod",
          "type": "uint256"
        }
      ],
      "name": "setVotingPeriod",
      "outputs": [],
      "stateMutability": "nonpayable",
      "type": "function"
    },
    {
      "inputs": [
        {
          "internalType": "uint256",
          "name": "proposalId",
          "type": "uint256"
        }
      ],
      "name": "state",
      "outputs": [
        {
          "internalType": "enum IGovernor.ProposalState",
          "name": "",
          "type": "uint8"
        }
      ],
      "stateMutability": "view",
      "type": "function"
    },
    {
      "inputs": [
        {
          "internalType": "bytes4",
          "name": "interfaceId",
          "type": "bytes4"
        }
      ],
      "name": "supportsInterface",
      "outputs": [
        {
          "internalType": "bool",
          "name": "",
          "type": "bool"
        }
      ],
      "stateMutability": "view",
      "type": "function"
    },
    {
      "inputs": [],
      "name": "token",
      "outputs": [
        {
          "internalType": "contract IVotes",
          "name": "",
          "type": "address"
        }
      ],
      "stateMutability": "view",
      "type": "function"
    },
    {
      "inputs": [],
      "name": "version",
      "outputs": [
        {
          "internalType": "string",
          "name": "",
          "type": "string"
        }
      ],
      "stateMutability": "view",
      "type": "function"
    },
    {
      "inputs": [],
      "name": "votingDelay",
      "outputs": [
        {
          "internalType": "uint256",
          "name": "",
          "type": "uint256"
        }
      ],
      "stateMutability": "view",
      "type": "function"
    },
    {
      "inputs": [],
      "name": "votingPeriod",
      "outputs": [
        {
          "internalType": "uint256",
          "name": "",
          "type": "uint256"
        }
      ],
      "stateMutability": "view",
      "type": "function"
    },
    {
      "stateMutability": "payable",
      "type": "receive"
    }
  ],
  "bytecode": "0x6101606040523480156200001257600080fd5b506040516200615538038062006155833981810160405281019062000038919062000704565b8085858560008a8062000050620001ad60201b60201c565b60008280519060200120905060008280519060200120905060007f8b73c3c69bb8fe3d512ecc4cf759cc79239f7b179b0ffacaa9a75d522b39400f90508260e081815250508161010081815250504660a08181525050620000b9818484620001ea60201b60201c565b608081815250503073ffffffffffffffffffffffffffffffffffffffff1660c08173ffffffffffffffffffffffffffffffffffffffff1681525050806101208181525050505050505080600090805190602001906200011a929190620003be565b50506200012d836200022660201b60201c565b6200013e826200026d60201b60201c565b6200014f81620002fa60201b60201c565b5050508073ffffffffffffffffffffffffffffffffffffffff166101408173ffffffffffffffffffffffffffffffffffffffff16815250505062000199816200034160201b60201c565b5081600a81905550505050505050620009d2565b60606040518060400160405280600181526020017f3100000000000000000000000000000000000000000000000000000000000000815250905090565b6000838383463060405160200162000207959493929190620007fc565b6040516020818303038152906040528051906020012090509392505050565b7fc565b045403dc03c2eea82b81a0465edad9e2e7fc4d97e11421c209da93d7a93600454826040516200025b92919062000859565b60405180910390a18060048190555050565b60008111620002b3576040517f08c379a0000000000000000000000000000000000000000000000000000000008152600401620002aa906200090d565b60405180910390fd5b7f7e3f7f0708a84de9203036abaa450dccc85ad5ff52f78c170f3edb55cf5e882860055482604051620002e892919062000859565b60405180910390a18060058190555050565b7fccb45da8d5717e6c4544694297c4ba5cf151d455c9bb0ed4fc7a38411bc05461600654826040516200032f92919062000859565b60405180910390a18060068190555050565b7f7ca4ac117ed3cdce75c1161d8207c440389b1a15d69d096831664657c07dafc2600860009054906101000a900467ffffffffffffffff16826040516200038a92919062000940565b60405180910390a180600860006101000a81548167ffffffffffffffff021916908367ffffffffffffffff16021790555050565b828054620003cc906200099c565b90600052602060002090601f016020900481019282620003f057600085556200043c565b82601f106200040b57805160ff19168380011785556200043c565b828001600101855582156200043c579182015b828111156200043b5782518255916020019190600101906200041e565b5b5090506200044b91906200044f565b5090565b5b808211156200046a57600081600090555060010162000450565b5090565b6000604051905090565b600080fd5b600080fd5b600080fd5b600080fd5b6000601f19601f8301169050919050565b7f4e487b7100000000000000000000000000000000000000000000000000000000600052604160045260246000fd5b620004d7826200048c565b810181811067ffffffffffffffff82111715620004f957620004f86200049d565b5b80604052505050565b60006200050e6200046e565b90506200051c8282620004cc565b919050565b600067ffffffffffffffff8211156200053f576200053e6200049d565b5b6200054a826200048c565b9050602081019050919050565b60005b83811015620005775780820151818401526020810190506200055a565b8381111562000587576000848401525b50505050565b6000620005a46200059e8462000521565b62000502565b905082815260208101848484011115620005c357620005c262000487565b5b620005d084828562000557565b509392505050565b600082601f830112620005f057620005ef62000482565b5b8151620006028482602086016200058d565b91505092915050565b600073ffffffffffffffffffffffffffffffffffffffff82169050919050565b600062000638826200060b565b9050919050565b60006200064c826200062b565b9050919050565b6200065e816200063f565b81146200066a57600080fd5b50565b6000815190506200067e8162000653565b92915050565b6000819050919050565b620006998162000684565b8114620006a557600080fd5b50565b600081519050620006b9816200068e565b92915050565b600067ffffffffffffffff82169050919050565b620006de81620006bf565b8114620006ea57600080fd5b50565b600081519050620006fe81620006d3565b92915050565b60008060008060008060c0878903121562000724576200072362000478565b5b600087015167ffffffffffffffff8111156200074557620007446200047d565b5b6200075389828a01620005d8565b96505060206200076689828a016200066d565b95505060406200077989828a01620006a8565b94505060606200078c89828a01620006a8565b93505060806200079f89828a01620006a8565b92505060a0620007b289828a01620006ed565b9150509295509295509295565b6000819050919050565b620007d481620007bf565b82525050565b620007e58162000684565b82525050565b620007f6816200062b565b82525050565b600060a082019050620008136000830188620007c9565b620008226020830187620007c9565b620008316040830186620007c9565b620008406060830185620007da565b6200084f6080830184620007eb565b9695505050505050565b6000604082019050620008706000830185620007da565b6200087f6020830184620007da565b9392505050565b600082825260208201905092915050565b7f476f7665726e6f7253657474696e67733a20766f74696e6720706572696f642060008201527f746f6f206c6f7700000000000000000000000000000000000000000000000000602082015250565b6000620008f560278362000886565b9150620009028262000897565b604082019050919050565b600060208201905081810360008301526200092881620008e6565b9050919050565b6200093a81620006bf565b82525050565b60006040820190506200095760008301856200092f565b6200096660208301846200092f565b9392505050565b7f4e487b7100000000000000000000000000000000000000000000000000000000600052602260045260246000fd5b60006002820490506001821680620009b557607f821691505b60208210811415620009cc57620009cb6200096d565b5b50919050565b60805160a05160c05160e05161010051610120516101405161572162000a3460003960008181611b77015261212a0152600061249e015260006124e0015260006124bf015260006123f40152600061244a0152600061247301526157216000f3fe6080604052600436106102085760003560e01c806370b0f66011610118578063d07f91e9116100a0578063eb9019d41161006f578063eb9019d41461087c578063ece40cc1146108b9578063f23a6e61146108e2578063f8ce560a1461091f578063fc0c546a1461095c5761024e565b8063d07f91e9146107d4578063dd4e2ba5146107fd578063deaaa7cc14610828578063ea0217cf146108535761024e565b8063b58131b0116100e7578063b58131b0146106c9578063bc197c81146106f4578063c01f9e3714610731578063c28bc2fa1461076e578063c59057e4146107975761024e565b806370b0f660146105e95780637b3c71d3146106125780637d5e81e21461064f5780639a802a6d1461068c5761024e565b806332b8113e1161019b578063438596321161016a57806343859632146104c8578063544ffc9c1461050557806354fd4d5014610544578063567813881461056f5780635f398a14146105ac5761024e565b806332b8113e146103f85780633932abb1146104235780633bccf4fd1461044e5780633e4f49e61461048b5761024e565b8063150b7a02116101d7578063150b7a02146103235780632656227d146103605780632d63f693146103905780632fe3e261146103cd5761024e565b806301ffc9a71461025357806302a251a31461029057806303420181146102bb57806306fdde03146102f85761024e565b3661024e573073ffffffffffffffffffffffffffffffffffffffff1661022c610987565b73ffffffffffffffffffffffffffffffffffffffff161461024c57600080fd5b005b600080fd5b34801561025f57600080fd5b5061027a60048036038101906102759190613135565b61098f565b604051610287919061317d565b60405180910390f35b34801561029c57600080fd5b506102a5610af4565b6040516102b291906131b1565b60405180910390f35b3480156102c757600080fd5b506102e260048036038101906102dd919061340d565b610afe565b6040516102ef91906131b1565b60405180910390f35b34801561030457600080fd5b5061030d610be3565b60405161031a9190613573565b60405180910390f35b34801561032f57600080fd5b5061034a600480360381019061034591906135f3565b610c75565b6040516103579190613685565b60405180910390f35b61037a60048036038101906103759190613907565b610c89565b60405161038791906131b1565b60405180910390f35b34801561039c57600080fd5b506103b760048036038101906103b291906139c2565b610dd6565b6040516103c491906131b1565b60405180910390f35b3480156103d957600080fd5b506103e2610e44565b6040516103ef91906139fe565b60405180910390f35b34801561040457600080fd5b5061040d610e68565b60405161041a9190613a3c565b60405180910390f35b34801561042f57600080fd5b50610438610e86565b60405161044591906131b1565b60405180910390f35b34801561045a57600080fd5b5061047560048036038101906104709190613a57565b610e90565b60405161048291906131b1565b60405180910390f35b34801561049757600080fd5b506104b260048036038101906104ad91906139c2565b610f1a565b6040516104bf9190613b49565b60405180910390f35b3480156104d457600080fd5b506104ef60048036038101906104ea9190613b64565b61102f565b6040516104fc919061317d565b60405180910390f35b34801561051157600080fd5b5061052c600480360381019061052791906139c2565b61109a565b60405161053b93929190613ba4565b60405180910390f35b34801561055057600080fd5b506105596110d2565b6040516105669190613573565b60405180910390f35b34801561057b57600080fd5b5061059660048036038101906105919190613bdb565b61110f565b6040516105a391906131b1565b60405180910390f35b3480156105b857600080fd5b506105d360048036038101906105ce9190613c1b565b611140565b6040516105e091906131b1565b60405180910390f35b3480156105f557600080fd5b50610610600480360381019061060b91906139c2565b6111aa565b005b34801561061e57600080fd5b5061063960048036038101906106349190613cbf565b6112a6565b60405161064691906131b1565b60405180910390f35b34801561065b57600080fd5b5061067660048036038101906106719190613dd4565b61130e565b60405161068391906131b1565b60405180910390f35b34801561069857600080fd5b506106b360048036038101906106ae9190613eab565b611615565b6040516106c091906131b1565b60405180910390f35b3480156106d557600080fd5b506106de61162b565b6040516106eb91906131b1565b60405180910390f35b34801561070057600080fd5b5061071b60048036038101906107169190613f1a565b61163a565b6040516107289190613685565b60405180910390f35b34801561073d57600080fd5b50610758600480360381019061075391906139c2565b61164f565b60405161076591906131b1565b60405180910390f35b34801561077a57600080fd5b506107956004803603810190610790919061403f565b611661565b005b3480156107a357600080fd5b506107be60048036038101906107b99190613907565b6117a7565b6040516107cb91906131b1565b60405180910390f35b3480156107e057600080fd5b506107fb60048036038101906107f691906140df565b6117e3565b005b34801561080957600080fd5b506108126118df565b60405161081f9190613573565b60405180910390f35b34801561083457600080fd5b5061083d61191c565b60405161084a91906139fe565b60405180910390f35b34801561085f57600080fd5b5061087a600480360381019061087591906139c2565b611940565b005b34801561088857600080fd5b506108a3600480360381019061089e919061410c565b611a3c565b6040516108b091906131b1565b60405180910390f35b3480156108c557600080fd5b506108e060048036038101906108db91906139c2565b611a58565b005b3480156108ee57600080fd5b506109096004803603810190610904919061414c565b611b54565b6040516109169190613685565b60405180910390f35b34801561092b57600080fd5b50610946600480360381019061094191906139c2565b611b69565b60405161095391906131b1565b60405180910390f35b34801561096857600080fd5b50610971611b75565b60405161097e9190614242565b60405180910390f35b600030905090565b6000639a802a6d60e01b630342018160e01b635f398a1460e01b7f79dd796f000000000000000000000000000000000000000000000000000000001818187bffffffffffffffffffffffffffffffffffffffffffffffffffffffff1916827bffffffffffffffffffffffffffffffffffffffffffffffffffffffff19161480610a7557507f79dd796f000000000000000000000000000000000000000000000000000000007bffffffffffffffffffffffffffffffffffffffffffffffffffffffff1916827bffffffffffffffffffffffffffffffffffffffffffffffffffffffff1916145b80610add57507f4e2312e0000000000000000000000000000000000000000000000000000000007bffffffffffffffffffffffffffffffffffffffffffffffffffffffff1916827bffffffffffffffffffffffffffffffffffffffffffffffffffffffff1916145b80610aed5750610aec82611b99565b5b9050919050565b6000600554905090565b600080610b81610b797fb3b3f3b703cd84ce352197dcff232b1b5d3cfb2025ce47cf04742d0651f1af888c8c8c8c604051610b3a92919061428d565b60405180910390208b80519060200120604051602001610b5e9594939291906142b5565b60405160208183030381529060405280519060200120611c03565b868686611c1d565b9050610bd48a828b8b8b8080601f016020809104026020016040519081016040528093929190818152602001838380828437600081840152601f19601f820116905080830192505050505050508a611c48565b91505098975050505050505050565b606060008054610bf290614337565b80601f0160208091040260200160405190810160405280929190818152602001828054610c1e90614337565b8015610c6b5780601f10610c4057610100808354040283529160200191610c6b565b820191906000526020600020905b815481529060010190602001808311610c4e57829003601f168201915b5050505050905090565b600063150b7a0260e01b9050949350505050565b600080610c98868686866117a7565b90506000610ca582610f1a565b905060046007811115610cbb57610cba613ad2565b5b816007811115610cce57610ccd613ad2565b5b1480610cfe575060056007811115610ce957610ce8613ad2565b5b816007811115610cfc57610cfb613ad2565b5b145b610d3d576040517f08c379a0000000000000000000000000000000000000000000000000000000008152600401610d34906143db565b60405180910390fd5b600180600084815260200190815260200160002060020160006101000a81548160ff0219169083151502179055507f712ae1383f79ac853f8d882153778e0260ef8f03b504e2866e0593e04d2b291f82604051610d9a91906131b1565b60405180910390a1610daf8288888888611c62565b610dbc8288888888611d46565b610dc98288888888611e55565b8192505050949350505050565b6000610e33600160008481526020019081526020016000206000016040518060200160405290816000820160009054906101000a900467ffffffffffffffff1667ffffffffffffffff1667ffffffffffffffff1681525050611eb0565b67ffffffffffffffff169050919050565b7fb3b3f3b703cd84ce352197dcff232b1b5d3cfb2025ce47cf04742d0651f1af8881565b6000600860009054906101000a900467ffffffffffffffff16905090565b6000600454905090565b600080610ef1610ee97f150214d74d59b7d1e90c73fc22ef3d991dd0a76b046543d4d80ab92d2a50328f8989604051602001610ece939291906143fb565b60405160208183030381529060405280519060200120611c03565b868686611c1d565b9050610f0e87828860405180602001604052806000815250611ebe565b91505095945050505050565b6000806001600084815260200190815260200160002090508060020160009054906101000a900460ff1615610f5357600791505061102a565b8060020160019054906101000a900460ff1615610f7457600291505061102a565b6000610f7f84610dd6565b90506000811415610fc5576040517f08c379a0000000000000000000000000000000000000000000000000000000008152600401610fbc9061447e565b60405180910390fd5b438110610fd75760009250505061102a565b6000610fe28561164f565b9050438110610ff7576001935050505061102a565b61100085611ede565b8015611011575061101085611f25565b5b15611022576004935050505061102a565b600393505050505b919050565b60006007600084815260200190815260200160002060030160008373ffffffffffffffffffffffffffffffffffffffff1673ffffffffffffffffffffffffffffffffffffffff16815260200190815260200160002060009054906101000a900460ff16905092915050565b600080600080600760008681526020019081526020016000209050806000015481600101548260020154935093509350509193909250565b60606040518060400160405280600181526020017f3100000000000000000000000000000000000000000000000000000000000000815250905090565b60008061111a611f50565b905061113784828560405180602001604052806000815250611ebe565b91505092915050565b60008061114b611f50565b905061119e87828888888080601f016020809104026020016040519081016040528093929190818152602001838380828437600081840152601f19601f8201169050808301925050505050505087611c48565b91505095945050505050565b6111b2610987565b73ffffffffffffffffffffffffffffffffffffffff166111d0611f50565b73ffffffffffffffffffffffffffffffffffffffff1614611226576040517f08c379a000000000000000000000000000000000000000000000000000000000815260040161121d906144ea565b60405180910390fd5b3073ffffffffffffffffffffffffffffffffffffffff16611245610987565b73ffffffffffffffffffffffffffffffffffffffff161461129a57600061126a611f58565b60405161127892919061428d565b604051809103902090505b8061128e6002611f65565b1461129857611283565b505b6112a381612041565b50565b6000806112b1611f50565b905061130386828787878080601f016020809104026020016040519081016040528093929190818152602001838380828437600081840152601f19601f82011690508083019250505050505050611ebe565b915050949350505050565b600061131861162b565b611335611323611f50565b6001436113309190614539565b611a3c565b1015611376576040517f08c379a000000000000000000000000000000000000000000000000000000000815260040161136d906145df565b60405180910390fd5b600061138b86868686805190602001206117a7565b905084518651146113d1576040517f08c379a00000000000000000000000000000000000000000000000000000000081526004016113c890614671565b60405180910390fd5b8351865114611415576040517f08c379a000000000000000000000000000000000000000000000000000000000815260040161140c90614671565b60405180910390fd5b6000865111611459576040517f08c379a0000000000000000000000000000000000000000000000000000000008152600401611450906146dd565b60405180910390fd5b60006001600083815260200190815260200160002090506114b9816000016040518060200160405290816000820160009054906101000a900467ffffffffffffffff1667ffffffffffffffff1667ffffffffffffffff1681525050612086565b6114f8576040517f08c379a00000000000000000000000000000000000000000000000000000000081526004016114ef9061476f565b60405180910390fd5b600061150a611505610e86565b6120a0565b611513436120a0565b61151d919061478f565b9050600061153161152c610af4565b6120a0565b8261153c919061478f565b905061155482846000016120f790919063ffffffff16565b61156a81846001016120f790919063ffffffff16565b7f7d84a6263ae0d98d3329bd7b46bb4e8d6f98cd35a7adb45c274c8b7fd5ebd5e084611594611f50565b8b8b8d5167ffffffffffffffff8111156115b1576115b06132ac565b5b6040519080825280602002602001820160405280156115e457816020015b60608152602001906001900390816115cf5790505b508c88888e6040516115fe99989796959493929190614bac565b60405180910390a183945050505050949350505050565b6000611622848484612126565b90509392505050565b60006116356121dc565b905090565b600063bc197c8160e01b905095945050505050565b600061165a826121e6565b9050919050565b611669610987565b73ffffffffffffffffffffffffffffffffffffffff16611687611f50565b73ffffffffffffffffffffffffffffffffffffffff16146116dd576040517f08c379a00000000000000000000000000000000000000000000000000000000081526004016116d4906144ea565b60405180910390fd5b3073ffffffffffffffffffffffffffffffffffffffff166116fc610987565b73ffffffffffffffffffffffffffffffffffffffff1614611751576000611721611f58565b60405161172f92919061428d565b604051809103902090505b806117456002611f65565b1461174f5761173a565b505b6117a08483838080601f016020809104026020016040519081016040528093929190818152602001838380828437600081840152601f19601f8201169050808301925050505050505085612262565b5050505050565b6000848484846040516020016117c09493929190614c5c565b6040516020818303038152906040528051906020012060001c9050949350505050565b6117eb610987565b73ffffffffffffffffffffffffffffffffffffffff16611809611f50565b73ffffffffffffffffffffffffffffffffffffffff161461185f576040517f08c379a0000000000000000000000000000000000000000000000000000000008152600401611856906144ea565b60405180910390fd5b3073ffffffffffffffffffffffffffffffffffffffff1661187e610987565b73ffffffffffffffffffffffffffffffffffffffff16146118d35760006118a3611f58565b6040516118b192919061428d565b604051809103902090505b806118c76002611f65565b146118d1576118bc565b505b6118dc81612291565b50565b60606040518060400160405280602081526020017f737570706f72743d627261766f2671756f72756d3d666f722c6162737461696e815250905090565b7f150214d74d59b7d1e90c73fc22ef3d991dd0a76b046543d4d80ab92d2a50328f81565b611948610987565b73ffffffffffffffffffffffffffffffffffffffff16611966611f50565b73ffffffffffffffffffffffffffffffffffffffff16146119bc576040517f08c379a00000000000000000000000000000000000000000000000000000000081526004016119b3906144ea565b60405180910390fd5b3073ffffffffffffffffffffffffffffffffffffffff166119db610987565b73ffffffffffffffffffffffffffffffffffffffff1614611a30576000611a00611f58565b604051611a0e92919061428d565b604051809103902090505b80611a246002611f65565b14611a2e57611a19565b505b611a398161230c565b50565b6000611a508383611a4b612394565b612126565b905092915050565b611a60610987565b73ffffffffffffffffffffffffffffffffffffffff16611a7e611f50565b73ffffffffffffffffffffffffffffffffffffffff1614611ad4576040517f08c379a0000000000000000000000000000000000000000000000000000000008152600401611acb906144ea565b60405180910390fd5b3073ffffffffffffffffffffffffffffffffffffffff16611af3610987565b73ffffffffffffffffffffffffffffffffffffffff1614611b48576000611b18611f58565b604051611b2692919061428d565b604051809103902090505b80611b3c6002611f65565b14611b4657611b31565b505b611b51816123ab565b50565b600063f23a6e6160e01b905095945050505050565b6000600a549050919050565b7f000000000000000000000000000000000000000000000000000000000000000081565b60007f01ffc9a7000000000000000000000000000000000000000000000000000000007bffffffffffffffffffffffffffffffffffffffffffffffffffffffff1916827bffffffffffffffffffffffffffffffffffffffffffffffffffffffff1916149050919050565b6000611c16611c106123f0565b8361250a565b9050919050565b6000806000611c2e8787878761253d565b91509150611c3b8161264a565b8192505050949350505050565b6000611c57868686868661281f565b905095945050505050565b3073ffffffffffffffffffffffffffffffffffffffff16611c81610987565b73ffffffffffffffffffffffffffffffffffffffff1614611d3f5760005b8451811015611d3d573073ffffffffffffffffffffffffffffffffffffffff16858281518110611cd257611cd1614cb6565b5b602002602001015173ffffffffffffffffffffffffffffffffffffffff161415611d2c57611d2b838281518110611d0c57611d0b614cb6565b5b602002602001015180519060200120600261293990919063ffffffff16565b5b80611d3690614ce5565b9050611c9f565b505b5050505050565b600060405180606001604052806027815260200161569c60279139905060005b8551811015611e4c57600080878381518110611d8557611d84614cb6565b5b602002602001015173ffffffffffffffffffffffffffffffffffffffff16878481518110611db657611db5614cb6565b5b6020026020010151878581518110611dd157611dd0614cb6565b5b6020026020010151604051611de69190614d5f565b60006040518083038185875af1925050503d8060008114611e23576040519150601f19603f3d011682016040523d82523d6000602084013e611e28565b606091505b5091509150611e388282866129b5565b50505080611e4590614ce5565b9050611d66565b50505050505050565b3073ffffffffffffffffffffffffffffffffffffffff16611e74610987565b73ffffffffffffffffffffffffffffffffffffffff1614611ea957611e9960026129d7565b611ea857611ea76002612a0c565b5b5b5050505050565b600081600001519050919050565b6000611ed485858585611ecf612394565b611c48565b9050949350505050565b60008060076000848152602001908152602001600020905080600201548160010154611f0a9190614d76565b611f1b611f1685610dd6565b611b69565b1115915050919050565b6000806007600084815260200190815260200160002090508060000154816001015411915050919050565b600033905090565b3660008036915091509091565b6000611f70826129d7565b15611fa7576040517f3db2a12a00000000000000000000000000000000000000000000000000000000815260040160405180910390fd5b60008260000160009054906101000a9004600f0b905082600101600082600f0b600f0b815260200190815260200160002054915082600101600082600f0b600f0b815260200190815260200160002060009055600181018360000160006101000a8154816fffffffffffffffffffffffffffffffff0219169083600f0b6fffffffffffffffffffffffffffffffff16021790555050919050565b7fc565b045403dc03c2eea82b81a0465edad9e2e7fc4d97e11421c209da93d7a9360045482604051612074929190614dcc565b60405180910390a18060048190555050565b600080826000015167ffffffffffffffff16149050919050565b600067ffffffffffffffff80168211156120ef576040517f08c379a00000000000000000000000000000000000000000000000000000000081526004016120e690614e67565b60405180910390fd5b819050919050565b808260000160006101000a81548167ffffffffffffffff021916908367ffffffffffffffff1602179055505050565b60007f000000000000000000000000000000000000000000000000000000000000000073ffffffffffffffffffffffffffffffffffffffff16633a46b1a885856040518363ffffffff1660e01b8152600401612183929190614e87565b60206040518083038186803b15801561219b57600080fd5b505afa1580156121af573d6000803e3d6000fd5b505050506040513d601f19601f820116820180604052508101906121d39190614ec5565b90509392505050565b6000600654905090565b600061225b6121f483612a8d565b61224c600960008681526020019081526020016000206040518060200160405290816000820160009054906101000a900467ffffffffffffffff1667ffffffffffffffff1667ffffffffffffffff1681525050611eb0565b67ffffffffffffffff16612afb565b9050919050565b60606122888484846040518060600160405280602981526020016156c360299139612b15565b90509392505050565b7f7ca4ac117ed3cdce75c1161d8207c440389b1a15d69d096831664657c07dafc2600860009054906101000a900467ffffffffffffffff16826040516122d8929190614ef2565b60405180910390a180600860006101000a81548167ffffffffffffffff021916908367ffffffffffffffff16021790555050565b6000811161234f576040517f08c379a000000000000000000000000000000000000000000000000000000000815260040161234690614f8d565b60405180910390fd5b7f7e3f7f0708a84de9203036abaa450dccc85ad5ff52f78c170f3edb55cf5e882860055482604051612382929190614dcc565b60405180910390a18060058190555050565b606060405180602001604052806000815250905090565b7fccb45da8d5717e6c4544694297c4ba5cf151d455c9bb0ed4fc7a38411bc05461600654826040516123de929190614dcc565b60405180910390a18060068190555050565b60007f000000000000000000000000000000000000000000000000000000000000000073ffffffffffffffffffffffffffffffffffffffff163073ffffffffffffffffffffffffffffffffffffffff1614801561246c57507f000000000000000000000000000000000000000000000000000000000000000046145b15612499577f00000000000000000000000000000000000000000000000000000000000000009050612507565b6125047f00000000000000000000000000000000000000000000000000000000000000007f00000000000000000000000000000000000000000000000000000000000000007f0000000000000000000000000000000000000000000000000000000000000000612be2565b90505b90565b6000828260405160200161251f929190615025565b60405160208183030381529060405280519060200120905092915050565b6000807f7fffffffffffffffffffffffffffffff5d576e7357a4501ddfe92f46681b20a08360001c1115612578576000600391509150612641565b601b8560ff16141580156125905750601c8560ff1614155b156125a2576000600491509150612641565b6000600187878787604051600081526020016040526040516125c7949392919061505c565b6020604051602081039080840390855afa1580156125e9573d6000803e3d6000fd5b505050602060405103519050600073ffffffffffffffffffffffffffffffffffffffff168173ffffffffffffffffffffffffffffffffffffffff16141561263857600060019250925050612641565b80600092509250505b94509492505050565b6000600481111561265e5761265d613ad2565b5b81600481111561267157612670613ad2565b5b141561267c5761281c565b600160048111156126905761268f613ad2565b5b8160048111156126a3576126a2613ad2565b5b14156126e4576040517f08c379a00000000000000000000000000000000000000000000000000000000081526004016126db906150ed565b60405180910390fd5b600260048111156126f8576126f7613ad2565b5b81600481111561270b5761270a613ad2565b5b141561274c576040517f08c379a000000000000000000000000000000000000000000000000000000000815260040161274390615159565b60405180910390fd5b600360048111156127605761275f613ad2565b5b81600481111561277357612772613ad2565b5b14156127b4576040517f08c379a00000000000000000000000000000000000000000000000000000000081526004016127ab906151eb565b60405180910390fd5b6004808111156127c7576127c6613ad2565b5b8160048111156127da576127d9613ad2565b5b141561281b576040517f08c379a00000000000000000000000000000000000000000000000000000000081526004016128129061527d565b60405180910390fd5b5b50565b60008061282f8787878787612c1c565b9050600060096000898152602001908152602001600020905061288e816040518060200160405290816000820160009054906101000a900467ffffffffffffffff1667ffffffffffffffff1667ffffffffffffffff1681525050612086565b801561289f575061289e88611ede565b5b1561292b5760006128ae610e68565b6128b7436120a0565b6128c1919061478f565b90506128cc8961164f565b8167ffffffffffffffff16111561291657887f541f725fb9f7c98a30cc9c0ff32fbb14358cd7159c847a3aa20a2bdc442ba5118260405161290d9190613a3c565b60405180910390a25b61292981836120f790919063ffffffff16565b505b819250505095945050505050565b60008260000160109054906101000a9004600f0b90508183600101600083600f0b600f0b815260200190815260200160002081905550600181018360000160106101000a8154816fffffffffffffffffffffffffffffffff0219169083600f0b6fffffffffffffffffffffffffffffffff160217905550505050565b606083156129c5578290506129d0565b6129cf8383612dd9565b5b9392505050565b60008160000160009054906101000a9004600f0b600f0b8260000160109054906101000a9004600f0b600f0b13159050919050565b60008160000160006101000a8154816fffffffffffffffffffffffffffffffff0219169083600f0b6fffffffffffffffffffffffffffffffff16021790555060008160000160106101000a8154816fffffffffffffffffffffffffffffffff0219169083600f0b6fffffffffffffffffffffffffffffffff16021790555050565b6000612aea600160008481526020019081526020016000206001016040518060200160405290816000820160009054906101000a900467ffffffffffffffff1667ffffffffffffffff1667ffffffffffffffff1681525050611eb0565b67ffffffffffffffff169050919050565b600081831015612b0b5781612b0d565b825b905092915050565b606082471015612b5a576040517f08c379a0000000000000000000000000000000000000000000000000000000008152600401612b519061530f565b60405180910390fd5b6000808673ffffffffffffffffffffffffffffffffffffffff168587604051612b839190614d5f565b60006040518083038185875af1925050503d8060008114612bc0576040519150601f19603f3d011682016040523d82523d6000602084013e612bc5565b606091505b5091509150612bd687838387612e29565b92505050949350505050565b60008383834630604051602001612bfd95949392919061532f565b6040516020818303038152906040528051906020012090509392505050565b60008060016000888152602001908152602001600020905060016007811115612c4857612c47613ad2565b5b612c5188610f1a565b6007811115612c6357612c62613ad2565b5b14612ca3576040517f08c379a0000000000000000000000000000000000000000000000000000000008152600401612c9a906153f4565b60405180910390fd5b6000612d0287612cf2846000016040518060200160405290816000820160009054906101000a900467ffffffffffffffff1667ffffffffffffffff1667ffffffffffffffff1681525050611eb0565b67ffffffffffffffff1686612126565b9050612d118888888488612e9f565b600084511415612d74578673ffffffffffffffffffffffffffffffffffffffff167fb8e138887d0aa13bab447e82de9d5c1777041ecd21ca36ba824ff1e6c07ddda489888489604051612d679493929190615414565b60405180910390a2612dcb565b8673ffffffffffffffffffffffffffffffffffffffff167fe2babfbac5889a709b63bb7f598b324e08bc5a4fb9ec647fb3cbc9ec07eb87128988848989604051612dc29594939291906154aa565b60405180910390a25b809250505095945050505050565b600082511115612dec5781518083602001fd5b806040517f08c379a0000000000000000000000000000000000000000000000000000000008152600401612e209190613573565b60405180910390fd5b60608315612e8c57600083511415612e8457612e44856130a6565b612e83576040517f08c379a0000000000000000000000000000000000000000000000000000000008152600401612e7a90615557565b60405180910390fd5b5b829050612e97565b612e968383612dd9565b5b949350505050565b60006007600087815260200190815260200160002090508060030160008673ffffffffffffffffffffffffffffffffffffffff1673ffffffffffffffffffffffffffffffffffffffff16815260200190815260200160002060009054906101000a900460ff1615612f45576040517f08c379a0000000000000000000000000000000000000000000000000000000008152600401612f3c906155e9565b60405180910390fd5b60018160030160008773ffffffffffffffffffffffffffffffffffffffff1673ffffffffffffffffffffffffffffffffffffffff16815260200190815260200160002060006101000a81548160ff02191690831515021790555060006002811115612fb357612fb2613ad2565b5b60ff168460ff161415612fe05782816000016000828254612fd49190614d76565b9250508190555061309e565b60016002811115612ff457612ff3613ad2565b5b60ff168460ff16141561302157828160010160008282546130159190614d76565b9250508190555061309d565b60028081111561303457613033613ad2565b5b60ff168460ff16141561306157828160020160008282546130559190614d76565b9250508190555061309c565b6040517f08c379a00000000000000000000000000000000000000000000000000000000081526004016130939061567b565b60405180910390fd5b5b5b505050505050565b6000808273ffffffffffffffffffffffffffffffffffffffff163b119050919050565b6000604051905090565b600080fd5b600080fd5b60007fffffffff0000000000000000000000000000000000000000000000000000000082169050919050565b613112816130dd565b811461311d57600080fd5b50565b60008135905061312f81613109565b92915050565b60006020828403121561314b5761314a6130d3565b5b600061315984828501613120565b91505092915050565b60008115159050919050565b61317781613162565b82525050565b6000602082019050613192600083018461316e565b92915050565b6000819050919050565b6131ab81613198565b82525050565b60006020820190506131c660008301846131a2565b92915050565b6131d581613198565b81146131e057600080fd5b50565b6000813590506131f2816131cc565b92915050565b600060ff82169050919050565b61320e816131f8565b811461321957600080fd5b50565b60008135905061322b81613205565b92915050565b600080fd5b600080fd5b600080fd5b60008083601f84011261325657613255613231565b5b8235905067ffffffffffffffff81111561327357613272613236565b5b60208301915083600182028301111561328f5761328e61323b565b5b9250929050565b600080fd5b6000601f19601f8301169050919050565b7f4e487b7100000000000000000000000000000000000000000000000000000000600052604160045260246000fd5b6132e48261329b565b810181811067ffffffffffffffff82111715613303576133026132ac565b5b80604052505050565b60006133166130c9565b905061332282826132db565b919050565b600067ffffffffffffffff821115613342576133416132ac565b5b61334b8261329b565b9050602081019050919050565b82818337600083830152505050565b600061337a61337584613327565b61330c565b90508281526020810184848401111561339657613395613296565b5b6133a1848285613358565b509392505050565b600082601f8301126133be576133bd613231565b5b81356133ce848260208601613367565b91505092915050565b6000819050919050565b6133ea816133d7565b81146133f557600080fd5b50565b600081359050613407816133e1565b92915050565b60008060008060008060008060e0898b03121561342d5761342c6130d3565b5b600061343b8b828c016131e3565b985050602061344c8b828c0161321c565b975050604089013567ffffffffffffffff81111561346d5761346c6130d8565b5b6134798b828c01613240565b9650965050606089013567ffffffffffffffff81111561349c5761349b6130d8565b5b6134a88b828c016133a9565b94505060806134b98b828c0161321c565b93505060a06134ca8b828c016133f8565b92505060c06134db8b828c016133f8565b9150509295985092959890939650565b600081519050919050565b600082825260208201905092915050565b60005b8381101561352557808201518184015260208101905061350a565b83811115613534576000848401525b50505050565b6000613545826134eb565b61354f81856134f6565b935061355f818560208601613507565b6135688161329b565b840191505092915050565b6000602082019050818103600083015261358d818461353a565b905092915050565b600073ffffffffffffffffffffffffffffffffffffffff82169050919050565b60006135c082613595565b9050919050565b6135d0816135b5565b81146135db57600080fd5b50565b6000813590506135ed816135c7565b92915050565b6000806000806080858703121561360d5761360c6130d3565b5b600061361b878288016135de565b945050602061362c878288016135de565b935050604061363d878288016131e3565b925050606085013567ffffffffffffffff81111561365e5761365d6130d8565b5b61366a878288016133a9565b91505092959194509250565b61367f816130dd565b82525050565b600060208201905061369a6000830184613676565b92915050565b600067ffffffffffffffff8211156136bb576136ba6132ac565b5b602082029050602081019050919050565b60006136df6136da846136a0565b61330c565b905080838252602082019050602084028301858111156137025761370161323b565b5b835b8181101561372b578061371788826135de565b845260208401935050602081019050613704565b5050509392505050565b600082601f83011261374a57613749613231565b5b813561375a8482602086016136cc565b91505092915050565b600067ffffffffffffffff82111561377e5761377d6132ac565b5b602082029050602081019050919050565b60006137a261379d84613763565b61330c565b905080838252602082019050602084028301858111156137c5576137c461323b565b5b835b818110156137ee57806137da88826131e3565b8452602084019350506020810190506137c7565b5050509392505050565b600082601f83011261380d5761380c613231565b5b813561381d84826020860161378f565b91505092915050565b600067ffffffffffffffff821115613841576138406132ac565b5b602082029050602081019050919050565b600061386561386084613826565b61330c565b905080838252602082019050602084028301858111156138885761388761323b565b5b835b818110156138cf57803567ffffffffffffffff8111156138ad576138ac613231565b5b8086016138ba89826133a9565b8552602085019450505060208101905061388a565b5050509392505050565b600082601f8301126138ee576138ed613231565b5b81356138fe848260208601613852565b91505092915050565b60008060008060808587031215613921576139206130d3565b5b600085013567ffffffffffffffff81111561393f5761393e6130d8565b5b61394b87828801613735565b945050602085013567ffffffffffffffff81111561396c5761396b6130d8565b5b613978878288016137f8565b935050604085013567ffffffffffffffff811115613999576139986130d8565b5b6139a5878288016138d9565b92505060606139b6878288016133f8565b91505092959194509250565b6000602082840312156139d8576139d76130d3565b5b60006139e6848285016131e3565b91505092915050565b6139f8816133d7565b82525050565b6000602082019050613a1360008301846139ef565b92915050565b600067ffffffffffffffff82169050919050565b613a3681613a19565b82525050565b6000602082019050613a516000830184613a2d565b92915050565b600080600080600060a08688031215613a7357613a726130d3565b5b6000613a81888289016131e3565b9550506020613a928882890161321c565b9450506040613aa38882890161321c565b9350506060613ab4888289016133f8565b9250506080613ac5888289016133f8565b9150509295509295909350565b7f4e487b7100000000000000000000000000000000000000000000000000000000600052602160045260246000fd5b60088110613b1257613b11613ad2565b5b50565b6000819050613b2382613b01565b919050565b6000613b3382613b15565b9050919050565b613b4381613b28565b82525050565b6000602082019050613b5e6000830184613b3a565b92915050565b60008060408385031215613b7b57613b7a6130d3565b5b6000613b89858286016131e3565b9250506020613b9a858286016135de565b9150509250929050565b6000606082019050613bb960008301866131a2565b613bc660208301856131a2565b613bd360408301846131a2565b949350505050565b60008060408385031215613bf257613bf16130d3565b5b6000613c00858286016131e3565b9250506020613c118582860161321c565b9150509250929050565b600080600080600060808688031215613c3757613c366130d3565b5b6000613c45888289016131e3565b9550506020613c568882890161321c565b945050604086013567ffffffffffffffff811115613c7757613c766130d8565b5b613c8388828901613240565b9350935050606086013567ffffffffffffffff811115613ca657613ca56130d8565b5b613cb2888289016133a9565b9150509295509295909350565b60008060008060608587031215613cd957613cd86130d3565b5b6000613ce7878288016131e3565b9450506020613cf88782880161321c565b935050604085013567ffffffffffffffff811115613d1957613d186130d8565b5b613d2587828801613240565b925092505092959194509250565b600067ffffffffffffffff821115613d4e57613d4d6132ac565b5b613d578261329b565b9050602081019050919050565b6000613d77613d7284613d33565b61330c565b905082815260208101848484011115613d9357613d92613296565b5b613d9e848285613358565b509392505050565b600082601f830112613dbb57613dba613231565b5b8135613dcb848260208601613d64565b91505092915050565b60008060008060808587031215613dee57613ded6130d3565b5b600085013567ffffffffffffffff811115613e0c57613e0b6130d8565b5b613e1887828801613735565b945050602085013567ffffffffffffffff811115613e3957613e386130d8565b5b613e45878288016137f8565b935050604085013567ffffffffffffffff811115613e6657613e656130d8565b5b613e72878288016138d9565b925050606085013567ffffffffffffffff811115613e9357613e926130d8565b5b613e9f87828801613da6565b91505092959194509250565b600080600060608486031215613ec457613ec36130d3565b5b6000613ed2868287016135de565b9350506020613ee3868287016131e3565b925050604084013567ffffffffffffffff811115613f0457613f036130d8565b5b613f10868287016133a9565b9150509250925092565b600080600080600060a08688031215613f3657613f356130d3565b5b6000613f44888289016135de565b9550506020613f55888289016135de565b945050604086013567ffffffffffffffff811115613f7657613f756130d8565b5b613f82888289016137f8565b935050606086013567ffffffffffffffff811115613fa357613fa26130d8565b5b613faf888289016137f8565b925050608086013567ffffffffffffffff811115613fd057613fcf6130d8565b5b613fdc888289016133a9565b9150509295509295909350565b60008083601f840112613fff57613ffe613231565b5b8235905067ffffffffffffffff81111561401c5761401b613236565b5b6020830191508360018202830111156140385761403761323b565b5b9250929050565b60008060008060608587031215614059576140586130d3565b5b6000614067878288016135de565b9450506020614078878288016131e3565b935050604085013567ffffffffffffffff811115614099576140986130d8565b5b6140a587828801613fe9565b925092505092959194509250565b6140bc81613a19565b81146140c757600080fd5b50565b6000813590506140d9816140b3565b92915050565b6000602082840312156140f5576140f46130d3565b5b6000614103848285016140ca565b91505092915050565b60008060408385031215614123576141226130d3565b5b6000614131858286016135de565b9250506020614142858286016131e3565b9150509250929050565b600080600080600060a08688031215614168576141676130d3565b5b6000614176888289016135de565b9550506020614187888289016135de565b9450506040614198888289016131e3565b93505060606141a9888289016131e3565b925050608086013567ffffffffffffffff8111156141ca576141c96130d8565b5b6141d6888289016133a9565b9150509295509295909350565b6000819050919050565b60006142086142036141fe84613595565b6141e3565b613595565b9050919050565b600061421a826141ed565b9050919050565b600061422c8261420f565b9050919050565b61423c81614221565b82525050565b60006020820190506142576000830184614233565b92915050565b600081905092915050565b6000614274838561425d565b9350614281838584613358565b82840190509392505050565b600061429a828486614268565b91508190509392505050565b6142af816131f8565b82525050565b600060a0820190506142ca60008301886139ef565b6142d760208301876131a2565b6142e460408301866142a6565b6142f160608301856139ef565b6142fe60808301846139ef565b9695505050505050565b7f4e487b7100000000000000000000000000000000000000000000000000000000600052602260045260246000fd5b6000600282049050600182168061434f57607f821691505b6020821081141561436357614362614308565b5b50919050565b7f476f7665726e6f723a2070726f706f73616c206e6f742073756363657373667560008201527f6c00000000000000000000000000000000000000000000000000000000000000602082015250565b60006143c56021836134f6565b91506143d082614369565b604082019050919050565b600060208201905081810360008301526143f4816143b8565b9050919050565b600060608201905061441060008301866139ef565b61441d60208301856131a2565b61442a60408301846142a6565b949350505050565b7f476f7665726e6f723a20756e6b6e6f776e2070726f706f73616c206964000000600082015250565b6000614468601d836134f6565b915061447382614432565b602082019050919050565b600060208201905081810360008301526144978161445b565b9050919050565b7f476f7665726e6f723a206f6e6c79476f7665726e616e63650000000000000000600082015250565b60006144d46018836134f6565b91506144df8261449e565b602082019050919050565b60006020820190508181036000830152614503816144c7565b9050919050565b7f4e487b7100000000000000000000000000000000000000000000000000000000600052601160045260246000fd5b600061454482613198565b915061454f83613198565b9250828210156145625761456161450a565b5b828203905092915050565b7f476f7665726e6f723a2070726f706f73657220766f7465732062656c6f77207060008201527f726f706f73616c207468726573686f6c64000000000000000000000000000000602082015250565b60006145c96031836134f6565b91506145d48261456d565b604082019050919050565b600060208201905081810360008301526145f8816145bc565b9050919050565b7f476f7665726e6f723a20696e76616c69642070726f706f73616c206c656e677460008201527f6800000000000000000000000000000000000000000000000000000000000000602082015250565b600061465b6021836134f6565b9150614666826145ff565b604082019050919050565b6000602082019050818103600083015261468a8161464e565b9050919050565b7f476f7665726e6f723a20656d7074792070726f706f73616c0000000000000000600082015250565b60006146c76018836134f6565b91506146d282614691565b602082019050919050565b600060208201905081810360008301526146f6816146ba565b9050919050565b7f476f7665726e6f723a2070726f706f73616c20616c726561647920657869737460008201527f7300000000000000000000000000000000000000000000000000000000000000602082015250565b60006147596021836134f6565b9150614764826146fd565b604082019050919050565b600060208201905081810360008301526147888161474c565b9050919050565b600061479a82613a19565b91506147a583613a19565b92508267ffffffffffffffff038211156147c2576147c161450a565b5b828201905092915050565b6147d6816135b5565b82525050565b600081519050919050565b600082825260208201905092915050565b6000819050602082019050919050565b614811816135b5565b82525050565b60006148238383614808565b60208301905092915050565b6000602082019050919050565b6000614847826147dc565b61485181856147e7565b935061485c836147f8565b8060005b8381101561488d5781516148748882614817565b975061487f8361482f565b925050600181019050614860565b5085935050505092915050565b600081519050919050565b600082825260208201905092915050565b6000819050602082019050919050565b6148cf81613198565b82525050565b60006148e183836148c6565b60208301905092915050565b6000602082019050919050565b60006149058261489a565b61490f81856148a5565b935061491a836148b6565b8060005b8381101561494b57815161493288826148d5565b975061493d836148ed565b92505060018101905061491e565b5085935050505092915050565b600081519050919050565b600082825260208201905092915050565b6000819050602082019050919050565b600082825260208201905092915050565b60006149a0826134eb565b6149aa8185614984565b93506149ba818560208601613507565b6149c38161329b565b840191505092915050565b60006149da8383614995565b905092915050565b6000602082019050919050565b60006149fa82614958565b614a048185614963565b935083602082028501614a1685614974565b8060005b85811015614a525784840389528151614a3385826149ce565b9450614a3e836149e2565b925060208a01995050600181019050614a1a565b50829750879550505050505092915050565b600081519050919050565b600082825260208201905092915050565b6000819050602082019050919050565b600081519050919050565b600082825260208201905092915050565b6000614ab782614a90565b614ac18185614a9b565b9350614ad1818560208601613507565b614ada8161329b565b840191505092915050565b6000614af18383614aac565b905092915050565b6000602082019050919050565b6000614b1182614a64565b614b1b8185614a6f565b935083602082028501614b2d85614a80565b8060005b85811015614b695784840389528151614b4a8582614ae5565b9450614b5583614af9565b925060208a01995050600181019050614b31565b50829750879550505050505092915050565b6000614b96614b91614b8c84613a19565b6141e3565b613198565b9050919050565b614ba681614b7b565b82525050565b600061012082019050614bc2600083018c6131a2565b614bcf602083018b6147cd565b8181036040830152614be1818a61483c565b90508181036060830152614bf581896148fa565b90508181036080830152614c0981886149ef565b905081810360a0830152614c1d8187614b06565b9050614c2c60c0830186614b9d565b614c3960e0830185614b9d565b818103610100830152614c4c818461353a565b90509a9950505050505050505050565b60006080820190508181036000830152614c76818761483c565b90508181036020830152614c8a81866148fa565b90508181036040830152614c9e8185614b06565b9050614cad60608301846139ef565b95945050505050565b7f4e487b7100000000000000000000000000000000000000000000000000000000600052603260045260246000fd5b6000614cf082613198565b91507fffffffffffffffffffffffffffffffffffffffffffffffffffffffffffffffff821415614d2357614d2261450a565b5b600182019050919050565b6000614d3982614a90565b614d43818561425d565b9350614d53818560208601613507565b80840191505092915050565b6000614d6b8284614d2e565b915081905092915050565b6000614d8182613198565b9150614d8c83613198565b9250827fffffffffffffffffffffffffffffffffffffffffffffffffffffffffffffffff03821115614dc157614dc061450a565b5b828201905092915050565b6000604082019050614de160008301856131a2565b614dee60208301846131a2565b9392505050565b7f53616665436173743a2076616c756520646f65736e27742066697420696e203660008201527f3420626974730000000000000000000000000000000000000000000000000000602082015250565b6000614e516026836134f6565b9150614e5c82614df5565b604082019050919050565b60006020820190508181036000830152614e8081614e44565b9050919050565b6000604082019050614e9c60008301856147cd565b614ea960208301846131a2565b9392505050565b600081519050614ebf816131cc565b92915050565b600060208284031215614edb57614eda6130d3565b5b6000614ee984828501614eb0565b91505092915050565b6000604082019050614f076000830185613a2d565b614f146020830184613a2d565b9392505050565b7f476f7665726e6f7253657474696e67733a20766f74696e6720706572696f642060008201527f746f6f206c6f7700000000000000000000000000000000000000000000000000602082015250565b6000614f776027836134f6565b9150614f8282614f1b565b604082019050919050565b60006020820190508181036000830152614fa681614f6a565b9050919050565b600081905092915050565b7f1901000000000000000000000000000000000000000000000000000000000000600082015250565b6000614fee600283614fad565b9150614ff982614fb8565b600282019050919050565b6000819050919050565b61501f61501a826133d7565b615004565b82525050565b600061503082614fe1565b915061503c828561500e565b60208201915061504c828461500e565b6020820191508190509392505050565b600060808201905061507160008301876139ef565b61507e60208301866142a6565b61508b60408301856139ef565b61509860608301846139ef565b95945050505050565b7f45434453413a20696e76616c6964207369676e61747572650000000000000000600082015250565b60006150d76018836134f6565b91506150e2826150a1565b602082019050919050565b60006020820190508181036000830152615106816150ca565b9050919050565b7f45434453413a20696e76616c6964207369676e6174757265206c656e67746800600082015250565b6000615143601f836134f6565b915061514e8261510d565b602082019050919050565b6000602082019050818103600083015261517281615136565b9050919050565b7f45434453413a20696e76616c6964207369676e6174757265202773272076616c60008201527f7565000000000000000000000000000000000000000000000000000000000000602082015250565b60006151d56022836134f6565b91506151e082615179565b604082019050919050565b60006020820190508181036000830152615204816151c8565b9050919050565b7f45434453413a20696e76616c6964207369676e6174757265202776272076616c60008201527f7565000000000000000000000000000000000000000000000000000000000000602082015250565b60006152676022836134f6565b91506152728261520b565b604082019050919050565b600060208201905081810360008301526152968161525a565b9050919050565b7f416464726573733a20696e73756666696369656e742062616c616e636520666f60008201527f722063616c6c0000000000000000000000000000000000000000000000000000602082015250565b60006152f96026836134f6565b91506153048261529d565b604082019050919050565b60006020820190508181036000830152615328816152ec565b9050919050565b600060a08201905061534460008301886139ef565b61535160208301876139ef565b61535e60408301866139ef565b61536b60608301856131a2565b61537860808301846147cd565b9695505050505050565b7f476f7665726e6f723a20766f7465206e6f742063757272656e746c792061637460008201527f6976650000000000000000000000000000000000000000000000000000000000602082015250565b60006153de6023836134f6565b91506153e982615382565b604082019050919050565b6000602082019050818103600083015261540d816153d1565b9050919050565b600060808201905061542960008301876131a2565b61543660208301866142a6565b61544360408301856131a2565b8181036060830152615455818461353a565b905095945050505050565b600082825260208201905092915050565b600061547c82614a90565b6154868185615460565b9350615496818560208601613507565b61549f8161329b565b840191505092915050565b600060a0820190506154bf60008301886131a2565b6154cc60208301876142a6565b6154d960408301866131a2565b81810360608301526154eb818561353a565b905081810360808301526154ff8184615471565b90509695505050505050565b7f416464726573733a2063616c6c20746f206e6f6e2d636f6e7472616374000000600082015250565b6000615541601d836134f6565b915061554c8261550b565b602082019050919050565b6000602082019050818103600083015261557081615534565b9050919050565b7f476f7665726e6f72566f74696e6753696d706c653a20766f746520616c72656160008201527f6479206361737400000000000000000000000000000000000000000000000000602082015250565b60006155d36027836134f6565b91506155de82615577565b604082019050919050565b60006020820190508181036000830152615602816155c6565b9050919050565b7f476f7665726e6f72566f74696e6753696d706c653a20696e76616c696420766160008201527f6c756520666f7220656e756d20566f7465547970650000000000000000000000602082015250565b60006156656035836134f6565b915061567082615609565b604082019050919050565b6000602082019050818103600083015261569481615658565b905091905056fe476f7665726e6f723a2063616c6c20726576657274656420776974686f7574206d657373616765416464726573733a206c6f772d6c6576656c2063616c6c20776974682076616c7565206661696c6564a2646970667358221220f042a9486e1fae8204cf0e49b665df781f7612e76260510928206546496d56a064736f6c63430008090033",
  "linkReferences": {},
  "deployedLinkReferences": {}
}