{
  "_format": "hh-sol-artifact-1",
  "contractName": "ERC721VotesMock",
  "sourceName": "contracts/openzeppelin-contracts/mocks/ERC721VotesMock.sol",
  "abi": [
    {
      "inputs": [
        {
          "internalType": "string",
          "name": "name",
          "type": "string"
        },
        {
          "internalType": "string",
          "name": "symbol",
          "type": "string"
        }
      ],
      "stateMutability": "nonpayable",
      "type": "constructor"
    },
    {
      "anonymous": false,
      "inputs": [
        {
          "indexed": true,
          "internalType": "address",
          "name": "owner",
          "type": "address"
        },
        {
          "indexed": true,
          "internalType": "address",
          "name": "approved",
          "type": "address"
        },
        {
          "indexed": true,
          "internalType": "uint256",
          "name": "tokenId",
          "type": "uint256"
        }
      ],
      "name": "Approval",
      "type": "event"
    },
    {
      "anonymous": false,
      "inputs": [
        {
          "indexed": true,
          "internalType": "address",
          "name": "owner",
          "type": "address"
        },
        {
          "indexed": true,
          "internalType": "address",
          "name": "operator",
          "type": "address"
        },
        {
          "indexed": false,
          "internalType": "bool",
          "name": "approved",
          "type": "bool"
        }
      ],
      "name": "ApprovalForAll",
      "type": "event"
    },
    {
      "anonymous": false,
      "inputs": [
        {
          "indexed": true,
          "internalType": "address",
          "name": "delegator",
          "type": "address"
        },
        {
          "indexed": true,
          "internalType": "address",
          "name": "fromDelegate",
          "type": "address"
        },
        {
          "indexed": true,
          "internalType": "address",
          "name": "toDelegate",
          "type": "address"
        }
      ],
      "name": "DelegateChanged",
      "type": "event"
    },
    {
      "anonymous": false,
      "inputs": [
        {
          "indexed": true,
          "internalType": "address",
          "name": "delegate",
          "type": "address"
        },
        {
          "indexed": false,
          "internalType": "uint256",
          "name": "previousBalance",
          "type": "uint256"
        },
        {
          "indexed": false,
          "internalType": "uint256",
          "name": "newBalance",
          "type": "uint256"
        }
      ],
      "name": "DelegateVotesChanged",
      "type": "event"
    },
    {
      "anonymous": false,
      "inputs": [
        {
          "indexed": true,
          "internalType": "address",
          "name": "from",
          "type": "address"
        },
        {
          "indexed": true,
          "internalType": "address",
          "name": "to",
          "type": "address"
        },
        {
          "indexed": true,
          "internalType": "uint256",
          "name": "tokenId",
          "type": "uint256"
        }
      ],
      "name": "Transfer",
      "type": "event"
    },
    {
      "inputs": [],
      "name": "DOMAIN_SEPARATOR",
      "outputs": [
        {
          "internalType": "bytes32",
          "name": "",
          "type": "bytes32"
        }
      ],
      "stateMutability": "view",
      "type": "function"
    },
    {
      "inputs": [
        {
          "internalType": "address",
          "name": "to",
          "type": "address"
        },
        {
          "internalType": "uint256",
          "name": "tokenId",
          "type": "uint256"
        }
      ],
      "name": "approve",
      "outputs": [],
      "stateMutability": "nonpayable",
      "type": "function"
    },
    {
      "inputs": [
        {
          "internalType": "address",
          "name": "owner",
          "type": "address"
        }
      ],
      "name": "balanceOf",
      "outputs": [
        {
          "internalType": "uint256",
          "name": "",
          "type": "uint256"
        }
      ],
      "stateMutability": "view",
      "type": "function"
    },
    {
      "inputs": [
        {
          "internalType": "uint256",
          "name": "tokenId",
          "type": "uint256"
        }
      ],
      "name": "burn",
      "outputs": [],
      "stateMutability": "nonpayable",
      "type": "function"
    },
    {
      "inputs": [
        {
          "internalType": "address",
          "name": "delegatee",
          "type": "address"
        }
      ],
      "name": "delegate",
      "outputs": [],
      "stateMutability": "nonpayable",
      "type": "function"
    },
    {
      "inputs": [
        {
          "internalType": "address",
          "name": "delegatee",
          "type": "address"
        },
        {
          "internalType": "uint256",
          "name": "nonce",
          "type": "uint256"
        },
        {
          "internalType": "uint256",
          "name": "expiry",
          "type": "uint256"
        },
        {
          "internalType": "uint8",
          "name": "v",
          "type": "uint8"
        },
        {
          "internalType": "bytes32",
          "name": "r",
          "type": "bytes32"
        },
        {
          "internalType": "bytes32",
          "name": "s",
          "type": "bytes32"
        }
      ],
      "name": "delegateBySig",
      "outputs": [],
      "stateMutability": "nonpayable",
      "type": "function"
    },
    {
      "inputs": [
        {
          "internalType": "address",
          "name": "account",
          "type": "address"
        }
      ],
      "name": "delegates",
      "outputs": [
        {
          "internalType": "address",
          "name": "",
          "type": "address"
        }
      ],
      "stateMutability": "view",
      "type": "function"
    },
    {
      "inputs": [
        {
          "internalType": "uint256",
          "name": "tokenId",
          "type": "uint256"
        }
      ],
      "name": "getApproved",
      "outputs": [
        {
          "internalType": "address",
          "name": "",
          "type": "address"
        }
      ],
      "stateMutability": "view",
      "type": "function"
    },
    {
      "inputs": [],
      "name": "getChainId",
      "outputs": [
        {
          "internalType": "uint256",
          "name": "",
          "type": "uint256"
        }
      ],
      "stateMutability": "view",
      "type": "function"
    },
    {
      "inputs": [
        {
          "internalType": "uint256",
          "name": "blockNumber",
          "type": "uint256"
        }
      ],
      "name": "getPastTotalSupply",
      "outputs": [
        {
          "internalType": "uint256",
          "name": "",
          "type": "uint256"
        }
      ],
      "stateMutability": "view",
      "type": "function"
    },
    {
      "inputs": [
        {
          "internalType": "address",
          "name": "account",
          "type": "address"
        },
        {
          "internalType": "uint256",
          "name": "blockNumber",
          "type": "uint256"
        }
      ],
      "name": "getPastVotes",
      "outputs": [
        {
          "internalType": "uint256",
          "name": "",
          "type": "uint256"
        }
      ],
      "stateMutability": "view",
      "type": "function"
    },
    {
      "inputs": [],
      "name": "getTotalSupply",
      "outputs": [
        {
          "internalType": "uint256",
          "name": "",
          "type": "uint256"
        }
      ],
      "stateMutability": "view",
      "type": "function"
    },
    {
      "inputs": [
        {
          "internalType": "address",
          "name": "account",
          "type": "address"
        }
      ],
      "name": "getVotes",
      "outputs": [
        {
          "internalType": "uint256",
          "name": "",
          "type": "uint256"
        }
      ],
      "stateMutability": "view",
      "type": "function"
    },
    {
      "inputs": [
        {
          "internalType": "address",
          "name": "owner",
          "type": "address"
        },
        {
          "internalType": "address",
          "name": "operator",
          "type": "address"
        }
      ],
      "name": "isApprovedForAll",
      "outputs": [
        {
          "internalType": "bool",
          "name": "",
          "type": "bool"
        }
      ],
      "stateMutability": "view",
      "type": "function"
    },
    {
      "inputs": [
        {
          "internalType": "address",
          "name": "account",
          "type": "address"
        },
        {
          "internalType": "uint256",
          "name": "tokenId",
          "type": "uint256"
        }
      ],
      "name": "mint",
      "outputs": [],
      "stateMutability": "nonpayable",
      "type": "function"
    },
    {
      "inputs": [],
      "name": "name",
      "outputs": [
        {
          "internalType": "string",
          "name": "",
          "type": "string"
        }
      ],
      "stateMutability": "view",
      "type": "function"
    },
    {
      "inputs": [
        {
          "internalType": "address",
          "name": "owner",
          "type": "address"
        }
      ],
      "name": "nonces",
      "outputs": [
        {
          "internalType": "uint256",
          "name": "",
          "type": "uint256"
        }
      ],
      "stateMutability": "view",
      "type": "function"
    },
    {
      "inputs": [
        {
          "internalType": "uint256",
          "name": "tokenId",
          "type": "uint256"
        }
      ],
      "name": "ownerOf",
      "outputs": [
        {
          "internalType": "address",
          "name": "",
          "type": "address"
        }
      ],
      "stateMutability": "view",
      "type": "function"
    },
    {
      "inputs": [
        {
          "internalType": "address",
          "name": "from",
          "type": "address"
        },
        {
          "internalType": "address",
          "name": "to",
          "type": "address"
        },
        {
          "internalType": "uint256",
          "name": "tokenId",
          "type": "uint256"
        }
      ],
      "name": "safeTransferFrom",
      "outputs": [],
      "stateMutability": "nonpayable",
      "type": "function"
    },
    {
      "inputs": [
        {
          "internalType": "address",
          "name": "from",
          "type": "address"
        },
        {
          "internalType": "address",
          "name": "to",
          "type": "address"
        },
        {
          "internalType": "uint256",
          "name": "tokenId",
          "type": "uint256"
        },
        {
          "internalType": "bytes",
          "name": "data",
          "type": "bytes"
        }
      ],
      "name": "safeTransferFrom",
      "outputs": [],
      "stateMutability": "nonpayable",
      "type": "function"
    },
    {
      "inputs": [
        {
          "internalType": "address",
          "name": "operator",
          "type": "address"
        },
        {
          "internalType": "bool",
          "name": "approved",
          "type": "bool"
        }
      ],
      "name": "setApprovalForAll",
      "outputs": [],
      "stateMutability": "nonpayable",
      "type": "function"
    },
    {
      "inputs": [
        {
          "internalType": "bytes4",
          "name": "interfaceId",
          "type": "bytes4"
        }
      ],
      "name": "supportsInterface",
      "outputs": [
        {
          "internalType": "bool",
          "name": "",
          "type": "bool"
        }
      ],
      "stateMutability": "view",
      "type": "function"
    },
    {
      "inputs": [],
      "name": "symbol",
      "outputs": [
        {
          "internalType": "string",
          "name": "",
          "type": "string"
        }
      ],
      "stateMutability": "view",
      "type": "function"
    },
    {
      "inputs": [
        {
          "internalType": "uint256",
          "name": "tokenId",
          "type": "uint256"
        }
      ],
      "name": "tokenURI",
      "outputs": [
        {
          "internalType": "string",
          "name": "",
          "type": "string"
        }
      ],
      "stateMutability": "view",
      "type": "function"
    },
    {
      "inputs": [
        {
          "internalType": "address",
          "name": "from",
          "type": "address"
        },
        {
          "internalType": "address",
          "name": "to",
          "type": "address"
        },
        {
          "internalType": "uint256",
          "name": "tokenId",
          "type": "uint256"
        }
      ],
      "name": "transferFrom",
      "outputs": [],
      "stateMutability": "nonpayable",
      "type": "function"
    }
  ],
  "bytecode": "0x6101406040523480156200001257600080fd5b5060405162004795380380620047958339818101604052810190620000389190620003e8565b816040518060400160405280600181526020017f310000000000000000000000000000000000000000000000000000000000000081525083838160009080519060200190620000899291906200019b565b508060019080519060200190620000a29291906200019b565b50505060008280519060200120905060008280519060200120905060007f8b73c3c69bb8fe3d512ecc4cf759cc79239f7b179b0ffacaa9a75d522b39400f90508260e081815250508161010081815250504660a081815250506200010e8184846200015f60201b60201c565b608081815250503073ffffffffffffffffffffffffffffffffffffffff1660c08173ffffffffffffffffffffffffffffffffffffffff168152505080610120818152505050505050505050620005aa565b600083838346306040516020016200017c959493929190620004e8565b6040516020818303038152906040528051906020012090509392505050565b828054620001a99062000574565b90600052602060002090601f016020900481019282620001cd576000855562000219565b82601f10620001e857805160ff191683800117855562000219565b8280016001018555821562000219579182015b8281111562000218578251825591602001919060010190620001fb565b5b5090506200022891906200022c565b5090565b5b80821115620002475760008160009055506001016200022d565b5090565b6000604051905090565b600080fd5b600080fd5b600080fd5b600080fd5b6000601f19601f8301169050919050565b7f4e487b7100000000000000000000000000000000000000000000000000000000600052604160045260246000fd5b620002b48262000269565b810181811067ffffffffffffffff82111715620002d657620002d56200027a565b5b80604052505050565b6000620002eb6200024b565b9050620002f98282620002a9565b919050565b600067ffffffffffffffff8211156200031c576200031b6200027a565b5b620003278262000269565b9050602081019050919050565b60005b838110156200035457808201518184015260208101905062000337565b8381111562000364576000848401525b50505050565b6000620003816200037b84620002fe565b620002df565b905082815260208101848484011115620003a0576200039f62000264565b5b620003ad84828562000334565b509392505050565b600082601f830112620003cd57620003cc6200025f565b5b8151620003df8482602086016200036a565b91505092915050565b6000806040838503121562000402576200040162000255565b5b600083015167ffffffffffffffff8111156200042357620004226200025a565b5b6200043185828601620003b5565b925050602083015167ffffffffffffffff8111156200045557620004546200025a565b5b6200046385828601620003b5565b9150509250929050565b6000819050919050565b62000482816200046d565b82525050565b6000819050919050565b6200049d8162000488565b82525050565b600073ffffffffffffffffffffffffffffffffffffffff82169050919050565b6000620004d082620004a3565b9050919050565b620004e281620004c3565b82525050565b600060a082019050620004ff600083018862000477565b6200050e602083018762000477565b6200051d604083018662000477565b6200052c606083018562000492565b6200053b6080830184620004d7565b9695505050505050565b7f4e487b7100000000000000000000000000000000000000000000000000000000600052602260045260246000fd5b600060028204905060018216806200058d57607f821691505b60208210811415620005a457620005a362000545565b5b50919050565b60805160a05160c05160e051610100516101205161419b620005fa60003960006114480152600061148a015260006114690152600061139e015260006113f40152600061141d015261419b6000f3fe608060405234801561001057600080fd5b50600436106101735760003560e01c80635c19a95c116100de5780639ab24eb011610097578063c3cda52011610071578063c3cda52014610480578063c4e41b221461049c578063c87b56dd146104ba578063e985e9c5146104ea57610173565b80639ab24eb014610418578063a22cb46514610448578063b88d4fde1461046457610173565b80635c19a95c1461031e5780636352211e1461033a57806370a082311461036a5780637ecebe001461039a5780638e539e8c146103ca57806395d89b41146103fa57610173565b80633644e515116101305780633644e5151461024c5780633a46b1a81461026a57806340c10f191461029a57806342842e0e146102b657806342966c68146102d2578063587cde1e146102ee57610173565b806301ffc9a71461017857806306fdde03146101a8578063081812fc146101c6578063095ea7b3146101f657806323b872dd146102125780633408e4701461022e575b600080fd5b610192600480360381019061018d9190612b1c565b61051a565b60405161019f9190612b64565b60405180910390f35b6101b06105fc565b6040516101bd9190612c18565b60405180910390f35b6101e060048036038101906101db9190612c70565b61068e565b6040516101ed9190612cde565b60405180910390f35b610210600480360381019061020b9190612d25565b6106d4565b005b61022c60048036038101906102279190612d65565b6107ec565b005b61023661084c565b6040516102439190612dc7565b60405180910390f35b610254610854565b6040516102619190612dfb565b60405180910390f35b610284600480360381019061027f9190612d25565b610863565b6040516102919190612dc7565b60405180910390f35b6102b460048036038101906102af9190612d25565b6108be565b005b6102d060048036038101906102cb9190612d65565b6108cc565b005b6102ec60048036038101906102e79190612c70565b6108ec565b005b61030860048036038101906103039190612e16565b6108f8565b6040516103159190612cde565b60405180910390f35b61033860048036038101906103339190612e16565b610961565b005b610354600480360381019061034f9190612c70565b61097b565b6040516103619190612cde565b60405180910390f35b610384600480360381019061037f9190612e16565b610a2d565b6040516103919190612dc7565b60405180910390f35b6103b460048036038101906103af9190612e16565b610ae5565b6040516103c19190612dc7565b60405180910390f35b6103e460048036038101906103df9190612c70565b610b35565b6040516103f19190612dc7565b60405180910390f35b610402610b94565b60405161040f9190612c18565b60405180910390f35b610432600480360381019061042d9190612e16565b610c26565b60405161043f9190612dc7565b60405180910390f35b610462600480360381019061045d9190612e6f565b610c76565b005b61047e60048036038101906104799190612fe4565b610c8c565b005b61049a600480360381019061049591906130cc565b610cee565b005b6104a4610df2565b6040516104b19190612dc7565b60405180910390f35b6104d460048036038101906104cf9190612c70565b610e01565b6040516104e19190612c18565b60405180910390f35b61050460048036038101906104ff9190613159565b610e69565b6040516105119190612b64565b60405180910390f35b60007f80ac58cd000000000000000000000000000000000000000000000000000000007bffffffffffffffffffffffffffffffffffffffffffffffffffffffff1916827bffffffffffffffffffffffffffffffffffffffffffffffffffffffff191614806105e557507f5b5e139f000000000000000000000000000000000000000000000000000000007bffffffffffffffffffffffffffffffffffffffffffffffffffffffff1916827bffffffffffffffffffffffffffffffffffffffffffffffffffffffff1916145b806105f557506105f482610efd565b5b9050919050565b60606000805461060b906131c8565b80601f0160208091040260200160405190810160405280929190818152602001828054610637906131c8565b80156106845780601f1061065957610100808354040283529160200191610684565b820191906000526020600020905b81548152906001019060200180831161066757829003601f168201915b5050505050905090565b600061069982610f67565b6004600083815260200190815260200160002060009054906101000a900473ffffffffffffffffffffffffffffffffffffffff169050919050565b60006106df8261097b565b90508073ffffffffffffffffffffffffffffffffffffffff168373ffffffffffffffffffffffffffffffffffffffff161415610750576040517f08c379a00000000000000000000000000000000000000000000000000000000081526004016107479061326c565b60405180910390fd5b8073ffffffffffffffffffffffffffffffffffffffff1661076f610fb2565b73ffffffffffffffffffffffffffffffffffffffff16148061079e575061079d81610798610fb2565b610e69565b5b6107dd576040517f08c379a00000000000000000000000000000000000000000000000000000000081526004016107d4906132fe565b60405180910390fd5b6107e78383610fba565b505050565b6107fd6107f7610fb2565b82611073565b61083c576040517f08c379a000000000000000000000000000000000000000000000000000000000815260040161083390613390565b60405180910390fd5b610847838383611108565b505050565b600046905090565b600061085e61139a565b905090565b60006108b682600760008673ffffffffffffffffffffffffffffffffffffffff1673ffffffffffffffffffffffffffffffffffffffff1681526020019081526020016000206114b490919063ffffffff16565b905092915050565b6108c8828261160c565b5050565b6108e783838360405180602001604052806000815250610c8c565b505050565b6108f5816117e6565b50565b6000600660008373ffffffffffffffffffffffffffffffffffffffff1673ffffffffffffffffffffffffffffffffffffffff16815260200190815260200160002060009054906101000a900473ffffffffffffffffffffffffffffffffffffffff169050919050565b600061096b610fb2565b9050610977818361192e565b5050565b6000806002600084815260200190815260200160002060009054906101000a900473ffffffffffffffffffffffffffffffffffffffff169050600073ffffffffffffffffffffffffffffffffffffffff168173ffffffffffffffffffffffffffffffffffffffff161415610a24576040517f08c379a0000000000000000000000000000000000000000000000000000000008152600401610a1b906133fc565b60405180910390fd5b80915050919050565b60008073ffffffffffffffffffffffffffffffffffffffff168273ffffffffffffffffffffffffffffffffffffffff161415610a9e576040517f08c379a0000000000000000000000000000000000000000000000000000000008152600401610a959061348e565b60405180910390fd5b600360008373ffffffffffffffffffffffffffffffffffffffff1673ffffffffffffffffffffffffffffffffffffffff168152602001908152602001600020549050919050565b6000610b2e600960008473ffffffffffffffffffffffffffffffffffffffff1673ffffffffffffffffffffffffffffffffffffffff168152602001908152602001600020611a42565b9050919050565b6000438210610b79576040517f08c379a0000000000000000000000000000000000000000000000000000000008152600401610b70906134fa565b60405180910390fd5b610b8d8260086114b490919063ffffffff16565b9050919050565b606060018054610ba3906131c8565b80601f0160208091040260200160405190810160405280929190818152602001828054610bcf906131c8565b8015610c1c5780601f10610bf157610100808354040283529160200191610c1c565b820191906000526020600020905b815481529060010190602001808311610bff57829003601f168201915b5050505050905090565b6000610c6f600760008473ffffffffffffffffffffffffffffffffffffffff1673ffffffffffffffffffffffffffffffffffffffff168152602001908152602001600020611a50565b9050919050565b610c88610c81610fb2565b8383611aeb565b5050565b610c9d610c97610fb2565b83611073565b610cdc576040517f08c379a0000000000000000000000000000000000000000000000000000000008152600401610cd390613390565b60405180910390fd5b610ce884848484611c58565b50505050565b83421115610d31576040517f08c379a0000000000000000000000000000000000000000000000000000000008152600401610d2890613566565b60405180910390fd5b6000610d93610d8b7fe48329057bfd03d55e49b547132e39cffd9c1820ad7b9d4c5307691425d15adf898989604051602001610d709493929190613586565b60405160208183030381529060405280519060200120611cb4565b858585611cce565b9050610d9e81611cf9565b8614610ddf576040517f08c379a0000000000000000000000000000000000000000000000000000000008152600401610dd690613617565b60405180910390fd5b610de9818861192e565b50505050505050565b6000610dfc611d57565b905090565b6060610e0c82610f67565b6000610e16611d68565b90506000815111610e365760405180602001604052806000815250610e61565b80610e4084611d7f565b604051602001610e51929190613673565b6040516020818303038152906040525b915050919050565b6000600560008473ffffffffffffffffffffffffffffffffffffffff1673ffffffffffffffffffffffffffffffffffffffff16815260200190815260200160002060008373ffffffffffffffffffffffffffffffffffffffff1673ffffffffffffffffffffffffffffffffffffffff16815260200190815260200160002060009054906101000a900460ff16905092915050565b60007f01ffc9a7000000000000000000000000000000000000000000000000000000007bffffffffffffffffffffffffffffffffffffffffffffffffffffffff1916827bffffffffffffffffffffffffffffffffffffffffffffffffffffffff1916149050919050565b610f7081611ee0565b610faf576040517f08c379a0000000000000000000000000000000000000000000000000000000008152600401610fa6906133fc565b60405180910390fd5b50565b600033905090565b816004600083815260200190815260200160002060006101000a81548173ffffffffffffffffffffffffffffffffffffffff021916908373ffffffffffffffffffffffffffffffffffffffff160217905550808273ffffffffffffffffffffffffffffffffffffffff1661102d8361097b565b73ffffffffffffffffffffffffffffffffffffffff167f8c5be1e5ebec7d5bd14f71427d1e84f3dd0314c0f7b2291e5b200ac8c7c3b92560405160405180910390a45050565b60008061107f8361097b565b90508073ffffffffffffffffffffffffffffffffffffffff168473ffffffffffffffffffffffffffffffffffffffff1614806110c157506110c08185610e69565b5b806110ff57508373ffffffffffffffffffffffffffffffffffffffff166110e78461068e565b73ffffffffffffffffffffffffffffffffffffffff16145b91505092915050565b8273ffffffffffffffffffffffffffffffffffffffff166111288261097b565b73ffffffffffffffffffffffffffffffffffffffff161461117e576040517f08c379a000000000000000000000000000000000000000000000000000000000815260040161117590613709565b60405180910390fd5b600073ffffffffffffffffffffffffffffffffffffffff168273ffffffffffffffffffffffffffffffffffffffff1614156111ee576040517f08c379a00000000000000000000000000000000000000000000000000000000081526004016111e59061379b565b60405180910390fd5b6111f9838383611f4c565b6004600082815260200190815260200160002060006101000a81549073ffffffffffffffffffffffffffffffffffffffff02191690556001600360008573ffffffffffffffffffffffffffffffffffffffff1673ffffffffffffffffffffffffffffffffffffffff168152602001908152602001600020600082825461127f91906137ea565b925050819055506001600360008473ffffffffffffffffffffffffffffffffffffffff1673ffffffffffffffffffffffffffffffffffffffff16815260200190815260200160002060008282546112d6919061381e565b92505081905550816002600083815260200190815260200160002060006101000a81548173ffffffffffffffffffffffffffffffffffffffff021916908373ffffffffffffffffffffffffffffffffffffffff160217905550808273ffffffffffffffffffffffffffffffffffffffff168473ffffffffffffffffffffffffffffffffffffffff167fddf252ad1be2c89b69c2b068fc378daa952ba7f163c4a11628f55a4df523b3ef60405160405180910390a4611395838383611f51565b505050565b60007f000000000000000000000000000000000000000000000000000000000000000073ffffffffffffffffffffffffffffffffffffffff163073ffffffffffffffffffffffffffffffffffffffff1614801561141657507f000000000000000000000000000000000000000000000000000000000000000046145b15611443577f000000000000000000000000000000000000000000000000000000000000000090506114b1565b6114ae7f00000000000000000000000000000000000000000000000000000000000000007f00000000000000000000000000000000000000000000000000000000000000007f0000000000000000000000000000000000000000000000000000000000000000611f6d565b90505b90565b60004382106114f8576040517f08c379a00000000000000000000000000000000000000000000000000000000081526004016114ef906138c0565b60405180910390fd5b60008360000180549050905060005b8181101561157c57600061151b8284611fa7565b905084866000018281548110611534576115336138e0565b5b9060005260206000200160000160009054906101000a900463ffffffff1663ffffffff16111561156657809250611576565b600181611573919061381e565b91505b50611507565b600082146115e1578460000160018361159591906137ea565b815481106115a6576115a56138e0565b5b9060005260206000200160000160049054906101000a90047bffffffffffffffffffffffffffffffffffffffffffffffffffffffff166115e4565b60005b7bffffffffffffffffffffffffffffffffffffffffffffffffffffffff169250505092915050565b600073ffffffffffffffffffffffffffffffffffffffff168273ffffffffffffffffffffffffffffffffffffffff16141561167c576040517f08c379a00000000000000000000000000000000000000000000000000000000081526004016116739061395b565b60405180910390fd5b61168581611ee0565b156116c5576040517f08c379a00000000000000000000000000000000000000000000000000000000081526004016116bc906139c7565b60405180910390fd5b6116d160008383611f4c565b6001600360008473ffffffffffffffffffffffffffffffffffffffff1673ffffffffffffffffffffffffffffffffffffffff1681526020019081526020016000206000828254611721919061381e565b92505081905550816002600083815260200190815260200160002060006101000a81548173ffffffffffffffffffffffffffffffffffffffff021916908373ffffffffffffffffffffffffffffffffffffffff160217905550808273ffffffffffffffffffffffffffffffffffffffff16600073ffffffffffffffffffffffffffffffffffffffff167fddf252ad1be2c89b69c2b068fc378daa952ba7f163c4a11628f55a4df523b3ef60405160405180910390a46117e260008383611f51565b5050565b60006117f18261097b565b90506117ff81600084611f4c565b6004600083815260200190815260200160002060006101000a81549073ffffffffffffffffffffffffffffffffffffffff02191690556001600360008373ffffffffffffffffffffffffffffffffffffffff1673ffffffffffffffffffffffffffffffffffffffff168152602001908152602001600020600082825461188591906137ea565b925050819055506002600083815260200190815260200160002060006101000a81549073ffffffffffffffffffffffffffffffffffffffff021916905581600073ffffffffffffffffffffffffffffffffffffffff168273ffffffffffffffffffffffffffffffffffffffff167fddf252ad1be2c89b69c2b068fc378daa952ba7f163c4a11628f55a4df523b3ef60405160405180910390a461192a81600084611f51565b5050565b6000611939836108f8565b905081600660008573ffffffffffffffffffffffffffffffffffffffff1673ffffffffffffffffffffffffffffffffffffffff16815260200190815260200160002060006101000a81548173ffffffffffffffffffffffffffffffffffffffff021916908373ffffffffffffffffffffffffffffffffffffffff1602179055508173ffffffffffffffffffffffffffffffffffffffff168173ffffffffffffffffffffffffffffffffffffffff168473ffffffffffffffffffffffffffffffffffffffff167f3134e8a2e6d97e929a7e54011ea5485d7d196dd5f0ba4d4ef95803e8e3fc257f60405160405180910390a4611a3d8183611a3886611fcd565b611fdf565b505050565b600081600001549050919050565b6000808260000180549050905060008114611ac25782600001600182611a7691906137ea565b81548110611a8757611a866138e0565b5b9060005260206000200160000160049054906101000a90047bffffffffffffffffffffffffffffffffffffffffffffffffffffffff16611ac5565b60005b7bffffffffffffffffffffffffffffffffffffffffffffffffffffffff16915050919050565b8173ffffffffffffffffffffffffffffffffffffffff168373ffffffffffffffffffffffffffffffffffffffff161415611b5a576040517f08c379a0000000000000000000000000000000000000000000000000000000008152600401611b5190613a33565b60405180910390fd5b80600560008573ffffffffffffffffffffffffffffffffffffffff1673ffffffffffffffffffffffffffffffffffffffff16815260200190815260200160002060008473ffffffffffffffffffffffffffffffffffffffff1673ffffffffffffffffffffffffffffffffffffffff16815260200190815260200160002060006101000a81548160ff0219169083151502179055508173ffffffffffffffffffffffffffffffffffffffff168373ffffffffffffffffffffffffffffffffffffffff167f17307eab39ab6107e8899845ad3d59bd9653f200f220920489ca2b5937696c3183604051611c4b9190612b64565b60405180910390a3505050565b611c63848484611108565b611c6f848484846121ec565b611cae576040517f08c379a0000000000000000000000000000000000000000000000000000000008152600401611ca590613ac5565b60405180910390fd5b50505050565b6000611cc7611cc161139a565b83612383565b9050919050565b6000806000611cdf878787876123b6565b91509150611cec816124c3565b8192505050949350505050565b600080600960008473ffffffffffffffffffffffffffffffffffffffff1673ffffffffffffffffffffffffffffffffffffffff1681526020019081526020016000209050611d4681611a42565b9150611d5181612698565b50919050565b6000611d636008611a50565b905090565b606060405180602001604052806000815250905090565b60606000821415611dc7576040518060400160405280600181526020017f30000000000000000000000000000000000000000000000000000000000000008152509050611edb565b600082905060005b60008214611df9578080611de290613ae5565b915050600a82611df29190613b5d565b9150611dcf565b60008167ffffffffffffffff811115611e1557611e14612eb9565b5b6040519080825280601f01601f191660200182016040528015611e475781602001600182028036833780820191505090505b5090505b60008514611ed457600182611e6091906137ea565b9150600a85611e6f9190613b8e565b6030611e7b919061381e565b60f81b818381518110611e9157611e906138e0565b5b60200101907effffffffffffffffffffffffffffffffffffffffffffffffffffffffffffff1916908160001a905350600a85611ecd9190613b5d565b9450611e4b565b8093505050505b919050565b60008073ffffffffffffffffffffffffffffffffffffffff166002600084815260200190815260200160002060009054906101000a900473ffffffffffffffffffffffffffffffffffffffff1673ffffffffffffffffffffffffffffffffffffffff1614159050919050565b505050565b611f5d838360016126ae565b611f6883838361276e565b505050565b60008383834630604051602001611f88959493929190613bbf565b6040516020818303038152906040528051906020012090509392505050565b60006002828418611fb89190613b5d565b828416611fc5919061381e565b905092915050565b6000611fd882610a2d565b9050919050565b8173ffffffffffffffffffffffffffffffffffffffff168373ffffffffffffffffffffffffffffffffffffffff161415801561201b5750600081115b156121e757600073ffffffffffffffffffffffffffffffffffffffff168373ffffffffffffffffffffffffffffffffffffffff1614612103576000806120ac61277384600760008973ffffffffffffffffffffffffffffffffffffffff1673ffffffffffffffffffffffffffffffffffffffff1681526020019081526020016000206127899092919063ffffffff16565b915091508473ffffffffffffffffffffffffffffffffffffffff167fdec2bacdd2f05b59de34da9b523dff8be42e5e38e818c82fdb0bae774387a72483836040516120f8929190613c12565b60405180910390a250505b600073ffffffffffffffffffffffffffffffffffffffff168273ffffffffffffffffffffffffffffffffffffffff16146121e65760008061218f6127b784600760008873ffffffffffffffffffffffffffffffffffffffff1673ffffffffffffffffffffffffffffffffffffffff1681526020019081526020016000206127899092919063ffffffff16565b915091508373ffffffffffffffffffffffffffffffffffffffff167fdec2bacdd2f05b59de34da9b523dff8be42e5e38e818c82fdb0bae774387a72483836040516121db929190613c12565b60405180910390a250505b5b505050565b600061220d8473ffffffffffffffffffffffffffffffffffffffff166127cd565b15612376578373ffffffffffffffffffffffffffffffffffffffff1663150b7a02612236610fb2565b8786866040518563ffffffff1660e01b81526004016122589493929190613c90565b602060405180830381600087803b15801561227257600080fd5b505af19250505080156122a357506040513d601f19601f820116820180604052508101906122a09190613cf1565b60015b612326573d80600081146122d3576040519150601f19603f3d011682016040523d82523d6000602084013e6122d8565b606091505b5060008151141561231e576040517f08c379a000000000000000000000000000000000000000000000000000000000815260040161231590613ac5565b60405180910390fd5b805181602001fd5b63150b7a0260e01b7bffffffffffffffffffffffffffffffffffffffffffffffffffffffff1916817bffffffffffffffffffffffffffffffffffffffffffffffffffffffff19161491505061237b565b600190505b949350505050565b60008282604051602001612398929190613d8b565b60405160208183030381529060405280519060200120905092915050565b6000807f7fffffffffffffffffffffffffffffff5d576e7357a4501ddfe92f46681b20a08360001c11156123f15760006003915091506124ba565b601b8560ff16141580156124095750601c8560ff1614155b1561241b5760006004915091506124ba565b6000600187878787604051600081526020016040526040516124409493929190613dd1565b6020604051602081039080840390855afa158015612462573d6000803e3d6000fd5b505050602060405103519050600073ffffffffffffffffffffffffffffffffffffffff168173ffffffffffffffffffffffffffffffffffffffff1614156124b1576000600192509250506124ba565b80600092509250505b94509492505050565b600060048111156124d7576124d6613e16565b5b8160048111156124ea576124e9613e16565b5b14156124f557612695565b6001600481111561250957612508613e16565b5b81600481111561251c5761251b613e16565b5b141561255d576040517f08c379a000000000000000000000000000000000000000000000000000000000815260040161255490613e91565b60405180910390fd5b6002600481111561257157612570613e16565b5b81600481111561258457612583613e16565b5b14156125c5576040517f08c379a00000000000000000000000000000000000000000000000000000000081526004016125bc90613efd565b60405180910390fd5b600360048111156125d9576125d8613e16565b5b8160048111156125ec576125eb613e16565b5b141561262d576040517f08c379a000000000000000000000000000000000000000000000000000000000815260040161262490613f8f565b60405180910390fd5b6004808111156126405761263f613e16565b5b81600481111561265357612652613e16565b5b1415612694576040517f08c379a000000000000000000000000000000000000000000000000000000000815260040161268b90614021565b60405180910390fd5b5b50565b6001816000016000828254019250508190555050565b600073ffffffffffffffffffffffffffffffffffffffff168373ffffffffffffffffffffffffffffffffffffffff1614156126fe576126fb6127b78260086127899092919063ffffffff16565b50505b600073ffffffffffffffffffffffffffffffffffffffff168273ffffffffffffffffffffffffffffffffffffffff16141561274e5761274b6127738260086127899092919063ffffffff16565b50505b61276961275a846108f8565b612763846108f8565b83611fdf565b505050565b505050565b6000818361278191906137ea565b905092915050565b6000806127ab856127a661279c88611a50565b868863ffffffff16565b6127f0565b91509150935093915050565b600081836127c5919061381e565b905092915050565b6000808273ffffffffffffffffffffffffffffffffffffffff163b119050919050565b600080600084600001805490509050600061280a86611a50565b90506000821180156128605750438660000160018461282991906137ea565b8154811061283a576128396138e0565b5b9060005260206000200160000160009054906101000a900463ffffffff1663ffffffff16145b156128f05761286e856129f2565b8660000160018461287f91906137ea565b815481106128905761288f6138e0565b5b9060005260206000200160000160046101000a8154817bffffffffffffffffffffffffffffffffffffffffffffffffffffffff02191690837bffffffffffffffffffffffffffffffffffffffffffffffffffffffff1602179055506129e3565b85600001604051806040016040528061290843612a5d565b63ffffffff16815260200161291c886129f2565b7bffffffffffffffffffffffffffffffffffffffffffffffffffffffff168152509080600181540180825580915050600190039060005260206000200160009091909190915060008201518160000160006101000a81548163ffffffff021916908363ffffffff16021790555060208201518160000160046101000a8154817bffffffffffffffffffffffffffffffffffffffffffffffffffffffff02191690837bffffffffffffffffffffffffffffffffffffffffffffffffffffffff16021790555050505b80859350935050509250929050565b60007bffffffffffffffffffffffffffffffffffffffffffffffffffffffff8016821115612a55576040517f08c379a0000000000000000000000000000000000000000000000000000000008152600401612a4c906140b3565b60405180910390fd5b819050919050565b600063ffffffff8016821115612aa8576040517f08c379a0000000000000000000000000000000000000000000000000000000008152600401612a9f90614145565b60405180910390fd5b819050919050565b6000604051905090565b600080fd5b600080fd5b60007fffffffff0000000000000000000000000000000000000000000000000000000082169050919050565b612af981612ac4565b8114612b0457600080fd5b50565b600081359050612b1681612af0565b92915050565b600060208284031215612b3257612b31612aba565b5b6000612b4084828501612b07565b91505092915050565b60008115159050919050565b612b5e81612b49565b82525050565b6000602082019050612b796000830184612b55565b92915050565b600081519050919050565b600082825260208201905092915050565b60005b83811015612bb9578082015181840152602081019050612b9e565b83811115612bc8576000848401525b50505050565b6000601f19601f8301169050919050565b6000612bea82612b7f565b612bf48185612b8a565b9350612c04818560208601612b9b565b612c0d81612bce565b840191505092915050565b60006020820190508181036000830152612c328184612bdf565b905092915050565b6000819050919050565b612c4d81612c3a565b8114612c5857600080fd5b50565b600081359050612c6a81612c44565b92915050565b600060208284031215612c8657612c85612aba565b5b6000612c9484828501612c5b565b91505092915050565b600073ffffffffffffffffffffffffffffffffffffffff82169050919050565b6000612cc882612c9d565b9050919050565b612cd881612cbd565b82525050565b6000602082019050612cf36000830184612ccf565b92915050565b612d0281612cbd565b8114612d0d57600080fd5b50565b600081359050612d1f81612cf9565b92915050565b60008060408385031215612d3c57612d3b612aba565b5b6000612d4a85828601612d10565b9250506020612d5b85828601612c5b565b9150509250929050565b600080600060608486031215612d7e57612d7d612aba565b5b6000612d8c86828701612d10565b9350506020612d9d86828701612d10565b9250506040612dae86828701612c5b565b9150509250925092565b612dc181612c3a565b82525050565b6000602082019050612ddc6000830184612db8565b92915050565b6000819050919050565b612df581612de2565b82525050565b6000602082019050612e106000830184612dec565b92915050565b600060208284031215612e2c57612e2b612aba565b5b6000612e3a84828501612d10565b91505092915050565b612e4c81612b49565b8114612e5757600080fd5b50565b600081359050612e6981612e43565b92915050565b60008060408385031215612e8657612e85612aba565b5b6000612e9485828601612d10565b9250506020612ea585828601612e5a565b9150509250929050565b600080fd5b600080fd5b7f4e487b7100000000000000000000000000000000000000000000000000000000600052604160045260246000fd5b612ef182612bce565b810181811067ffffffffffffffff82111715612f1057612f0f612eb9565b5b80604052505050565b6000612f23612ab0565b9050612f2f8282612ee8565b919050565b600067ffffffffffffffff821115612f4f57612f4e612eb9565b5b612f5882612bce565b9050602081019050919050565b82818337600083830152505050565b6000612f87612f8284612f34565b612f19565b905082815260208101848484011115612fa357612fa2612eb4565b5b612fae848285612f65565b509392505050565b600082601f830112612fcb57612fca612eaf565b5b8135612fdb848260208601612f74565b91505092915050565b60008060008060808587031215612ffe57612ffd612aba565b5b600061300c87828801612d10565b945050602061301d87828801612d10565b935050604061302e87828801612c5b565b925050606085013567ffffffffffffffff81111561304f5761304e612abf565b5b61305b87828801612fb6565b91505092959194509250565b600060ff82169050919050565b61307d81613067565b811461308857600080fd5b50565b60008135905061309a81613074565b92915050565b6130a981612de2565b81146130b457600080fd5b50565b6000813590506130c6816130a0565b92915050565b60008060008060008060c087890312156130e9576130e8612aba565b5b60006130f789828a01612d10565b965050602061310889828a01612c5b565b955050604061311989828a01612c5b565b945050606061312a89828a0161308b565b935050608061313b89828a016130b7565b92505060a061314c89828a016130b7565b9150509295509295509295565b600080604083850312156131705761316f612aba565b5b600061317e85828601612d10565b925050602061318f85828601612d10565b9150509250929050565b7f4e487b7100000000000000000000000000000000000000000000000000000000600052602260045260246000fd5b600060028204905060018216806131e057607f821691505b602082108114156131f4576131f3613199565b5b50919050565b7f4552433732313a20617070726f76616c20746f2063757272656e74206f776e6560008201527f7200000000000000000000000000000000000000000000000000000000000000602082015250565b6000613256602183612b8a565b9150613261826131fa565b604082019050919050565b6000602082019050818103600083015261328581613249565b9050919050565b7f4552433732313a20617070726f76652063616c6c6572206973206e6f7420746f60008201527f6b656e206f776e6572206e6f7220617070726f76656420666f7220616c6c0000602082015250565b60006132e8603e83612b8a565b91506132f38261328c565b604082019050919050565b60006020820190508181036000830152613317816132db565b9050919050565b7f4552433732313a2063616c6c6572206973206e6f7420746f6b656e206f776e6560008201527f72206e6f7220617070726f766564000000000000000000000000000000000000602082015250565b600061337a602e83612b8a565b91506133858261331e565b604082019050919050565b600060208201905081810360008301526133a98161336d565b9050919050565b7f4552433732313a20696e76616c696420746f6b656e2049440000000000000000600082015250565b60006133e6601883612b8a565b91506133f1826133b0565b602082019050919050565b60006020820190508181036000830152613415816133d9565b9050919050565b7f4552433732313a2061646472657373207a65726f206973206e6f74206120766160008201527f6c6964206f776e65720000000000000000000000000000000000000000000000602082015250565b6000613478602983612b8a565b91506134838261341c565b604082019050919050565b600060208201905081810360008301526134a78161346b565b9050919050565b7f566f7465733a20626c6f636b206e6f7420796574206d696e6564000000000000600082015250565b60006134e4601a83612b8a565b91506134ef826134ae565b602082019050919050565b60006020820190508181036000830152613513816134d7565b9050919050565b7f566f7465733a207369676e617475726520657870697265640000000000000000600082015250565b6000613550601883612b8a565b915061355b8261351a565b602082019050919050565b6000602082019050818103600083015261357f81613543565b9050919050565b600060808201905061359b6000830187612dec565b6135a86020830186612ccf565b6135b56040830185612db8565b6135c26060830184612db8565b95945050505050565b7f566f7465733a20696e76616c6964206e6f6e6365000000000000000000000000600082015250565b6000613601601483612b8a565b915061360c826135cb565b602082019050919050565b60006020820190508181036000830152613630816135f4565b9050919050565b600081905092915050565b600061364d82612b7f565b6136578185613637565b9350613667818560208601612b9b565b80840191505092915050565b600061367f8285613642565b915061368b8284613642565b91508190509392505050565b7f4552433732313a207472616e736665722066726f6d20696e636f72726563742060008201527f6f776e6572000000000000000000000000000000000000000000000000000000602082015250565b60006136f3602583612b8a565b91506136fe82613697565b604082019050919050565b60006020820190508181036000830152613722816136e6565b9050919050565b7f4552433732313a207472616e7366657220746f20746865207a65726f2061646460008201527f7265737300000000000000000000000000000000000000000000000000000000602082015250565b6000613785602483612b8a565b915061379082613729565b604082019050919050565b600060208201905081810360008301526137b481613778565b9050919050565b7f4e487b7100000000000000000000000000000000000000000000000000000000600052601160045260246000fd5b60006137f582612c3a565b915061380083612c3a565b925082821015613813576138126137bb565b5b828203905092915050565b600061382982612c3a565b915061383483612c3a565b9250827fffffffffffffffffffffffffffffffffffffffffffffffffffffffffffffffff03821115613869576138686137bb565b5b828201905092915050565b7f436865636b706f696e74733a20626c6f636b206e6f7420796574206d696e6564600082015250565b60006138aa602083612b8a565b91506138b582613874565b602082019050919050565b600060208201905081810360008301526138d98161389d565b9050919050565b7f4e487b7100000000000000000000000000000000000000000000000000000000600052603260045260246000fd5b7f4552433732313a206d696e7420746f20746865207a65726f2061646472657373600082015250565b6000613945602083612b8a565b91506139508261390f565b602082019050919050565b6000602082019050818103600083015261397481613938565b9050919050565b7f4552433732313a20746f6b656e20616c7265616479206d696e74656400000000600082015250565b60006139b1601c83612b8a565b91506139bc8261397b565b602082019050919050565b600060208201905081810360008301526139e0816139a4565b9050919050565b7f4552433732313a20617070726f766520746f2063616c6c657200000000000000600082015250565b6000613a1d601983612b8a565b9150613a28826139e7565b602082019050919050565b60006020820190508181036000830152613a4c81613a10565b9050919050565b7f4552433732313a207472616e7366657220746f206e6f6e20455243373231526560008201527f63656976657220696d706c656d656e7465720000000000000000000000000000602082015250565b6000613aaf603283612b8a565b9150613aba82613a53565b604082019050919050565b60006020820190508181036000830152613ade81613aa2565b9050919050565b6000613af082612c3a565b91507fffffffffffffffffffffffffffffffffffffffffffffffffffffffffffffffff821415613b2357613b226137bb565b5b600182019050919050565b7f4e487b7100000000000000000000000000000000000000000000000000000000600052601260045260246000fd5b6000613b6882612c3a565b9150613b7383612c3a565b925082613b8357613b82613b2e565b5b828204905092915050565b6000613b9982612c3a565b9150613ba483612c3a565b925082613bb457613bb3613b2e565b5b828206905092915050565b600060a082019050613bd46000830188612dec565b613be16020830187612dec565b613bee6040830186612dec565b613bfb6060830185612db8565b613c086080830184612ccf565b9695505050505050565b6000604082019050613c276000830185612db8565b613c346020830184612db8565b9392505050565b600081519050919050565b600082825260208201905092915050565b6000613c6282613c3b565b613c6c8185613c46565b9350613c7c818560208601612b9b565b613c8581612bce565b840191505092915050565b6000608082019050613ca56000830187612ccf565b613cb26020830186612ccf565b613cbf6040830185612db8565b8181036060830152613cd18184613c57565b905095945050505050565b600081519050613ceb81612af0565b92915050565b600060208284031215613d0757613d06612aba565b5b6000613d1584828501613cdc565b91505092915050565b7f1901000000000000000000000000000000000000000000000000000000000000600082015250565b6000613d54600283613637565b9150613d5f82613d1e565b600282019050919050565b6000819050919050565b613d85613d8082612de2565b613d6a565b82525050565b6000613d9682613d47565b9150613da28285613d74565b602082019150613db28284613d74565b6020820191508190509392505050565b613dcb81613067565b82525050565b6000608082019050613de66000830187612dec565b613df36020830186613dc2565b613e006040830185612dec565b613e0d6060830184612dec565b95945050505050565b7f4e487b7100000000000000000000000000000000000000000000000000000000600052602160045260246000fd5b7f45434453413a20696e76616c6964207369676e61747572650000000000000000600082015250565b6000613e7b601883612b8a565b9150613e8682613e45565b602082019050919050565b60006020820190508181036000830152613eaa81613e6e565b9050919050565b7f45434453413a20696e76616c6964207369676e6174757265206c656e67746800600082015250565b6000613ee7601f83612b8a565b9150613ef282613eb1565b602082019050919050565b60006020820190508181036000830152613f1681613eda565b9050919050565b7f45434453413a20696e76616c6964207369676e6174757265202773272076616c60008201527f7565000000000000000000000000000000000000000000000000000000000000602082015250565b6000613f79602283612b8a565b9150613f8482613f1d565b604082019050919050565b60006020820190508181036000830152613fa881613f6c565b9050919050565b7f45434453413a20696e76616c6964207369676e6174757265202776272076616c60008201527f7565000000000000000000000000000000000000000000000000000000000000602082015250565b600061400b602283612b8a565b915061401682613faf565b604082019050919050565b6000602082019050818103600083015261403a81613ffe565b9050919050565b7f53616665436173743a2076616c756520646f65736e27742066697420696e203260008201527f3234206269747300000000000000000000000000000000000000000000000000602082015250565b600061409d602783612b8a565b91506140a882614041565b604082019050919050565b600060208201905081810360008301526140cc81614090565b9050919050565b7f53616665436173743a2076616c756520646f65736e27742066697420696e203360008201527f3220626974730000000000000000000000000000000000000000000000000000602082015250565b600061412f602683612b8a565b915061413a826140d3565b604082019050919050565b6000602082019050818103600083015261415e81614122565b905091905056fea2646970667358221220f1bbb55d3d7909e82c18053d3203efe8a2384818b0c0dca49545e5d89ce5a2e564736f6c63430008090033",
  "linkReferences": {},
  "deployedLinkReferences": {}
}