{
  "_format": "hh-sol-artifact-1",
  "contractName": "ERC20PermitMock",
  "sourceName": "contracts/openzeppelin-contracts/mocks/ERC20PermitMock.sol",
  "abi": [
    {
      "inputs": [
        {
          "internalType": "string",
          "name": "name",
          "type": "string"
        },
        {
          "internalType": "string",
          "name": "symbol",
          "type": "string"
        },
        {
          "internalType": "address",
          "name": "initialAccount",
          "type": "address"
        },
        {
          "internalType": "uint256",
          "name": "initialBalance",
          "type": "uint256"
        }
      ],
      "stateMutability": "payable",
      "type": "constructor"
    },
    {
      "anonymous": false,
      "inputs": [
        {
          "indexed": true,
          "internalType": "address",
          "name": "owner",
          "type": "address"
        },
        {
          "indexed": true,
          "internalType": "address",
          "name": "spender",
          "type": "address"
        },
        {
          "indexed": false,
          "internalType": "uint256",
          "name": "value",
          "type": "uint256"
        }
      ],
      "name": "Approval",
      "type": "event"
    },
    {
      "anonymous": false,
      "inputs": [
        {
          "indexed": true,
          "internalType": "address",
          "name": "from",
          "type": "address"
        },
        {
          "indexed": true,
          "internalType": "address",
          "name": "to",
          "type": "address"
        },
        {
          "indexed": false,
          "internalType": "uint256",
          "name": "value",
          "type": "uint256"
        }
      ],
      "name": "Transfer",
      "type": "event"
    },
    {
      "inputs": [],
      "name": "DOMAIN_SEPARATOR",
      "outputs": [
        {
          "internalType": "bytes32",
          "name": "",
          "type": "bytes32"
        }
      ],
      "stateMutability": "view",
      "type": "function"
    },
    {
      "inputs": [
        {
          "internalType": "address",
          "name": "owner",
          "type": "address"
        },
        {
          "internalType": "address",
          "name": "spender",
          "type": "address"
        }
      ],
      "name": "allowance",
      "outputs": [
        {
          "internalType": "uint256",
          "name": "",
          "type": "uint256"
        }
      ],
      "stateMutability": "view",
      "type": "function"
    },
    {
      "inputs": [
        {
          "internalType": "address",
          "name": "spender",
          "type": "address"
        },
        {
          "internalType": "uint256",
          "name": "amount",
          "type": "uint256"
        }
      ],
      "name": "approve",
      "outputs": [
        {
          "internalType": "bool",
          "name": "",
          "type": "bool"
        }
      ],
      "stateMutability": "nonpayable",
      "type": "function"
    },
    {
      "inputs": [
        {
          "internalType": "address",
          "name": "account",
          "type": "address"
        }
      ],
      "name": "balanceOf",
      "outputs": [
        {
          "internalType": "uint256",
          "name": "",
          "type": "uint256"
        }
      ],
      "stateMutability": "view",
      "type": "function"
    },
    {
      "inputs": [],
      "name": "decimals",
      "outputs": [
        {
          "internalType": "uint8",
          "name": "",
          "type": "uint8"
        }
      ],
      "stateMutability": "view",
      "type": "function"
    },
    {
      "inputs": [
        {
          "internalType": "address",
          "name": "spender",
          "type": "address"
        },
        {
          "internalType": "uint256",
          "name": "subtractedValue",
          "type": "uint256"
        }
      ],
      "name": "decreaseAllowance",
      "outputs": [
        {
          "internalType": "bool",
          "name": "",
          "type": "bool"
        }
      ],
      "stateMutability": "nonpayable",
      "type": "function"
    },
    {
      "inputs": [],
      "name": "getChainId",
      "outputs": [
        {
          "internalType": "uint256",
          "name": "",
          "type": "uint256"
        }
      ],
      "stateMutability": "view",
      "type": "function"
    },
    {
      "inputs": [
        {
          "internalType": "address",
          "name": "spender",
          "type": "address"
        },
        {
          "internalType": "uint256",
          "name": "addedValue",
          "type": "uint256"
        }
      ],
      "name": "increaseAllowance",
      "outputs": [
        {
          "internalType": "bool",
          "name": "",
          "type": "bool"
        }
      ],
      "stateMutability": "nonpayable",
      "type": "function"
    },
    {
      "inputs": [],
      "name": "name",
      "outputs": [
        {
          "internalType": "string",
          "name": "",
          "type": "string"
        }
      ],
      "stateMutability": "view",
      "type": "function"
    },
    {
      "inputs": [
        {
          "internalType": "address",
          "name": "owner",
          "type": "address"
        }
      ],
      "name": "nonces",
      "outputs": [
        {
          "internalType": "uint256",
          "name": "",
          "type": "uint256"
        }
      ],
      "stateMutability": "view",
      "type": "function"
    },
    {
      "inputs": [
        {
          "internalType": "address",
          "name": "owner",
          "type": "address"
        },
        {
          "internalType": "address",
          "name": "spender",
          "type": "address"
        },
        {
          "internalType": "uint256",
          "name": "value",
          "type": "uint256"
        },
        {
          "internalType": "uint256",
          "name": "deadline",
          "type": "uint256"
        },
        {
          "internalType": "uint8",
          "name": "v",
          "type": "uint8"
        },
        {
          "internalType": "bytes32",
          "name": "r",
          "type": "bytes32"
        },
        {
          "internalType": "bytes32",
          "name": "s",
          "type": "bytes32"
        }
      ],
      "name": "permit",
      "outputs": [],
      "stateMutability": "nonpayable",
      "type": "function"
    },
    {
      "inputs": [],
      "name": "symbol",
      "outputs": [
        {
          "internalType": "string",
          "name": "",
          "type": "string"
        }
      ],
      "stateMutability": "view",
      "type": "function"
    },
    {
      "inputs": [],
      "name": "totalSupply",
      "outputs": [
        {
          "internalType": "uint256",
          "name": "",
          "type": "uint256"
        }
      ],
      "stateMutability": "view",
      "type": "function"
    },
    {
      "inputs": [
        {
          "internalType": "address",
          "name": "to",
          "type": "address"
        },
        {
          "internalType": "uint256",
          "name": "amount",
          "type": "uint256"
        }
      ],
      "name": "transfer",
      "outputs": [
        {
          "internalType": "bool",
          "name": "",
          "type": "bool"
        }
      ],
      "stateMutability": "nonpayable",
      "type": "function"
    },
    {
      "inputs": [
        {
          "internalType": "address",
          "name": "from",
          "type": "address"
        },
        {
          "internalType": "address",
          "name": "to",
          "type": "address"
        },
        {
          "internalType": "uint256",
          "name": "amount",
          "type": "uint256"
        }
      ],
      "name": "transferFrom",
      "outputs": [
        {
          "internalType": "bool",
          "name": "",
          "type": "bool"
        }
      ],
      "stateMutability": "nonpayable",
      "type": "function"
    }
  ],
  "bytecode": "0x610140604052604051620029273803806200292783398181016040528101906200002a919062000608565b83806040518060400160405280600181526020017f3100000000000000000000000000000000000000000000000000000000000000815250868681600390805190602001906200007c9291906200031b565b508060049080519060200190620000959291906200031b565b50505060008280519060200120905060008280519060200120905060007f8b73c3c69bb8fe3d512ecc4cf759cc79239f7b179b0ffacaa9a75d522b39400f90508260e081815250508161010081815250504660a08181525050620001018184846200016760201b60201c565b608081815250503073ffffffffffffffffffffffffffffffffffffffff1660c08173ffffffffffffffffffffffffffffffffffffffff16815250508061012081815250505050505050506200015d8282620001a360201b60201c565b50505050620008e3565b6000838383463060405160200162000184959493929190620006f5565b6040516020818303038152906040528051906020012090509392505050565b600073ffffffffffffffffffffffffffffffffffffffff168273ffffffffffffffffffffffffffffffffffffffff16141562000216576040517f08c379a00000000000000000000000000000000000000000000000000000000081526004016200020d90620007b3565b60405180910390fd5b6200022a600083836200031160201b60201c565b80600260008282546200023e919062000804565b92505081905550806000808473ffffffffffffffffffffffffffffffffffffffff1673ffffffffffffffffffffffffffffffffffffffff168152602001908152602001600020600082825401925050819055508173ffffffffffffffffffffffffffffffffffffffff16600073ffffffffffffffffffffffffffffffffffffffff167fddf252ad1be2c89b69c2b068fc378daa952ba7f163c4a11628f55a4df523b3ef83604051620002f1919062000861565b60405180910390a36200030d600083836200031660201b60201c565b5050565b505050565b505050565b8280546200032990620008ad565b90600052602060002090601f0160209004810192826200034d576000855562000399565b82601f106200036857805160ff191683800117855562000399565b8280016001018555821562000399579182015b82811115620003985782518255916020019190600101906200037b565b5b509050620003a89190620003ac565b5090565b5b80821115620003c7576000816000905550600101620003ad565b5090565b6000604051905090565b600080fd5b600080fd5b600080fd5b600080fd5b6000601f19601f8301169050919050565b7f4e487b7100000000000000000000000000000000000000000000000000000000600052604160045260246000fd5b6200043482620003e9565b810181811067ffffffffffffffff82111715620004565762000455620003fa565b5b80604052505050565b60006200046b620003cb565b905062000479828262000429565b919050565b600067ffffffffffffffff8211156200049c576200049b620003fa565b5b620004a782620003e9565b9050602081019050919050565b60005b83811015620004d4578082015181840152602081019050620004b7565b83811115620004e4576000848401525b50505050565b600062000501620004fb846200047e565b6200045f565b90508281526020810184848401111562000520576200051f620003e4565b5b6200052d848285620004b4565b509392505050565b600082601f8301126200054d576200054c620003df565b5b81516200055f848260208601620004ea565b91505092915050565b600073ffffffffffffffffffffffffffffffffffffffff82169050919050565b6000620005958262000568565b9050919050565b620005a78162000588565b8114620005b357600080fd5b50565b600081519050620005c7816200059c565b92915050565b6000819050919050565b620005e281620005cd565b8114620005ee57600080fd5b50565b6000815190506200060281620005d7565b92915050565b60008060008060808587031215620006255762000624620003d5565b5b600085015167ffffffffffffffff811115620006465762000645620003da565b5b620006548782880162000535565b945050602085015167ffffffffffffffff811115620006785762000677620003da565b5b620006868782880162000535565b93505060406200069987828801620005b6565b9250506060620006ac87828801620005f1565b91505092959194509250565b6000819050919050565b620006cd81620006b8565b82525050565b620006de81620005cd565b82525050565b620006ef8162000588565b82525050565b600060a0820190506200070c6000830188620006c2565b6200071b6020830187620006c2565b6200072a6040830186620006c2565b620007396060830185620006d3565b620007486080830184620006e4565b9695505050505050565b600082825260208201905092915050565b7f45524332303a206d696e7420746f20746865207a65726f206164647265737300600082015250565b60006200079b601f8362000752565b9150620007a88262000763565b602082019050919050565b60006020820190508181036000830152620007ce816200078c565b9050919050565b7f4e487b7100000000000000000000000000000000000000000000000000000000600052601160045260246000fd5b60006200081182620005cd565b91506200081e83620005cd565b9250827fffffffffffffffffffffffffffffffffffffffffffffffffffffffffffffffff03821115620008565762000855620007d5565b5b828201905092915050565b6000602082019050620008786000830184620006d3565b92915050565b7f4e487b7100000000000000000000000000000000000000000000000000000000600052602260045260246000fd5b60006002820490506001821680620008c657607f821691505b60208210811415620008dd57620008dc6200087e565b5b50919050565b60805160a05160c05160e0516101005161012051611ff4620009336000396000610da101526000610de301526000610dc201526000610cf701526000610d4d01526000610d760152611ff46000f3fe608060405234801561001057600080fd5b50600436106100f55760003560e01c80633950935111610097578063a457c2d711610066578063a457c2d71461029e578063a9059cbb146102ce578063d505accf146102fe578063dd62ed3e1461031a576100f5565b806339509351146101f057806370a08231146102205780637ecebe001461025057806395d89b4114610280576100f5565b806323b872dd116100d357806323b872dd14610166578063313ce567146101965780633408e470146101b45780633644e515146101d2576100f5565b806306fdde03146100fa578063095ea7b31461011857806318160ddd14610148575b600080fd5b61010261034a565b60405161010f91906112c6565b60405180910390f35b610132600480360381019061012d9190611381565b6103dc565b60405161013f91906113dc565b60405180910390f35b6101506103ff565b60405161015d9190611406565b60405180910390f35b610180600480360381019061017b9190611421565b610409565b60405161018d91906113dc565b60405180910390f35b61019e610438565b6040516101ab9190611490565b60405180910390f35b6101bc610441565b6040516101c99190611406565b60405180910390f35b6101da610449565b6040516101e791906114c4565b60405180910390f35b61020a60048036038101906102059190611381565b610458565b60405161021791906113dc565b60405180910390f35b61023a600480360381019061023591906114df565b61048f565b6040516102479190611406565b60405180910390f35b61026a600480360381019061026591906114df565b6104d7565b6040516102779190611406565b60405180910390f35b610288610527565b60405161029591906112c6565b60405180910390f35b6102b860048036038101906102b39190611381565b6105b9565b6040516102c591906113dc565b60405180910390f35b6102e860048036038101906102e39190611381565b610630565b6040516102f591906113dc565b60405180910390f35b61031860048036038101906103139190611564565b610653565b005b610334600480360381019061032f9190611606565b610795565b6040516103419190611406565b60405180910390f35b60606003805461035990611675565b80601f016020809104026020016040519081016040528092919081815260200182805461038590611675565b80156103d25780601f106103a7576101008083540402835291602001916103d2565b820191906000526020600020905b8154815290600101906020018083116103b557829003601f168201915b5050505050905090565b6000806103e761081c565b90506103f4818585610824565b600191505092915050565b6000600254905090565b60008061041461081c565b90506104218582856109ef565b61042c858585610a7b565b60019150509392505050565b60006012905090565b600046905090565b6000610453610cf3565b905090565b60008061046361081c565b90506104848185856104758589610795565b61047f91906116d6565b610824565b600191505092915050565b60008060008373ffffffffffffffffffffffffffffffffffffffff1673ffffffffffffffffffffffffffffffffffffffff168152602001908152602001600020549050919050565b6000610520600560008473ffffffffffffffffffffffffffffffffffffffff1673ffffffffffffffffffffffffffffffffffffffff168152602001908152602001600020610e0d565b9050919050565b60606004805461053690611675565b80601f016020809104026020016040519081016040528092919081815260200182805461056290611675565b80156105af5780601f10610584576101008083540402835291602001916105af565b820191906000526020600020905b81548152906001019060200180831161059257829003601f168201915b5050505050905090565b6000806105c461081c565b905060006105d28286610795565b905083811015610617576040517f08c379a000000000000000000000000000000000000000000000000000000000815260040161060e9061179e565b60405180910390fd5b6106248286868403610824565b60019250505092915050565b60008061063b61081c565b9050610648818585610a7b565b600191505092915050565b83421115610696576040517f08c379a000000000000000000000000000000000000000000000000000000000815260040161068d9061180a565b60405180910390fd5b60007f6e71edae12b1b97f4d1f60370fef10105fa2faae0126114a169c64845d6126c98888886106c58c610e1b565b896040516020016106db96959493929190611839565b60405160208183030381529060405280519060200120905060006106fe82610e79565b9050600061070e82878787610e93565b90508973ffffffffffffffffffffffffffffffffffffffff168173ffffffffffffffffffffffffffffffffffffffff161461077e576040517f08c379a0000000000000000000000000000000000000000000000000000000008152600401610775906118e6565b60405180910390fd5b6107898a8a8a610824565b50505050505050505050565b6000600160008473ffffffffffffffffffffffffffffffffffffffff1673ffffffffffffffffffffffffffffffffffffffff16815260200190815260200160002060008373ffffffffffffffffffffffffffffffffffffffff1673ffffffffffffffffffffffffffffffffffffffff16815260200190815260200160002054905092915050565b600033905090565b600073ffffffffffffffffffffffffffffffffffffffff168373ffffffffffffffffffffffffffffffffffffffff161415610894576040517f08c379a000000000000000000000000000000000000000000000000000000000815260040161088b90611978565b60405180910390fd5b600073ffffffffffffffffffffffffffffffffffffffff168273ffffffffffffffffffffffffffffffffffffffff161415610904576040517f08c379a00000000000000000000000000000000000000000000000000000000081526004016108fb90611a0a565b60405180910390fd5b80600160008573ffffffffffffffffffffffffffffffffffffffff1673ffffffffffffffffffffffffffffffffffffffff16815260200190815260200160002060008473ffffffffffffffffffffffffffffffffffffffff1673ffffffffffffffffffffffffffffffffffffffff168152602001908152602001600020819055508173ffffffffffffffffffffffffffffffffffffffff168373ffffffffffffffffffffffffffffffffffffffff167f8c5be1e5ebec7d5bd14f71427d1e84f3dd0314c0f7b2291e5b200ac8c7c3b925836040516109e29190611406565b60405180910390a3505050565b60006109fb8484610795565b90507fffffffffffffffffffffffffffffffffffffffffffffffffffffffffffffffff8114610a755781811015610a67576040517f08c379a0000000000000000000000000000000000000000000000000000000008152600401610a5e90611a76565b60405180910390fd5b610a748484848403610824565b5b50505050565b600073ffffffffffffffffffffffffffffffffffffffff168373ffffffffffffffffffffffffffffffffffffffff161415610aeb576040517f08c379a0000000000000000000000000000000000000000000000000000000008152600401610ae290611b08565b60405180910390fd5b600073ffffffffffffffffffffffffffffffffffffffff168273ffffffffffffffffffffffffffffffffffffffff161415610b5b576040517f08c379a0000000000000000000000000000000000000000000000000000000008152600401610b5290611b9a565b60405180910390fd5b610b66838383610ebe565b60008060008573ffffffffffffffffffffffffffffffffffffffff1673ffffffffffffffffffffffffffffffffffffffff16815260200190815260200160002054905081811015610bec576040517f08c379a0000000000000000000000000000000000000000000000000000000008152600401610be390611c2c565b60405180910390fd5b8181036000808673ffffffffffffffffffffffffffffffffffffffff1673ffffffffffffffffffffffffffffffffffffffff16815260200190815260200160002081905550816000808573ffffffffffffffffffffffffffffffffffffffff1673ffffffffffffffffffffffffffffffffffffffff168152602001908152602001600020600082825401925050819055508273ffffffffffffffffffffffffffffffffffffffff168473ffffffffffffffffffffffffffffffffffffffff167fddf252ad1be2c89b69c2b068fc378daa952ba7f163c4a11628f55a4df523b3ef84604051610cda9190611406565b60405180910390a3610ced848484610ec3565b50505050565b60007f000000000000000000000000000000000000000000000000000000000000000073ffffffffffffffffffffffffffffffffffffffff163073ffffffffffffffffffffffffffffffffffffffff16148015610d6f57507f000000000000000000000000000000000000000000000000000000000000000046145b15610d9c577f00000000000000000000000000000000000000000000000000000000000000009050610e0a565b610e077f00000000000000000000000000000000000000000000000000000000000000007f00000000000000000000000000000000000000000000000000000000000000007f0000000000000000000000000000000000000000000000000000000000000000610ec8565b90505b90565b600081600001549050919050565b600080600560008473ffffffffffffffffffffffffffffffffffffffff1673ffffffffffffffffffffffffffffffffffffffff1681526020019081526020016000209050610e6881610e0d565b9150610e7381610f02565b50919050565b6000610e8c610e86610cf3565b83610f18565b9050919050565b6000806000610ea487878787610f4b565b91509150610eb181611058565b8192505050949350505050565b505050565b505050565b60008383834630604051602001610ee3959493929190611c4c565b6040516020818303038152906040528051906020012090509392505050565b6001816000016000828254019250508190555050565b60008282604051602001610f2d929190611d17565b60405160208183030381529060405280519060200120905092915050565b6000807f7fffffffffffffffffffffffffffffff5d576e7357a4501ddfe92f46681b20a08360001c1115610f8657600060039150915061104f565b601b8560ff1614158015610f9e5750601c8560ff1614155b15610fb057600060049150915061104f565b600060018787878760405160008152602001604052604051610fd59493929190611d4e565b6020604051602081039080840390855afa158015610ff7573d6000803e3d6000fd5b505050602060405103519050600073ffffffffffffffffffffffffffffffffffffffff168173ffffffffffffffffffffffffffffffffffffffff1614156110465760006001925092505061104f565b80600092509250505b94509492505050565b6000600481111561106c5761106b611d93565b5b81600481111561107f5761107e611d93565b5b141561108a5761122a565b6001600481111561109e5761109d611d93565b5b8160048111156110b1576110b0611d93565b5b14156110f2576040517f08c379a00000000000000000000000000000000000000000000000000000000081526004016110e990611e0e565b60405180910390fd5b6002600481111561110657611105611d93565b5b81600481111561111957611118611d93565b5b141561115a576040517f08c379a000000000000000000000000000000000000000000000000000000000815260040161115190611e7a565b60405180910390fd5b6003600481111561116e5761116d611d93565b5b81600481111561118157611180611d93565b5b14156111c2576040517f08c379a00000000000000000000000000000000000000000000000000000000081526004016111b990611f0c565b60405180910390fd5b6004808111156111d5576111d4611d93565b5b8160048111156111e8576111e7611d93565b5b1415611229576040517f08c379a000000000000000000000000000000000000000000000000000000000815260040161122090611f9e565b60405180910390fd5b5b50565b600081519050919050565b600082825260208201905092915050565b60005b8381101561126757808201518184015260208101905061124c565b83811115611276576000848401525b50505050565b6000601f19601f8301169050919050565b60006112988261122d565b6112a28185611238565b93506112b2818560208601611249565b6112bb8161127c565b840191505092915050565b600060208201905081810360008301526112e0818461128d565b905092915050565b600080fd5b600073ffffffffffffffffffffffffffffffffffffffff82169050919050565b6000611318826112ed565b9050919050565b6113288161130d565b811461133357600080fd5b50565b6000813590506113458161131f565b92915050565b6000819050919050565b61135e8161134b565b811461136957600080fd5b50565b60008135905061137b81611355565b92915050565b60008060408385031215611398576113976112e8565b5b60006113a685828601611336565b92505060206113b78582860161136c565b9150509250929050565b60008115159050919050565b6113d6816113c1565b82525050565b60006020820190506113f160008301846113cd565b92915050565b6114008161134b565b82525050565b600060208201905061141b60008301846113f7565b92915050565b60008060006060848603121561143a576114396112e8565b5b600061144886828701611336565b935050602061145986828701611336565b925050604061146a8682870161136c565b9150509250925092565b600060ff82169050919050565b61148a81611474565b82525050565b60006020820190506114a56000830184611481565b92915050565b6000819050919050565b6114be816114ab565b82525050565b60006020820190506114d960008301846114b5565b92915050565b6000602082840312156114f5576114f46112e8565b5b600061150384828501611336565b91505092915050565b61151581611474565b811461152057600080fd5b50565b6000813590506115328161150c565b92915050565b611541816114ab565b811461154c57600080fd5b50565b60008135905061155e81611538565b92915050565b600080600080600080600060e0888a031215611583576115826112e8565b5b60006115918a828b01611336565b97505060206115a28a828b01611336565b96505060406115b38a828b0161136c565b95505060606115c48a828b0161136c565b94505060806115d58a828b01611523565b93505060a06115e68a828b0161154f565b92505060c06115f78a828b0161154f565b91505092959891949750929550565b6000806040838503121561161d5761161c6112e8565b5b600061162b85828601611336565b925050602061163c85828601611336565b9150509250929050565b7f4e487b7100000000000000000000000000000000000000000000000000000000600052602260045260246000fd5b6000600282049050600182168061168d57607f821691505b602082108114156116a1576116a0611646565b5b50919050565b7f4e487b7100000000000000000000000000000000000000000000000000000000600052601160045260246000fd5b60006116e18261134b565b91506116ec8361134b565b9250827fffffffffffffffffffffffffffffffffffffffffffffffffffffffffffffffff03821115611721576117206116a7565b5b828201905092915050565b7f45524332303a2064656372656173656420616c6c6f77616e63652062656c6f7760008201527f207a65726f000000000000000000000000000000000000000000000000000000602082015250565b6000611788602583611238565b91506117938261172c565b604082019050919050565b600060208201905081810360008301526117b78161177b565b9050919050565b7f45524332305065726d69743a206578706972656420646561646c696e65000000600082015250565b60006117f4601d83611238565b91506117ff826117be565b602082019050919050565b60006020820190508181036000830152611823816117e7565b9050919050565b6118338161130d565b82525050565b600060c08201905061184e60008301896114b5565b61185b602083018861182a565b611868604083018761182a565b61187560608301866113f7565b61188260808301856113f7565b61188f60a08301846113f7565b979650505050505050565b7f45524332305065726d69743a20696e76616c6964207369676e61747572650000600082015250565b60006118d0601e83611238565b91506118db8261189a565b602082019050919050565b600060208201905081810360008301526118ff816118c3565b9050919050565b7f45524332303a20617070726f76652066726f6d20746865207a65726f2061646460008201527f7265737300000000000000000000000000000000000000000000000000000000602082015250565b6000611962602483611238565b915061196d82611906565b604082019050919050565b6000602082019050818103600083015261199181611955565b9050919050565b7f45524332303a20617070726f766520746f20746865207a65726f20616464726560008201527f7373000000000000000000000000000000000000000000000000000000000000602082015250565b60006119f4602283611238565b91506119ff82611998565b604082019050919050565b60006020820190508181036000830152611a23816119e7565b9050919050565b7f45524332303a20696e73756666696369656e7420616c6c6f77616e6365000000600082015250565b6000611a60601d83611238565b9150611a6b82611a2a565b602082019050919050565b60006020820190508181036000830152611a8f81611a53565b9050919050565b7f45524332303a207472616e736665722066726f6d20746865207a65726f20616460008201527f6472657373000000000000000000000000000000000000000000000000000000602082015250565b6000611af2602583611238565b9150611afd82611a96565b604082019050919050565b60006020820190508181036000830152611b2181611ae5565b9050919050565b7f45524332303a207472616e7366657220746f20746865207a65726f206164647260008201527f6573730000000000000000000000000000000000000000000000000000000000602082015250565b6000611b84602383611238565b9150611b8f82611b28565b604082019050919050565b60006020820190508181036000830152611bb381611b77565b9050919050565b7f45524332303a207472616e7366657220616d6f756e742065786365656473206260008201527f616c616e63650000000000000000000000000000000000000000000000000000602082015250565b6000611c16602683611238565b9150611c2182611bba565b604082019050919050565b60006020820190508181036000830152611c4581611c09565b9050919050565b600060a082019050611c6160008301886114b5565b611c6e60208301876114b5565b611c7b60408301866114b5565b611c8860608301856113f7565b611c95608083018461182a565b9695505050505050565b600081905092915050565b7f1901000000000000000000000000000000000000000000000000000000000000600082015250565b6000611ce0600283611c9f565b9150611ceb82611caa565b600282019050919050565b6000819050919050565b611d11611d0c826114ab565b611cf6565b82525050565b6000611d2282611cd3565b9150611d2e8285611d00565b602082019150611d3e8284611d00565b6020820191508190509392505050565b6000608082019050611d6360008301876114b5565b611d706020830186611481565b611d7d60408301856114b5565b611d8a60608301846114b5565b95945050505050565b7f4e487b7100000000000000000000000000000000000000000000000000000000600052602160045260246000fd5b7f45434453413a20696e76616c6964207369676e61747572650000000000000000600082015250565b6000611df8601883611238565b9150611e0382611dc2565b602082019050919050565b60006020820190508181036000830152611e2781611deb565b9050919050565b7f45434453413a20696e76616c6964207369676e6174757265206c656e67746800600082015250565b6000611e64601f83611238565b9150611e6f82611e2e565b602082019050919050565b60006020820190508181036000830152611e9381611e57565b9050919050565b7f45434453413a20696e76616c6964207369676e6174757265202773272076616c60008201527f7565000000000000000000000000000000000000000000000000000000000000602082015250565b6000611ef6602283611238565b9150611f0182611e9a565b604082019050919050565b60006020820190508181036000830152611f2581611ee9565b9050919050565b7f45434453413a20696e76616c6964207369676e6174757265202776272076616c60008201527f7565000000000000000000000000000000000000000000000000000000000000602082015250565b6000611f88602283611238565b9150611f9382611f2c565b604082019050919050565b60006020820190508181036000830152611fb781611f7b565b905091905056fea2646970667358221220a54d30f85f2a4283dcc33b05bd562b37d866d14ae6084a0b58006540d9583b2b64736f6c63430008090033",
  "linkReferences": {},
  "deployedLinkReferences": {}
}