{
  "_format": "hh-sol-artifact-1",
  "contractName": "ClonesMock",
  "sourceName": "contracts/openzeppelin-contracts/mocks/ClonesMock.sol",
  "abi": [
    {
      "anonymous": false,
      "inputs": [
        {
          "indexed": false,
          "internalType": "address",
          "name": "instance",
          "type": "address"
        }
      ],
      "name": "NewInstance",
      "type": "event"
    },
    {
      "inputs": [
        {
          "internalType": "address",
          "name": "implementation",
          "type": "address"
        },
        {
          "internalType": "bytes",
          "name": "initdata",
          "type": "bytes"
        }
      ],
      "name": "clone",
      "outputs": [],
      "stateMutability": "payable",
      "type": "function"
    },
    {
      "inputs": [
        {
          "internalType": "address",
          "name": "implementation",
          "type": "address"
        },
        {
          "internalType": "bytes32",
          "name": "salt",
          "type": "bytes32"
        },
        {
          "internalType": "bytes",
          "name": "initdata",
          "type": "bytes"
        }
      ],
      "name": "cloneDeterministic",
      "outputs": [],
      "stateMutability": "payable",
      "type": "function"
    },
    {
      "inputs": [
        {
          "internalType": "address",
          "name": "implementation",
          "type": "address"
        },
        {
          "internalType": "bytes32",
          "name": "salt",
          "type": "bytes32"
        }
      ],
      "name": "predictDeterministicAddress",
      "outputs": [
        {
          "internalType": "address",
          "name": "predicted",
          "type": "address"
        }
      ],
      "stateMutability": "view",
      "type": "function"
    }
  ],
  "bytecode": "0x608060405234801561001057600080fd5b50610bf5806100206000396000f3fe6080604052600436106100345760003560e01c80630fbe133c14610039578063360d0fad146100555780636e9ebc8114610092575b600080fd5b610053600480360381019061004e9190610733565b6100ae565b005b34801561006157600080fd5b5061007c600480360381019061007791906107c9565b61011f565b6040516100899190610818565b60405180910390f35b6100ac60048036038101906100a79190610833565b610152565b005b61011a6100d08473ffffffffffffffffffffffffffffffffffffffff166101ce565b83838080601f016020809104026020016040519081016040528093929190818152602001838380828437600081840152601f19601f820116905080830192505050505050506102a3565b505050565b600061014a828473ffffffffffffffffffffffffffffffffffffffff1661031590919063ffffffff16565b905092915050565b6101c861017e848673ffffffffffffffffffffffffffffffffffffffff1661032a90919063ffffffff16565b83838080601f016020809104026020016040519081016040528093929190818152602001838380828437600081840152601f19601f820116905080830192505050505050506102a3565b50505050565b60006040517f3d602d80600a3d3981f3363d3d373d3d3d363d7300000000000000000000000081528260601b60148201527f5af43d82803e903d91602b57fd5bf3000000000000000000000000000000000060288201526037816000f0915050600073ffffffffffffffffffffffffffffffffffffffff168173ffffffffffffffffffffffffffffffffffffffff16141561029e576040517f08c379a000000000000000000000000000000000000000000000000000000000815260040161029590610904565b60405180910390fd5b919050565b6000815111156102da576102d881348473ffffffffffffffffffffffffffffffffffffffff166104019092919063ffffffff16565b505b7f39a773f10839d86923d91d5ce7d6642f2f63a95d850495abb1f162e38aa04ea5826040516103099190610818565b60405180910390a15050565b6000610322838330610430565b905092915050565b60006040517f3d602d80600a3d3981f3363d3d373d3d3d363d7300000000000000000000000081528360601b60148201527f5af43d82803e903d91602b57fd5bf300000000000000000000000000000000006028820152826037826000f5915050600073ffffffffffffffffffffffffffffffffffffffff168173ffffffffffffffffffffffffffffffffffffffff1614156103fb576040517f08c379a00000000000000000000000000000000000000000000000000000000081526004016103f290610970565b60405180910390fd5b92915050565b6060610427848484604051806060016040528060298152602001610b97602991396104b0565b90509392505050565b60006040517f3d602d80600a3d3981f3363d3d373d3d3d363d7300000000000000000000000081528460601b60148201527f5af43d82803e903d91602b57fd5bf3ff0000000000000000000000000000000060288201528260601b603882015283604c82015260378120606c820152605560378201209150509392505050565b6060824710156104f5576040517f08c379a00000000000000000000000000000000000000000000000000000000081526004016104ec90610a02565b60405180910390fd5b6000808673ffffffffffffffffffffffffffffffffffffffff16858760405161051e9190610a9c565b60006040518083038185875af1925050503d806000811461055b576040519150601f19603f3d011682016040523d82523d6000602084013e610560565b606091505b50915091506105718783838761057d565b92505050949350505050565b606083156105e0576000835114156105d857610598856105f3565b6105d7576040517f08c379a00000000000000000000000000000000000000000000000000000000081526004016105ce90610aff565b60405180910390fd5b5b8290506105eb565b6105ea8383610616565b5b949350505050565b6000808273ffffffffffffffffffffffffffffffffffffffff163b119050919050565b6000825111156106295781518083602001fd5b806040517f08c379a000000000000000000000000000000000000000000000000000000000815260040161065d9190610b74565b60405180910390fd5b600080fd5b600080fd5b600073ffffffffffffffffffffffffffffffffffffffff82169050919050565b600061069b82610670565b9050919050565b6106ab81610690565b81146106b657600080fd5b50565b6000813590506106c8816106a2565b92915050565b600080fd5b600080fd5b600080fd5b60008083601f8401126106f3576106f26106ce565b5b8235905067ffffffffffffffff8111156107105761070f6106d3565b5b60208301915083600182028301111561072c5761072b6106d8565b5b9250929050565b60008060006040848603121561074c5761074b610666565b5b600061075a868287016106b9565b935050602084013567ffffffffffffffff81111561077b5761077a61066b565b5b610787868287016106dd565b92509250509250925092565b6000819050919050565b6107a681610793565b81146107b157600080fd5b50565b6000813590506107c38161079d565b92915050565b600080604083850312156107e0576107df610666565b5b60006107ee858286016106b9565b92505060206107ff858286016107b4565b9150509250929050565b61081281610690565b82525050565b600060208201905061082d6000830184610809565b92915050565b6000806000806060858703121561084d5761084c610666565b5b600061085b878288016106b9565b945050602061086c878288016107b4565b935050604085013567ffffffffffffffff81111561088d5761088c61066b565b5b610899878288016106dd565b925092505092959194509250565b600082825260208201905092915050565b7f455243313136373a20637265617465206661696c656400000000000000000000600082015250565b60006108ee6016836108a7565b91506108f9826108b8565b602082019050919050565b6000602082019050818103600083015261091d816108e1565b9050919050565b7f455243313136373a2063726561746532206661696c6564000000000000000000600082015250565b600061095a6017836108a7565b915061096582610924565b602082019050919050565b600060208201905081810360008301526109898161094d565b9050919050565b7f416464726573733a20696e73756666696369656e742062616c616e636520666f60008201527f722063616c6c0000000000000000000000000000000000000000000000000000602082015250565b60006109ec6026836108a7565b91506109f782610990565b604082019050919050565b60006020820190508181036000830152610a1b816109df565b9050919050565b600081519050919050565b600081905092915050565b60005b83811015610a56578082015181840152602081019050610a3b565b83811115610a65576000848401525b50505050565b6000610a7682610a22565b610a808185610a2d565b9350610a90818560208601610a38565b80840191505092915050565b6000610aa88284610a6b565b915081905092915050565b7f416464726573733a2063616c6c20746f206e6f6e2d636f6e7472616374000000600082015250565b6000610ae9601d836108a7565b9150610af482610ab3565b602082019050919050565b60006020820190508181036000830152610b1881610adc565b9050919050565b600081519050919050565b6000601f19601f8301169050919050565b6000610b4682610b1f565b610b5081856108a7565b9350610b60818560208601610a38565b610b6981610b2a565b840191505092915050565b60006020820190508181036000830152610b8e8184610b3b565b90509291505056fe416464726573733a206c6f772d6c6576656c2063616c6c20776974682076616c7565206661696c6564a26469706673582212206ead44512d80ee931e91a0daac28251eba56cc76b282a199032d5aee13ef962664736f6c63430008090033",
  "linkReferences": {},
  "deployedLinkReferences": {}
}